:020000040000FA
:1000000000400020659B0100A19B0100A39B010013
:1000100000000000000000000000000000000000E0
:10002000000000000000000000000000A59B01008F
:100030000000000000000000A79B0100A99B010038
:10004000AB9B0100F96C00006D900100AB9B0100BF
:10005000AB9B010000000000FD960100AB9B01007E
:10006000FD020000018E01004D990100AB9B0100D3
:10007000AB9B0100AB9B0100AB9B0100AB9B010064
:10008000AB9B0100AB9B0100AB9B0100AB9B010054
:10009000AB9B010075890100418A01003904000011
:1000A00049040000AB9B01000000000000000000BC
:1000B0000000000000000000000000000000000040
:1000C00010B5064C2378002B07D1054B002B02D02E
:1000D000044800E000BF0123237010BD2001002070
:1000E00000000000F8800300044B10B5002B03D083
:1000F0000349044800E000BF10BDC04600000000F6
:1001000024010020F8800300164B002B00D1144B73
:100110009D46402292029A1A924600218B460F4633
:100120001348144A121A28F079F90F4B002B00D00B
:1001300098470E4B002B00D0984700200021040068
:100140000D000D48002802D00C4800E000BF1FF051
:10015000ABFE2000290027F01CFE1FF0F1FDC04679
:100160000000080000400020000000000000000027
:1001700018010020E02F0020000000000000000017
:1001800010B50C0022F088FC631E184207D0020054
:1001900023000349034814F0E3F803F007F910BD06
:1001A00026F50200A0DD020010B54A680249D2001F
:1001B00020F06BFE10BDC0464EF5020070B50B007E
:1001C00006001400101E0FD071681800042A0ED10A
:1001D000FFF7D6FF7368012B03D0022B05D0006810
:1001E00000E0007822F01BFC70BD0088FAE7FFF702
:1001F000C7FF0500200007F037FC726803000548C0
:10020000012A03D0022A03D02B60EDE72B70EBE725
:100210002B80E9E7E88C02008022044B52001A6030
:100220000123034A1360034A1360704700E100E0B2
:100230000C8C0040008000408022054B5200DA67A1
:10024000044BFF3A5A600022034B1A607047C046C5
:1002500004E100E0008000400C8C004070B50025F7
:1002600001261E4B1E4C1D601E4B18601E4BE65097
:10027000C046FFF7E1FF1D4B1D4AE660E250022237
:100280001C4BFF20E5500433E25008339218E25033
:10029000C12380229B001203E250053BFF3BE55047
:1002A000C2244022144BA400195981430A438021DF
:1002B0001A510C341A5909061202120A0A431A5129
:1002C000C0220434195981430A431A51802212046E
:1002D0001A60802252041A6070BDC046782E002039
:1002E000008000404C010020FC0F00004C05000085
:1002F000701700000405000000E100E070B51F4C1D
:100300001F4D636C002B0AD0002363641D4B1B68D8
:100310009847A823DB00EA5800018018E850A36C36
:10032000002B09D00023A364164B5B689847164B3B
:100330000001EA588018E850E36C002B0AD0002333
:10034000E364104B9B689847A923DB00EA5800013F
:100350008018E850236D002B0ED000230B4A236534
:10036000AB580B495B18AB500A4A1368063313604D
:100370008022094B12045A6070BDC046FC800040C8
:100380000080004004000020440500004C050000EF
:1003900070170000782E0020FCE100E0F7B5019115
:1003A000032823D8134B8000C758C223124D9B004B
:1003B000EF50012344192364A8230F210F4EDB00C3
:1003C0009C46E358AE59921BD218D3170B409A188B
:1003D00001990B4B1211C150C1239B00EF50634692
:1003E0000020013212019619E650FEBD0120404264
:1003F000FBE7C046048A0200008000404C05000074
:100400000400002003280BD8074B8000C158C223EA
:10041000064A9B00D150064B064AC2500020704746
:1004200001204042FBE7C046048A020000800040F1
:1004300004000020550B020010B5024B1B689847C2
:1004400010BDC0464C01002010B50024054AA10093
:100450008B58002B02D00020885098470134042C80
:10046000F4D110BD3C010020074A89008B58002BB5
:1004700006D1885080211800044A49045160704711
:1004800001204042FBE7C0463C010020FCE100E0C7
:1004900000B58BB013F02EF8684620F05EFB054BDC
:1004A000D968091A890812F0E1FF13F03BF80BB084
:1004B00000BDC046802E0020F0B5060087B000AF1A
:1004C0007B60F960BA600EF07BFDB06821F08FF8B8
:1004D0003861B06821F091F821F089F8032358437E
:1004E0003B69C01883001D007B6114352C2B2CD870
:1004F0006B460E35ED08ED005B1B9D4600236C46F8
:100500007B61002326606360BA687B68F96820001D
:1005100003F0C0FB154D00216B6820002361736858
:100520006B6004F0B1FE2369061E6B6013D1A368F3
:100530001D687B69002B04D0200020F05EFF002E98
:1005400011D12800BD4607B0F0BD280020F033FFD0
:10055000041ED6D1CCE73B6903339B00E3185D68EA
:100560007B69002BE8D1280002F020FF802E0020BC
:100570000122030030B5134085B004004510002B64
:1005800014D125491D00884210D0244988420DD03D
:10059000234B1500984209D00323034009D1214A77
:1005A0000168914205D122F077FA0500280005B0D4
:1005B00030BD1D4A25002240062A05D0002B08D157
:1005C0001A4B22689A4204D101A9200009F0D2F8FE
:1005D000EBE7200007F034F9154B984207D1FF23D1
:1005E000DB05E018032398431AF0CAFCDDE7114B42
:1005F000984202D0104B984206D101AA69462000C9
:1006000007F0A8FA019DD1E7022201A9200021F0FC
:10061000E2FD0028CAD0F5E7E88C020018DE0200EF
:1006200020DE02000C970200070080FF4CC602008B
:1006300004B30200849B020038980200F7B506005C
:100640000F0000920193041E00D044683800431E3E
:10065000984120180430800020F0A0FE0C4B0500CB
:1006600003600C4B5B684360009B8360019BC3602D
:10067000002E05D03100A2000831103027F0B2FE64
:10068000002F02D00434A40067512800FEBDC046EC
:100690004C8A0200802E002070B5060010200D004C
:1006A000140020F07BFE034B466085600360C4604D
:1006B00070BDC046108A0200F0B5802787B02B4D70
:1006C00002907F422C78002C1CD063B2002B12DAEF
:1006D0006E787C40E4B2002E14D0013CE4B2FF2CD2
:1006E00002D101350135EDE704AB981D01210670FB
:1006F00007F04AF8F1E704ABD81D0121047007F0B8
:1007000043F8EFE70527029821F031FD0124BC42B0
:1007100027DA0025164E2200290030000DF0D6F908
:100720006B4601901B79002B15D0631E1A0029001F
:10073000300003930DF0CAF9031E0CD122002900EA
:1007400030000DF08FF9FF22019B2900134030008B
:10075000621E0DF087F90135052DDBD10134E4B2BD
:10076000D5E7013F002FCED107B0F0BD5EF5020006
:100770001800002010B5C820FFF79EFF004810BDEC
:10078000E88C0200F0B587B0039205910D9A0399A9
:100790000500521A0CA9097820200C00844339D096
:1007A00030293BD00CA902910121802401911C40E9
:1007B00036D0D40FA4186410171B002C37DD260088
:1007C000019B0493B34200DD04966B68049A02997E
:1007D00028689847049BF61A002EF1DC039B002B37
:1007E00006D01A0005996B6828689847039BE4189F
:1007F000002F0CDDE419019EBE4200DD3E003200F8
:10080000029928686B689847BF1B002FF3DC200013
:1008100007B0F0BD074902911021C6E70649FAE783
:1008200001271F4001D11400C7E71700D6E70024B5
:10083000D4E7C0460EF602001FF60200F0B593B0F2
:100840001C0018AB20CB05901B780F0016000793F7
:10085000CB070BD48B0703D1854B0A689A4205D08E
:10086000380007F0D5F801274000074381231D42D7
:1008700009D1079B302B06D11A9B1B9A934200DAB1
:100880001A9200231B93380022F0A6F80AAA13003C
:10089000002806DBAB070FD52B231370123B04AAED
:1008A0009B18E1B2EA0615D5022E0CD130221A703F
:1008B0004A1C5A7002330DE013006A07F1D520225A
:1008C0001A701923EBE7082E3BD130221A70AA05C3
:1008D00034D4013300220AA81A701B1A2C20069364
:1008E000AB06DB1718400EAB0B9310230C931B9B2E
:1008F0000D92012B01DD40231D43402404ABDA752A
:100900002C400390029123D03B00019200960DAA47
:100910000CA90BA802F04EFC037807002D2B00D089
:100920008EE004AAD3750D9B1B9A013B01370D93F2
:10093000012A00DD97E00026340035E00A000E327F
:10094000B7E7102EC6D130221A700A001732B0E76E
:100950000AAB019300963B000DAA0CA90BA802F06C
:1009600029FC1B9B07002600012B1DDD0D9B1B9CFA
:100970009C4200DA1C001A9BA3425EDD01261C1B70
:100980002E4001D02600002401239D432F330793DE
:10099000002C09D0103B0093002301941A00354924
:1009A0000598FFF7EFFE04006B0621D5172104AB75
:1009B000C9180B78002B0AD0002301220093019262
:1009C0000598FFF7DFFE1A9B2418013B1A93069B3C
:1009D000002B0DD0012301930023069A00930AA94E
:1009E0000598FFF7CFFE1A9B069A24189B1A1A93B4
:1009F0001B9B012B01DC1A9B1B931B9B0D9A0193E4
:100A0000079B3900009305982B00FFF7BBFE2418C5
:100A1000002E09D020230093002301961A001549C7
:100A20000598FFF7AFFE24180B980EAB984201D043
:100A300020F0E3FC200013B0F0BD00263400A3E753
:100A40001B9B012B00DC76E70D9B1B9C9C4200DA74
:100A50001C00172304AA9B181B78002B00D001341C
:100A6000069BE41887E71B9C9C42F8DA1C00F6E71B
:100A70000C970200A40B0300F0B506001400002739
:100A80008DB00D002B78002B15D1A94217D30B7810
:100A9000002B00D148E14B1C049320230025302279
:100AA000082104200893049B1B78002B11D1069386
:100AB000013B07935FE0252BE7D00135E2E76B1A96
:100AC00004931A00306873689847049B2900FF1844
:100AD000DDE72D2B05D12C3B1D43049B01330493F3
:100AE000E1E72B2B01D1293BF6E7202B01D1054370
:100AF000F3E7212B01D10D43EFE7302B2CD110333D
:100B00001D430892E9E7069A4A43D318303B0693FF
:100B1000049B01330493049B1B781A00303A092A82
:100B2000F1D92E2B47D1049B5B782A2B18D0049B3C
:100B30000A210133049300230793049B1B781A00B6
:100B4000303A092A17D8079A4A43D318303B0793FB
:100B5000049B01330493F0E700230A210693DAE7AC
:100B6000049B02330493236804340793DB43079AFE
:100B7000DB171A400792049B1B786C3B5A42534187
:100B8000049AD31804931B780593002B00D1CBE073
:100B9000642B00D1A1E022D8502B29D00ED8453BA0
:100BA000022B00D8A9E001220499306873689847A5
:100BB0000137099452E001235B427AE7059B622BDF
:100BC0003CD057D8582BEED1231D0993069B019595
:100BD0000393089B029341230093313B7BE0059BE9
:100BE000712B53D00FD8672B00D886E0702BDAD149
:100BF000231D0993069B01950393089B0293612390
:100C00000093513B67E0059B752B5AD0782BEFD0B2
:100C1000732BC8D1231D24680993002C49D0079B4E
:100C2000013303D1200027F01FFC0790069B079A91
:100C30000193089B210000932B000BE0231D0993D7
:100C40002368002B0ED0069B04220193089B384991
:100C500000932B003000FFF795FD3F180499099C85
:100C600001310EE7069B05220193089B3149009351
:100C70002B00EFE7231D099323680BA90B70069B3C
:100C800001220193089B00932B00E3E7231D0BA98E
:100C90002068099321F056FF079B0100013301D121
:100CA0000B9B0793069B079A0193089B00932B00CD
:100CB000D0E7069B06220193089B1F4900932B0057
:100CC000C8E7231D0993069B01950393089B029394
:100CD00061230093573B00220AE0231D0993069BE2
:100CE00001220393089B0195029361230093573BD4
:100CF0002168300020F017F8AFE7072307349C4342
:100D0000230020686168083309931BF085FF079B67
:100D1000011C0293069B059A0193089B30000093E7
:100D20002B0020F06DF898E738000DB0F0BDC046FC
:100D3000FCF5020001F6020007F6020010B50400FF
:100D4000431C02D0024813F069FB024B1C6010BD2B
:100D5000A82E00207C2E0020014B024A9A64704786
:100D6000802E0020A82E002070B50D0006F0B4FEE5
:100D7000041C280006F0B0FE211C19F027FF051CFA
:100D800020F08EF8011C281C19F0EEFD211C19F032
:100D900079FA0323020002209A43024B1043C01841
:100DA00070BDC0460000808010B520F079F80323A4
:100DB000020002209A43024B1043C01810BDC046E7
:100DC0000000808010B5074C002802D00868A042BF
:100DD00003D115F08BF9200010BD06F045FE15F08B
:100DE000A5F9F8E7E88C020010B5040006F082FFD0
:100DF00006F00EFE002803DC0021064824F0B3FCB8
:100E000015F04EF921F00BFE04220100200006F03F
:100E100087FF10BD1CDA0200F0B5060000248BB07D
:100E2000194B1A48E15806F039FB03AFE05104347E
:100E30001C2CF5D114230024734301930025AB002F
:100E4000F958134822F08DFF0135300021F08FF959
:100E5000072DF4D1013DAB000D48F95822F081FF78
:100E6000300021F084F9013DF5D20134082C03D182
:100E70000CF0D8FD0BB0F0BD01231C42DED101986F
:100E800021F075F9DAE7C046B48C02006C910200DB
:100E90001800002010B51920FFF7BEFF004810BD54
:100EA000E88C0200054B10B59A6C002A04D0002291
:100EB000986C9A6402F07AFA10BDC046802E002029
:100EC0000F2310B51940012908D00300002909D0CB
:100ED000022909D121F0A3FD030003E0044B0028FF
:100EE00000D1044B180010BD21F0B4FDF4E7C0465A
:100EF00020DE020018DE0200F0B585B00C0008F01C
:100F000003F803AA070002A9200006F023FE029EB0
:100F1000039B35001035AD002800019320F03EFA08
:100F200004002C221030002127F078FA6760270097
:100F3000104BE6632360104B019EA3600F4B403DB6
:100F4000E3600F4B403763610E4B7519A3610E4B85
:100F5000E3610E4B23620E4B63620E4B6363AE4242
:100F600002D1200005B0F0BD01CE07F0CDFF01C7D2
:100F7000F5E7C0465CD00200990F0000F90F0000B1
:100F8000454E0000DD4E0000BD0F0000DD4F0000AB
:100F9000D14D0000849B020070B50C0005000B6869
:100FA00005495A681FF071FF21682800403122006E
:100FB00003F0E0FE70BDC046FF750300136870B516
:100FC000002B10D10568EE6BB34200D170BD9C00C0
:100FD0002C19246CA14201D00133F5E702339B00A8
:100FE0001B581360F2E70249024824F0BCFBC046DC
:100FF00030F6020078D80200F0B51700C26B85B059
:10100000CE19050001910393964206D0330025497D
:10101000254813F0A5F902F0C9F90021300003F0CA
:101020003FFF0400019B05609B001A0003990830F4
:10103000029327F0D7F90298BA000830201800214F
:1010400027F0ECF9029A039B94466344F7191E00BB
:10105000019BBB4202D3200005B0F0BD306807F011
:1010600053FF00210200EB6B0293029B994204D1D3
:101070000E490D4813F074F9CDE78B00E818006CA9
:10108000824201D00131F0E7E3189968002901D0CC
:101090000749EEE7726808369A60019B02330193B4
:1010A000D6E7C04644F6020028DD02007DF60200C5
:1010B0009EF6020010B502491FF026FE10BDC04684
:1010C000CDF6020010B5034B186825F020FE21F084
:1010D000A6FC10BD8829002010B5034B186825F028
:1010E0001DFE21F09CFC10BD8829002010B5034B8B
:1010F000186825F01AFE21F092FC10BD8829002006
:101100001FB50021032003F0CBFE0A4B0400196831
:1011100001A825F0EFFD019821F081FCA060029864
:1011200021F07DFCE060039821F079FC2061200033
:1011300004B010BD8829002010B507F0E5FE00239B
:10114000064A99008958814205D001330C2BF8D109
:10115000034811F087FC180010BDC046B88D02008E
:10116000D2F60200094A70B51378002B0DD1084D54
:101170002C78E4B2002C08D1013313702B70054B8E
:10118000186803685B6898472C7070BDC62D0020F6
:10119000C72D00208829002010B5FFF7E3FF054B7D
:1011A000186825F0E3FD044B8000C3580620DB00DF
:1011B000184310BD88290020B88D020010B5080022
:1011C000FFF7BAFF0400FFF7CDFF054B186825F0C5
:1011D000CDFD044BA04200D0034B180010BDC0460B
:1011E0008829002020DE020018DE020010B5080069
:1011F000FFF7A2FF0400FFF7B5FF0123A340064A53
:10120000064811880B4200D1054811889943118086
:101210000022044B1A7010BDBC2D002020DE0200FD
:1012200018DE0200D02D0020F8B5FFF79BFF134C0D
:1012300013482378002B1FD020780021C0B203F080
:101240002FFE012600220F4F2378934212D915005A
:101250005308FB5C3540AD002B410F252B400A4D58
:101260009B005B5906259100DB0041182B438B60E6
:101270000132E9E700232370F8BDC046D02D0020DD
:101280007C9B0200C82D0020B88D020070B54388F9
:101290005A1E0A2A1FD801252A009A400F49088899
:1012A000024392B20E480A8002780F2A13D80278BD
:1012B0000C4CEA40A25C0678D2B20F212E420BD031
:1012C0000A401B0113430278DBB25208A35403788F
:1012D0000133DBB2037070BD8A43F3E7BC2D0020FD
:1012E000D02D0020C82D0020F0B585B005001600D7
:1012F000080003AB02AA01A924F0D8FF0398364FD7
:10130000B84209D0032807D006F082FBB06000285D
:1013100004D1324811F0A6FB0123B3600198B84212
:1013200029D10024B368A34200DC6C1E0298B842A5
:1013300025D1B368002B47DD2800002C2ADA641978
:1013400001D5B368DC17002834DA401901D5012033
:101350004042B368002B00DA0130B368002B2DDD6A
:10136000A04200DA2000013B706058425841C0B2F0
:10137000346005B0F0BD06F04BFB0400D6E706F084
:1013800047FBB368002801DBDA0F8018002CD6DB9E
:10139000002B03DDAC42D6D92C00D4E7002BD2D0F1
:1013A000A54200D86C1E002804DA4019D4D50120CB
:1013B0004042D1E7A842D0D92800CEE7002BD2D0B6
:1013C000A042D0DD601CCEE7002C01DA0020B6E799
:1013D00000208342E4D1C0E7E88C0200E2F602007C
:1013E000F0B5060085B017001B2805D10A9A974270
:1013F00009D0002005B0F0BD19281AD01C281AD039
:101400000A9A0A9717001A000B0011000A9A019213
:10141000BA4200D901971D000C0000230093009BE5
:10142000019A934209D10A9BBB4220D0E1D301200B
:10143000E0E71A26EAE71D26E8E70295039401CDC6
:1014400002CC06F093FA002802D0009B0133E5E7B6
:101450001B2ECED0039B30001A68029B196811F036
:1014600009FB044BC01A43425841C0B2C2E71A2ECE
:10147000DDD1BEE720DE0200F0B51E0085B003908E
:1014800018680D00170006F0DBF9736801900293ED
:101490000024022F0ED90123B268290006F090FB28
:1014A0000400032F06D029000123F268019806F0FA
:1014B00087FB0500A54202D8084811F0D3FA039A29
:1014C000A3000299D05806F051FA002801D1013446
:1014D000F0E701206400204305B0F0BDFCF60200F7
:1014E0000023820708D10068044A0133904203D0E8
:1014F000034BC01A4342434118007047F48E020068
:10150000B88E0200044B88600B60044B08004B60EF
:101510000023CB607047C04658CC02004711020040
:1015200030B585B005000800694610F06BFE040078
:10153000200010F0C9FE011E02D1064805B030BDE2
:101540002B1D0022180020F0F2F80028F0D00248ED
:10155000F4E7C04620DE020018DE020070B5050088
:1015600010201FF01BFF0400074B696808C020F023
:10157000D4F8AB68E968A3606B68E0689A0026F06D
:1015800031FF200070BDC046F48E0200F7B50400A4
:101590000D0000268B0704D10B68214E9E1B734261
:1015A0005E41AB68002B0AD1002E03D01D492000FC
:1015B0001FF0AAFB1C4920001FF0A6FBF7BD002E60
:1015C00003D01A4920001FF09FFB194920001FF08B
:1015D0009BFB002701236A68BA4207D815492000FF
:1015E0001FF092FB002EE9D01349E4E7BA00019204
:1015F000EA68B9005258002A0FD0042A0DD0002BF7
:1016000003D10E4920001FF07FFBEB68B900595849
:101610000122200006F02CF900230137DBE7C04649
:10162000B88E02004BF7020052F7020058F7020092
:1016300063F70200366F0300941E030065F7020093
:1016400010B5830707D1044B02689A4203D10349BE
:10165000034824F088F810BDB88E020013F702008A
:1016600078D8020070B50D000400FFF7E9FF2900EB
:10167000201D012220F05BF8004870BDE88C0200BC
:1016800070B50D000400FFF7DBFF2900201D0222CA
:1016900020F04DF8004870BDE88C020070B50600DF
:1016A00008680D000124FFF7CBFFB44201D30448C2
:1016B00070BDA300E95828681FF0E3FC0134F4E78B
:1016C000E88C020070B50D000400FFF7B9FF280098
:1016D000002110F097FD0500280010F0F5FD011E17
:1016E00001D1044870BD231D0322180020F01FF80B
:1016F000F2E7C046E88C020010B50400FFF7A0FF37
:10170000201D20F0A2F8014810BDC046E88C020060
:1017100010B501221FF0E6FC004810BDE88C020065
:1017200070B504000D00FFF78BFF201D0222290079
:101730001FF0FDFF002804D1034824F0C5FD01F08F
:1017400035FE024870BDC04658DA0200E88C02003F
:1017500010B50400FFF774FF201D20F057F8002893
:1017600003D10249024823F0FEFF10BD35F7020005
:1017700058DA0200F8B50D0001280BD0002803D07C
:1017800002280BD0002004E08B681448002B00D105
:101790001348F8BD8B685B001843FAE70324002068
:1017A0000C408442F5D10F4B0E6820009E42F0D1D0
:1017B0004F68A74203D1012076003043E9E7EA6889
:1017C000A3009958002906D0042904D0022010F063
:1017D000B1FB401036180134EBE7C04620DE0200B2
:1017E00018DE0200B88E0200F8B5040010200D00CB
:1017F0001FF0D4FD0600094B210008C60700300089
:101800001FF08BFFA4002C19A54201D13800F8BDB0
:10181000012202CD30001FF08AFFF5E7F48E0200AE
:10182000F7B504000E00171E2CD0FFF709FF194D65
:10183000B4422DD000210800FFF7D6FF002105009B
:10184000300010F0DFFC0190019810F03DFD061E05
:101850000CD1002F1CD0E0681FF0CFFD6B686360D7
:10186000AB68A360EB680B4DE36011E0201D002224
:1018700031001FF05CFF0028E6D031002800FFF7A0
:10188000F1FEE1E78842D5D120001FF00DFC0500F4
:101890002800FEBDE88C0200F0B589B0040003907A
:1018A000029101920027FFF71BFEB84207D13A00D0
:1018B00003AB012122481FF06BFC04000137029D9D
:1018C00000262800FFF70CFEB04207D1320002AB21
:1018D00001211B481FF05CFC05000136019B002B19
:1018E00005D00023AA680193A36893420DD0154B3D
:1018F00006940493144B05930023079304A81FF048
:1019000022FC011E12D101230193002F02D02000DE
:10191000FFF7F2FE002E02D02800FFF7EDFE019B3C
:101920000A48002B00D10A4809B0F0BD2B1D002247
:1019300018001FF0FCFE0028E0D10190E5E7C0464A
:10194000F48E020058CC02004711020020DE020093
:1019500018DE020073B50C001500009101920026FC
:101960008B0704D10B68394E9E1B73425E413200D7
:101970001F2868D818F08AF92810176767671C674E
:101980006767676767212D346767673B67676767C6
:101990006740464A5358675D290020001FF095FBB9
:1019A0000400200076BD290020001FF0E6FBF7E7C9
:1019B000694602201FF0C2FBF2E7002E04D0694600
:1019C0000220FFF76BFEECE7290020001FF073FBFD
:1019D000E6E729002000002EE0D0FFF773FEE0E7E5
:1019E00029002000FFF71CFF002EDAD1D8E7694656
:1019F00002201FF077FBD3E7012229002000FFF728
:101A00004BFFCDE7012221002800F8E72800FFF76F
:101A100067FD002815D0A368AA68934211D1290058
:101A200020001FF0E6FBBBE7290020001FF0D9FBD8
:101A3000B6E7201D002229001FF079FE044C002883
:101A4000AFD1044CADE70024ABE7C046F48E0200F2
:101A500020DE020018DE0200F8B5214E3568696804
:101A600001292DD9AA684B1ED05C0A2828D1002B49
:101A700001DC1C0009E0581E145C0A2CF9D003009C
:101A8000F5E7105D202802D10134A142F9D8002BDE
:101A90000BDD601C814208D1581E002805D001389A
:101AA000175C0A2F0CD0202FF7D05218023AE31AF5
:101AB00014789B083A3C624254411C19002C00D116
:101AC000F8BD084F0422390028001FF03FFF042111
:101AD000380005F04BFE3369013C04333361EDE718
:101AE000500100204D1D030010B5202200210248A6
:101AF00026F094FC10BDC046E02E0020084B10B527
:101B0000426818600020986018750138D860080095
:101B10005A601A61996120F01DFBFFF79DFF10BD0F
:101B200050010020F8B503780400002B1ED0104DA2
:101B3000286E002804D0210026F08CFC002815D047
:101B4000200026F091FC471C38001FF034FC061ED4
:101B50000CD03A00210026F045FC2A00054B5C32EF
:101B60001968043B99609342FAD12E66F8BDC046CD
:101B7000802E0020F82E0020F0B5B84C020020681E
:101B8000A568436885B00193002D00D0FDE0531E89
:101B9000042B11D8636801998B4200D195E0012A8A
:101BA00000D12AE1022A07D123696268934200D951
:101BB0004FE10122524288E0032A00D185E0042A45
:101BC00000D12FE1052A00D107E1062A0ED12369B1
:101BD000019A9342AD416D42002DEADD2368290050
:101BE00098682369C01805F0C1FD1FE00B2A21D1B8
:101BF000019B2269991A1FF069FF2368019A5B68AB
:101C0000934204D213002269981A05F0E5FD226878
:101C1000236951689068C91AC01805F0A7FD2368A8
:101C200058682369C01A401B05F0C4FD23695D197B
:101C30002561BEE70E2A13D1E368002BB9DB013B17
:101C4000E3606268019B991A1FF040FFE368002B74
:101C500018DB1633824A9B00D318996820680FE07E
:101C6000102A16D1E368062BA3DC5D1C7C4A1733CF
:101C70009B00D318996800299BD06368E560436096
:101C80001FF0E9FE63682269D61A22685568ED1ACA
:101C90000AE0152A0CD12369626861689A1A1FF05C
:101CA0001DFF236962689E1A0127002E2FDCA4E71E
:101CB0000D2A0DD16B4820F04DFA20681FF0B0FEC0
:101CC0006368C018FFF72EFF0022100005B0F0BDBA
:101CD00001231B2A62D0082A01D07F2A20D1216942
:101CE0006268914200D864E700238668B618F75C02
:101CF000202F13D101339F18B942F8D80426032BA3
:101D000000DC033E891B32001FF0E8FE0127300093
:101D100005F050FD23699E1B266178E00126F1E75E
:101D2000092A28D1636822698068D11AC0184E4AEE
:101D300003AB0EF0D7FA061E00D13AE70027431C8A
:101D40000BD1A06920F006FA63682269D11A2268D3
:101D50009068C01805F00AFD4FE723692068F9185C
:101D6000039B01375A1C03921A781FF09DFEBE4256
:101D7000F3D1350041E71300203B5E2B00D918E773
:101D800021691FF09AFE012537E7012D08D10423B0
:101D90004F2A03D002235B2A00D00023A36008E768
:101DA000022D20D11300303B092B03D803232275C9
:101DB000A360FEE60023A360412A00D152E7422A35
:101DC00000D139E7432A00D101E7442A00D1EBE6EC
:101DD000482A12D0462A00D0EBE60027019B226950
:101DE0003E009D1A0EE00021032D29D17E2A24D128
:101DF000237D312B01D0372B0DD100252F002369F6
:101E000062689E1A0023A3609E4200DD7FE7002FD8
:101E100000D1E1E6F1E61A00FB25343A2A42DCD093
:101E2000332B0AD12169019B994206D201221FF06E
:101E300055FE002501272E00E4E700252F00FAE7D4
:101E4000042D04D1462AC8D0482AD6D0A5E7A160DF
:101E5000AFE6002501262F0059E7C04650010020BB
:101E6000802E002023720300E48B020030B507248B
:101E70000278084DA24314000222224302707F22FE
:101E8000039C41602240D400028883602A402243A0
:101E9000028030BD07FCFFFF10B50B00072401785E
:101EA0002340A14319437F23017004990A4C0B403E
:101EB000D9000388426023400B430380039B0468DE
:101EC0005905064BC90A23400B430360029B8360FC
:101ED000059BC36010BDC04607FCFFFFFF03E0FF8A
:101EE0000139C9B2054B401880301970044A037893
:101EF0001370044AD25C044B1A707047D22D002034
:101F0000D32D002027090300D12D00200131C9B2B3
:101F1000054B401880301970044A03781370044A46
:101F2000D25C044B1A707047D22D0020D32D0020B4
:101F300027090300D12D0020074B984206D9074BF3
:101F40001818074B4118C91808787047054B18181E
:101F50004118054BF7E7C046A4920000680703004C
:101F60005B6DFFFF7CF702000083FFFF0300202270
:101F7000F0B57F254F265F27803304001A7089B0A3
:101F800003007F3019780A002A406F2A29D90A00F5
:101F90003A401900013381310A709842F2D17F2210
:101FA000BB4B1A702300643AFF331A70E43202927A
:101FB000531CDBB204936B46B6481B7CB6490370D6
:101FC000049BE31880331B780B705B2B0ED19B2294
:101FD000029B0A700133DBB20370E254012009B0A6
:101FE000F0BD5F2AD5D90A003240D2E72E2B13D19B
:101FF0000232D2B20270A21880321278A448027063
:10200000A648825C0120024206D1029A0B70121887
:10201000D2B20292A354D7E102209D4A13709F4A84
:10202000D25C104000D0A8E0002A19D19948203293
:1020300003780A70E31880331A70029B0133DBB215
:1020400002936B461B7A0370029B782B01D8E254F3
:10205000BAE19B23029AA3546B461B7C0B70BDE72D
:1020600016007F2552B2AE430E70002A03DB8C4B64
:102070008C4A1A60B3E7413B8B4ADBB28B49D25C96
:10208000CB5C120213430393039B002101339BB2E9
:1020900018000393FFF750FF0306F5D50123002630
:1020A00001277B4D2B7039000398FFF745FF7B1C00
:1020B000DBB20193282862D1002E00D02F702D783A
:1020C0000135EDB229000398FFF736FF6B1CDBB238
:1020D000292857D17F26069306990398FFF72CFFEE
:1020E000069B30400133DBB23D284DD16A466A4B36
:1020F000127C1870674B00261A706A46644B12797E
:102100001A70049B0593059B0199E31880331B7893
:1021100003980793FFF710FF079B9842B4D1019BE8
:102120000133DBB20193AB4230D1002E03D06A46BB
:10213000584B127D1A70049D013FFFB2544B390079
:1021400003981F70FFF7F8FE534E030600D509E110
:10215000504B7F211870514B1B5C1A005BB28A43B5
:102160003270002B18DA4B4B013DEDB21D70631934
:1021700080331B789842DFD086E74D4B83E70126FA
:10218000019F90E71D009DE70693A5E7059B0126AB
:102190000133DBB20593B6E7307020281BD023282B
:1021A00025D02E282CD0262832D040284ED05E288C
:1021B00056D02B285CD03A2800D030E120262900C8
:1021C0002000FFF78DFE344A137833401370B3D0EC
:1021D000304B1D78F3E729002000FFF781FE002334
:1021E000F356002B00DA4FE72A4B1D78A4E72900AD
:1021F0002000FFF775FE402233781342F4D143E705
:1022000029002000FFF76CFE33781B07ECD43BE776
:1022100029002000FFF764FE10223378134033704A
:10222000E2D11C4B1B78E1188031097831704829C4
:1022300000D029E7013B1749DBB20B70E31880336C
:102240001B789343432B00D01EE7CDE729002000E5
:10225000FFF746FE0422337813403370C4D113E7EE
:1022600029002000FFF73CFE33789B06BCD40BE727
:10227000084B013DEDB21D70651980352B78452B5B
:10228000B2D010229343492B00D0FDE6ACE7C04604
:10229000D32D0020D22D0020D12D002027090300AE
:1022A0006400002068F70200AD09030093090300F1
:1022B000A59200006B1C934ADBB21370E3188033C5
:1022C0001B7891490B70452B36D1A81CC0B223183E
:1022D00080331B788D4E33708D4EF656002E02DB08
:1022E000884B1D783FE010700B70522BF8D0532BA9
:1022F000F6D0442BF4D04C2B08D10335EDB2157039
:10230000651980352B78592BEAD0BDE6462B00D0D5
:10231000BAE6EB1CDBB21370E31880331B780B704A
:10232000552B00D0B0E60435EDB215706519803537
:102330002B784C2BD4D0A7E6492B00D0A4E6AB1CBD
:10234000DBB21370E31880331B780B704E2B00D078
:102350009AE60335EDB21570651980352B78472B59
:10236000BED091E6059D6A46019B03980133DBB21E
:1023700001931279654B01991A70FFF7DDFD019BFE
:10238000069A604F934221D100257F272E000199A4
:102390000398FFF7D1FD03003B403D2B04D0029A88
:1023A0000132D2B20292A354019A0132D2B2010692
:1023B00000D4A3E0002E03D06946544A0979117075
:1023C000514A1370059B0493049AF1E5504B7F2109
:1023D0001B5C4D4E1A005BB28A4338703270002B82
:1023E00008DA0135EDB2631980331B783D70834202
:1023F000B9D049E63070202816D023281ED02E28C8
:1024000026D026282DD0402848D05E2851D02B2811
:1024100058D020263A2864D0252800D14AE73D4BE1
:102420003D4A00201A60DAE529002000FFF76EFD22
:102430000023F356002B00DB52E725E6290020009D
:10244000FFF764FD40223378134200D048E71BE6D3
:1024500029002000FFF75AFD33781B0700D53FE71E
:1024600012E629002000FFF751FD102233781340B7
:10247000337000D034E73B78E1188031097831704F
:10248000482900D000E60133DBB23B70E31880330B
:102490001B789343432B00D0F6E521E72900200069
:1024A000FFF734FD042233781340337000D017E770
:1024B000EAE529002000FFF729FD33789B0600D5C7
:1024C0000EE7E1E50135EDB23D70651980352B78F9
:1024D000452B00D104E710229343492B00D0D3E5CC
:1024E000FEE629002000FFF711FD074A137833406C
:1024F000137000D137E7034B1D78F2E701920126F4
:1025000045E7C046D22D0020D12D0020D32D00203C
:10251000270903006400002072F7020010B50400D0
:10252000002906D0044B8A6B03600968002311F070
:1025300083FF200000F03AFFB0DC0200F0B5040099
:1025400087B0039202936618002A06D0023A222A24
:1025500003D9354810F086FA0134B44229D22078E4
:102560000BF0F6FA071EF7D123782B2B1CD1013480
:10257000311B200003AA21F0E4FC23181C000025D5
:102580000193B44217D3002F00D06D4201236D0098
:102590001D43019B9C422FD12449039A244811F0EA
:1025A000DFFE0299FFF7BAFF2D2BE1D1013401279D
:1025B000DEE70027DCE723781A00303A0092092A88
:1025C00007D9202213431A00613A192ADBD8573B56
:1025D00000930399009B9942D5D928000BF010FB7A
:1025E000002816D1039B5D43009BED186B006B40E8
:1025F0000FD40134C5E70134B44205D220780BF082
:10260000A7FA0028F7D1C7E7B442C5D1280007B020
:10261000F0BD019B3A000593F11A05A8039B20F039
:1026200024FA059C0500B4E7FE090300210A030013
:10263000A0DD0200F0B504008BB0089343180492AB
:102640000193019B9C4200D3F6E020780BF080FAC6
:10265000071E38D123782B2B37D101340590019BED
:102660009C4200D3EAE0202322781A43692A33D11E
:102670000199A21C914200D8E6E062781A436E2AC2
:1026800000D0E1E0A2781A43662A00D0DCE0E21D27
:10269000E51C914214D9E2781A43692A10D12279B3
:1026A0001A436E2A0CD162791A43692A08D1A27999
:1026B0001A43742A04D1E2791343792B00D10535EA
:1026C000FF26F6051BE00134BBE705902D2BCAD190
:1026D0002C3B01340593C2E76E2A2ED10199A21C2E
:1026E000914200D8B0E062781A43612A00D0ABE092
:1026F000A27813436E2B00D0A6E05D4EE51C059B2F
:10270000002B02D080231B06F618A5427BD1594925
:102710008CE03D002B786F1C18003038092834D825
:10272000022E15D10A23029A53431B180293019BD0
:10273000BB42EED8002304934DE0002207920292A0
:102740004D4A250006920022002603920993E1E7F4
:1027500018F080FC051C012E0DD1069918F004F923
:10276000011C039817F08EFD43490390069818F05A
:10277000FBF80690DBE74149039818F0F5F8291CAF
:1027800017F080FD00260390D1E7002E03D12E2BF9
:1027900003D10126CBE7022E16D0099A1A43652AE7
:1027A00012D1019BBB4256D96B782B2B05D1AF1CA4
:1027B000019B9F42ABD00226B9E702262D2BA8D160
:1027C0002C3BAF190793F3E7049A002A04D0202288
:1027D00013436A2B13D13D00079B002B02D0029BB1
:1027E0005B420293029818F0EBFB011C23481AF09D
:1027F00079FE039918F0B8F8049F061C7FE70023C0
:102800000493E9E70135019B9D4205D228780BF03E
:102810009FF90028F6D17AE7019B9D4200D076E728
:10282000089B002B01D1002F1AD01549154823F021
:1028300058FD1099FFF772FE0023059300230393C0
:10284000002325000493CCE7059B002B00D15EE715
:102850002500002656E7019BBB4200D157E769E7F8
:10286000032302209E43084B3043C0180BB0F0BD39
:102870000000C07FE4090300CDCCCC3D0000204126
:10288000C7090300A0DD02000000808010B50D4CD8
:10289000206824F0C6FA002807D00B4B1B78002BC9
:1028A00003D1206803685B6898470023074A1370C8
:1028B000074A137013F0C4FA0AF026FF0EF0FEF96F
:1028C00010BDC0468C290020D72D0020D62D002019
:1028D000C62D002070B5050094B0002804D13F48F3
:1028E0001DF03CFC14B070BD08A800F039FD041EBA
:1028F00019D12E68290004A8012211F009FF230034
:102900002200310004A80AF0BDFB04000320FEF7FA
:1029100015FA200022F0DCFE01204042FEF70EFAFC
:1029200000F03CFDDEE701204042FEF707FA09997E
:102930002B4804F0C1FF099804F082FF29490400E4
:102940000EF076FE0028CDD1274920000EF070FE53
:102950000028C7D1099C01AA6946200011F0A0FDFA
:1029600002AA322104A803F01FFB009B022B05D909
:10297000019B1E495A6802A81EF087FA200004F045
:102980005FFF1B4BC2689A4210D1236819495A68ED
:1029900002A81EF07AFAE368002B07D05A68002AD2
:1029A00004D00022996802A804F062FF0320FEF719
:1029B000C5F904A81FF034F804F024FF04A81FF0A0
:1029C00003F801204042FEF7B9F90B4B9A6C002A3C
:1029D00000D187E700229A6484E7C0467F0A03009B
:1029E000E48B0200ECDC020094DA0200AC0A030083
:1029F00021420100B50A0300802E0020F8B54E4C9C
:102A00001321200025F0ABFA2000032125F0CBFB99
:102A10004A4C01234A4A1321200016F0E9FE012204
:102A20000221200016F014FF464C200013F032FD66
:102A3000454F3860200013F045FF444D28601020BA
:102A400013F08EFB040029680025414E3A683300DC
:102A500014F070FA3F4B1C603F480CF091FAE120F3
:102A6000C0000CF09DFA3D493D4810F0B7FC0FF056
:102A7000A1F904F043FEFFF737F813F037FB3000FD
:102A800024F014FE21F0F4F90DF0DAF800F044FA25
:102A900002F0CCFB0EF0EAFF324C334823008833BF
:102AA0001D60FDF7DBFBFDF7B7FB0EF0F1FF2F4FCD
:102AB0003B78012B0ED1002307211A002C480DF082
:102AC000C7F9031E1DD00100F72040000DF048FBA0
:102AD000FFF700FF3B78002B2AD101F003F8002814
:102AE000F8D024481FF036FBFDF7A6FB0822002192
:102AF000214825F093FC230098348C331D60256019
:102B0000AAE7F822920211784D2909D1517850296B
:102B100006D1F72052881949400021F0BBFBD7E7C6
:102B20000122174917200FF0D5FE22F0FBFDD1E757
:102B300001F028F8D3E7C0466C2900208429002042
:102B40008B1202000C2A0020882900208C290020EA
:102B50009429002090290020004000206C290020AA
:102B60006C010020802E00208D280000DC00002059
:102B7000B90A0300C10A0300002F002004E003008B
:102B80007C9B020010B5084C084A0621200014F076
:102B9000A3FA074A0749200025F0C4FB00221E21A2
:102BA000054824F08DFD10BD942900205C920200A0
:102BB00000000020917001000C2A0020C379024817
:102BC000002B00D10148704720DE020018DE020011
:102BD00010B50CF0F9FF014810BDC046E88C0200AA
:102BE00010B508680CF0F0FF004810BDE88C02003A
:102BF00073B50D00022836D1012601A9686806F0D8
:102C0000B9FD76423400019BC318834212D101A959
:102C1000286806F0AFFD7342734162426241DBB245
:102C2000D2B201990DF014F9002820D110491148B1
:102C300022F099FD0278722A01D0772A06D1611C10
:102C40000ED1723A544254410130DEE7622A01D07B
:102C5000742A05D1711C03D1743A56425641F3E7E8
:102C600005480FF0FFFE012676423400CFE776BD1F
:102C7000DC0A0300C0DB0200CF0A0300F7B5CC1C5E
:102C8000A400070020000E0001921EF087FB220026
:102C90000500054B4760866003600C3A01990C30D3
:102CA00025F0A0FB2800FEBD9493020070B504003F
:102CB000080004F0ADFE0500431002D00F480FF0ED
:102CC000D1FE0F49200008F0A7FC002807D0A02261
:102CD00003216379D205C133FF339B00995001234F
:102CE00062799340A022D205002D04D0A121C90011
:102CF0000448535070BD0449FAE7C046380B03003E
:102D0000A8B70200E88C02000C05000070B50500B1
:102D1000080004F07DFE0B2303410400DB0702D40E
:102D200009480FF09FFE2800084908F075FCFF22B3
:102D3000A40092001440A0226B79D205C133FF3366
:102D40009B0003489C5070BD0A0B0300A0B7020013
:102D5000E88C020010B50C49040008F05DFCA022CC
:102D6000D205002805D004216379C133FF339B00CD
:102D7000D150A223DB00D0586379D84001231840FA
:102D80001FF04DFE10BDC046A0B7020010B50400F4
:102D900008F00EFC084B984202D0200008F016FC08
:102DA000A0226379D205C133FF339B0098580007F6
:102DB000800F1FF034FE10BDA0B70200032370B5D2
:102DC0000B4004000800022B14D1194B0B40062BBA
:102DD00010D004F081FE19F0CDFE0022154B18F042
:102DE00079F919F057FE144B0500984205D913489C
:102DF0000FF038FE04F00CFEF5E71149200008F052
:102E00000BFC002807D0A02203216379D205C1332F
:102E1000FF339B009950607929000EF067FE002D6A
:102E200003D10849200008F0F7FB074870BDC046F1
:102E3000070080FF0000E03FFF030000170B0300C6
:102E4000E8B7020098B70200E88C020013B50A49FF
:102E5000040008F0E1FB05216846615616F0AAFD62
:102E6000684616F0CDFDA0230021044ADB00D150B6
:102E70001FF0D5FD16BDC04698B702000070004097
:102E800010B5080004F0C4FDFA239B0058430EF06F
:102E900009FE002802D002480FF0E4FD014810BDF1
:102EA000FB0A0300E88C020010B5080004F0B0FD36
:102EB0000EF0F8FD002802D002480FF0D3FD0248C2
:102EC00010BDC046FB0A0300E88C020010B50400E8
:102ED00008F06EFB0C4988420DD00C4B98420AD08A
:102EE000200008F099FBA02200216379D205C133AC
:102EF000FF339B009950200012F0ECFF044B002898
:102F000000D0044B180010BDD0B70200B8B70200C3
:102F100020DE020018DE0200A0230C220249DB059D
:102F20005A5024315A5070474407000010B504002D
:102F300004F086FC064B984208D0064B984205D018
:102F4000054B984202D005480FF050FF200010BDFD
:102F5000909602004895020084950200EB0A030057
:102F6000F0B5486887B00F0004F052FD041E02DA85
:102F700000200FF077FDBB68164A01939D186B1E69
:102F80009D41010002A81EF00EFD049E22000021BA
:102F9000300025F043FA3868EDB2C3070AD4330095
:102FA000220029001FF008FD02A90B4805F054FF7C
:102FB00007B0F0BD43102000042C00D904200749BD
:102FC000019F00228F4200D0221AB21829001FF060
:102FD00012FAE9E75AECFFFF4CA50200A613000025
:102FE000F0B50C0087B0012203A9606804F0CAFEA6
:102FF000A3681349039A8B420DD1012604997642A6
:103000004C1E01911419049900200D00002D05D1CA
:103010001FF020FD0DE014000126F4E7094F013DEB
:10302000B84208D908481B18581E8341D8B21FF06F
:10303000B4FC07B0F0BD277800023843A419E5E7D7
:10304000A6130000FFFF3F005AECFFFF70B54600DB
:103050007508041C291C281C17F07CFF00280BD1C4
:103060001649281C17F000F8002808D01449154804
:1030700023F037F900F09AF913480FF0F3FC002C15
:1030800011DA002E12D0FF23DB05E3189C22D205B3
:1030900093420BD907F028FA211C0500043021F0D7
:1030A000ABFB280070BDE30DDB05EFE7201C17F03C
:1030B00067FF012540000543F3E7C046FFFF7F7F20
:1030C0005D0B0300FCDB0200760B0300F0B50C0087
:1030D000002585B0110020001E00009502232A0063
:1030E0000EF0D4FD0120AC422BD0844231D13068A7
:1030F000204226D103230340AB4203D11C4A01687E
:1031000091421ED01B4A0240062A06D0002B0DD148
:103110000268194B92699A4208D103A906F02AFB6A
:1031200000231A000399FFF709FA0AE003230200BB
:103130001A40022A07D1FF22D20580189843FFF7D0
:1031400085FF05B0F0BD04F063FC01234000184387
:10315000F7E703A9306806F00DFB04007068039FD1
:1031600004F056FC2B00020039002000DBE7C046CB
:103170000C970200070080FF119D0000F8B51F00AA
:103180000B4B150059180139097816F093FD0026EC
:103190000400B74204D00130032116F08BFD060075
:1031A000281E01D025F060F90334A4192018F8BDB9
:1031B0004D0B0300F0B58DB00A9214AA147815AA2D
:1031C000127806000F000792DA0743D55D1000233E
:1031D000002D01DA2D236D420693139A079B129955
:1031E0002020FFF7CBFF3B680590834204D21EF0FE
:1031F000D5F8059B30603B6000213768059BFB18C4
:103200005A1E11708D4241D00A3C099208920B94CB
:103210001299280016F0D4FD0B003033092901D98A
:103220000B9B5B18089A541E2370079B002B4AD0F7
:1032300000282ED0A7422CD2099B1B1B032B06D1A2
:103240006B461B7F013C2370A74222D209940500E4
:103250000894DDE79A0712D1244A196891420ED1E9
:10326000079A02940392139A39000192129A0092DB
:103270000A9A1FF068FB040020000DB0F0BD002387
:10328000326813700A9A34681360F5E79C1E302385
:103290002370139B002B05D0180025F0E5F8201AA9
:1032A000874220D3069B002B05D0BC4203D96B4636
:1032B0001B7E013C23703368059A9B181B1B0A9ADE
:1032C000013B1360D8E7A742E3D20028BFD1E0E773
:1032D000C2540133139AD25C002AF9D1069B040030
:1032E000002BE4D1E7E70023F4E7C0460C97020087
:1032F0001300144A10B50400934204D101222000A7
:103300000FF0B8FB10BD104A934201D10322F6E73B
:103310000020072CF6D10D4A1A40062A0ED09A0733
:10332000F0D11A680A4CA24208D00A4CA24205D039
:10333000094CA24202D0094CA242E3D10A00072064
:103340001900DDE718DE020020DE0200070080FF22
:103350004CC602004CA50200849B02003898020073
:10336000C4600561466187614146C16149460162A9
:1033700051464162594681626946C1627146816027
:10338000004908478D3300000020C046024B9A6870
:103390000260986000207047802E0020024B9A68DF
:1033A00012689A607047C046802E00200E4A9368CB
:1033B000002B01D11DF07CFF196858609160181C2A
:1033C000C468056946698769C1698846016A894692
:1033D000416A8A46816A8B46C16A8D4681688E46FB
:1033E00001207047FEE7C046802E0020004870474D
:1033F00016FCFFFF0048704716FCFFFF82B007B5C0
:1034000091B204920593052909D01B2902D104A881
:10341000FDF73CFF002003B008BC02B0184704AB26
:103420005B88032BF6D106A90822684624F0DAFF50
:103430000349049A059B086813F0E4FBEAE7C046D9
:1034400090290020034B044A08331360034B1A6091
:103450007047C04648970200242A0020AC2B002069
:10346000002803D0012807D0002004E08B6804481E
:10347000002B00D1034870478B685B001843FAE7C4
:1034800020DE020018DE0200044B88600B60044B53
:1034900008004B600023CB607047C04658CC020048
:1034A0000314020000238168F0B5CA0F094C5218BA
:1034B00052100E199A4201DC0748F0BDC568F11A96
:1034C0009C0089002C196D5827682560C468013359
:1034D0006750EFE7FFFFFF3FE88C020070B583689D
:1034E0000D00416804008B4212D3C900C0681DF072
:1034F00073FF63680A495A00A3686260D21A0133F5
:1035000052189B00E0609200C018002124F086FF52
:10351000A368E268591C9B00A16002489D5070BDE1
:10352000FFFFFF3FE88C0200F8B5070016004C10C3
:10353000836812D5E41810D500240D4D38002900F9
:10354000FFF7CCFFBB68591E9B00FA68181F8C421E
:1035500007DBA4002800A650F8BD9C42EDD91C0052
:10356000EBE7D318083B1B68013913500300ECE765
:10357000E88C020070B50025040085601021C06849
:103580001DF02AFF04232900E0606360102224F06C
:1035900045FF014870BDC046E88C020030B50C0004
:1035A00085B0104B02AD0431009301380223019520
:1035B0000EF09CFB23680C4C996801290FD9D86840
:1035C0000A4B029AC91889004118A24200D1002270
:1035D0002D79074B002D00D1064B1DF020FF200058
:1035E00005B030BD5C970200E88C0200FFFFFF3F92
:1035F00018DE020020DE020070B50C680B00A16826
:103600000200002903D11949194822F0ACF82068BA
:10361000012A27D05A68002304F0D2FAE168A26890
:1036200086008B19013A1D680436A260121A9200B6
:103630008919180024F0DFFE0021A368E0689A00D1
:103640001150616804290BD95B00994208D94908D7
:103650008900E0681DF0C0FE6368E0605B0863609D
:10366000280070BD01225242D5E7C0468F0B0300EF
:103670001CDA020007B500900191022069461DF096
:1036800036FF694601900220FFF7B6FF00480EBDE5
:10369000E88C020070B50E000D49050000241DF0F5
:1036A00033FBB368A34204D828000A491DF02CFB61
:1036B00070BD002C03D0084928001DF025FBF168DF
:1036C000A30001225958280004F0D2F80134E8E799
:1036D000E3720300F56D030065F7020070B5032681
:1036E00004000D000E4029D1174B0A689A4225D1DB
:1036F00083688A6899184368994210D9043189000F
:10370000C0681DF069FEAA68A368E0609B181A1DD6
:103710009B006260C0181022310024F07FFEA36875
:10372000E9689800E3681818AB689A0024F05AFE1C
:10373000AB68A268D318A360044870BD29002000BC
:103740001DF0DEFEF8E7C04638980200E88C020063
:103750000B4B70B5050003600C000800042900D273
:1037600004206860AC6080001DF018FE6A68E860A4
:10377000121BA40092000019002124F04FFE70BD1E
:10378000389802007FB50D00160012283ED005D8EB
:10379000052819D007283FD0002434E00300193B46
:1037A000042BF9D893070DD1284B12689A4209D1FE
:1037B000B36800938A68F368C968FDF711FE244C6A
:1037C000002820D1234C1EE0032300241340A342F1
:1037D00019D11C001D4A3368934214D18B68B2681A
:1037E00098181DF0A6FE0400AB68E9689A00C0684E
:1037F00024F0F8FDA868E36880001818B368F16841
:103800009A0024F0EFFD200004B070BD11002800E4
:10381000FFF764FF2C00F6E703A9100004F036F967
:103820000024A042EFD0039BA34200DA0394AB68CC
:10383000039858431DF07DFEC36804000093AA68F6
:10384000039B0421E8681DF09CFBDCE7389802002C
:1038500020DE020018DE0200F0B5032704008BB062
:103860000E0010000F40002A33D1002F2AD1654BE3
:103870000A689A4226D104AAA068FDF735FD0028FF
:1038800002D161480FF0E0FA0599049BA268E06854
:103890005D1A521A9B00890041189200C01824F04A
:1038A000AAFDA368AA00E818E3688000181852422D
:1038B000390024F0B3FDA3685D19A560534D2800BD
:1038C0000BB0F0BD07A9022007940896FFF794FEFD
:1038D000F4E7042A2CD1A068002F1FD1494B0A68B5
:1038E0009A421BD107AAFDF7FFFC002806D107AAC0
:1038F000E168A0681DF058FB0500E0E7079B089809
:10390000C01A1DF016FE8368E1689A00079B050047
:103910009B00C918C06824F065FDD0E700230100B2
:103920003200206804F04CF9E3688000C558C6E70F
:10393000364D002F60D1334B0A689A425CD103AAFE
:1039400002A904F007F907AA3100A068FDF7CCFC32
:10395000002896D0079B029A08999E180191761A22
:10396000E068002E27DDA368F1186368994206D944
:1039700089001DF031FDA368E0609B196360029A25
:10398000079BA1689B18F21A52180899E0689B00DF
:10399000890041189200C01824F02DFD029B039964
:1039A0009A00079B9800E368181824F024FDA36888
:1039B0009E19A66083E79B000399C018920024F02B
:1039C00011FD0899A268E368521A890001935918F9
:1039D0000798029B9200C018019B8000181824F0E1
:1039E0000AFDA368B200F018E3688000524218187C
:1039F000390024F013FDDAE70200310020001DF049
:103A0000D9FD5CE780D70200A40B0300E88C02001C
:103A10000023F0B52F4E93B0050006A814003360C4
:103A200001910127FFF79CFC2740031E35D1E206D8
:103A30002DD56A68A968112020F02CFC05002E689D
:103A400029000125019A03A810F062FEA3082B406B
:103A50000022310003A809F015FB04000320FDF744
:103A60006DF9200021F034FE01204042FDF766F997
:103A70002C00FFF793FC002F24D02900164803F0F8
:103A800075FE3C000121144803F070FE1AE0A30605
:103A9000D5D5280021F01BFCD0E701204042FDF7DE
:103AA0004DF9002F03D001210B4803F05FFE07986A
:103AB00003F0C6FE09490DF0BBFD041E05D03468B5
:103AC000002FDFD1200013B0F0BD0799044803F0A8
:103AD000F3FEF5E7282A0020A30B0300ECDC02002C
:103AE000E48B020010B586B0202102A880241DF0CE
:103AF00049FF64001E481EF02DFB00231D48039360
:103B00001EF028FB03F01AFE0128F3D002280BD187
:103B100019481EF01FFB02A81DF056FF01220020CD
:103B2000164B1A7006B010BD032802D10023039370
:103B3000E8E7042804D0C1B202A81DF083FFE1E742
:103B40000F481EF007FB039B0193002B08D10A4886
:103B50001EF000FB02A81DF037FF80204000E1E7C7
:103B60001122012102A8FFF753FF2042C5D0D9E757
:103B7000620C03004974030023720300DC00002080
:103B80007D0C030030B587B0202102A880251DF0F0
:103B9000F9FE6D0037481EF0DDFA37481EF0DAFAFC
:103BA0000024364902A803941DF028FB01280AD1FD
:103BB00033481EF0CFFA02A81DF006FF2000314B5B
:103BC0001C7007B030BD022803D12D481EF0C2FA88
:103BD000E0E7032801D12A48E0E7042808D1284873
:103BE0001EF0B8FA02A81DF0EFFE80204000E8E7C2
:103BF000052827D124481EF0ADFA039403F09EFD5A
:103C00006B46C1B2DC1D21700329E4D004290AD11E
:103C10001B481EF09FFA0121162202A8FFF7F8FEAA
:103C20002842BDD0CDE702A81DF00CFF23780D2B54
:103C300003D116481EF08EFAE0E70121200003F0C0
:103C400095FDDBE7039B002BAAD002A81DF0E8FE40
:103C50000CF092FA00280BD00A2102A81DF0F2FE07
:103C60000B4902A81DF0CAFA0328B4D00428ECD1ED
:103C70000021D1E7A50B0300FB0B0300210C03007F
:103C800023720300DC000020260C0300560C030006
:103C90005D0C0300F0B58FB006924268099394461C
:103CA0000368040002939B6804300093634403603C
:103CB0000E001DF08CFC059060681DF09EFC431CFE
:103CC00063600378A24A0193831C636043780021F8
:103CD0000093C31C63608378B5000393031D636086
:103CE000C3782000049323001033A360059B143095
:103CF0009A1893000793C318E360079B0C331A00CC
:103D0000089324F08BFB099B009A5B190B93059B8E
:103D10009B1A039A0A939D1A2F1D009ABF00E71958
:103D20000123B24264D2019A1A4207D13300009AA9
:103D30008849894810F014FBFFF738FB009B0335D6
:103D40009900099BAD005918009B6519F01A01F004
:103D5000A7F8009E043F68600022964200D070E001
:103D6000069B002B03D1019B1B0700D4D6E0022346
:103D70000026019A1A400992B24204D0069820F017
:103D80002DFB060038600027029B0B9DDB68089323
:103D9000069B9F425ED10A9B029805339B00E11867
:103DA0000A00049D0C30002D00D080E0049A92009F
:103DB0008918079A2032A2188A4200D980E0143B61
:103DC0000693009B089A9B00D3180793039B9D4280
:103DD00000D27FE065680DA80D951DF0F8FB28184E
:103DE0000578461CFF2D00D0A7E066600FB0F0BD3F
:103DF000019A1A4205D00335AD00584B6519043FAE
:103E00006B60069B002BA7D1019B1B07A4D4009BD2
:103E1000049A9A1AB24212D8009A049B991A320054
:103E20008900009B9A4297D29300029D5818281847
:103E3000089D0069EB1AE31818610132F1E73300BD
:103E400076E7099908989300C958C31AE3181961CD
:103E5000013282E7009B039800221B189C462968C8
:103E6000944505D8099B002B1CD1CA083C490EE09B
:103E7000089B90001858884212D1059B013B9B1A61
:103E80009B00E3185A69002A05D0CA083549324810
:103E900010F066FA50E76A685A610137083577E72B
:103EA0000132DDE76A68300020F0D1FAF5E71668E4
:103EB000002E02D1AE0086591660013D043272E731
:103EC000081D0968002903D1121A92102649DEE75D
:103ED000010071E7069AAB00D71AE7193A69002A80
:103EE00016D1082000996E180899B6008E19079906
:103EF000C958019B03420DD0049B029804339B00D8
:103F00001858043000F086FC002803D043683B6159
:103F100001355BE732681549D208B8E7039B002BEF
:103F200002D013480EF062FF019B9B0700D451E7BB
:103F3000039820F053FA38604CE7ED43059BED18E9
:103F4000AD00651968690AF065FF6861300047E7F0
:103F5000FDFFFF3F44F6020028DD02007C9B0200CB
:103F60007DF602009EF60200800C0300B20C0300F6
:103F7000E20C030001220020074B08495A60086048
:103F8000A821DA60064AC9005A5006495A5004313D
:103F90005A5005495A50704700A000400CAC0040F0
:103FA000FCFF0000440500004C050000034B0448E2
:103FB0001B78002B00D103487047C046D52D002048
:103FC00020DE020018DE0200F8B5A826324A334B84
:103FD000F600196813680420CB18C9181160304A1C
:103FE0008C4612781B11170009112E4A2E4C2F4DAA
:103FF000002F48D0002B3ADA9051C31AA920C000F4
:10400000135081239B00002937DA591A135151515B
:104010000123274CD3602378002B22D03F22254850
:10402000254B01688C331B6801310A409D5C1C4B99
:104030001B78002B01D0803D6D001C23026062467E
:104040006B4308339B1A154A9B1013601F231940BA
:1040500007D11A4B1A78002A03D019481970FCF7B7
:1040600003FA01232278042053402370F8BDA927C6
:104070000433FF00D0519351C3E7535181239B0078
:10408000C9181151C4E7043390515351A920812319
:10409000C0009B001350F3E72C2A00203C2A00208C
:1040A000DD00002000A000404C0500004405000099
:1040B000D42D0020302A0020802E0020DE00002099
:1040C0006316020030B585B001220400080001A982
:1040D00003F058FE029A202A00D920220023019DD5
:1040E000934204D0E85CE11808710133F8E7014815
:1040F00005B030BDE88C020070B504000800150062
:1041000003F086FC1F2802D90C480EF0ABFC002DF2
:1041100002D10B480EF06AFE2418042D04D10120B0
:1041200023795B00184370BD280003F071FCFF2861
:1041300001D90448E9E720710348F4E73B0D030087
:104140004F0D03007C200300E88C02000123A02215
:10415000834010B5134CD20513510300C133124CE8
:10416000FF339B009C50114B8900C918A223DB0030
:10417000CA580F4C00022240CA50F8225201104087
:10418000C022CC589202224310430322C850CC587C
:10419000084822432043C850C046C046C046CA50C3
:1041A00010BDC0460C050000030300000060004085
:1041B000FFE0ECFF031F0000A0221E21114BD200E4
:1041C00070B59C58104D8C439C50A324E4001D51A5
:1041D0000E4C0F4D0F4E5C5104355E510E4D80005C
:1041E0005C51A5240D4DE4001D51084C0C4D0019E7
:1041F0000C4C185104341D510B4C18519858014364
:10420000995070BD00F0014040A1004000600040A6
:104210001C05000044A100402405000048A1004006
:104220004CA100402C0500003405000010B504002E
:104230000A4907F0F1F90A4BA0211C6001236079BB
:10424000084A8340C9058B500021FFF77FFF0020FB
:10425000FFF7B2FF0022044B1A7010BDC8B702006E
:10426000342A00200C050000DD00002070B50D0090
:104270000400134E2800310007F0CEF93100200071
:1042800007F0CAF90F4BA0221C600F4BD2051D602E
:10429000607901242100814026000C4BD1506979BE
:1042A0008E400021D650FFF751FF68792100FFF7BB
:1042B0004DFF2000FFF780FF054B1C7070BDC0460E
:1042C000C8B70200342A0020382A00200C0500005C
:1042D000DD000020F8B50025FFF74CFE214B28003B
:1042E00090331D60FCF78EF8A0221E201E4B1F4944
:1042F0001D701F4BD2001D601E4B1F4C1D608B5844
:104300001E4F83438B50A223DB00E2581C4E3A40E1
:10431000E250E2581B493243E2500122E5501A4B69
:10432000186843799A401300A022D205535007F031
:104330005DF9164B1B78AB4213D0154B1149E2586F
:104340001740E750E25816430122E650E550114B62
:10435000186843799A401300A022D205535007F001
:1043600045F9F8BD802E0020D52D002000F0014039
:104370002C2A00203C2A002000600040FFE0ECFFD7
:10438000001F03000C050000342A0020DD0000207F
:1043900014050000382A0020F0B53E4E8DB03300E1
:1043A00090331B680500002B03D1FFF793FF0DB07E
:1043B000F0BD002801D00FF03BF86846FEF7D0FFB3
:1043C000002822D13300903318680DF055FF040007
:1043D000FEF7E4FF002D01D00FF034F82E4B202221
:1043E0001D6833006D118C3301356D011B6815405C
:1043F0005D19002C2DD1903621002800346024F066
:104400000DF80122254B1A70D1E7002D01D00FF0D5
:1044100019F8019B224918680DF00AF900240500DB
:10442000A042DBD1019F380003F00AFA1D4B9842ED
:104430000BD12900012000F033FD2A000400F860B0
:104440001F21194804F03EFDA060019B0024B364C5
:10445000C4E7200003F0F4F9144B984209D033006C
:1044600000229033124913481A6021F03AFFB064D9
:104470009DE763682B60A3686B60E368AB602369AA
:10448000EB6063692B61A3696B61E369AB61236ACC
:10449000EB61B6E7802E0020302A0020DE000020ED
:1044A00074DC02000CDB0200090D03001C99020001
:1044B000290D030028DD020010B5FFF70BFF0148AE
:1044C00010BDC046E88C0200F0B589B00493734B70
:1044D00003901B780E001500002B01D0FFF7FAFEA9
:1044E0006F4C8C342368002B06D16D4A40209032EB
:1044F00013601CF053FF206080226A4BD200DA6701
:104500000122694C694BE250FFF734FD0023684AF1
:10451000F021A3500432A3500832A350C222090351
:104520009200A150634F093AFF3AA3500594BE424E
:1045300000D0A3E0B54200D09DE05F4D07AC28005D
:1045400007F05EF8002805D001235C49280023709D
:1045500007F062F85A4D280007F052F8002805D0FD
:10456000012356492800637007F056F8554D28007E
:1045700007F046F8002805D0012350492800A37011
:1045800007F04AF8002307AA5F1C9B5C002B39D078
:104590004D4ABB00043BD458A02203213D0063795F
:1045A000D205C133FF339B00995007ABEB5C002B66
:1045B00026D00426444BAA00D358019301226379E4
:1045C000A0219A40A123C905DB00CA50019B0533F5
:1045D000180002931DF025F8012811D16379A0215C
:1045E00098403A4BC905C85002981DF01AF80028A7
:1045F00006D1013E002EE1D1019949E00225D4E720
:10460000022DFBD10123022FBDD12B48FEF78EFCDA
:10461000FFF70CFE002103980DF0F4FD00250124A6
:104620003F221F4B802190331860294B1D70294B6E
:104630001C70294B1A601A4B12198C33186823F01E
:10464000EDFE2800FFF7A8FE244B144E1C60059BCE
:1046500050221C60224928003470FBF79FFE049B07
:10466000AB4219D00E4B3278002A15D09A6C002A32
:1046700012D120BFF7E71B480EF0B8FB3000FEF761
:1046800055FC0400BD42C3D02800FEF74FFC0100DA
:104690002000FFF7EBFDBDE709B0F0BDD52D0020F0
:1046A000802E002004E100E000A00040FC0F00008C
:1046B00004050000E88C0200C095020098B70200D3
:1046C0000896020018960200E89802000C05000007
:1046D000D42D0020DE000020302A00200CAC004049
:1046E000C93F0000740D030010B5084B86B002AC42
:1046F0000093019404230DF0F9FA02982379E268FB
:10470000A168FFF7E1FE024806B010BDF498020070
:10471000E88C0200014B1878C0B27047D52D0020FC
:1047200010B524201CF03AFE0400044B202208C0DF
:10473000802123F073FE200010BDC0461C990200AA
:10474000F8B5070008000D00160003F079F8304BAB
:1047500098425BD1781F0F2858D815F097FA0808AF
:104760003257575757575757575757303055FFF706
:10477000D7FF04230400EA5CE2540133242BFAD16E
:10478000300003F05DF8224B98423FD10121052F04
:1047900002D0122F00D002390422FF20B35CA55CA6
:1047A000803B4B435B19FF2B03D90500DB179D436F
:1047B0002B00A3540132242AF0D12000F8BD2C0094
:1047C000DEE7FFF7ADFF04230400EA5CE2540133A7
:1047D000242BFAD1300003F07FF90F211CF046FFA3
:1047E0002100FF25221D24311378803B4343DB1336
:1047F0008033FF2B03D92E00DB179E433300137049
:1048000001329142F0D1D8E72C00E3E70024D4E74D
:104810001C990200F0B587B00092027804000F00E6
:10482000930703D5009B002B00D0F5E0D307DB0FE7
:104830000ED07A4B3B40062B43D003233B4003D1A1
:1048400077493868884203D0009B012B00D0E3E011
:10485000019353075FD52368A568DE08F600AE19FB
:10486000B54230D3009B012B00D0D5E02368D90896
:104870006368994210D104316160A068C9001CF0DE
:10488000ABFD23686268DB08D21ADB00A060D200AF
:10489000C018002123F0C2FD07212368DD086A1C2F
:1048A000D2000B4013432360A368ED005D195B4BFE
:1048B0002F601F40062F21D00122237893432370BD
:1048C0001CE00123C4E72868B8421AD1009B022BE0
:1048D00014D129002368721BD210083B013A6F687B
:1048E00028002360D200083123F085FD2368DD080D
:1048F000A368ED005D1900236F602B60280007B0EE
:10490000F0BD019B002B04D1390003F02FF80028E3
:10491000DCD10835A4E76368002B05D1009B012B8F
:104920007AD1200000F07EF83C4B3B400593062BEB
:1049300027D1F8081EF0F7F803906168039815F086
:104940003FFA00260491049B0293029BDD00A368BA
:104950005D19286800281BD1009B012B5CD1072121
:104960002368DA080132D2000B4013432360002E83
:1049700000D0350000236B60059B2F60062B9BD178
:10498000BCE7390002200DF0D5FA43100393D4E7B9
:10499000042803D1002E1DD12E001BE0B84211D1F6
:1049A000009B022BAAD123680298083B23600130A8
:1049B000616815F005FAA368C900CB58002B25D112
:1049C0002B609BE7019B002B04D1390002F0CEFF46
:1049D0000028E5D102986168013015F0F1F9049BD7
:1049E00002918B42B1D1009B012B15D1002E0FD02B
:1049F000236835000833236000237360059B37600C
:104A0000062B00D17AE72378009A57E70423D7E7EB
:104A1000200000F007F890E700256FE7070080FF0F
:104A20004CC60200F7B54368040001935A1C0023EA
:104A300017495800455AAA4206D90133222BF8D10A
:104A40005508AD18213B1D43E800A7681CF0B8FCD1
:104A50000723226865601340012200252360134369
:104A60002370A060019B9D4203D138001CF0C5FC5F
:104A7000F7BDEE00B959002908D0042906D001225B
:104A80002000FFF7C7FEBE19736843600135E9E7F0
:104A9000E8EF0200F8B505000023046886681449B1
:104AA000621C5800405A824206D90133222BF8D1A9
:104AB0005008821801201043002328606B6080009A
:104AC0001CF07EFC3700A400A860A419A74203D103
:104AD00030001CF092FCF8BD3968002905D004298B
:104AE00003D0012228001CF022FE0437EEE7C04666
:104AF000E8EF0200F7B545681600A8681F000191AD
:104B00001CF075FD0400A8681CF077FD1CF06FFD1B
:104B10000300032058430734001980001CF03EFCBA
:104B2000074B040003606B6832004360002385601C
:104B3000C36001993B000830FFF7ACF82000FEBDD0
:104B4000A899020070B5050088680C001CF0CCF82C
:104B500023000200024928001CF097F970BDC046EE
:104B6000B60D030010B5024821F0AEFBFEF71EFCA7
:104B700074DC020010B5040008201CF00FFC024B8E
:104B80004460036010BDC046E4990200F7B5C568F3
:104B900004001E00002D02D11D602800FEBD036927
:104BA0001830834205D1184B994203D017480EF0B4
:104BB0001DF919602000164F11007B680830019321
:104BC00063687B6000F060FB019B05007B6001284F
:104BD00007D002280CD00023E36023691B683360F0
:104BE000DBE723691B683360002BD6D1E360D4E791
:104BF000A36898681CF0FBFC002305308000E3608C
:104C000024186368EBE7C046E88C0200D40D03006B
:104C1000802E002013B501ABFFF7B8FF01280ED09E
:104C2000104C02280DD0019BA34219D0002B17D0A5
:104C300001AA01210C4821F041FBFEF7B7FB0198C6
:104C400016BD019802F0FCFD07490CF0F1FC0028AC
:104C500001D10198F1E701980FF04EFBA042F8D185
:104C60000020EDE7E88C020074DC020010B50B00B8
:104C7000022808D14A6805491868FFF7CBFF0028C9
:104C800003D1FFF76FFF8A68F5E710BDE88C0200DB
:104C900010B500220149FFF7BDFF10BDE88C0200EE
:104CA00013B5114C01AB114A2100FFF76FFF01282A
:104CB00003D0022805D0200016BD0D490D4820F074
:104CC00052FD019802F0BCFD0B490CF0B1FC00282C
:104CD000F1D1019802F0B4FD08490CF0A9FC0028BC
:104CE000E9D10198FEF762FBE88C0200E0D70200F0
:104CF000960D030038DC020068D9020074DC020063
:104D000030B58DB005006846FEF72AFB011E10D1B4
:104D10002A1D012020F0EBFC0122EB6804005B104F
:104D200001335B001343EB60FEF738FB20000DB04E
:104D300030BD0198054A0368934205D0044A002417
:104D40009342F3D0FEF732FB0024EFE774DC02005D
:104D50001CDA0200044B0B6003684B6043680800D8
:104D60008B600123CB607047209A02000048704797
:104D7000E89A0200F7B501911149040017000025D7
:104D80001BF0C2FF7B68AB4204D80E4920001BF029
:104D9000BBFFF7BD002D03D00B4920001BF0B4FF73
:104DA000019BAE009A5909492000BE191CF06DF80C
:104DB0000122B168200002F05BFD0135E2E7C04648
:104DC000FE790300941E030065F70200890E0300BC
:104DD000044B88600B60044B08004B600023CB60E1
:104DE0007047C04658CC0200AD18020070B50E00E6
:104DF0001049040000251BF087FF7368AB420AD8F6
:104E0000012B03D10C4920001BF07EFF0B49200031
:104E10001BF07AFF70BD002D03D0094920001BF064
:104E200073FFAB00F31801229968200002F020FD07
:104E30000135E2E7FE7903008D0E0300941E0300A6
:104E400065F7020070B50D0001281ED0002803D0C0
:104E5000022807D0002004E04B680E48002B00D148
:104E60000D4870BD00260D4C6B689E4203D3012097
:104E700064002043F5E7B300EB18996802200DF0B9
:104E800059F8401024180136EEE74B685B001843D0
:104E9000E7E7C04620DE020018DE02007C9B02002D
:104EA00070B506000D000B48002E0DD0B41CA400F8
:104EB00020001CF073FA084B46600360002D03D0FD
:104EC0000023083CA34200D170BDE958C21891608C
:104ED0000433F7E77C9B0200849B0200F0B50700D7
:104EE00085B00E0014001D2803D90025280005B048
:104EF000F0BD01238340324D1D4044D1314A13425D
:104F00001FD1F82292051342EFD0200002F098FC46
:104F10002D4B426A9A4205D020002C4920F053FBC9
:104F2000041E0CD02300310062680833009208315F
:104F300072683800FCF754FA254D0028D6D1254D6B
:104F4000D4E7200002F07CFC20490CF071FB002823
:104F5000CBD07368626829009818FFF7A1FF07009B
:104F60003100736808379A0005000831380023F0D3
:104F700039FA210070686368800038189A00083197
:104F800023F030FAB2E703A9100002F07FFD0025FC
:104F9000A842ABD00398104D0028A7DD736800210C
:104FA0005843FFF77DFF05002B00300008330093C6
:104FB0000830039B726804211BF0E3FF96E7C046AC
:104FC0008000100020000400D14D0000849B0200EE
:104FD00020DE020018DE02007C9B020030B50400D7
:104FE00085B0042A2DD1032540680D401FD1164BF2
:104FF0000A689A421BD101AAFCF776F9002802D16F
:1050000012480DF021FF019B02982900C01AFFF7FA
:1050100047FF050021006B6808319A00019B0830AA
:105020009C00091923F0DEF9280005B030BD0A0004
:1050300000230100206802F0C3FD02308000055902
:10504000F2E70025F0E7C04680D702008F0E03008C
:10505000F0B50C001100002285B01E000092012363
:1050600020000CF013FE184D002C1ED03568AB0745
:1050700003D1164B2A689A4217D010201CF08EF9E3
:105080000021040030680DF0BDF8002504260390CF
:1050900003980DF019F9071E0AD128002100FFF727
:1050A000FFFE050020001CF0A8F9280005B0F0BDA7
:1050B000AE4205D8F10020001CF08EF90400760005
:1050C000AB001F510135E3E77C9B0200849B02008B
:1050D000054B10B5186821F0A0FE044B002800D144
:1050E000034B180010BDC0468C29002020DE0200B2
:1050F00018DE020010B5034B186821F096FE024836
:1051000010BDC0468C290020E88C020010B5034B6E
:10511000186821F0F8FE1DF082FC10BD8C290020DB
:1051200010B5034B186821F0F5FE1DF078FC10BD9A
:105130008C29002010B5034B186821F0F2FE1DF0F9
:105140006EFC10BD8C29002010B5034B186821F0AF
:105150009DFE1DF064FC10BD8C29002030B593B07D
:10516000FBF76AF8184C200022F09BFA174D2868CC
:1051700011F054FC200022F099FAFBF74DF81EF0D4
:1051800077FE1CF0BCFB0400296803A821F03BFE5D
:105190000F4B20000A93039B0B93049B0C93059BDE
:1051A0000D93069B0E93079B0F93089B1093099BEF
:1051B0000193119320F078FA200020220AA90CF024
:1051C0003BFD044813B030BD942900208C290020F9
:1051D00055BA11C0E88C0200F8B5114D04002868DA
:1051E00021F01BFE002802D12000FFF7B7FF0D4B76
:1051F0001B78002B0DD10C4E3478E4B2002C08D172
:1052000001272868377003685B689847054B34703E
:105210001F70286811F0DEFC1DF001FCF8BDC046CF
:105220008C290020D62D0020D72D0020F0B58DB080
:105230001CF065FB0E4B02689A4217D10469416865
:10524000089444698268C36809948469C0690A94AF
:1052500084466C4605910692079308A8E0C8E0C40E
:10526000604620600348006821F0B7FD0DB0F0BD36
:1052700055BA11C08C29002010B54A6801491BF0AD
:1052800004FE10BDFF750300F0B5036899B0070078
:10529000986807911CF0ABF901220F21431E0430DE
:1052A000800004933B18029304330393FB6806A821
:1052B0001A4009180A70032293430A930CA8FEF7B8
:1052C0004FF8031E00D041E3079A7D68BC68002AAE
:1052D00000D19EE22A785E2A00D19AE207980793CD
:1052E0000DF0DAFA04000AE0D64B63600434D64BC2
:1052F0009A6C002A00D18BE200229C6C9A64FEF723
:105300004DF80D9422E3D14BEFE7D14BEDE77F2130
:105310006B785B06DB173278DB01100052B2084075
:1053200003430136002AF6DB01225B001343DCE76E
:1053300000237F213278DB01100052B20840C318ED
:105340000136002AF6DBDB000622EFE703220336F4
:10535000964308CEC9E70023C7E700237F213278B0
:10536000DB01100052B20840C3180136002AF6DBF8
:105370009B005B42029A9858002800D028E3B54968
:10538000B54820F0AEFFADE700237F213278DB0186
:10539000100052B20840C3180136002AF6DB029A08
:1053A0009B005B4298581EF093FFE5E700207F22A8
:1053B0003378C00119005BB2114008180136002B88
:1053C000F6DB251D0CF058FD60603EE000207F22DA
:1053D0003378C00119005BB2114008180136002B68
:1053E000F6DB251D0CF016FDEEE700217F22337859
:1053F000C90118005BB2104041180136002BF6DBE2
:10540000206820F083F9206071E700217F22337843
:10541000C90118005BB2104041180136002BF6DBC1
:10542000220001CC0CF0A2FE61E700207F2233783D
:10543000C00119005BB2114008180136002BF6DBE1
:1054400021000839251F0CF0E3F82C004FE7251D3B
:105450000CF02AFDB8E7251F04222168286802F015
:105460005FFC2860F1E700237F213278DB01100028
:1054700052B20840C3180136002AF6DB9B005B429B
:10548000029A21689950F8E000237F213278DB01ED
:10549000100052B20840C3180136002AF6DB029A07
:1054A0009B005B4221689858251F1EF013FFCCE734
:1054B00000207F223378C00119005BB21140081828
:1054C0000136002BF6DB2168251F0CF003FDBCE73D
:1054D00000207F223378C00119005BB21140081808
:1054E0000136002BF6DB2168251F0CF00BFDACE725
:1054F00000217F223378C90118005BB210404118A7
:105500000136002BF6DB231F1A6820680CF056FECC
:10551000083CECE62200231F083A2168126818684C
:1055200002F0FEFB0C3CE2E600237F213278DB0137
:10553000100052B20840C3180136002AF6DB029A66
:105540009B00D31A1A68002A00D118E700221A60BB
:10555000CDE600257F223378ED0119005BB21140C2
:105560004D190136002BF6DB029BAD005D1B286850
:105570001EF0AEFE002800D101E7002128681EF0D1
:10558000A9FEB4E600207F223378C00119005BB287
:10559000114008180136002BF6DB0CF0A7FCA6E63C
:1055A00000207F223378C00119005BB21140081837
:1055B0000136002BF6DB0CF0B1FC98E6236894E68C
:1055C0002368A360231F1B68636008348FE6231FD2
:1055D000196822682160BAE7221F136821682360D6
:1055E0002300083B18681060196080E673783278F1
:1055F0001B021343ED18194BEE1878E633787678D2
:10560000206836021E43019602F040FBEE1C251F67
:105610002C00002800D16AE6114A019B944663449D
:10562000F61864E633787678206836021E430196D1
:1056300002F02CFBEE1C251F2C00002800D056E6A3
:10564000EAE7C04618DE0200802E0020E88C020047
:1056500020DE0200C00E030048DB02000380FFFFD3
:105660000080FFFF33787678206836021E4301966B
:10567000EE1C02F00BFB0028CED1043C37E6337859
:105680007678206836021E430196EE1C02F0FEFA80
:105690000028C1D0F1E7F12126682200300049003E
:1056A0000CF064FD2300F02108331A00300049009B
:1056B00001930CF05BFD0021019A080020F017F81F
:1056C000AB786A781B0213430A9A0F210C320A92B4
:1056D0000A9AEE1CF3181360022206ABC9180B7865
:1056E0000A9D1A43231D13436B6000230A9A0B7013
:1056F0009360A060019CFAE525002368B54A0193F8
:10570000083D934209D16360A3602A000021032071
:105710001FF0EDFF019B2B6097E60122019B1340D8
:1057200005932AD0231F1A680592019A5210012A64
:105730000DD1A84A0C3C1A60E260226100212200CF
:1057400003201FF0D4FF059B23600323E3E72A68AF
:10575000002106929F4A03202A601A602300103B12
:1057600022601A0001931FF0C2FF019B069A0C3CB5
:105770001A60059B23600523CDE7019B6360180039
:1057800002F05EF8934B2060A3602A000599032085
:105790001FF0ADFF02F07AFA00280DD001228D4BE8
:1057A00006A92B600A9B5B6813400E3252181370D7
:1057B0000A9B0C3B0A9348E66368ACE7737832783F
:1057C0001B021343844AEB189B186360EB78083480
:1057D00023600F267F210220012506AA2368B61820
:1057E0000B4206D1221F1668002B00D190E6183C10
:1057F0007DE50A9A013B526802426FD0220008C23E
:105800000523636014000A9B1E680A9B0C3B0A93E5
:1058100035007D602B786E1C180010385A2800D98E
:1058200005E314F03DFA61FD70FD72FD040374FDA3
:10583000040385FD93FD98FD9AFDB1FDC3FDD3FDE5
:10584000E2FDF2FD02FE14FE18FE20FE31FE45FED2
:1058500055FE65FE77FE81FE96FEAFFEBDFE04039B
:10586000040304030403CBFECDFE2AFFD4FED9FEBD
:10587000E3FEEBFEFFFE1FFF2CFF04030403040303
:1058800038FF69FF630063008000AE00BF00DD00E9
:10589000DD00CBFFB300040304030403040304038B
:1058A000040304030403E900FB0004030D011C01CD
:1058B000040325015201370173018901380268028E
:1058C0009602800204039E01A901B401C101CD0129
:1058D000EA0104022102CE02ED02FE020A9A526897
:1058E0002A4032700A9A0C3A0A9279E77378327831
:1058F0001B0213430A9AEE1C0C320A920A9AF318FE
:1059000013602B7806A9403B5A4253410F2252188C
:1059100010785B000A99034323434B6000230A99E4
:1059200013708B60E3E423682A4A934200D1A4E613
:10593000DA0707D55B10DBB2043C012B00D048E747
:105940000222CEE1FDF72AFD23680D930D9B23492A
:1059500018680BF06DFE002800D1AEE27A68002ACC
:1059600000D1AAE21378432B00D098E293785078C4
:105970001B02D11C0343CB187B60BB68103BBB6090
:105980009CE4002120680CF03DFC3CE52500210052
:1059900020680C350CF036FC844200D155E500231C
:1059A000236011E52000337876780C383602BC602D
:1059B0001E4303680196EE1C002B02D12300083B16
:1059C00018680CF059FC002802D1103C019B27E616
:1059D00060608BE4E88C02000380FFFF74DC02004F
:1059E00001220A9B06A95B6813400E3252181370FD
:1059F0000A9B0C3B0A937AE400207F223378C00193
:105A000019005BB2114008180136002BF6DB81004B
:105A1000641A04342100FFF743FAF4E400207F22E3
:105A20003378C00119005BB2114008180136002B11
:105A3000F6DB8100641A043421001BF09DFDE2E4D2
:105A400000207F223378C00119005BB21140081892
:105A50000136002BF6DB251D1EF0C0FCB4E425004A
:105A6000231F083D1A68216828681EF0F0FCECE44A
:105A700000207F223378C00119005BB21140081862
:105A80000136002BF6DB8100641A04342100FBF799
:105A9000ABFEB8E400237F213278DB01100052B264
:105AA0000840C3180136002AF6DB251F2868216844
:105AB000022B03D1CC4A0EF0A3FBD2E4083C0A002F
:105AC000010020680EF09CFB9DE400237F213278CA
:105AD000DB01100052B20840C3180136002AF6DB81
:105AE0009A08920052421059032221681340251F40
:105AF000002B02D1FDF7F2FCA7E4012B03D12A68A9
:105B00001EF0A5FC04E51BF03DFB9EE400257F2173
:105B10003378ED011A005BB20A4055190136002BAB
:105B2000F6DB2200290020680CF064FDAF4B5D1904
:105B3000AD006419FFF7DBFB00257F213378ED0111
:105B40001A005BB20A4055190136002BF6DB220021
:105B5000290020680CF0A2FDFF222B0A13401540FB
:105B6000E5E70322F31C93430022186811001E1D71
:105B7000251D1BF059FB27E40322F31C9343251F2B
:105B80002268296818681E1D1BF04EFB69E4032279
:105B9000F31C934319795E1D8A00A41A0434220071
:105BA00018681BF05DFB2EE40322F31C9343187965
:105BB0008021C243490092005E1DA4180143EEE714
:105BC00000207F213378C0011A005BB20A40101810
:105BD0000136002BF6DBFF25FF220100C3096D0013
:105BE00011402B405B189B00E41A000A0240231D61
:105BF00020680CF011FAFFF706FC00217F223378B1
:105C0000C90118005BB2104041180136002BF6DBC9
:105C1000FF22CB0952001340CAB29B189B00E41A22
:105C2000083C220000200CF08FFBFFF7ECFB002368
:105C30007F203278DB01110052B20140CB180136CF
:105C4000002AF6DBFF211800FF250840DA096D0065
:105C50002A40451C52199200A41A1B0A194022001E
:105C60001FF045FDFFF7CFFB00217F223378C901EC
:105C700018005BB2104041180136002BF6DBFF2202
:105C8000CB0952001340CAB29B189B00E41A0C3C8B
:105C900022000120C7E70F2206ABD2181378002B91
:105CA00000D14DE601210A9B5B680B4013700A9BF3
:105CB0000C3B0A9344E60A9B5B6813420ED0032216
:105CC0000A9B21685B6893431C0059609A600A9B99
:105CD00008341E680A9B0C3B0A9399E50A9B0C3B0F
:105CE0000A930A9B03998B42E5D2FDF757FB0020EC
:105CF000BC6019B0F0BD6B78022B03D1043C206866
:105D0000FFF7EEFA002BFAD10A9B039A934203D2D3
:105D100037493848FFF735FB9868002801D0FFF76E
:105D2000DFFA0C3BF1E7231F0593079B0193231F29
:105D30001868019B002B19D00021079B0791019344
:105D4000019A0BAB0CF02EFD0B9B012812D12E00FB
:105D50002360FDF723FB0F2306AA9B181A780A9BE2
:105D60007E601343BC60FB600120C2E70BAB019A6D
:105D70002168E7E7002811D1043C002B00D11A4B21
:105D80002360019B002B19D01B49180020F0B3FAA7
:105D9000002813D0FDF702FB019BD6E51749180038
:105DA00020F0A9FA002805D00B980EF0A5FA043CC3
:105DB0002060E6E7FDF7F2FA0B9BC6E5059CFFF7CE
:105DC00096FA00207F223378C00119005BB211409F
:105DD00008180136002BF6DB251F2A6821680CF015
:105DE00079FDFFF73EFBC046E88C0200FFFFFF3F56
:105DF000060F030038DC020068D9020074DC0200E0
:105E000000217F223378C90118005BB2104041188D
:105E10000136002BF6DB250001CD0CF06DFDFFF700
:105E2000D3FA2068251F1FF07DFCFFF70EFBAF2B78
:105E300005D80120803B5B000343FFF756FABF2BD8
:105E400004D8B022D31A9B00FFF794FACF2B04D8C2
:105E5000C022D31A9B00FFF713FBD62B06D8D03BEA
:105E6000180021680CF066F8FFF7CDFAFA2B08D875
:105E7000251FD73B1800226829680CF0FBFDFFF7AF
:105E8000F0FA4549454820F02CFA0400FDF786FA5F
:105E9000049B04339B00FB185C60022029E75E2B07
:105EA0000BD1BC680D98231DBB600EF025FA606015
:105EB0007B6801337B60FFF701FA0D9B384A934200
:105EC0002AD0384A934227D03B6898681BF095FB4C
:105ED0001BF093FB7B68051D28005C1B1BF087FBF8
:105EE000060028001BF089FB05001BF080FBA41BAB
:105EF000060028001BF081FB05001BF078FB0190D9
:105F000028001BF07AFB01220378002B09D1330013
:105F100001990D980EF090FA0F2306AA9B18012103
:105F20001DE059B2002909DB19001F255B09294032
:105F300001308C42EBD3641AD218E5E70F21E0253B
:105F40001940ED001B012B40457802302B43F0E750
:105F50000A9A52680A401A700A9A0C3A0A921A78F7
:105F6000002AF5D10A9903980D9A81420DD3012197
:105F700019700A9B02311B687B600A9B5B688B432C
:105F80000A9904338A601A60F9E4049B04339B0085
:105F9000FB185A6081E7C046EC0E030084DB020068
:105FA000E0D70200F0D7020070B5050014001BF026
:105FB000E9FC024B2560636070BDC0464D190200CC
:105FC00010B50C007F2906D801211BF01BFD00280D
:105FD00000D0047010BD224B994210D802211BF052
:105FE00011FD0028F6D04023A2095B421343037041
:105FF0003F232340802464421C434470EAE7194B4A
:10600000994214D803211BF0FDFC0028E2D0202384
:10601000220B5B4213433F2180220370A3095242AB
:106020000B400C401343224343708270D2E704219B
:106030001BF0E8FC0028CDD01023A20C5B421343D8
:106040003F2103708023220B5B420A401A434270B7
:10605000A2090A400C401A431C438270C470B9E77D
:10606000FF070000FFFF000007B5034B00906846E4
:106070000193FAF701FD07BD4D1902000523020047
:1060800070B5094C094D2068434309489B189B0093
:1060900018582B682260C0180F2319400901286086
:1060A00002F0E6FC70BDC046442A0020482B0020C8
:1060B000089D0200A839030000B5080006292ED863
:1060C00013F0E4FD040A10161B2128009A18E2239D
:1060D000DB00D218107800BDC4329200D05C80067C
:1060E000800EF8E7C4329200D05AC004400EF2E7A6
:1060F000C4329200D0580003F8E7C43292009A18D4
:1061000090780009E7E7C43292009A18D078000727
:10611000000FE0E7C43292009A18D078F1E7024B02
:10612000024A00201A60D6E764000020250F030011
:10613000A83910B504000800062949D813F0A6FDB7
:10614000040A141F2A343F00E221A218C900521881
:10615000137010BD3F210B401800C4329200135D34
:106160008B4303431355F4E77F21C4329200194057
:106170001948135B890103400B431353E9E77F215F
:10618000C432920019401059144B490303400B4389
:106190001351DEE70F20C4329200A2181901937840
:1061A00003400B439370D4E70F210B401800C43217
:1061B0009200A218D3788B430343D370C9E70F2012
:1061C000C4329200A218D1781B0101400B43F4E7BE
:1061D000034B044A1A60BCE73FE0FFFFFF1FF0FFDC
:1061E00064000020430F0300F0B5D2B285B00E006A
:1061F0000293072113000B40013BDBB2042B02D9B1
:10620000294C2A4D25608A431F02002A24D1284B9D
:106210003578C45C274B2409E443E4B22D1BDB1919
:10622000EDB2039308276319039ADBB2D35C5A00DB
:10623000D2B25BB20192002B33DA1A210320013F64
:10624000FFB2FFF71BFF019B002FF0D10134E4B236
:10625000002CE7D135701AE0D4431749E4B2CE5C84
:106260000825144B1B19DB5D5A00D2B25BB20192B8
:10627000002B0FDA05210220FFF700FF013DEDB2F0
:10628000019B002DF0D10134E4B2002CE8D102983A
:1062900005B0F0BD31000120FFF7F0FE002EE9D07F
:1062A000ECE706210420CAE764000020300F030059
:1062B00019070000BB140300161B03000022F0B5F1
:1062C00005000F00FF200F248BB008AB654EDA717C
:1062D0000100C431890069188B781A09B25C234027
:1062E00012011343CA788B7013071B0FF35CA24390
:1062F000234013431A09B25C234012011343CB70AD
:106300000138E5D2E223DB00EE5CB308F31ADBB21E
:106310000493554B1B68002B0BD0E222C421812033
:10632000D200890000013B00AA186918281809F05A
:1063300061F900244823029403930194009481227C
:106340002B1912019B181B781800059307239843FB
:1063500020D008A92300059A07312800FFF744FF41
:106360000230C4B2023FFFB2002F78D02B780393E3
:10637000013EF6B2002E47D1E2222B19D2009B1823
:106380001E78B308F31ADBB204930023029301933F
:106390000093D4E7354B009A9C469A5C2300C433A3
:1063A0009B00EB18997809090A4331498A5C0199E5
:1063B00007926246DB78525C1907090F0A432C49A1
:1063C0001B098A5C2B490692029A8A5C0699134340
:1063D000079A8A182649C95C01238918FF2A00DC1C
:1063E000031CC918882309061B06C918090F0020B9
:1063F000FFF744FE039B013BDBB20393002BB7D1B5
:106400000134E4B2013FAEE7049B013BDBB20493ED
:10641000002B02D1059B002B18D12200C432920020
:10642000535D00999B069B0ECB18DBB20093535B28
:106430000199DB045B0ECB18DBB201935359029A2E
:106440001B035B0ED318DBB2029378E708A9230085
:10645000059A07312800FFF7C7FE04008CE70BB050
:10646000F0BDC0463F100300402A00200B1A030075
:1064700017120300BB130300064B1B5C002B05D057
:10648000054B185C4843C011C0B27047034B185C01
:10649000FBE7C04667130300E0110300A0100300F0
:1064A000064B1B5C002B05D0054B185C4843C01104
:1064B000C0B27047034B185CFBE7C046671303008C
:1064C0001B1B0300F0100300F0B5037A8DB004002D
:1064D0007F2B00D158E10300070000250933FF336B
:1064E0000837099301953E787F2E00D087E000237E
:1064F0000693019306998B00E31803931A7A481CBC
:106500001B7BC0B206907F2B00D11CE19F49CE5C63
:106510008D5C9F49AE4200D0F2E08D5CCB5C049371
:10652000039B597A019B5918CBB20193049BEB183A
:10653000DBB20793023B1B06DCD4A827019B5D1B43
:10654000EBB20593A82F00D0E2E0039B039A5B7A9D
:10655000527B5B08520899180291019901988A1898
:10656000E221C31AD2B2DBB2C900A218E318521852
:106570005B18157818782D1AEDB27F222B006DB2BA
:1065800093430893EB17E8185840029913F002FD63
:106590002800CBB20299099313F016FC059A002546
:1065A0001600C3B20A93029B9B18DBB20B93320016
:1065B00039002000FFF77EFD0A9B01360B9AC018B8
:1065C000F6B2C3B2964200D1B7E0099AAD18029A6A
:1065D000EDB2AA420DD8AD1A20216A46521812789F
:1065E000EDB252B2002A00DAA5E0002B01D001334F
:1065F000DBB2320039002000FFF79AFDD7E7012E09
:1066000078D12B003100019A20001BF07EFABA7875
:10661000604BA1789B185B7830000193FB7808935E
:10662000FFF72AFF3F23E178034030000293FFF792
:1066300037FF7F22584B9B5D1A40584B03929A5D5F
:106640000F231A400492564A925D1A400592554A09
:10665000925D1A4006923F22534B9B5D07937B78D5
:10666000EB18DBB20A93029B134002937F2318407E
:1066700083019C462A003F21C4329200135D0F26FD
:106680008B4302990B431355135B48490B406146FA
:106690000B431353039B10595903454B03400B43C2
:1066A0000498190C3140000113510843A21890704E
:1066B0001B0E0598B3430699034309011E400E4380
:1066C000D670694681226319097F12019A181170E8
:1066D000E222D2009B180899019A013552181A70CB
:1066E0000A9BEDB29D42C5D1099B0437BB4200D045
:1066F000F9E6FCE6022E8AD12B00019AFF2183E7FE
:106700002C48AE4201D9C55C08E78D5C835C06E786
:10671000049B019A39009A18D2B22000FFF7CAFCF4
:10672000059A050039002000FFF7C4FC079B2D1ACD
:10673000EDB2029321E7013B5AE70137FFB2AF2FD9
:1067400000D0FFE6D6E6023189006118019B497846
:1067500059186368C9B2002B13D1E223812216486D
:10676000DB001201E318A518001B1A18C4329200AE
:10677000125D1E789206D20EB21A1A7001339D4233
:10678000F3D12000FFF79AFD0DB0F0BD50100300CB
:10679000171303000B1B0300401103004F0F0300EE
:1067A0009F0F0300EF0F0300BB1903003FE0FFFF43
:1067B000FF1FF0FF90110300F0F8FFFF0048704743
:1067C0000148E80110B501F023F980F31088014871
:1067D00010BDC046E88C0200044B054A05481A600B
:1067E000054A5A6000221A817047C0464C2A002090
:1067F00020030700E88C020074696275F7B5160083
:10680000314A0B0088321768002F02D12F480CF054
:1068100029F902212E4C2F4DE167A324E4002C59C5
:106820002D4AE4B206343C192C4F3D68A54204D1F0
:106830002B4B116001930198FEBD2578002832D1C1
:10684000601C002B04D1290002F054FB01900BE0E6
:106850005A68AA4200D92A000100186821F0CBFD2D
:1068600001226B001A430192002E0ED06219537858
:106870005B423360D37811791B0209040B43917892
:1068800052790B431206134373603E68A91D6118C9
:10689000721A200021F0AFFD0223751B0E4A063D3F
:1068A0003D601360C7E7022D04D8002303600E3358
:1068B0000193D9E72100042221F094FDE91E201D57
:1068C000002202F0FFFAC1E7802E0020D41B030053
:1068D00004E100E00010004000E100E0582A002040
:1068E000E88C02007FB5002101AA0800FFF786FFAF
:1068F0000A4B98420FD00121019B03905A00029B42
:106900000A438B400492064A032013400B4303A919
:106910000593FEF7C5FA07B000BDC046E88C02003B
:10692000FEFFFF7F002213B501AC11002000FFF72E
:1069300065FF094B98420ED02378022B08D9637863
:10694000012B05D1A378002B02D1E378012B02D0D3
:1069500002480CF087F816BDE88C0200B41B030057
:1069600002220B4B10B5DA6700220121094B5A6154
:10697000094A11615A69002AFCD0084C8834206801
:10698000002803D01AF039FD0023236010BDC04653
:1069900004E100E0FC10004000100040802E0020C8
:1069A00010B5FFF7DDFF014810BDC046E88C0200BE
:1069B000F8B5FFF7D5FF364C2678657806360135F1
:1069C000754328001AF0EAFC324A86191660002244
:1069D000314B451988331860304B01211D60304B15
:1069E0005A608022D20511605A68002AFCD0032127
:1069F0002C4B61562C4A00259950A178043A9950A5
:106A0000617A083299506168284A08269950217A9B
:106A1000274A284F99500121274A9D500432995006
:106A2000264A9E508122247892042243A324E40023
:106A30001A510224224A9C50224A9F50224F043A63
:106A40009F501827214A9F50214AC0279850C122A1
:106A500092009E501F4ABF00D0591F4E0640C020D2
:106A600000023043D051C020400014501460102266
:106A700080301C5822431A50184A5560596051689A
:106A80000029FCD00021116101229A60F8BDC046A6
:106A90004C2A0020582A0020802E0020482A00205E
:106AA000FC000040001000400C0500001C05000028
:106AB00024050000FFFF00002C0500001405000065
:106AC000340500003C0500002110010054050000C1
:106AD0000405000000E100E0FF00FFFFFC100040A3
:106AE00010B5FFF765FF014810BDC046E88C0200F5
:106AF000F0B505008DB01600002802D06F480CF0EC
:106B000075F96F4B09AA190091C991C21A781F7AB9
:106B100006925A7805929A78039203229A56049222
:106B20005A685B7A019202937368AB424CD9EB00CE
:106B30000793B368EA009B181A68002A1BD0042A3E
:106B400019D0586800F090FFB368EA000400985824
:106B500002F0DAF90200B338FF3806282ED813F015
:106B600095F8040C131920262800631EFA2B00D96F
:106B7000A2E0E3B206930135D6E7631EFD2B00D9F0
:106B80009AE0E3B20593F6E7532C00D994E0E3B220
:106B90000393F0E7072C00D98EE04A4B1B57049370
:106BA000E9E7022C00D987E0E3B20293E3E701941E
:106BB000E1E7FF2C00D97FE0E7B2DCE74249434838
:106BC0000DF0CEFBFCF7F2FB414B09AC88331B68A0
:106BD000002B17D16B461B7E277223706B461B7DE3
:106BE00063706B461B7BA3706B461B7CE370019B41
:106BF0000A936B461B7A6372314B07CC07C3354847
:106C00000DB0F0BD6B461B7E2D4D23706B461B7D7A
:106C1000637022882B889A4212D0FFF7A1FE6B4640
:106C20001B7B2772A3706B461B7CE370019B0A934E
:106C30006B461B7A63720ECC0EC5FFF7B9FEDEE71A
:106C40000222254B2549DA670022254B4A61013291
:106C50001A614A69002AFCD06846007B09AA907034
:106C60006846007C1772D07001980A906846007AD6
:106C70005072134870CA70C01A4A0498985003980A
:106C8000043A98500298083298500198164A985041
:106C9000164A9F5000224A6001325A604A68002A10
:106CA000FCD000220A61C02101329A60104B0132EF
:106CB00049005A501A60A2E70E4980E75E1B0300A4
:106CC0004C2A0020561B0300791B0300A0DD0200A4
:106CD000802E0020E88C020004E100E0FC1000405F
:106CE000001000400C0500001C05000024050000F9
:106CF00000E100E08F1B0300214BF7B55A68214DDE
:106D0000002A03D000225A600132AA601A69002AC0
:106D100034D000221A61A323DB00E8581A4BC2B218
:106D2000883319680C78A24201D2140008708023BD
:106D3000DB00EB58012B1FD1144E154A3768A31DF9
:106D400012680193FB189A4216D3621C380021F096
:106D500049FBA923DB00EB58621CBB5412F0BEF8C0
:106D60003368020A1C19E270020C2271019AA070A9
:106D70009B18000E607133600123AB60F7BDC04605
:106D8000FC10004000100040802E0020582A0020F7
:106D9000482A0020F7B5314F00933B008833019219
:106DA0001A680E00002A02D12D480BF05BFE02216A
:106DB0002C4B2D4CD96700232C4D636101332B6183
:106DC0006369002BFCD0A323DB00EB580099DBB2F6
:106DD0007118994203D9B3423DD39B1B0093009B8A
:106DE0008837F31813703B68010001331800320034
:106DF00021F0F8FA009B002B06D038680136801984
:106E00001A00019921F0EEFA0023636001332B6030
:106E10006368002BFCD00123AB600023236123694E
:106E2000002BFCD00023636101332B616369002BCD
:106E3000FCD00023636001336B606368002BFCD0DF
:106E40000023C021022223610133AB60084B4900BB
:106E50005A501A60F7BD1E000023BFE7802E0020A5
:106E6000D41B030004E100E0FC10004000100040CF
:106E700000E100E007B501A902F07CFC019B0200E3
:106E800003210248FFF786FF01480EBD521B030095
:106E9000E88C02001FB5012201A900F073FF002356
:106EA00001981A000299FFF775FF014805B000BD6F
:106EB000E88C02000300203B5E2B00D93F20052315
:106EC00020384343014A1068C0187047680000200A
:106ED000044B0B6043684B6083680800CB60002361
:106EE0008B607047389F020070B50500080068434A
:106EF0000130401008300C001AF050FA0122044B07
:106F000085710360037944719343037170BDC0467A
:106F100044A2020010B50379DB0702D501480BF04B
:106F200065FF10BDE91B030070B5050020201AF0B5
:106F300035FA05210B4B040003600800FFF7D4FF6E
:106F40006B68EA68A060236162602A7C2000A276F8
:106F5000AA689B1863616B7CE3761AF04BFE2000F5
:106F600070BDC04688A2020070B50D000400FFF796
:106F7000D1FF280000F04CFD0100092802D9044887
:106F80000BF070FD20001AF097FE024870BDC0465D
:106F9000861C0300E88C0200F7B5C3684269040050
:106FA00093420BD1037E052B08D1C37E181E43D01C
:106FB00020001AF01FFEA0681AF08CFE01250026A2
:106FC0006B1E0193A7683200290038001AF040FEBA
:106FD000320003000199380001361AF046FE052EF2
:106FE000F0D10135052DEAD100252A000023042126
:106FF000A06801351AF039FE052DF6D1227E637E98
:107000009A421AD2207FFFF755FF00250700042679
:10701000227E7B5DB21A1341012213400832534392
:1070200004212A00A06801351AF01FFE052DEFD1BA
:10703000237EA06801332376FEBD9A42F8D1E3682F
:1070400061695A1CE2608A4205D120232377A0237C
:10705000DB002383ECE758782077FFF72BFFA17E36
:107060000500002901D0064BF3E71AF09AFD4042D3
:10707000207628001AF0ADFD01306076D8E7C046D2
:10708000FF050000F0B50C000B6889B00700180080
:107090000493FFF73FFF6568280000F0D1FB1E4B0B
:1070A000984202D01D480BF0A1FE072F01D11C48C9
:1070B000F9E7A06800F0ACFC0690E06800F0A8FCDE
:1070C0000790206900F0A4FC0590606900F0A0FC26
:1070D000059B0600002B01DB002802DA11480BF0AB
:1070E000C1FC062F14D0A06900F092FC0700E069F3
:1070F00000F08EFC059B03900093280002970196F8
:10710000079B069A04991AF013FE074809B0F0BDD0
:1071100000200700EEE7C04644A20200161C030050
:10712000291C0300431C0300E88C020070B5040016
:107130000800160000F06CFC0500300000F068FC50
:107140000600002D01DB002802DA0C480BF08AFC57
:1071500020001AF0D8FDA84204DD20001AF0E1FD5D
:10716000B04201DC0648F1E73200290020001AF0A5
:10717000BCFD43000120184370BDC0469F1C0300A6
:10718000B81C0300F8B50D000C682000FFF7C2FE24
:10719000686800F03DFC0600A86800F039FC0700B4
:1071A000002E01DB002802DA0F480BF05BFCE868D8
:1071B00000F02EFC0500092801D90C48F5E7200055
:1071C0001AF0A1FDB04204DD20001AF0AAFDB84279
:1071D00001DC0748E9E72B003A00310020001AF0F3
:1071E00044FD0448F8BDC0469F1C0300861C0300F4
:1071F000B81C0300E88C0200F7B50E002549040016
:10720000019219F042FE019B002B03D1224920007C
:1072100019F03BFE2149200019F037FE002530000F
:107220001AF07FFDA84225DD002730001AF06BFD23
:10723000B8420CDD39002A0030001AF056FD184B18
:1072400018491A5C200019F020FE0137EDE71649B5
:10725000200019F01AFE019B002B09D130001AF012
:1072600060FD0138A84203DD1049200019F00DFE31
:107270000135D4E70949200019F007FE019B002BD6
:1072800003D10B49200019F000FE0A49200019F033
:10729000FCFDF7BD451D03004C1D0300581D0300F8
:1072A0005A1D0300542403002F770300521D0300CE
:1072B00072250300941E0300F0B50E001100002299
:1072C0008BB01C000092032330000AF0DFFC032E79
:1072D00000D9D5E0300012F0D9FC020B91910521C4
:1072E0000800FFF701FE070038001AF0F3FC18E071
:1072F0002068644B0340062B07D0830700D07AE058
:10730000614B02689A4200D075E007A902F032FA98
:10731000079B03900593012B06D100781AF004FF18
:10732000070038000BB0F0BD00231E00039A029343
:1073300003990598511A884215DD11780A2901D060
:107340003A2908D19E4200DA1E00029B01330293C3
:1073500000230132ECE701332029FAD03929F8D98A
:107360004A480BF07FFB002B05D0029A01320292B3
:107370009E4200DA1E0002993000FFF7B5FD00259D
:1073800007002C00039B0493039A049B9B1A059A05
:107390009A4223DD049B1B780A2B01D03A2B0FD194
:1073A000A64207DD210000232A0038001AF05DFC08
:1073B0000134F5E700240135049B01330493E3E72E
:1073C000202B07D1002321002A0038001AF04DFCA1
:1073D0000134F1E7392BEFD8303BF4E7029BAB42A5
:1073E0009FDDA6429DDD210000232A0038001AF00F
:1073F0003CFC0134F5E726480BF0F8FC206800F06F
:1074000007FB0500606800F003FB02900100280004
:10741000FFF76AFD0700022E00D165E7012207A9E8
:10742000A06800F0AFFC002D0BDB029B002B08DBFB
:107430000024089B03940493029B049A6B43934299
:1074400005D014488DE7039B01345B190393029B1D
:107450009C4200D165E70026AE42F4D0039A079B18
:107460009446049363449A5D131C092A00D90923A6
:107470003100DBB2220038001AF0F7FB0136EBE7EF
:107480000548B9E7070080FF4CC60200C81C03008E
:10749000F11C0300091D0300261D0300F0B585B093
:1074A000019105000021019812F0CAFD041E02D0CE
:1074B00021480BF0D7FA28001AF025FC0600280016
:1074C0001AF02FFC01003000FFF70EFD0700280026
:1074D0001AF019FCA0422CDD002628001AF013FC3B
:1074E000B04224DD3200210028001AF0FEFB13F028
:1074F00067FD019913F038FA15F03CFB00220F4BA1
:1075000013F0E8FD0E4B00220290039112F05EFD95
:107510000923002804D00298039915F0BBFA030050
:107520003200210038001AF0A0FB0136D5E7013403
:10753000CDE7380005B0F0BD5B1C03000000E03F64
:1075400000002240F0B587B00491059207001AF0C0
:10755000E8FB040038001AF0D6FB029004981AF0F9
:10756000E0FB0190A04202D019480BF07BFA019990
:107570000298FFF7B9FC00250390029B9D4223DA95
:107580000026019BB3421DDD3200290038001AF0AD
:10759000ACFB32000400290004981AF0A6FB059BFE
:1075A000002B0AD02318092B00DD09233200290003
:1075B00003981AF05AFB0136E3E7231ADA43D2178D
:1075C0001340F3E70135D8E7039807B0F0BDC04694
:1075D000651D0300F8B5040008000D00160000F05A
:1075E0002FF9164FB84201D000200FE0053C042CC3
:1075F000FAD8200012F040FB141403F80B003000FE
:1076000000F06AFA011C2800FFF748FFF8BD3000BF
:1076100000F062FA011CFE20800512F0CDFFF1E7B8
:10762000300000F00DF9B842DED162426241310013
:10763000D2B22800FFF786FFE8E7C04644A2020066
:10764000F7B507000193142008AB0E0015001C7855
:1076500019F0A4FE044B476003606B461B798660FB
:10766000C56003744474FEBDC4A2020070B5050079
:107670000C2019F093FE0521044B040045600360C3
:107680000800FFF731FCA060200070BDEC9E0200F6
:1076900010B50400034B036040301FF0D3F9200005
:1076A00010BDC04608A3020010B50F4C200020F00A
:1076B000E0FB002808D0200020F081FB0B4B1B686A
:1076C000984202D1F9F748FB10BD3F21084A1388C0
:1076D00001330B40074909888B42F5D01188064CCD
:1076E00013806054F0E7C0465C2A00207C2E002006
:1076F000BE2D0020C02D0020D82D0020002210B566
:10770000044B05491A80054B05481A8020F0B6FB4A
:1077100010BDC046BE2D0020A9760000C02D00205F
:107720005C2A0020034B1888034B1B88C01A431E99
:1077300098417047C02D0020BE2D0020084A094BFB
:1077400010881988884201D130BFF9E713880649AB
:10775000C85C3F21138801330B4013807047C0463B
:10776000C02D0020BE2D0020D82D002070B50400B3
:107770004518AC4205D02178024820F024FB0134A2
:10778000F7E770BD5C2A002070B504004518AC42D4
:107790000DD02378064E0A2B03D10D21300020F0A6
:1077A00012FB2178300020F00EFB0134EFE770BDB2
:1077B0005C2A002070B504000825002C08D02100A8
:1077C000082C00D929000348641AFFF7CFFFF4E71B
:1077D00070BDC0468B1D030070B50500040008266F
:1077E000002C08D02100082C00D931000448641A6C
:1077F000FFF7BCFFF4E72800FFF7DCFF70BDC046D1
:10780000821D030010B5010001481CF007FB10BDEC
:1078100018000020142313B5064C009319221821D8
:1078200020000FF09FFF044A0449200020F07AFD59
:1078300013BDC0465C2A00200000002091760000A5
:10784000074BC2070AD4074A074B0240062A05D055
:107850000322064B0240022A00D00368180070473A
:107860000C970200070080FF4CC6020004B3020020
:1078700070B50D000400160007F0A2FB2800FFF70A
:10788000DFFF8368002B04D03200290020009847D6
:1078900070BD42680249200019F0F7FAF8E7C046C7
:1078A000D81E030010B50A0001000248FFF7E0FFF0
:1078B00010BDC046E48B0200F7B5050008000E00BD
:1078C0001EF013FD002810D001AA694630000CF00C
:1078D000E7FD009B002B08D01749280019F014FA87
:1078E000009CE71EA400002F09DA310028000222C4
:1078F000FFF7BEFF2800114919F006FAF7BD019BFA
:1079000028001A1911000C3A08390B6812680C4942
:1079100019F0BBFA019B1B19043B1A68002A06D117
:107920000649280019F0F0F9033F0C3CDBE7054954
:10793000280019F0AAFAF7E7961E03007225030043
:10794000BA1E0300CF1E030010B50400FFF778FF36
:10795000054B0069984203D0431E9841C0B210BD48
:1079600020001DF00EFEFAE74D14010070B5050071
:107970000C0001208D4203D0214B9D4201D10020FB
:1079800070BD9942FBD001231D4204D01942F6D1AB
:107990002B000D001C002A001A4B1A40062A05D0A5
:1079A000AA0711D1184A296891420DD12340062B0C
:1079B00005D0A307E3D1144B22689A42DFD12100FE
:1079C000280001F087FEDBE72340062BD7D0A30772
:1079D00003D10D4B22689A42D1D02800FFF730FF27
:1079E0008369002BCBD0220029001B209847002858
:1079F000C5D0064BC01A43425841C0B2C0E7C0468A
:107A0000E88C0200070080FF4CC6020020DE020066
:107A1000104B10B5984219D00F4A0123904217D04D
:107A2000184201D0184110BD830706D10B4B0268E4
:107A30009A4202D102F0BCFDF5E71AF0B5FB084905
:107A4000020008480CF08CFCFBF7B0FC0020EAE7D1
:107A50001800E8E718DE020020DE02000C970200A2
:107A60005D1E030028DD020010B5C30705D483079F
:107A700006D1054B02689A4202D11BF00DF810BDE9
:107A8000FFF7C6FFFBE7C0460C9702000F4B70B52F
:107A90000D000124984204D100230B60230018003C
:107AA00070BD0B4B984201D10C60F7E703002340F7
:107AB00002D040102860F1E78207F0D1054A016842
:107AC0009142ECD102F074FDF4E7C04618DE0200EA
:107AD00020DE02000C970200184B10B5984228D007
:107AE000174B984227D0C30703D5401013F068FA0C
:107AF00010BD0323184206D1124A0168914202D1F7
:107B00001AF0D3FFF4E702001A40022A08D10E4A05
:107B10000240062A04D0FF22D20580189843E7E7E6
:107B20001AF042FB0949020009480CF019FCFBF766
:107B30003DFC0020DCE7FE208005D9E718DE0200CE
:107B400020DE02000C970200070080FF431E0300A6
:107B500028DD020010B583070CD103680A4CA3424C
:107B600002D119F0C3FE10BD084CA34202D119F096
:107B70001AFDF8E71AF018FB0549020005480CF059
:107B8000EFFBFBF713FCC046849B02003898020011
:107B9000F31D030028DD020013B50C0001A9FFF757
:107BA000D9FF019BA34206D02200034903480CF0F1
:107BB000D7FBFBF7FBFB13BD161E0300A0DD020085
:107BC000F7B505000C0017001E00D3070ED557109F
:107BD0000197019B002B1FDA1B190193002E1DD06A
:107BE000002B15DA002301930198FEBD01A91000B6
:107BF000FFF74CFF0028ECD138006C681AF0D4FA7B
:107C0000220003000B490C480CF0AAFBFBF7CEFB4B
:107C1000A342E9D90194E7E7002EF9D1019B002B9B
:107C200001DBA342E0D36A68044905480CF098FBE5
:107C3000ECE7C046B91D030028DD0200DD1D03008E
:107C40001CDA020010B50400830710D10D4B026846
:107C50009A420CD10C4B0340062B06D1C0081AF0F7
:107C600067FF43000120184310BD8068F9E720003A
:107C7000FFF7E6FD4369181EF6D021000120984762
:107C8000F2E7C0464CA50200070080FF164B70B516
:107C9000040000209C4203D0144DAC4201D10120CD
:107CA00070BD134B00209C42FAD00126264086422C
:107CB00003D06010431E98410DE02000FFF7C0FD87
:107CC0004369002B09D0210030009847002804D0D8
:107CD000401B43425841C0B2E2E72000FFF7B2FF29
:107CE0000028DCD00138E5E718DE020020DE0200C3
:107CF000E88C020010B50400FFF7A4FF002809D1AA
:107D000020001AF051FA0449020004480CF028FB44
:107D1000FBF74CFB10BDC046751E030028DD0200BA
:107D200070B504000D001600FFF78AFD036A002BF2
:107D300005D03200290020009847002818D10D4DA9
:107D40002000002E08D11AF02FFA02000A4928005C
:107D50000CF006FBFBF72AFB042E04D11AF024FAE0
:107D600006490200F3E71AF01FFA05490200EEE7A0
:107D700070BDC04628DD0200DD1E0300081F0300A1
:107D8000291F030010B51AF026FA002802D1024874
:107D90000BF02CF810BDC046941D0300F7B505008C
:107DA0002C200E001700019319F00AFB0400057047
:107DB00086608781072D01D0012D10D1337872782C
:107DC0000A3B1B021343E3816B461B79202063753A
:107DD0000423638419F0E2FAA0622000FEBD014B87
:107DE0005B5DF0E7561F030010B5040019F018FEA4
:107DF00019F051FA01280BD00649200019F02BFE8A
:107E0000200019F00DFE19F046FA022800D00020DB
:107E100010BDC046991F0300F0B59DB000AF0C68BF
:107E2000032835D9CB68FB60042835D00D690020C4
:107E30006D102BD41C232000F91801F09BFC7861F5
:107E4000002D5AD0954C9649606807F003FB060058
:107E50006068002293490430FCF7DCFC1823FA1810
:107E6000D1180400300001F085FC3B6B013D01009E
:107E7000C318002C05D1994203D2013B1A782E2A4F
:107E8000F9D1013D0ED299420FD187480AF0EAFD9F
:107E9000864B0025FB60CDE70025CBE7013B1A7838
:107EA0002E2AEED09942F9D3EBE7FE695C1A250041
:107EB000002E01D0751C2D192B006A460E33DB08ED
:107EC000DB00D31A9D46220018003B6120F08AFA9D
:107ED000002E08D02E233A69601C135510187969BA
:107EE000320020F07FFA2900386902F05DFD062497
:107EF0003B69C0000443FD617B61200001F004F890
:107F00000BF00EFF061E15D02E21786920F094FA92
:107F100000280BD0654BFA689A4207D17B69C11AD9
:107F2000180002F041FD0BF0FBFE06003000BD46DC
:107F30001DB0F0BD182318000125FA18D218381802
:107F4000103B4021C01819F036FDBE603E61FB6950
:107F5000AB4205D2554BFA689A42E7D0BE68E5E7D6
:107F6000AB4204D07B695B5D2E2B00D094E02900EE
:107F7000786902F019FD7B6A3860002B17D12A005E
:107F8000082479691833F818001919F0DFFC182350
:107F9000FB181819FFF728FF78607B68002B14D1B5
:107FA0003A68434943480CF0DBF9FBF7FFF9182323
:107FB0000824FA182F211019FEF702F83B693969D5
:107FC000EA1A7B6959181823DDE738680BF0A8FE18
:107FD000041E4BD138680BF071FEFB690400AB4204
:107FE00013D1354BFA689A420FD17B68012B0FD021
:107FF000324A2B4940681CF02AFA18220823BA1882
:10800000D11820001AF070F930E07B68012BF4D110
:108010000022796AB86A00F055FFF4210200FF31AE
:1080200020000AF0CBF87B6A18227B600823B8187E
:10803000C0182F21FDF7C4FF18220823B818C01854
:108040001F4919F008FD18220823BA18D01819F092
:10805000E7FC19F020F9022806D118220823BA18E3
:10806000D11820001AF040F97B687B62BB68002BB6
:108070000CD07A693B699446E91A6344180002F00F
:1080800093FC22000100B8680AF098F8002E00D195
:1080900026006B1C3B61BC60013558E7802E002038
:1080A000860F00009E0F00005D1F0300E88C020099
:1080B0007C1F0300A4D9020018DE0200760F000026
:1080C000911F0300A3230021024A5B000248D15202
:1080D0007047C046802E0020E88C0200A3230121B7
:1080E000024A5B000248D1527047C046802E0020F1
:1080F000E88C0200A323044A5B00D35A0348002BF8
:1081000000D103487047C046802E002020DE0200C8
:1081100018DE020010B5F8F7BBF9014810BDC046E3
:10812000E88C020010B50C4C002808D1FC34236DFB
:1081300018005A1C02D018011AF071FC10BD086812
:10814000FFF766FCFC34031E044803DA01235B429C
:108150002365F3E71B09FBE7802E0020E88C020073
:1081600010B53E2803D040282ED03C2813D15329E7
:1081700024D013D84C2921D007D8482950D04929D8
:108180001CD0422907D1012348E04F2903D35029AD
:1081900014D9512947D025480AF064FC68293FD0FA
:1081A00006D864293FD0662908D06229F3D1EAE7CE
:1081B0006C2903D0712936D06929ECD10123042020
:1081C000002A00D0136010BD512926D010D84929AB
:1081D0000CD006D84229D6D0482918D00129DAD1A6
:1081E000D1E74C2902D0D6D34F29D4D30423E6E7D4
:1081F0006629FBD006D86229C5D064290DD0532941
:10820000F4D0C8E76929F1D003D86829C3D1022383
:1082100004E06C29EAD07129BDD108231800CFE70A
:1082200001230220CCE701230820C9E79D1F03009A
:1082300010B551283DD011D849282ED007D8422852
:1082400003D0482826D0012806D18B5C10E04F28A7
:108250004BD017D84C2820D0002309E0682816D02E
:108260000AD8642836D066282AD06228F4D18B56E2
:1082700001205B00184314E06C2803D0712811D052
:108280006928E9D1920050581AF0C9FB09E0520060
:10829000535EEDE75200535AEAE7920050581AF045
:1082A000D9FB10BDD2008A18106851681AF0A8FBDB
:1082B000F7E7D2008A18106851681AF0BCFBF0E7A3
:1082C0000323920050589843030002201843084BA0
:1082D000C018E6E7D2008A181068516814F09CFCB8
:1082E000032302009A431300EFE792005058D8E7A7
:1082F00000008080F7B51700156801AA04000E0081
:10830000FFF72EFF402C05D1019B043C5A1EAA18F2
:108310005D4215405A213E3C62426241B142894170
:108320002B183B60D2B22B0049421AF03BF80400F4
:108330000D004F2E08D0532E07D120F095F80022C3
:108340000100200000F0BEFDFEBD662E06D1032315
:1083500002249843154B2043C018F5E7642E06D13C
:1083600014F05AFC0323040002209C43F2E75A2E27
:108370000FD980220023D20512196B41002B04D1A2
:10838000002A02DB1AF04BFBDEE729001AF038FB6B
:10839000DAE7002905D1064B984202D81AF05AFBB9
:1083A000D2E729001AF047FBCEE7C04600008080E4
:1083B000FFFFFF3FF0B589B0160005AA02931C68C5
:1083C00001900F00FFF7CCFE019B0500402B06D16A
:1083D000059B5A1EA2185C423C2314400193029A4A
:1083E00063191360019B3E3B03935A425341DBB236
:1083F0000293642F12D0662F0BD04F2F2AD1280062
:10840000042D00D9042033002200029919F0F3FF53
:108410002CE03000FFF760FB0600F0E73000FFF7CC
:108420005BFB14F0A7FB029B0690079108AA9B0038
:10843000D318083B22001B680299042019F0DBFFC7
:10844000039B04345A1E934108AA9B00D318083B8F
:108450001E68D4E7B3070BD1104B32689A4207D19C
:1084600023002A00029930001AF0A6FA09B0F0BDE4
:108470003000FFF7CDFA0600042DC0D900215A2F95
:1084800002D9884200DAFF312A0020001FF0C6FF1F
:10849000019B3E2BB3D12B1FE418B0E70C970200D1
:1084A000F7B506000F0014001D0064280DD06628E3
:1084B00004D04F2813D19400E35105E09400180034
:1084C0000F19FFF709FB3860F7BD1800FFF704FB31
:1084D00014F050FBE4003F1938607960F4E703239F
:1084E0002B40019311D10E4B2A689A420DD1019A6B
:1084F00001004020FFF734FE230043430200FB1835
:10850000019928001AF058FADEE72800FFF780FAF0
:10851000220003003900300019F080FFD4E7C04684
:108520000C97020010B50C00FFF78AF9006B0028C9
:108530000ED0E30702D50368002B09D0A30702D5AC
:108540004368002B04D0630706D58368002B03D152
:10855000024903481DF007F910BDC046AA1F0300D9
:10856000C0DB0200F0B50F008BB0040001213868B9
:108570000392FFF7D7FF0600012C22D13B680121AF
:1085800018000393FFF7CEFF80210700490006A8DB
:1085900019F0F8F980240023089E6400029305ABCB
:1085A0002200310003983D68A847431C28D1059854
:1085B0000B2800D0ACE0029B002B34D159480BB003
:1085C000F0BD7868FFF724FA030002900133D5D09C
:1085D0000125337B029C2B4200D181E00026210043
:1085E00006A819F0CFF90395002C6ED0210006A83B
:1085F00019F008FA011E1ED14B494C481DF0B3F882
:10860000002810D0029B1B180293844202D9241A1E
:108610003618C4E7802106A8490019F0E0F9802443
:1086200006006400BBE7029B414807933B7BDB07E6
:1086300075D5404873E000230093220005AB3868ED
:1086400019F02BFF059B0500002B0ED006A821007A
:1086500019F03CFA05980B285AD1079B0293002B7E
:1086600033D106A819F0B0F9A8E7844227D8089BAF
:1086700030009C46079C63469B5D039A59B20029D3
:1086800012DA19001F250222A943C0290CD01900B3
:10869000103D0132A943E02906D004329343F03B58
:1086A0001A00511E8A4104329619A64212D8029B22
:1086B0003000013B0293A642DDD31C0094E7211A4F
:1086C00006A819F003FA002DD1D11A4806A900F026
:1086D000C3FB74E7E443029BA419E418060083E794
:1086E000029906A819F05FF9039B029A0093089972
:1086F00005AB386819F0D1FE059B002B0AD006A8FF
:1087000019F062F9059B07480B2B00D157E71800B9
:108710000AF08EFB337B079005482B4289D106A9CE
:10872000D5E7C046E88C0200C91F03000CDB02003D
:108730004CA502004CC6020030B50C0087B00121E8
:1087400005002068FFF7EEFE022203A96068FFF72C
:1087500019FB049A022D06D9A068FFF759F9049A6B
:10876000824200D90200002303990093206802ABE3
:1087700019F093FE029B002B05D005480B2B05D06A
:1087800018000AF055FB43000120184307B030BD24
:10879000E88C0200F0B589B00191019B0400012131
:1087A0001868FFF7BFFE0700012C18D9019B5B6812
:1087B0005C10631C13D0210004A819F0E3F8631CBB
:1087C00003D0631E002C2FD01C00012104A819F037
:1087D00019F9061E0AD11B491B481CF0C4FF0124CD
:1087E000102104A819F0CEF86442E8E701000198CE
:1087F00003AB012200683D68A847431C0ED10398D3
:108800000B2809D1059B0193012B09D104A819F06C
:10881000DBF80E4809B0F0BD0AF00AFB00280CD1C5
:10882000012104A819F052F93B7B0948DB0700D469
:10883000084804A900F010FBECE733780A2BBED1FE
:10884000F2E7C046C91F03000CDB0200E88C0200FF
:108850004CC602004CA50200F0B51F0004000D003C
:10886000160085B00221FFF75DFE03AB00973200D2
:108870002900200019F011FE039B002B05D00548AC
:108880000B2B05D018000AF0D3FA4300012018433F
:1088900005B0F0BDE88C0200F0B58BB00600080012
:1088A00011001A0010AB1F78314B05AD01950093F4
:1088B000052309F01BFA9120000118F06FFD2D4BE4
:1088C00004A91860059B476043706B682A4F0370CA
:1088D000AB6804008370EB68C3702B7C30003B6096
:1088E00000F048FF0025254B03900C201D6018F078
:1088F00055FD234B06000360FBF712FFB060FBF74A
:108900000FFF204B204A1860204B11001D70204B98
:1089100070601D701F4B30001D602B00FBF7D4FDF5
:108920002000049A03991DF0AFFF20000DF0E4F839
:108930000400A84207D1FBF7CDFC0E4B1C60164B80
:1089400018680AF08FF80122144B1A70FBF7E2FE48
:108950000028FBD1124B943318603B68002B04D0E5
:108960000C4B1048196817F07FFB07480BB0F0BD9F
:108970005CA40200142F0020402A0020C02A0020FE
:10898000A8A40200BC2A0020E88C02001A2E0020B5
:10899000182E0020C42A002064000020192E002078
:1089A000802E0020D71F030000220D4910B50B7840
:1089B000DBB2934210D10B4A1478002C02D0012470
:1089C0000C701370084B1B78002B07D0074A1368F4
:1089D00020331360064B1A68100010BD8268FBE755
:1089E000182E0020192E00201A2E0020C02A002048
:1089F000BC2A002073B501A900F0BCFE019B060053
:108A00001748502B17D88020400018F0C7FC154C91
:108A100005002300943318600023019A9A420CD178
:108A20005B232800AB54F9F7A1FA2B00002808D1EA
:108A3000943420600C480AF015F8F15CE9540133D5
:108A4000ECE75A1B0133591E09789B29F9D12900FB
:108A5000064819F000FE00239434236076BDC0461A
:108A6000E61F0300802E0020F41F03004CC6020006
:108A7000D2235B005843134AF0B51368000C8342BD
:108A800006D9114C2368013323601368203B13601F
:108A90001F23050001270D4E9D431468A5420BD8E6
:108AA00003401A1D202A00D92022094C2468934231
:108AB00004D3084B1860F0BD3770EEE7E518297154
:108AC0000133F4E7C02A0020C42A00201A2E002017
:108AD000BC2A0020C82A0020F0B589B0002807D1A0
:108AE000664B6748196818F00FF9664809B0F0BD81
:108AF0000D68654B9D425BD10021080018F03CFDDC
:108B0000002405000590614B5A680192944217D3E6
:108B100000255F4A05A90120FAF740FD07AA06A92A
:108B2000059818F040FD069B03339B0801939B00BA
:108B30000393019B524EAB4210D156493000D2E70D
:108B40009B680193019AE3009958002904D00429F5
:108B500002D02800FAF7C2FC0134D4E72F00AB00A2
:108B60000293079B029A985800F0EEFD0100300036
:108B700018F0CAF8019BFF18069B9F4212D21223DD
:108B80001C1A002C07DD013C07D2039A029B944675
:108B900063440293E5E71234F3E73F49300018F0ED
:108BA000B3F8F0E73D49300018F0AEF80135C0E702
:108BB0002800FEF745FE3A4B42689A4200D16D68A4
:108BC000280002F041FD061E00D08EE72C4C3549EE
:108BD000200018F099F831002800FEF763FE280005
:108BE00019F0E2FA30490200200018F04EF9AB0704
:108BF00032D12B682D4A93422BD128001DF06AFAFE
:108C00001BF03AFC00250600A84200D16DE773680E
:108C10009D4200D369E7B268EB00D3181F68002FAC
:108C200015D05B6822492000019318F06DF80021EF
:108C30003800FEF737FE1F49200018F065F80021C4
:108C40000198FEF72FFE1549200018F05DF8013558
:108C5000DDE7194A934203D02800FEF7F1FD050035
:108C6000A86B002800D140E7830700D03DE7134BF5
:108C700002689A4200D038E7C2E7C04610000020E0
:108C8000E48B0200E88C02004614000070D402005D
:108C9000589902000A200300501D030072250300AA
:108CA0000D0200002E2003003620030044D50200F0
:108CB0004F1D0300462003005CD0020088CB020059
:108CC00010B504000C2018F069FB034B44600360EE
:108CD00001235B42836010BD00A50200032230B572
:108CE00002400121002A04D1084C05680B00A5426E
:108CF00009D00B00034006D1002A04D103680448C0
:108D00001B1A58424341180030BDC04628DE0200FD
:108D10000C97020010B50400FFF7E0FF01220028C5
:108D20000AD1032302002340022B05D1034804404B
:108D3000063C2200541EA241100010BD070080FF17
:108D4000044B88600B60044B08004B600023CB6031
:108D50007047C04658CC0200A728020010B5FEF7A5
:108D60006FFD084B42680848D31859424B41AC216B
:108D70005B428B43B02189005B1804490BF0F0FA89
:108D8000FAF714FB40FDFFFF28DD02004B20030033
:108D9000F7B504000E00019301208B180A00002192
:108DA0000093009B934212D82725002900D0053D4F
:108DB000224F2A003900200018F067F8009B9E42DD
:108DC00014D32A003900200018F05FF8F7BD13789B
:108DD000272B08D0223B5D426B41DBB20132002BD6
:108DE000DFD02725E4E700230100F7E73278AA4225
:108DF00005D12A001249200018F047F81AE011495D
:108E00005C2A14D01F2A09D97F2A15D0019B002B78
:108E100002D053B2002B07DB3900ECE70A490A2ADB
:108E200005D00A490D2A02D0092A05D10849200097
:108E300017F06AFF0136C1E70649DCE75424030056
:108E400053240300572403005A2403005D24030025
:108E50006024030063240300194B70B506000C0066
:108E600098420FD14968A06801F06CFD051E09D039
:108E7000200018F0A9FD0023ED00236006331D43F8
:108E8000280070BD102018F089FA61680500816023
:108E90000660A06801F038FD63686860591C2368AB
:108EA000994208D1A368EB600023EA68A96853548B
:108EB000A3602360E4E7A06818F08EFAE860F3E7A7
:108EC0004CC6020070B504000D00002A05D001F068
:108ED0006BFDC3000620184370BD01F033FD002870
:108EE000F7D12A002100024819F0B5FBF4E7C0468B
:108EF0004CC6020010B50A000100024819F0ABFB95
:108F000010BDC0464CA50200094B10B50340062B0E
:108F100001D1C00810BD830708D1064B02689A42F0
:108F200004D18168C06801F03FFDF3E7FFF716FF49
:108F3000070080FF4CC60200064B10B50340062B0D
:108F400003D1C00819F0FEFD10BD8368C0680B6036
:108F5000FAE7C046070080FFF0B50F00002589B092
:108F6000110006001C003800009503232A0008F0B9
:108F70008DFE0E20AF420FD0012F0FD102AA10217B
:108F800004A8FDF711F8216802A82A00FEF770FC7A
:108F900004A93000FFF760FF09B0F0BD2068830727
:108FA00022D1164B02689A421ED104A9FFF7C4FFD2
:108FB000134B050020680340062B13D1C00819F09D
:108FC000B2FD0400002C04D10499280001F09CFC9F
:108FD00004001020049F18F0E1F906608760C56066
:108FE0004460D9E74468EDE704A90122FEF7CAFE10
:108FF000002205990498FFF765FFCDE74CA5020014
:10900000070080FFF0B58DB004000391FEF718FC57
:1090100004A906002000FFF78FFF039B01902F4853
:109020009A0705D11B6883420AD02D4A934207D084
:10903000C36800220293012103AB029CA047039066
:10904000002406AA05A90398FEF784FD2500059BC8
:10905000A3420ED82900002508A818F0A4FC0A9CF9
:10906000059BAB4221D808A93000FFF7F5FE0DB0F3
:10907000F0BD069BA700D859FEF7E2FBB04202D034
:10908000184809F0B3FE002C01D0049BED18069B94
:10909000D859154B0340062B05D1C00819F048FDDF
:1090A0002D180134D3E78068FAE7002D06D02000A0
:1090B000049A01991FF096F9049BE418069AAB00F4
:1090C000985807A9FFF738FF079A010020001FF002
:1090D00089F9079B0135E418C2E7C04638980200B9
:1090E000849B020090240300070080FFF0B58BB042
:1090F000049008680D0006920793FEF7A1FB040098
:109100006868FEF79DFB0600A04202D06868FFF782
:1091100025FE08A92868FFF70FFF040009A9686861
:10912000FFF70AFF089A0590A3180393049B2700F2
:10913000022B19D9AB681D498B4206D001213000A2
:109140000091210004F03CFE0700049B032B0BD090
:10915000EB68164A934207D00122210000923000AA
:10916000089A04F02DFE0390039B059AD91B069BD9
:1091700038000093099B19F04FFA002806D1079B8D
:109180000138002B0CD00A4809F06CFC094B9E42B8
:1091900008D1010020001AF09CFE44000120204369
:1091A0000BB0F0BD041B6400F8E7C046E88C020079
:1091B0007C2403004CC60200F0B5070087B00868A5
:1091C0000D00FEF73DFB04A906002868FFF7B4FE7A
:1091D00005A904006868FFF7AFFE03902000022F86
:1091E00007D901230093AB68049A2100300004F0F2
:1091F000E7FD059A041B049BA418064D9C4205D864
:1092000003991FF0E0F8002800D1034D280007B0B3
:10921000F0BDC04618DE020020DE020073B50D006E
:10922000060069462868FFF787FE01A90400686800
:10923000FFF782FE0100022E02D9084809F004FE61
:10924000019A0098064D824206D8801A20181FF015
:10925000BAF8002800D1034D280076BD6A24030027
:1092600018DE020020DE0200F0B58FB00790106813
:109270000C001600FEF7E4FA0690012C31D070685D
:10928000FEF7DEFA069B984202D07068FFF766FD93
:109290000DA97068FFF750FE0D9B089009930DA96A
:1092A0003068FFF749FE0D9B0B900493079B012B41
:1092B0001CD1049B5D1E01235B420A9300242700FE
:1092C000049B03940593059B002B13D1039B002B58
:1092D00023D1214B069A0E209A4200D01F480FB08E
:1092E000F0BD072309931E4B0893D8E701230025FF
:1092F0000A93E3E70B9B09995A19012308980093F5
:1093000019F08AF9002816D1039B002B19D1079B6D
:10931000002B09D12F00049B5C1E049B0134E21B2F
:10932000934212D13068DAE7079B2C00012B0AD058
:1093300001232F0003930A9BED18059B013B059326
:10934000C1E72C00F7E7039FE7E70B9B0698D919C5
:1093500019F081F9C3E7C0464CC602003CA50200E3
:10936000E9240300F0B589B0049008680D00FEF709
:1093700067FA04006868FEF763FA0700A04202D0AB
:109380006868FFF7EBFC06A92868FFF7D5FD060023
:1093900007A96868FFF7D0FD069A0590B3180393F4
:1093A000049B3400022B19D9AB681E498B4206D0AE
:1093B000012138000091310004F002FD0400049BFB
:1093C000032B0BD0EB68174A934207D001223100E0
:1093D00000923800069A04F0F3FC03900025079BE6
:1093E000AB4212D1039B2000191B1AF081FD013002
:1093F00045000120284309B0F0BD059920001EF06A
:10940000E2FF002808D101353400079A039BA61813
:109410009E42F2D96D00ECE720001AF051FD0600E3
:10942000F2E7C046E88C020010B50100014819F0CF
:1094300004FA10BD113F020010B50100014819F0F7
:10944000FCF910BD233F0200F7B50600080001A992
:10945000FFF772FD019B0500002B01D11348FEBDF3
:10946000134B04009E4207D10027019A631B9A42C6
:1094700011D8002F07D1F1E70E4B9E42F4D0019A8C
:10948000631B9A4201D80C48E9E72078B0470134C1
:109490000028F4D1E2E7207804F066FB002803D02E
:1094A0002078B047071ED9D00134DEE718DE02006D
:1094B000D1DB0000E9DB000020DE020010B5010076
:1094C0000148FFF7C1FF10BD51DB000010B50100DE
:1094D0000148FFF7B9FF10BD69DB000010B50100BE
:1094E0000148FFF7B1FF10BD81DB000010B501009E
:1094F0000148FFF7A9FF10BDD1DB000010B5010046
:109500000148FFF7A1FF10BDE9DB0000F0B585B011
:1095100006000C001700FEF793F9694605003000BD
:10952000FFF70AFD0600042F23D10098A30715D1E9
:10953000114B22689A4211D101AA2100F7F7D4FEFB
:10954000002802D10D4809F07FFC0199029A2800F9
:10955000521A711819F07FF805B0F0BD0023010010
:1095600022002800FEF72CFB335C01205B0018432F
:10957000F2E70020F0E7C04680D702008F0E03001C
:1095800070B51D008EB0002900D174E018683B4C06
:1095900003002340062B05D0830726D1384B0268F1
:1095A0009A4222D10239012962D80AA9FFF7C4FCE4
:1095B000060028680440062C15D1C00819F0B3FA3B
:1095C0000400002C04D10A99300001F09DF9040038
:1095D00010200A9D17F0E2FE2A4B85600360C660EA
:1095E00044600EB070BD4468EBE7012940D8012209
:1095F000104210D0441021000AA818F0D4F90C9B96
:1096000000212200180001931EF008FF0AA91D483E
:10961000FFF722FCE5E703A918F0DDFD002805D0DF
:10962000049A0399174819F016F8DAE72868FEF744
:1096300009FB1021002800D0411006A818F0A2F95B
:109640000AA9286808F0DEFD0400200008F03CFEAE
:10965000002801D106A9DAE7FEF7DAF9FF2802D9D6
:10966000094809F0FFF9C1B206A818F0EBF9ECE7D8
:10967000064809F0BBFB0648B3E7C046070080FF79
:109680004CC602004CA50200762003008F20030088
:109690003CA5020073B50400080001A91600FFF7FD
:1096A0004BFC0500042E06D10300019A0749200057
:1096B00017F0EBFB73BD0649200017F025FB0123D3
:1096C000019A29002000FFF763FBF3E7D52403008C
:1096D000DC2F03000A001B4B73B51A4005000C0079
:1096E0000340062B0CD1062A04D1441A6042604183
:1096F000C0B212E0C00819F016FA0600606805E072
:109700004668062AFAD1C80819F00DFA002E05D0CD
:10971000002803D0B04201D0002076BD6946280061
:10972000FFF70AFC01A905002000FFF705FC009ADD
:10973000019B01009A42EFD128001EF044FE4442F2
:109740006041D5E7070080FF084B07B50340062BB3
:1097500008D0830704D10268054B92699A4201D070
:10976000FFF7FCFA01A9FFF7E7FB0EBD070080FF3A
:10977000119D00000A4B13B503400C00062B08D0C6
:10978000830704D10268074B92699A4201D0FFF720
:10979000E5FA01A9FFF7D0FB019B236016BDC04687
:1097A000070080FF119D0000F0B59BB00B90059164
:1097B000089210210EAA12A80993FCF7F5FB059B4D
:1097C000089A934208D30B9A12AB13CB13C21B68AF
:1097D00013600B981BB0F0BD059B19785D1C7D29AB
:1097E0000ED1089BAB4208D9059B59787D2904D13D
:1097F00012A818F027F9059507E0BC4809F032F9DE
:109800007B2906D012A818F01DF9059B013305939A
:10981000D5E7089BAB4216D9059B59787B29E7D041
:109820002B007D2903D0212901D03A290DD1002513
:109830002E001A78212A11D0002206921AE0089AE6
:1098400001339A4201D1AA48D8E71A787D2A03D079
:10985000212A01D03A2AF2D11E00EAE708995A1CBF
:1098600091421CD95A780692723A012A17D80233CB
:109870009942E8D900211A7805913A2A1FD15A1C39
:109880005B7805927D2B1DD1089B059A9342DAD90E
:109890000027059B1B787D2B17D09648AEE796488E
:1098A000ACE719787B2905D10132013308998B4245
:1098B000F7D3C8E77D29F8D1013A002AF5D1059FF1
:1098C0000593E6E7059B0122F0E7002D48D0002331
:1098D0002878169304F054F900283DD0099B1B68A2
:1098E0000793002B01DD854888E716AA3100280080
:1098F00018F07AFE209A169B013A04009A4203D887
:109900007F4980481BF02FFF219A01339B009D580F
:109910000122099B52421A60B44231D27A4809F0BE
:1099200093FA0134B44204D223782E2B01D05B2B5E
:10993000F7D1611B01222800FFF7C4FA00220500BD
:1099400001002298FAF766FF002807D129006F4826
:109950001CF0C0FCF9F72AFD2C00E3E74568DBE7C3
:10996000099B1B68002B01DA694847E7209A013AF6
:109970009342C5D2013321999A005558099A136030
:10998000002F00D0A6E1069B3C00002B04D0069CD3
:10999000733C631E9C41E4B210AA102116A8FCF788
:1099A00003FB2900220010A8FDF762FF16A9594801
:1099B000FFF752FA01235B4205000D931093002F2D
:1099C00000D18FE005F0FCFA229B059A0293219BBF
:1099D00039000193209B16A80093099BFFF7E4FE32
:1099E00016A818F01DF80026179B0400C3180A9348
:1099F00003780693B34208D0474F190038001EF091
:109A00001BFDB04200D16EE1013423782B2B4ED0E8
:109A100000272D2B02D0202B01D1043701342378CD
:109A2000232B02D1133B1F4301342378302B07D162
:109A3000069B002B01D13D330693002E00D130361A
:109A40000DAA0A99200018F0CFFD037807902C2B5F
:109A500004D10C3B1F43030001330793079B1B7882
:109A60002E2B06D1079810AA01300A9918F0BCFDD8
:109A70000790079B1C78002C1BD0210027481EF064
:109A8000DBFC002803D0079B5B78002B11D0244817
:109A9000B4E6310038001EF0CFFC002804D03300BB
:109AA0000234069E0693B0E706900600ADE7022753
:109AB000B4E716A817F088FF069B002B08D12800F2
:109AC000FFF728F93C230693002801D002330693C0
:109AD000002E00D1203606231F4229D0732C23D11B
:109AE00010488BE63C003E00E9E7C046A321030096
:109AF000E4210300FC210300CB210300202203000A
:109B00006A2203001CDA02008322030058DA0200F2
:109B1000A02203004CC60200EA220300EF22030049
:109B2000FF22030018230300632C01D1714865E66E
:109B3000069B3D2B1FD05E2B1FD03C2B01D13B3B06
:109B40001F432800FFF7CAF800282DD0632C50D0FF
:109B500026D8472C13D8452C26D2002C40D0252CB3
:109B600022D0280018F020FB22000300624963483D
:109B70000AF0F6FBEEE64023E2E78023E0E7582C0C
:109B800053D0622CEDD1002303930D9B022202934C
:109B900061230196009729000EA8F6F74FFE34E6E0
:109BA000672C17D8652C1BD32800FFF7B3F80028C3
:109BB0006CD0002C56D06E2C54D0472C3FD8452C5E
:109BC00041D2252C50D0280018F0EEFA22000300D4
:109BD0004B49CCE76F2C1AD0782C26D06E2CC0D1F4
:109BE000002303930D9B01960293009761230A22A1
:109BF000D1E72800FDF70CFF0D9B16A90870012284
:109C000001933B0000960EA8F6F7BCFDFDE5FB06B0
:109C100002D580239B001F43002303930D9B0196D5
:109C20000293009761230822B5E7002223000392E4
:109C30000D9A173B0292019600971022ABE7230082
:109C4000653B022BBFD82800FDF746FF109B220082
:109C500002930D9B011C01933B0000960EA817F088
:109C6000CFF8D2E56724EEE728008024FDF734FF23
:109C7000244910F079FE109B640002930D9B3C4335
:109C80000193011C009623006622E7E7069B3D2B0B
:109C900001D11D48B2E5002C01D0732C13D116A9B7
:109CA0002800FFF767FD109B0100169A002B00DAD1
:109CB0001092109B9A4200D916930D9B0096019327
:109CC000169A3B009FE7280018F06EFA2200030066
:109CD0000E494CE7069B002B00D058E601235B425F
:109CE0000D9310936EE66678002E00D0D1E60696AE
:109CF0008BE6C0464423030077230300A0DD020067
:109D0000A82303000000C842DC2303001124030041
:109D1000F0B5A1B005000C000D920A2800D0E4E1D6
:109D20000DAB0F930123073D1093059215403CD1D5
:109D30001368BF4A934206D10FAA10A9059817F0DD
:109D4000D5FD059502E0BB4A9342FAD1109B11A9BB
:109D500007930F9B20000893FFF7EEF8002309906C
:109D60000A93A30705D1B44A23689B1A5A425A4161
:109D70000A9214AA102118A8FCF716F9119A0027C4
:109D80009446099B099C63440493049BA3420FD807
:109D9000079BAA48BB4229D10A9BA948002B00D0A7
:109DA000A54818A9FFF758F8BAE100230593CDE7B5
:109DB0002178252904D018A817F044FE0134E4E7DF
:109DC000049B661CB34202D89E4808F04BFE6178A3
:109DD000252904D118A817F035FE3400EEE7002538
:109DE000282915D1059BAB4202D1974808F0FEFF08
:109DF000A01C06003378292B23D1311A0122FFF74A
:109E000061F80100059805F025FB012705000136E2
:109E10000023340040220026302104200B932033FD
:109E20000693049BA34213D800231293049BA342DE
:109E300031D923782A2B70D1079BBB4221D8834884
:109E4000D4E7049BB34201D88148BEE70136D1E78D
:109E500023782D2B03D12C3B1E430134E1E72B2B20
:109E600001D1293BF8E7202B01D10643F5E7232B4D
:109E700004D0302BD8D116430691EEE710230B9374
:109E8000EBE77B1C0C93089BBF00F858FDF7C0FD67
:109E90000C9F1290013401235B421393049BA34255
:109EA00092D923782E2B17D1049B601C83428BD927
:109EB00063782A2B38D1079BBB42C0D97B1C0C93FB
:109EC000089BBF00F858FDF7A3FD0C9F13900234C8
:109ED000049BA34200D877E7002D06D1079BBB4225
:109EE000ADD9089ABB009D5801372278672A45D81A
:109EF000652A00D3B8E0582A5DD01DD81300453B31
:109F0000022B00D8B0E0099B5249E41A00941300D8
:109F100051480AF025FAF9F749FA200012AA0499E3
:109F200018F062FB0400B6E7002313AA0499139308
:109F300018F05AFB0400CBE7632A49D0642AE2D127
:109F400003222B001340022B0AD1444B2B40062B3B
:109F500006D0FF23DB05E8189043F9F777F80500F2
:109F6000139B0A220393129B00960293069B019374
:109F70006123290014A8F6F761FC1FE7732A16D89D
:109F8000722A00D380E0692ADAD06F2ABBD10B9BFA
:109F9000002B02D084239B001E43139B0096039347
:109FA000129B08220293069B01936123E1E7752A25
:109FB000C6D0782AA7D11300139A173B0392129A9E
:109FC0000292069A01920B9A164300961022D0E74D
:109FD000224B2B40062B05D0AB0716D1184B2A6815
:109FE0009A4212D11CA92800FFF7C4FB1C9A010059
:109FF000012A01D01A48F9E6129B0193202300930D
:10A00000330014A8F6F7BEFBD8E62800FEF766FE7C
:10A0100000280BD02800FDF7FBFC129B1CA9087040
:10A0200001932023012200933300EAE70D48DDE687
:10A03000849B020088CB02004CA502006E21030025
:10A040004CC60200A9200300BB200300E820030047
:10A05000D220030039210300A0DD0200070080FFA9
:10A060000F210300282103002800FDF735FD139B75
:10A0700022780293129B011C0193069B14A8009363
:10A08000330016F0BDFE99E616AA10211CA8FBF7B6
:10A090008BFF23781A00723A51424A41D2B2722B96
:10A0A00009D00A9B002B06D0AB0704D1594B296875
:10A0B000994200D10422290016A8FDF7D9FB139A72
:10A0C0001D9B002A00DA1393139A9A4200D91A00B2
:10A0D000129B1E990193202314A800933300F6F7D6
:10A0E00051FB1CA817F070FC68E60800FDF7A8FB00
:10A0F00016A907002000FEF71FFF0590072D22D1AB
:10A1000018A90D98FDF7C2FC03000020834207D078
:10A110001899814206DC404B40489F4200D10E20F6
:10A1200021B0F0BD169B1CA8594317F03CFC1E9BA8
:10A130000121049300930598189B169A16F021FFAD
:10A140001CA938002EE60D98FDF77AFBB8420FD116
:10A150001CA90D98FEF7F0FE1C9E04901D2D17D82B
:10A16000192D4ED2052D21D0122D1FD00020D7E75A
:10A17000284B0D989F4209D101221CA918F02BF8F9
:10A180000028CDD01C9B1D9E0493E7E7FEF7E6FD5B
:10A190001F2DEBD10123049A0093169933000598E3
:10A1A00018F03AFA00282AD01D48B9E7169B002B70
:10A1B00007D10D98FDF744FBB84202D10D9C200059
:10A1C000AEE7002EFBD0169B1CA8F11817F0EBFB96
:10A1D0001E9B169A0599180006931EF003F9169A0D
:10A1E0001E9B9446059363441800320004991EF0A8
:10A1F000F9F81CA93800FEF72FFE0400DFE7094834
:10A200008EE70096049B169A0599280016F0EFFE3B
:10A21000C8E7C0464CA502004CC602003CA502009F
:10A2200020DE020018DE0200F0B5050087B00868E5
:10A230000C00FDF705FB0090012D28D96668022D62
:10A2400026D0A068FDF7E4FB05000021080017F008
:10A2500093F904A901902068FEF76EFE049B0400A8
:10A26000C7183E4B9E4241D1BC422AD2207803F00F
:10A270006FFC00280FD1002D0FD121003A1B009850
:10A2800018F0E9F901000198F9F728F919E0334EBF
:10A2900001256D42D9E70134E6E72600307803F066
:10A2A00057FC002802D10136B742F7D82100321BF3
:10A2B000009818F0D0F901000198F9F70FF9B742AA
:10A2C00009D8019807B0F0BD0136B74203D1002D7F
:10A2D000F7DD013D06E0307803F03AFC0028F3D1C9
:10A2E000002DF6DCBE42ECD23400C4E73000FDF7AE
:10A2F000A7FA009B984202D03000FEF72FFD05A977
:10A300003000FFF737FA059B0390002B13D1144858
:10A3100008F0A8FB3E002100321B009818F09BF9C2
:10A3200001000198F9F7DAF8BE42CAD2059BF41889
:10A33000002D00DD013D2600059B0293002DE9D094
:10A34000029BF3189F42E5D3029A039930001EF056
:10A350003AF80028DFD00136F0E7C046E88C02006A
:10A3600043240300F0B507008BB00D00022807D886
:10A3700029003800FFF758FF050028000BB0F0BD9A
:10A380000868FDF75DFA08A9049028686E68FEF772
:10A39000D3FD0190A868FDF73BFB041EE8DB431CDE
:10A3A00018000021059317F0E7F82F4B05009E4297
:10A3B00002D12E4808F048FD09A93000FFF7DAF96C
:10A3C000099B0690002B02D1294808F04BFB089A04
:10A3D000019B944663440293A3000393099F029B4D
:10A3E000DE1B002C0BD0019BB34208D83A00069923
:10A3F00030001DF0E8FF002821D0013EF1E7EB68B6
:10A40000A6009F19019A029B01999A1A049818F0C4
:10A4100022F93860002CB0D0059B1C1BEB68A7000C
:10A4200099193A0018001DF0E6FF6B6800211A1B0D
:10A43000EB689200D8191DF0F1FFAC609DE7039A1C
:10A44000EB68944663440793029BF1199A1BD21B55
:10A45000049818F000F9079B013C1860039B0296D2
:10A46000043B0393BAE7C046E88C0200DA240300F9
:10A470004324030070B50C008AB0050004A92068CD
:10A480001600FEF759FD00230593049B0100C21836
:10A49000029605AB06A801940095FFF785F906A979
:10A4A0000248FEF7D9FC0AB070BDC0464CC6020097
:10A4B000F8B5070008680C0016F04DFF050060684D
:10A4C000FDF7E4FB0600022F0AD9A068FDF7A0FA09
:10A4D00002003100280018F004FA18F0A0FAF8BDC4
:10A4E000004AF6E740420F0010B5102016F056FF64
:10A4F0000400034B08C01AF006F9200010BDC04646
:10A500000C97020070B50C00052804D80FF0BEFBB4
:10A5100006030C04131C0024200070BD8B680E4C35
:10A52000002BF9D10D4CF7E7081D1AF053FD01245B
:10A5300040000443F0E7FFF7D7FF211D050004307A
:10A540001AF06EFA2C00E7E7FFF7CEFF211D050099
:10A5500004301AF075FAF5E720DE020018DE02007A
:10A5600070B5050083070CD1104B02689A4208D1E0
:10A57000FFF7BAFF291D040004301AF046FA200044
:10A5800070BD2800FDF744FAC0231B06984206D18F
:10A5900080200021C00518F033FA0400EFE7012401
:10A5A000C317C018584040000443E8E70C97020066
:10A5B00007B5C30701D540100EBD043001A905F051
:10A5C000A1FA002801D00198F6E7024902481BF0E1
:10A5D000CAF8C04616250300FCDB0200F0B58BB0BC
:10A5E000019001200D00170008402BD04B100222D3
:10A5F00003A904A81AF0BFF804AEFB072BD57B1003
:10A60000022203A904A81AF0B6F804AD019B092B95
:10A6100001D0162B3FD16B68002B68D030001AF0A8
:10A6200034FD041C28001AF030FD011C201C0FF022
:10A63000C3FF032302249843704B0443E418200013
:10A640000BB0F0BD03240C4023D16D4B0A689A4235
:10A65000F5D10E1DD1E703231F4205D1684A3968A1
:10A66000914201D13D1DD1E73B40022B0CD1654BFE
:10A670003B40062B08D030001AF007FD3A00011CC1
:10A68000019800F0FDFA04E03A0029000198F8F77B
:10A690002FFE0400D3E7019B182B00D98AE0FFF7B7
:10A6A00023FF040001980FF0F1FA444A3E50500D88
:10A6B00013191F72336572444A3E50500D13191F0F
:10A6C00072336500201D2A0031001AF051FAB6E7F6
:10A6D000201D2A0031001AF085FAB0E7201D2A005B
:10A6E00031001AF0B2FBAAE76B68002B03D1464990
:10A6F00046481BF038F807A81AF005F82B0032007E
:10A70000201D07A905F098F807A81AF001F896E7A8
:10A710006B68002BEBD007A819F0F5FF211D2B006B
:10A72000320007A8EEE7201D2A0031001AF09BFA3C
:10A7300085E7201D2A0031001AF011FB7FE7201D5C
:10A740002A00310005F002F879E73800FFF730FF02
:10A75000021E02DA2E4808F085F9019B201D310007
:10A76000032B01D0102B02D104F088FF67E71AF009
:10A770009EF964E76B68002B03D02B78DB0700D5CC
:10A7800079E7201D2A0031001AF0E2FB57E76B68D9
:10A79000002BACD0FFF7A8FE0700211D04302B00D2
:10A7A000320005F049F807A9022007970894FAF744
:10A7B00077FB6EE7290030001AF004F903000198D6
:10A7C00000241938042800D939E7124C0FF05EFA3A
:10A7D0000308120B0F00002B00DB30E70E4C2EE7B6
:10A7E000002BFBDC2BE7002B00DD28E7F6E7002B36
:10A7F000F4DA24E7002B00D021E7EFE700008080A7
:10A800000C970200070080FFF0240300DCDD02004B
:10A810000125030018DE020020DE0200184BF7B508
:10A8200030CB0F00160001281AD94B68154A934205
:10A8300007D0990711D114491C688C420DD11C0016
:10A840001D0002280CD0BB68934209D09A0704D19E
:10A850000D4A19681C00914202D0002008F0C6FA87
:10A8600001A93868FEF786FF019A01000023102035
:10A8700019F010FD2A003100230008F0ABF8FEBDEE
:10A88000802E0020E88C020088CB0200074B5B6919
:10A89000002B01D1180006E05A68824204D8801AC1
:10A8A00004308000C05870471B68F1E7802E0020FC
:10A8B00070B5144D04006B699868DB68834215D34A
:10A8C0000230C00016F077FD6B69002803D198684C
:10A8D000400008F0B1F85A68D96803609B685218C4
:10A8E0005B00836000234260C36068616A69D3686B
:10A8F0005068591C04339B000138D16040189C50AB
:10A9000070BDC046802E0020074B4118884204D3FA
:10A91000D8B2002800D1013070475A01D31802780C
:10A9200001305340F2E7C04605150000034B044ACE
:10A930005A6100229C331A607047C046802E002066
:10A9400054A70200F0B585B001900E00FFF7DCFFC0
:10A95000144B02905C69002C01D120001EE02700FE
:10A9600010373D00E3689B00FB180393039B9D4257
:10A9700001D32468EFE72868029A037893420FD145
:10A980004378B3420CD10230320001991DF01BFD17
:10A99000002805D1ED1B6068AD10281805B0F0BD8A
:10A9A0000435E3E7802E0020F0B585B003900191D7
:10A9B000FFF7C8FF002862D1324D019B2F009C3762
:10A9C000DC1C3B68002B18D02E002F4AA0361268E2
:10A9D00031680292A2188A420FD902006118180049
:10A9E00016F007FD0290002822D1274B02001968BB
:10A9F000386816F0FEFC029B3B602B009C331B6802
:10AA0000002B20D12600802C00D2802630002F0081
:10AA100016F0D1FC9C37386000280DD1200016F0CC
:10AA2000CAFC26003860002806D1200008F004F88F
:10AA300033681B193360E0E72B00A0331E602B0046
:10AA40000022A4331A602B00A4331A689C352D68A9
:10AA5000A41801990398AD181C60FFF755FF6B46C9
:10AA60001B7928706B70019AA81C03991DF0BAFC21
:10AA70000022019B2800EB189A70FFF719FF05B020
:10AA8000F0BDC046802E0020242F0020F7B51D0009
:10AA900016000023070003600B6033602B60174B28
:10AAA00000915C69002C02D0154B9C4204D13368A4
:10AAB0002A68D3182B60F7BD3B6801333B60E2681E
:10AAC000009B94461B68009A019363441360220024
:10AAD000E36810329B00D3189A4207D3200008F095
:10AAE000BBFE2B68246818182860DBE702CA3068B0
:10AAF0004978033009183160EEE7C046802E002007
:10AB000054A702000C4B70B55C69002C02D00B4BB3
:10AB10009C4200D170BD2600E36810369D00751977
:10AB2000AE4201D32468F0E704CE0549023205485D
:10AB300016F0ABF9F4E7C046802E002054A70200BF
:10AB400049250300E48B0200FF230322DB05CB1819
:10AB500010B59343042804D80FF098F806030F04A7
:10AB600016000021080010BD0021181C0FF062FA29
:10AB70000A490028F6D00A49F4E7181C10F000FA38
:10AB8000012140000143EDE7802109065B18022105
:10AB900093431943034BC918E4E7C04620DE020083
:10ABA00018DE020000008080FF23DB0510B50400E2
:10ABB000C81803239843002386B0019306330093FB
:10ABC0001022613302A90AF029F802A9200016F028
:10ABD0009BF82E2102A81DF02FFC00280FD1652123
:10ABE00002A81DF029FC002809D16E2102A81DF041
:10ABF00023FC002803D10349200016F085F806B095
:10AC000010BDC046FE7A030030B50C0011000022D2
:10AC100085B01D0000920123200007F037F8002CBA
:10AC200023D02868124B0340062B06D00324204271
:10AC30000ED1104B02689A420AD103A9FEF79AFD81
:10AC40000022039900921300F7F7F4FC05B030BD21
:10AC500003002340022BF9D0FCF73EFF0300022043
:10AC6000A3431843044BC018F0E70448EEE7C0467E
:10AC7000070080FF4CC60200000080800200808038
:10AC8000F0B5050087B010000191FCF725FF041C0A
:10AC90000390681F182800D9BDE00EF0F7FF0D12D1
:10ACA0001F24333E6F81BCBCBCBCBC0D121F2433BF
:10ACB0003E6F9FA8ADB2B7000198211C0FF0E2FAD9
:10ACC00003E0211C01980FF081FF019003230198FC
:10ACD000524A9843013B03439B187CE0211C019896
:10ACE0000FF042FEF1E70021201C0FF0A3F900282D
:10ACF00003D04B494B481AF036FD03A901A817F0C1
:10AD000029FFE3E70021201C0FF094F90028F0D17F
:10AD1000211C01980FF050FCD7E70021201C0FF0F8
:10AD200089F90028E5D1211C019812F0EFFF0021DC
:10AD3000041C01900FF07EF9002807D0039A00232D
:10AD4000002A01DA80231B060193BFE70021201CA3
:10AD5000039E01270FF074F9002800D1071C002181
:10AD6000301C01250FF06CF9002800D1051CFFB242
:10AD7000EDB2AF42AAD0311C201C9FE7019D0021FB
:10AD8000281C0FF057F9002805D00021201C0FF0D7
:10AD900057F90028ADD1211C281C12F0A3FB94E721
:10ADA0000021201C0FF046F90028A2D103A901A818
:10ADB00017F0D0FE03220220019B1849934303435E
:10ADC0005B180493039B934303435B1804A9059307
:10ADD000FAF766F80300180007B0F0BD0199201CCF
:10ADE0000FF042F9104B0028F5D1104BF3E7019911
:10ADF000201C0FF025F9F5E70199201C0FF01AF936
:10AE0000F0E70199201C0FF039F9EBE70199201CBC
:10AE10000FF020F9E6E70023DDE7C0460000808060
:10AE2000F0240300DCDD020020DE020018DE020058
:10AE3000014B58687047C046802E0020014B1868AF
:10AE40007047C046802E0020F0B5194E87B0336899
:10AE5000050000200C00019319F0C0FA306000904A
:10AE600020681AF035FC019B07003360114E022D5B
:10AE700003D0A068FCF7E4FC0600210063680831F9
:10AE8000A81E0393FAF70CF8009B04900593002288
:10AE900003AB0321300007F0BFF8074B04009F42CB
:10AEA00003D00100380019F015FA200007B0F0BDFA
:10AEB000802E00205CD00200E88C02001FB569469D
:10AEC00007F0A0F90400200007F0FEF9002802D1E5
:10AED000044804B010BDFCF7D9FE0028F3D10248A5
:10AEE000F7E7C04620DE020018DE02001FB5694603
:10AEF00007F088F90400200007F0E6F9002802D1E5
:10AF0000044804B010BDFCF7C1FE0028F3D002488D
:10AF1000F7E7C04618DE020020DE020010B5FCF79D
:10AF200013FD034B002800D1024B180010BDC04692
:10AF300020DE020018DE020037B5FCF769FD01AB28
:10AF40007F2806D80121187001221800FDF7BAFFEA
:10AF50003EBD1E49820988420BD8402149420A431E
:10AF60001A703F2202408020404210435870423104
:10AF7000EAE7174C010BA0420ED82024644221437B
:10AF8000197080215F344942224020400A43014326
:10AF900099705A700321D7E70E4CA04212D81024A2
:10AFA000850C64422C431C703F2580242940644258
:10AFB0002A40284021432243204359709A70D87078
:10AFC0000421C1E7044807F04DFDC046FF0700001B
:10AFD000FFFF0000FFFF1000F8400300F0B589B04C
:10AFE000019204000D0000222F4901980293F9F705
:10AFF00011FC0090002801D043680093012C16D06A
:10B00000A4002B19002427000193019B9D4224D00A
:10B01000009B2E68002B04D0310018001AF05FFB53
:10B020000600002C37D137002C680435EDE70024EA
:10B0300004A9286807F0E6F827000390039807F0B2
:10B0400043F9051E0CD1002C07D1220017490198A5
:10B05000F9F7E0FB00281BD04468200009B0F0BDE0
:10B06000009B2E00002B04D0290018001AF037FB9B
:10B070000600002C09D03A003100029807F0FAFCD3
:10B080000B4B984201D025003E002C003700D5E73D
:10B09000084807F0E7FC3A003100029807F0EAFCA4
:10B0A000034B9842C1D1BEE7561300002E11000099
:10B0B00020DE02001941030037B501A90500FEF7A3
:10B0C00059FB1E4B04002B40062B05D0AB072AD1A1
:10B0D0001B4B2A689A4226D10199200018F008FFDC
:10B0E0000190012822D1207843B2002B04DB0120FB
:10B0F00023785B0018433EBD7F23013418403F3B5B
:10B10000034208D13F22237819009143802905D0BA
:10B1100017F085FCEFE798435B10F1E780011340DF
:10B1200001341843EFE7019B012BE0D0019A054958
:10B13000054809F015F9F8F739F9C046070080FF0E
:10B140004CC602003241030028DD0200F0B51400B5
:10B1500087B002900391002223492000F9F75AFB9F
:10B160000022050021492000F9F754FB01230400C7
:10B17000049305931E4F002D07D068681D4B98421D
:10B1800003D004A9FEF7F6FA07001B4E002C07D0E7
:10B190006068184B984203D005A9FEF7EBFA060049
:10B1A0000024029B154D9C420AD10023059A01936D
:10B1B000009331002800F5F7E5FA0E4807B0F0BD1E
:10B1C000002C07D00023049A019300933900280033
:10B1D000F5F7D8FA0399A3000022C9582800FCF714
:10B1E00047FB0134DDE7C0468E15000096110000D4
:10B1F000501D0300E88C020072250300E48B02005E
:10B2000010B5040086B06A4602A81021FAF7CCFEF9
:10B21000012221006846FCF72BFB02A90248FDF73A
:10B220001BFE06B010BDC0464CC6020070B50C68CF
:10B23000E30726D4A30703D1174B22689A4220D0F4
:10B24000012820D94868FCF7E3FB06002000FCF742
:10B2500043FC051C30000FF0B3FE011C0F4812F038
:10B2600041F9011C041C281C0FF07EFB12F036F97A
:10B27000211C0FF0A1F9032302249843084B044337
:10B28000E418200070BD2000FCF726FC12F026F91F
:10B29000F7F7DCFE0400F4E70C9702000000204101
:10B2A0000000808030B50B0085B01400012802D961
:10B2B000094807F09BFD09480121C2680192019DE0
:10B2C0000022A8472200039003A90120F8F766F99D
:10B2D000039805B030BDC04686410300389802008F
:10B2E00013B504000800FDF70FFE6A4601002000B8
:10B2F00006F00AFF009B0248002B00D1014816BD52
:10B3000020DE020018DE020037B50024022800D932
:10B310008C6848680D68FDF7F7FD0A4B0100002CAA
:10B3200000D0094B6A4628009847009B002B07D0A5
:10B3300001991C00002903D0180009F0B3FE040095
:10B3400020003EBD6D2101000921010070B50400FF
:10B3500008001500FDF7D8FD2A000100200006F0C6
:10B360002DFF014870BDC046E88C0200F8B50326E9
:10B37000050007003540022D16D10E4B0340062B69
:10B3800012D0FF23DB05C418B443201C00210EF0AB
:10B3900057FE002806D080231B06E418B443064B52
:10B3A0002C43E7183800F8BD3800FFF7D9F807003C
:10B3B000F8E7C046070080FF000080807FB50B00E3
:10B3C000012803D100211868FCF76CFA102102A8AB
:10B3D00016F0D8FA0C4902A815F010FF032804D182
:10B3E0000A481AF071FFF7F7E1FF039B0193002B66
:10B3F00003D1042801D10648F3E702A90548FDF767
:10B400002BFD07B000BDC046A40B030094DA020078
:10B41000F0D802004CC6020010B506F02DFF00283F
:10B4200004D103481AF050FFF7F7C0FF10BDC04623
:10B4300074DC020010B5022803D0054905481AF053
:10B4400092F94A680B20096807F014FB10BDC0464A
:10B450006C41030084DB02007FB50D4D0400A8425F
:10B4600013D00C4E012201003000FCF701FA0A490A
:10B47000300015F049FC04230293084B0394DB6968
:10B4800002AA0321064801939847280004B070BD22
:10B49000E88C0200E48B02007225030044D5020010
:10B4A0006CB40200F8B50E0000280FD10400284B40
:10B4B0001D680021080016F05FF800270600BD4255
:10B4C00032D10025AC423ED13000F8BD0868830778
:10B4D00014D103681F4A93420DD11AF0FBFD0500F9
:10B4E0003068FCF7ADF91C4BC26800249A42E0D1E9
:10B4F00034680434DDE7194A934201D0FCF7A0F91F
:10B50000856B002DECD0164B2A689A42E8D00025B6
:10B51000E6E7EA68FB009958002904D0042902D024
:10B520003000F7F7DBFF0137AB68BB42F1D8C8E763
:10B53000A268EB009958002904D0042902D03000F9
:10B54000F7F7CCFF01356368AB42F1D8BCE7C046E2
:10B55000802E002044D50200D50F01005CD00200EF
:10B5600088CB0200F0B50E001100002285B0B71C98
:10B5700003901C0030000D4B0092BF0006F086FBCC
:10B58000380015F00BFF466006000500039B083FDE
:10B5900003600836E719BC4202D1280005B0F0BDAF
:10B5A000002101CC06F02EFE01C6F4E7FFFF0000EB
:10B5B0000379044AD35C002B00D183790248DB0075
:10B5C000C01870471B2E002090B7020010B5040071
:10B5D000FFF7EEFF227903680249034808F0C0FE36
:10B5E000F7F7E4FEB1410300A0DD0200002803D01C
:10B5F00001210379014AD1547047C0461B2E002017
:10B6000010B5FFF7D5FF034B4068C01A431E9841A1
:10B61000C0B210BDCDB5000070B505000C00FFF73D
:10B62000C7FF0023A04209D0436828009847044A76
:10B630002B79A41A034AE410D4540123180070BDD6
:10B6400090B702001B2E002070B50400FCF7F8F83C
:10B6500000230C49DA0052181568A54205D151683B
:10B66000094815F051FB012070BD0133612BF1D168
:10B67000064B9C4203D0984201D00020F4E70449D5
:10B68000EEE7C0462CB80200E48B02007C8E02007C
:10B69000C341030010B5024B672217F007FC10BD31
:10B6A000CB37020010B5024B972217F0FFFB10BDFD
:10B6B000D9C80000F7B50F0011001A00C38A8579B8
:10B6C000868A019300230400837143610F4B17F0B6
:10B6D000EDFBA368002B18D1E18A002908D0A38ACA
:10B6E000002B05D1206B1AF0EEFB206B1AF06BFAE1
:10B6F000A38AE28A3900200017F088FB6B1E9D4167
:10B700006B469B88A571A682E382F7BDF5C4000055
:10B7100010B54379C26A012B03D1100018F0AEFEB8
:10B7200010BD0B00006B024918F0D2FEF8E7C046CE
:10B73000E8D302007FB50B7804000D004E1C002BEF
:10B740000AD0032B0BD103A928001AF041FF03995B
:10B750000600206B1AF0CEF9300004B070BD012B4A
:10B7600007D18E1C49780429F6D0006B07F07AFDCA
:10B77000F2E7042B0BD14B788978006B090219434F
:10B780001AF000FA28001AF05EFF0600E4E7052B25
:10B7900015D14379042B04D02649006B1AF0FEF929
:10B7A000F0E788784B780002184303A917F0CAF92C
:10B7B0000399246BFDF79EFB01002000EEE71A00C1
:10B7C0000A3A0F2A09D803A9280017F0F3FA0399B7
:10B7D00006002000FFF79CFFBEE7082B0CD103A951
:10B7E00028001AF0EBFE039B226A9B000600995882
:10B7F000206B1AF0D3F9AFE703AB02AA01A9280026
:10B800001AF052FF05000299206B07F0DFFC019B44
:10B81000094A9B009B582900039A20009847A36877
:10B82000002B04D0E368002B01D1029BE360039E50
:10B8300092E7C046E88C020034BB0200F7B5060070
:10B840000192FFF777FF04270500019B9D4200D17D
:10B85000F7BDA91C30006C78FFF76CFF2F3CE4B2F9
:10B8600005003900082C01D8024B195D306B1AF025
:10B8700008FBEAE7CA67030010B54379C26A012BE7
:10B8800003D1100018F00BFE10BD0B00006B024935
:10B8900018F01EFEF8E7C046F8D3020010B5437951
:10B8A000C26A012B03D1100018F0F9FD10BD0B0086
:10B8B000006B024918F00CFEF8E7C046D8D302002E
:10B8C000836870B504000D00002B09D111000548F4
:10B8D0001AF007FDA060200029000C3017F008FDC9
:10B8E00070BDC046B0DC020010B5024AFFF7E8FFA9
:10B8F00010BDC046126B0300F0B591B06B4604005A
:10B9000005920D001B7DA24A4371E16200212B7854
:10B910000161072B3BD1059B012B06D00200836BF5
:10B9200008321B680599406B9847AB68180008936C
:10B930001AF089FE63790890032B0FD10D904021F6
:10B940000DA81AF099FEA36B02009B680D99606B1D
:10B950009847A368E882002B00D0D4E008981AF03A
:10B9600072FE08900378002B4FD00A3B0F2B47D86C
:10B970000DA917F01FFA95220D9B9200934244D017
:10B980000AD80125483A93420DD0824A08992000EE
:10B99000FFF796FF11B0F0BD7F4A934202D07F4A75
:10B9A0000325F0E7002508981AF04DFE18210890AD
:10B9B00008A81AF061FE089B07900693069B079A59
:10B9C000934224D16379012B15D9A36B29005B68BD
:10B9D000606B98476379042B0DD10023E06A0395CF
:10B9E0000293C18A626B0191009393680521D2682A
:10B9F0000069F6F751FAA368002B00D083E0C9E78D
:10BA00000100674A2000FFF75BFF0225CBE7069B9A
:10BA100008931B78222B04D106981AF014FE069086
:10BA2000CCE71F2B01D05F4AB0E709A906981AF0AE
:10BA300014FE03780600432BF5D11AF004FE099B8F
:10BA40009842F0D109A930001AF007FE03780700E8
:10BA50000A3B0F2BE7D81AF0F6FD099B060083423C
:10BA6000E1D00378472BDED11AF0EDFD099B984217
:10BA7000D9D10AA9380017F09DF930001AF0E8FD75
:10BA80009F210B900BA81AF0F7FD01000B981AF0FC
:10BA9000CEFD9B220A9B0600920093421BD10128F7
:10BAA00004D10B9803780A3B0F2B01D93E4A6DE76E
:10BAB0002669731C2361059B012B21D00DA917F06A
:10BAC00079F9A36B0D9ADB683100606B9847002809
:10BAD00016D1364A5AE7364A93421AD1012803D181
:10BAE0000B980378032B01D0324A4FE7059B012BBB
:10BAF00006D0666B1AF07BFD010030001AF043FEA1
:10BB0000A368002B88D0200008990C3017F0F0FBB8
:10BB100040E789229200934222D1012803D90B9851
:10BB20000378032B01D0244A30E7059B012BE7D093
:10BB30000CA91AF04DFD01270B900B980378032BED
:10BB400001D01E4A22E70DA91AF042FD01370B90E1
:10BB50000D9A0C99606B1AF01DFEBE42EDD1CFE735
:10BB6000059B012BCCD0032800D95CE70B9B180068
:10BB70000D931AF068FD0E901AF065FDA36B0F90FF
:10BB80001F6932000DAB0A99606BB847B8E7C04631
:10BB9000076A03002B6A030091020000DA0200002A
:10BBA000386A0300606A0300836A03009F6A030027
:10BBB000FF010000AF6A0300CB6A0300F06A0300D4
:10BBC000F0B587B001920A000593531E9A410D000B
:10BBD00006000599019804921AF029FD2C1E039085
:10BBE00009D02B7800243A2B05D102002100306BBC
:10BBF0001AF0DAF92C00049B019F0293059B9F42E7
:10BC00001ED1002C3BD1039A049B94466344190037
:10BC1000306B1AF0BDF9002D3ED1019B9F422CD014
:10BC2000019B9C423BD120001AF012FD0022010032
:10BC3000300000F039F801981AF005FD0190ECE7AA
:10BC40003B783A2B0CD1002C12D1049B306B5A1E3E
:10BC5000039B3C00D218029BD21A19001AF0A4F9D7
:10BC600038001AF0F0FC029B070001330293C5E78D
:10BC70000C4A39003000FFF723FE07B0F0BD002D5D
:10BC8000CBD0AC4208D120001AF0E2FC0022010027
:10BC9000300000F009F8C0E700222900F8E7002290
:10BCA0000199C5E73D680300F0B50B7817001A004D
:10BCB0000A3A85B004000D000F2A10D803A9280005
:10BCC00017F078F803992000002F01D0022F03D13C
:10BCD000FFF7D2FD05B0F0BDFFF71AFDFAE76A4A9B
:10BCE000192B00D8CBE01A3B2A2B00D182E005DCCF
:10BCF000062B08D0292B11D0644AC0E02B2B00D191
:10BD000094E0972BF8D1002F00D0B7E003A92800CA
:10BD10001AF0A3FC0200039B00219BE002A928006B
:10BD20001AF09BFC0600022F03D001002000FFF751
:10BD300001FD30001AF087FC0299060017F02FF879
:10BD40000028D9D13378A22B13D1300003A91AF0DF
:10BD500084FC060030001AF076FC039A01909042B1
:10BD600007D2022F03D031002000FFF7E3FC019E31
:10BD7000F0E73378482B21D1022F06D1206B19F040
:10BD8000ADFF206B19F069FF0EE030001AF060FC87
:10BD900001002000FFF7CEFC206B012FF2D119F03B
:10BDA00071FF206B19F041FF30001AF04CFC029932
:10BDB00016F0F5FF002800D08CE79DE7492B9BD1BA
:10BDC00030001AF045FC03A916F0F4FF012F07D14B
:10BDD000206B19F04DFF0399206B19F0FEFEE3E78D
:10BDE000022F02D1206B19F062FF0399206B19F02A
:10BDF00027FFD9E703A928001AF02FFC03990600B2
:10BE000016F0CDFF002800D076E7002F36D13500A0
:10BE100003A928001AF021FC06001AF014FC03788C
:10BE2000A92B1BD100231A00310013E0002F25D1CC
:10BE300003A928001AF011FC0399050016F0AFFFC2
:10BE4000021E02D03B003A0066E72B78A62BDFD01B
:10BE5000030029002000FFF7B3FE3BE7AA2B05D122
:10BE600003A91AF0FAFB039B0200DDE7C12B00D106
:10BE700042E71AF0E8FB320003004DE7044A2900CC
:10BE80002000FFF71DFD25E7DE670300F6670300CE
:10BE900011680300F0B5170085B0040008000D001C
:10BEA0001AF0D1FB3900060016F079FF0190002846
:10BEB0001FD02379002B17D0E36A1E78002E13D1F0
:10BEC000F6212000FF31FFF723FC29002000FFF7B7
:10BED00031FC330032000121206B1AF0A3F8206BF3
:10BEE00019F0DAFE05B0F0BD29002000FFF722FCB2
:10BEF000F5E733786D2B1DD1290001222000FFF7D3
:10BF0000D3FE30001AF0A4FB4378811C4E3BDBB219
:10BF100018260A2B01D8234AD65C2000FFF70AFC1A
:10BF20003100206B19F0ADFF022229002000FFF73D
:10BF3000BBFED7E76E2B2ED1300003A91AF08DFB84
:10BF400006000700039BBB421FD101992000FFF7A9
:10BF5000F1FB206B19F08CFE002229002000FFF776
:10BF6000A3FE019BB342BDD030001AF06CFB019BD5
:10BF70000500834202D0206B19F07AFE31000022C6
:10BF80002000FFF791FE2E00EBE738001AF05BFB74
:10BF900001970700D6E731002000FFF7CBFB019A9D
:10BFA000C3E7C046D3670300F0B50B788FB00A3BF8
:10BFB0000400019103920F2B00D90CE108001AF044
:10BFC00042FB0378432B00D005E101981AF03BFBBC
:10BFD0000BA91AF042FB037842780A3B1B02134379
:10BFE000A54A934200D0F6E01AF02DFB0378050035
:10BFF000472B00D0EFE01AF06BFB002800D0EAE0FE
:10C0000028001AF020FB0B9B984200D0E3E02800A8
:10C010001AF01EFB9F210C900CA81AF02DFB0C9B14
:10C0200007000293012302980D931AF00CFB050000
:10C030000C90B84200D1C3E01AF005FB0C90B84256
:10C040000ED00378032B00D0C5E00DA91AF0C0FA7A
:10C050000D9B0C90002B00D1BDE0B84200D0BAE09F
:10C06000029B1B784533DBB2022B00D8B3E02B7860
:10C070004533DBB2022B00D8ADE00B9B18000593D3
:10C080001AF0E1FA039B0700984200D100270D9BAC
:10C0900026690493238B26830693638B0793E38B94
:10C0A0000893731C03936B469B896383A38BE38381
:10C0B000331D23612B78D91E03930B00591E8B412E
:10C0C0000993039B032B03D029002000FFF732FBC9
:10C0D00002992000FFF72EFBF11C206B19F013FED4
:10C0E000B11C206B19F0D2FC206B19F0C1FD0022AD
:10C0F00001992000FFF7D8FD05992000FFF71AFBF2
:10C10000711C206B19F0C2FC0499206B19F0F2FC31
:10C110001221206B19F0B5FE206BF11C19F0B6FC52
:10C12000039B206B032B4FD019F0ACFD206B19F053
:10C13000BEFD049B206B1921002B00DA1A2119F097
:10C14000A0FEB21C0121206B19F0E9FD6B461B8B90
:10C15000002523836B469B8B63836B461B8CE38399
:10C16000AF4218D0206B19F097FD039B032B02D030
:10C17000206B19F091FD39002000FFF7DBFA2569EB
:10C18000206B6B1C2900236119F0BDFD0999206B00
:10C19000013119F0C1FB3100206B19F077FC206BE5
:10C1A00019F07AFD039B032B02D0206B19F074FD6C
:10C1B000002F03D02900206B19F068FC0FB0F0BDF0
:10C1C0002E4B029D02934BE719F052FD29002000EF
:10C1D000FFF7B0FAADE7238B25690293638B6E1CE2
:10C1E0000493E38B66830593AB1C0693A38B0198A2
:10C1F000E383234B2B432383EB1C23611AF023FAA5
:10C2000001002000FFF796FA07000121206B19F0CA
:10C21000D7FD3100206B19F039FCA91C206B19F0F7
:10C22000E2FD002201992000FFF73EFD39002000C9
:10C23000FFF780FA0700206B19F069FB002803D193
:10C240003100206B19F05FFDA91C206B19F01EFC5A
:10C25000206B19F0D4FD6B461B8923836B461B8A28
:10C2600063836B469B8AE383039BBB42A2D0390066
:10C270002000FFF75FFA9DE7A2020000957A030015
:10C280000080FFFFF0B589B005000591049200938E
:10C290000191002904D09F2105A81AF0EDF9019021
:10C2A00000231E001F00059C03930293019BA342E1
:10C2B0001AD1002E0DD0029B002B00D079E0286B04
:10C2C00019F081FC039B002B00D077E0286B19F05C
:10C2D0007AFC049B286B002B00D174E033003A00F9
:10C2E000009919F0A8FE0AE02378BB2B14D1BA3BC1
:10C2F0001E4206D0374A21002800FFF7E1FA09B0B4
:10C30000F0BD012320001E431AF0A2F90290200084
:10C310001AF099F90400C9E7BC2B0BD1BA3B1E42B5
:10C3200001D02D4AE7E7022320001E431AF090F9BE
:10C330000390ECE7BD2B2AD120001AF089F9040004
:10C340001AF081F90378C12B0BD1280006222100B5
:10C3500016F03CFE009B2000013300931AF073F9A5
:10C36000D6E723780A3B0F2B01D91C4AC3E707A95C
:10C37000200016F01FFD04000799286B19F002FC3D
:10C3800021002800FFF7D6F9013704008EE7002EC0
:10C3900001D0134AAFE7002F01D0124AABE72100CA
:10C3A0002800FFF7C7F9009B0400013300933E000B
:10C3B0007CE702992800FFF7BDF983E7039928007D
:10C3C000FFF7B8F985E733003A00009919F02AFE23
:10C3D00095E7C0462F6B0300466B03005E6B0300BE
:10C3E0007F6B03009A6B0300F0B589B004000391E2
:10C3F00003A83D211AF040F90027E36A02905E7D10
:10C400000398029B984215D118001AF021F9029B5B
:10C4100003901B780100320020001D2B59D116F02B
:10C4200080FD0500013F57D229002000FFF724FAC4
:10C4300009B0F0BD05A91AF010F96821039003A80E
:10C440001AF01AF906A90500039816F0B3FC962312
:10C45000069AFF3301909A4213D003992000FFF708
:10C4600069F9013703900398A84229D1059928005A
:10C4700016F095FC00280CD129002000FFF75AF98E
:10C4800007E0019B9D4207D8174A00212000FFF7D3
:10C4900017FA059B0393B3E701981AF0D4F8854285
:10C4A000F2D107A9019816F085FC079B0F4A934229
:10C4B00004D00F4A9342E7D10426EAE70126E8E7D1
:10C4C00007A916F077FC07990390206B19F085FBFC
:10C4D000C9E716F070FFA4E7002301211A00206BC2
:10C4E00019F0A0FD9EE7C046F668030011020000A7
:10C4F00006020000F7B50A780E00130008215D3B24
:10C500008B43DBB20400002B02D101338371F7BDF2
:10C5100013005E3B8B43DBB2002BF8D013000A3BC9
:10C520000F2B2FD95C2A11D101A930001AF095F8F0
:10C5300007001AF088F8019B834205D01AF083F8AF
:10C54000019B0500834208D1002506E030001AF067
:10C550007FF807001AF077F8050001A9380016F0F7
:10C5600029FCA379002D02D02A78002A0CD1002BB7
:10C57000CDD1E38A002BCAD0184A31002000FFF742
:10C580009FF9C4E73700DFE7002B1ED0A38A0133F1
:10C590009BB2A382012B09D1E18A206B002911D023
:10C5A00019F091FC0021206B19F0A7FC2900200054
:10C5B000FFF7C0F8206B019919F0E4FA206B19F02D
:10C5C000A8FCA4E719F0FFFAECE7E38A290001339D
:10C5D000E3822000FFF7AEF899E7C0461469030034
:10C5E000F0B504000E00056987B002936B1C03933D
:10C5F000AB1C03612900006B170019F0BEFB200083
:10C6000016F0E0FB31002000FFF794F8206B19F0E2
:10C61000FCFB691C206B19F076FB2900206B19F0DC
:10C6200035FA206B19F04BFD2669731C2361029BC0
:10C630009F4218D1A38B206B013BA38319F0B5FB5C
:10C64000206B19F041FD0399206B19F01FFA0C9B28
:10C65000002B03D019002000FFF76CF83100206B8D
:10C6600019F014FA1BE0380019F0F2FF00230593CB
:10C67000236905000193013323610378002B10D156
:10C6800019F0E1FF19F0DFFF029B984224D03C4AE9
:10C6900029002000FFF714F9A38B013BA38307B007
:10C6A000F0BD07008B2B07D119F0D2FF070019F05E
:10C6B000CAFF05A916F07EFB206B19F0D9FA3900E4
:10C6C0002000FFF737F82121206B19F0DAFB019ADF
:10C6D0000021206B19F023FB280019F0B4FF059905
:10C6E0000700002948D1206B19F0D6FA0025059BD8
:10C6F000AB4209D02569206B6B1C2361290019F01E
:10C7000048FB200016F05EFB39002000FFF712F80E
:10C71000059B0700002B02D0206B19F076FB206BE5
:10C7200019F098FB059B002B19D00E21206B06F009
:10C7300099FD2900206B19F0A9F90E21206B06F054
:10C7400091FD05992000FFF797F820000599FFF764
:10C75000A5F8A38B206B013BA38319F026FB3100C6
:10C76000206B19F0D0FA0199206B19F08FF9012193
:10C77000206B19F0D1F85AE72000FFF77DF8B5E7F4
:10C78000BC6B0300F0B587B0039143790400012B23
:10C7900007D1C36A0D001B78002B04D1194AFFF79B
:10C7A0008FF807B0F0BD692103A819F065FF02906A
:10C7B0000398029B9842F4D005A90B2716F0FAFAC9
:10C7C000059B0390019302ABFF183A000199E06AC0
:10C7D00015F033FD3B780600002B0DD0019A0100C7
:10C7E000E06A15F055FD3378074A002BE0D12900A7
:10C7F0002000FFF765F8DBE70378042BD8D0034A65
:10C80000F5E7C0466169030086690300A469030077
:10C81000F0B587B0039144790500012C09D101914D
:10C8200003A8692119F028FF02900398029B9842FF
:10C8300001D107B0F0BD05A90B2716F0BBFA02AB7A
:10C84000059EFF1803903A003100E86A15F0F5FCE8
:10C850003B78002B08D10378012B05D0074A0199BA
:10C860002800FFF72DF8E0E704703100E86A15F0C2
:10C8700006FD0028D9D00470D7E7C04642690300FE
:10C8800010B5084B428B04009A4202D1064AFFF7CA
:10C8900017F8A28BE38B618BD21A206B06F008FD90
:10C8A00010BDC046FFFF0000DE68030010B5084B56
:10C8B000028B04009A4202D1064AFFF701F8A28BCC
:10C8C000E38B218BD21A206B06F0F2FC10BDC04620
:10C8D000FFFF0000C9680300F7B50B7804001A00D9
:10C8E0000A3A0E000F2A08D801A9300016F062FAA1
:10C8F00001992000FEF7D2FFF7BD432B44D16946D2
:10C90000300019F0AAFE01002000FEF713FF0378A3
:10C910000500A22B10D101A919F09FFE05002800E7
:10C9200019F091FE019B0700834205D029002000E9
:10C93000FEF700FF3D00F2E72B78482B16D12800C8
:10C9400019F086FE01002000FEF7F4FE0500206BC2
:10C9500019F0CEF90099280016F021FA0028CBD161
:10C96000214A31002000FEF7ABFFC5E7492BF7D184
:10C97000280019F06DFE01A916F01CFA01990500B6
:10C98000206B19F09EF9E5E7442BE9D1080019F076
:10C990009FFE0028E4D1300019F05AFE060019F07D
:10C9A00057FE050001002000FFF796FF280019F050
:10C9B0004AFE0378A92B9FD0AA2B0ED101A919F00A
:10C9C0004CFE019B0500834296D020002900FFF712
:10C9D00083FF280019F037FEF3E7C12BC0D0010018
:10C9E0002000FFF779FF87E757680300F7B50226B5
:10C9F0000D00C16A0400097D314005D0344A290088
:10CA00002000FEF75DFFF7BD0191297808000A3884
:10CA10000F281DD8280001A916F0CCF9A279E36AE5
:10CA2000002A03D01A8B01321A8302E0DA8A01321B
:10CA3000DA82012601990029E5D06B46DF1C3A0015
:10CA4000E06A15F0FAFB3B78002B3CD1214AD6E78F
:10CA50001A32914204D1280019F0FAFD01A9DBE74E
:10CA60001A33994223D1A379002BC7D1012728007B
:10CA7000A77119F02DFE03260028DBD1280019F03C
:10CA8000E7FD0278E36A0A3A0F2A09D828001A7DDE
:10CA900017431F7519F0DCFD01A916F08BF9C9E7E2
:10CAA0001A7D280017431F7519F0D2FDF2E7280000
:10CAB00019F0CEFD01A916F07DF9E36A1A7D16433F
:10CAC0001E750526B6E70223467003709BE7C04635
:10CAD000DF690300EE690300C36A70B51B780400C8
:10CAE0000D00072B04D00C4A0021FEF7E9FE70BDB3
:10CAF0001100280016F053F9002807D00E21206BF2
:10CB000006F0B0FB206B19F0A0FAF0E72900200036
:10CB1000FEF710FEF6E7C046C5690300C36A70B5AC
:10CB20001B7804000D00072B06D0022B04D0174AF7
:10CB30000021FEF7C5FE70BD1100280016F02FF988
:10CB4000061E07D00E21206B06F08CFB206B19F01F
:10CB500097FAF0E72B78C42B12D1280019F078FD52
:10CB600001002000FEF7E6FD3100206B19F028F9E6
:10CB7000206B0E2106F076FB206B19F090FADAE7B5
:10CB800029002000FEF7D6FDE0E7C046DB6B03007E
:10CB9000F0B50D0085B004001100280016F0FFF874
:10CBA000071E05D00021206B19F0A7F905B0F0BDD4
:10CBB0002B784E2B0BD1206B012119F09EF9290007
:10CBC0002000FEF7B7FD206B19F0A3F9EEE7B32BB9
:10CBD00061D1280019F03CFD050019F034FD0290E8
:10CBE0000378B62B4DD103A919F037FD039B0290B2
:10CBF000984203D09D2102A819F03EFD2B784E2BC0
:10CC000020D103990298266B19F011FD411C3000C8
:10CC100019F073F929002000FEF78CFD206B19F044
:10CC200078F90127029E039B9E4210D1002FBDD1AF
:10CC300031000298246B19F0FAFC411C200019F015
:10CC400073F9B3E729002000FEF774FDEAE73378B3
:10CC5000310020000193FEF76DFD019B0600002FBF
:10CC60000BD04E2B05D00F4A29002000FEF728FEDE
:10CC70009CE7206B19F04DF9D5E74E2BD3D10A4A2A
:10CC8000F2E72B7804224E2B00D005222900200049
:10CC900016F09CF98AE729002000FEF74BFD0121E0
:10CCA000206BCCE76F68030092680300F0B50400C6
:10CCB0000D00002662711100C56206612A0087B06E
:10CCC000006B06F0F1F96279012A01D1EE832E841E
:10CCD000AE683378542B0AD1300019F0B9FC01004A
:10CCE0002000FEF727FD206B19F0AFF92AE02B7822
:10CCF000002B08D131002000FEF71CFD0E21206B17
:10CD000006F0B0FAEFE7072B21D1300019F09BFCB9
:10CD100063790500012B07D100230100A371402294
:10CD20005F4B200016F0C2F8280019F08CFC19F0B7
:10CD30008AFC01002000FEF7FDFC206B18F0E7FDE7
:10CD40000028DBD0206B18F0B5FD07B0F0BD022B3A
:10CD500017D1012A07D100234732A3713100514B6B
:10CD6000200016F0A3F8300019F06DFC010020003F
:10CD7000FEF7E0FC2B7D5B07B5D5206B18F08CFF30
:10CD8000BCE7033B032B50D8300019F05CFC05A92D
:10CD900019F063FC19F057FC67790390012F09D152
:10CDA0000B2202ABD2183900E06A15F046FA0223D2
:10CDB0000370EF822B78032B20D10021206B19F018
:10CDC0008FF82B78062B27D1206B18F0FCFE012161
:10CDD0002000FEF79DFC206B18F0F5FE206B18F08C
:10CDE000F2FE0023059A009303993300200016F009
:10CDF000A1FD2B78062B00D075E77FE7042B04D12B
:10CE00000021206B19F079F8DBE7052BD9D100213F
:10CE1000206B19F089F8D4E720000121FEF778FC97
:10CE20000121206B18F0CCFFDBE7012A07D1DE21BE
:10CE300005AAFF31280015F000FA0223037005A9A6
:10CE4000A86815F0B7FFF82120004900FEF760FC44
:10CE5000F0212000FF31FEF70FFDE989206B18F06B
:10CE600091FEFA2120004900FEF706FDA86819F09E
:10CE7000EAFB19F0E8FB01002000FEF75BFCDE2175
:10CE80002800FF3115F0C9F90378022B00D135E7EE
:10CE9000DE214288FF31206B18F04CFD23E7C046AD
:10CEA0005535020049350200F8B5164B0400A83389
:10CEB0001B681600002B24D1056901226B1C03613D
:10CEC0002B0016F0BDFCBE210700FF31206B18F0CF
:10CED0005EFD3100380015F062FF061E09D13900F1
:10CEE0002000FEF727FC330032000121206B19F0EF
:10CEF00099F80121206B19F0B5F82900206B18F082
:10CF0000C5FDF8BD802E0020F0B585B005000E00EF
:10CF10000192FEF70FFC03780400A22B03D101A9B4
:10CF200019F09BFB0400EB6A1B78072B00D070E024
:10CF3000337872780A3B1B021343504A934268D1FC
:10CF40002378472B65D1200019F0C2FB002860D060
:10CF5000DE212800FF31FEF7DBFB0121EA6A936A3C
:10CF6000928C002A06D1464A21002800FEF7A8FC30
:10CF700005B0F0BD5878084211D059682800FEF776
:10CF8000C7FB0199200019F052FB02280ADC00239C
:10CF9000286B1A00022119F045F8200036E0013A0A
:10CFA0000833DEE7200019F04EFB0378492BEED161
:10CFB000200019F048FB19F046FB0378472BE6D117
:10CFC000200019F040FB070019F03DFB0600380077
:10CFD00019F03EFB03A915F0EDFE03990122286B21
:10CFE00018F007FE300019F073FB0021884203D1CE
:10CFF000300019F02DFB0100002301222800FFF76B
:10D0000041F9200019F01FFB19F01DFB19F01BFB63
:10D010000400019BA342ABD0200019F014FB019B3C
:10D020000600834224D02378492B21D10378472B53
:10D030001ED1200019F00CFB0700300019F048FB4E
:10D040000024A04203D1300019F002FB040003A920
:10D05000380015F0AFFE00220399286B18F0C9FDC7
:10D060002800002301222100FFF70CF93000CDE752
:10D0700021002800FEF75EFBCAE7C046C702000099
:10D08000B1680300F0B59BB01500069038220F0080
:10D090000CA800211E001BF0C1F9069B0BAC5B68BD
:10D0A0000B97236201235B421193069B267118683C
:10D0B00019F0C9FA19F09BFA6062800014F080F947
:10D0C0000022A06200950025069B11001B6820002D
:10D0D00015F082FE18F0D8FB2B0003902063049516
:10D0E000626A0792954202D2A268002A41D0002BC0
:10D0F0005DD10593059A079B934202D00D9A002AB1
:10D1000058D00499039818F0C4FB0025149A0D9B7D
:10D110000592954200D214E1002B0CD0169B0EA86C
:10D12000996816F0E5F8169B0E9A0493DB890B9923
:10D130000D9807F081F9039818F0B3FB18980028B0
:10D1400001D016F0D2FF0024069819F0CBFA159BF7
:10D150001B681D69149B159803939C4200D21AE129
:10D1600014F04BF90D99002900D11CE10800F6F7E5
:10D170001DF9A16AAA005658002E13D03269002A60
:10D1800010D114F045F8737D306101223100200088
:10D19000042B09D1FEF7B0FB2369049A9A4200D20E
:10D1A0000493012301359BE7FFF780FDF4E700239B
:10D1B0001D0095E70599159B8900CB58002B38D0A9
:10D1C0000120998C8C46197D01421CD06446601E5A
:10D1D000C000002C17D00226996A09184D783542F4
:10D1E0002AD0002A0FD00F00508816780890506877
:10D1F0005578099011CF11C26A46128C0E704A8080
:10D20000099A4D704A600021DE249983FF348C45D1
:10D210001ADC00218C4535DC5E68002E09D0002127
:10D22000B28C09920A00099881423BDB00208242BD
:10D2300063D1059B01335CE7002A02D1012D00D1A7
:10D240000A00013C0838C4E7986ACA0082181878B6
:10D25000012804D15068A04208D10131D7E71578E0
:10D26000012803D9002D01D1012010701078022867
:10D2700003D0012550782842EFD0988B451C9D8320
:10D280005080EAE7986ACA0082181078032807D10C
:10D2900001245078204203D1988B50800019988344
:10D2A0000131B7E7B06ACD00401908900078033823
:10D2B000012812D800240EE09F6AE0003818077891
:10D2C000042F07D1089D6F683D004768BD4201D11A
:10D2D000428001320134A445EEDC0131A3E79C6AAF
:10D2E000C10061180C78042C03D101254C782C4224
:10D2F00002D04C88A4184C8001308445EFDCD98AD8
:10D3000092B25118D982998B52189A8391E7039B54
:10D31000022221000BA81793FFF7C8FC0D9B059371
:10D32000002B04D1032221000BA8FFF7BFFC0D9BAB
:10D330000593002B2DD1042221000BA8FFF7B6FC8A
:10D3400027E0002B00D0E9E6159B0593059AAB007A
:10D350009C58002C1DD0637D042BD8D1189B0593BD
:10D36000002B04D10499139816F0A8FE18900023FE
:10D370001793104B032221000BA81993FEF7BCFA58
:10D380000D9B0593002B04D1042221000BA8FEF76E
:10D39000B3FA0135BAE6A3001858002801D014F0FA
:10D3A00033FF0134D6E60A00280013F03DFF1BB01E
:10D3B000F0BDC04680C702000122010003001140F9
:10D3C000100000290CD10800990709D11B680549F4
:10D3D00010008B4204D00448181A43425841C0B28E
:10D3E0007047C0460C97020028DE02000023FA2195
:10D3F000094A89001360094A1370094A1360094AEF
:10D400001160094A1370094A111D0832D3670122BD
:10D41000CB67074B1A707047D02A00203B2E0020A4
:10D42000CC2A0020140000203C2E0020802E00205A
:10D430003D2E002010B5084B084A1978002907D165
:10D44000916C002902D0FFF7D1FF10BD30BFF4E787
:10D4500000221A70F9E7C0463D2E0020802E0020E1
:10D46000837F0248002B00D10148704720DE020074
:10D4700018DE02000023A022E02110B583770C4BB8
:10D48000D2050902D1500B48FEF7B0F80A48FEF762
:10D49000ADF80A48FEF7AAF80948FEF7A7F80948C8
:10D4A000FEF7A4F80848FEF7A1F8084810BDC046EA
:10D4B0000C05000020960200289602003896020013
:10D4C0004096020050960200C8950200E88C0200C7
:10D4D000F8B5164C2368002B07D1482008F040FE11
:10D4E000050013490AF052F82560124812490268F3
:10D4F0000B68D21A0123312A04D9623393429B412B
:10D500005B420233002201260C4D2E702F78032F30
:10D51000FCD101329342F8D1036820680B601AF005
:10D5200028F9430001201843F8BDC046D42A002042
:10D53000FCC40200782E0020D82A00203E2E0020B5
:10D5400030B50D4C87B02378012B13D10B4B022241
:10D550001D680621002302A819F0B7FA082204A9C1
:10D5600068461AF03FFF039B029A280009F08AFFE1
:10D570000223237007B030BD3E2E0020D42A0020A5
:10D58000A02010B51049C0054B7F5A1C002B09D1B3
:10D590004C8C0E4BA3430E4C03510E4B4A7752005A
:10D5A000D05A0FE010335B00CB185C88A123DB005E
:10D5B000C450092AF1D10120F2F724FFFFF7C0FF80
:10D5C0000120404210BDC04618000020F01F00009E
:10D5D0000C0500002CF0020073B5041E09D11A4D91
:10D5E0002B78002B2CD01949194816F0BAFB2C7057
:10D5F00073BD184D2B1DDE6FFAF722F9164B210073
:10D60000984214D0154B2340062B05D0A30712D106
:10D61000134B22689A420ED101A92000FCF7AAF808
:10D62000019B012B0CD1007814F07EFD010030002D
:10D6300016F097FBDCE70B490B4818F052FEA86484
:10D64000FFF7D4FED4E7C0463C2E0020E4A1020040
:10D6500018000020802E002044A20200070080FF56
:10D660004CC60200606C030028DD0200F7B5A12360
:10D67000A021214AC905DB00CA500123C27F0D3217
:10D6800093401E4A8B50C37F01920133DBB2032BC0
:10D690002FD0C377020003000021223336321980D5
:10D6A00002339342FBD10424C17F154F4D00052264
:10D6B000EB5D7E195343134A7678D3189B190126E4
:10D6C000A640B44662461B7901345B00C3185E8CE9
:10D6D000063516435E840D2CE9D101220D318A40B6
:10D6E000A023A121DB05C9005A50828E01995A500E
:10D6F000F7BD0023CDE7C046F01F00000C05000079
:10D70000F46B03001800002070B5394B8CB01A7808
:10D71000022A07D1A0223749D2008A58012A07D00D
:10D7200003221A70344DAB7F002B03D1FFF708FFA3
:10D730000CB070BD2800FFF799FF304A30491368DC
:10D740000968063313608B4207D300242D4B146005
:10D750001B78012B0FD0022B45D000232A8C6B772E
:10D76000FF33FF331A42E1D0E1222749D2000120E2
:10D77000F2F714FEDCE7254E331DDB6F002B04D0DF
:10D7800033000833DB6F002B02D1FFF72FFEE4E7F5
:10D7900005F04EFE6846F5F7E3FD00280CD11C4B62
:10D7A000186804F069FD0400F5F7F8FD05F04AFE7D
:10D7B0002000FFF711FFD0E705F044FE019B15495B
:10D7C000186803F035FF0028F2D10198FAF738F80D
:10D7D000114B984203D11149114813F056FB019B9C
:10D7E0000024B364E4E70F49280016F0BAFACCE746
:10D7F0003E2E00200070004018000020CC2A00209F
:10D80000140000203B2E002081D50000802E002037
:10D81000D02A002074DC02000CDB0200090D03009A
:10D82000E48B0200E4A10200F0B5002485B0164D9F
:10D8300002930AAB1B782E1D070008350800210053
:10D8400001920393F467EC6704F0DCFC0F4B019A40
:10D8500018600F4BF7671A606A460E4B127AE8673A
:10D860001A700D4B1C7004F007FDFFF7B5FE012286
:10D870000A4B1C600A4B1A70039BA34201D0FFF7AE
:10D88000D9FD05B0F0BDC046802E0020D02A002072
:10D89000140000203C2E00203D2E0020CC2A002029
:10D8A0003B2E0020F0B50024384B8FB01D1D0833EF
:10D8B000DC67374BEC6709AD80C9013801950093EF
:10D8C000052304F013FA6B68099C049307942B7BDF
:10D8D0002E7A05932B7C20000393FFF76DFD2D4DD1
:10D8E000002806D103232340022B09D12C40062C0B
:10D8F00006D007AB002201212748FBF72DFB07903C
:10D9000007980540062D05D0830730D1224B0268C9
:10D910009A422CD108A9FBF72DFF089B002B23D09E
:10D92000012B0DD1002E0BD1039B002B08D10078C9
:10D9300014F0FAFB07900799380016F012FA13E07A
:10D940000798F9F793FE079009AB1B7C002B03D0D7
:10D950000798FBF7B5F90790059B049A0093079980
:10D9600033003800FFF760FF0C480FB0F0BDF9F747
:10D9700067FF0B4B9842E7D1002E02D1039B002B8F
:10D98000D9D007A90120F7F78BFADCE7802E002019
:10D99000A8C50200070080FF4CC60200E88C020008
:10D9A00044A2020070B51B4B8AB005AD40C90138D6
:10D9B00000930195052304F099F9059C2000049437
:10D9C000FFF7FAFC002807D103232340022B0AD1DA
:10D9D000114B1C40062C06D004AB002201210F483D
:10D9E000FBF7BAFA049003A90498FBF7C3FE2A7C5C
:10D9F0002B7B03990092059AF9F722FE2B7A0100FE
:10DA00000093300000236A68FFF70EFF04480AB055
:10DA100070BDC046D0C50200070080FF4CC60200A2
:10DA2000E88C02000022074B10B51A70064B023238
:10DA30001A70064B064A1B68063B1360FFF7FAFC98
:10DA400010BDC0463D2E00203B2E002014000020BB
:10DA5000CC2A002010B5FFF7E5FF014810BDC046F5
:10DA6000E88C020010B5042901D8042A02D909481B
:10DA700004F0F8FF092B01D90748F9E705246143B1
:10DA800041188A18137101229A40038C13430384AE
:10DA900010BDC0463B0D0300861C0300F8B5486866
:10DAA0000C000D68F9F7B4FF0600A068F9F7B0FFA5
:10DAB0000700E068F9F7ACFF3A00030031002800E6
:10DAC000FFF7D0FF0048F8BDE88C020010B504292C
:10DAD00001D8042A02D9044804F0C4FF052359439D
:10DAE00040188018007910BD3B0D030070B5104C34
:10DAF000050021000F48FDF78FFD21000E48FDF7BE
:10DB00008BFD21000D48FDF787FD21000C48FDF736
:10DB100083FD21000B48FDF77FFD21000A48FDF73A
:10DB20007BFD16F0A5F901230848AB7770BDC04610
:10DB3000B0B7020020960200289602003896020034
:10DB40004096020050960200C8950200E88C020040
:10DB500000237F2803D8034B1B5C9B07DB0F1800B7
:10DB60007047C0466D6C030000237F2803D8034B29
:10DB70001B5C1B07DB0F18007047C0466D6C030071
:10DB800000237F2803D8034B1B5C5B07DB0F1800C7
:10DB90007047C0466D6C030000237F2803D8034BF9
:10DBA0001B5C5B06DB0F18007047C0466D6C030002
:10DBB00000227F2808D8054B0132195C0C2319423A
:10DBC00002D15F3842424241100070476D6C030041
:10DBD00000237F2803D8034B1B5CDB06DB0F1800F8
:10DBE0007047C0466D6C030000237F2803D8034BA9
:10DBF0001B5C9B06DB0F18007047C0466D6C030072
:10DC000070B506000D00002814DD002907DD154859
:10DC10000CF0DAF80124B04209DB002407E001002F
:10DC2000C02000060CF0D0F80124A842F5DDE4B2D3
:10DC3000200070BD002907DDC02000060CF0C4F8EC
:10DC40000124B042F3DCE8E70024A042F0D0010058
:10DC500004480CF0B9F80123A84200DC231CDCB214
:10DC6000E6E7C046FFFFFF3F044B88600B60044BB4
:10DC700008004B600023CB607047C04658CC0200C0
:10DC8000FB3F020013B50400080001A9FBF754F99B
:10DC9000002C03D0012C07D0002004E0019B054894
:10DCA000002B00D1044816BD019916F021F940005F
:10DCB0002043F8E720DE020018DE0200F0B585B050
:10DCC0000400080003A91500FBF736F90600002D33
:10DCD00007D10300039A2F49200013F0D6F805B0AE
:10DCE000F0BD039B0200C318002101200193019B9A
:10DCF000934206D82727002900D0053F3A0026493D
:10DD00001AE01378272B08D0223B5D426B41DBB22F
:10DD10000132002BEBD02727F0E700230100F7E7C3
:10DD2000300016F0B2F80500300016F0C9F8060011
:10DD3000AF4205D13A001949200013F0A6F814E0CB
:10DD400017495C2D0ED02B00203B5E2B01D82A00FA
:10DD5000D5E714490A2D05D013490D2D02D0092D00
:10DD60000CD11249200012F0CFFF019BB342D7D84B
:10DD70003A000949200013F088F8B0E7FF2D02D8D7
:10DD80002A000B49D8E70B4B2A000B499D42D3D9F7
:10DD90000A49D1E7D5240300542403005324030087
:10DDA000572403005A2403005D2403006024030069
:10DDB00063240300FFFF00002F6D0300366D030096
:10DDC000F7B51E0008AB1D78294B0C0017009842D0
:10DDD00006D12B0032003900F9F7F2FE2018FEBD03
:10DDE000F30715D576100196019BE219002B2ADA6C
:10DDF00000213F260127501EA04219D2002900D041
:10DE000001932000002DEAD11A491B4817F0ABFC02
:10DE100001A93000F9F73AFE0028E5D1300014F0EE
:10DE2000C3F916490200164806F09AFAF5F7BEFA49
:10DE30000278B243802A01D039000133421E002B00
:10DE4000CDD01000D8E72000012600243F279042C3
:10DE500004D3002C00D001931000D3E7013BBED3C4
:10DE6000340001300178B9438029F0D10130F9E75D
:10DE70004CA50200156D03001CDA0200ED6C0300D6
:10DE800028DD0200F0B587B004000E001700F9F796
:10DE9000D7FC02A905002000FBF74EF80400042F70
:10DEA0004ED1B30734D1274B32689A4230D105ABFB
:10DEB00004AA03A9300018F0F9F9059B224FBB42D0
:10DEC00004D0032B02D0214804F0BEFF039B2600A0
:10DED000BB4207D00122210000922800029AFFF7DE
:10DEE0006FFF0600029A049BA118BB4206D00121D5
:10DEF000280000912100FFF763FF01000E208E42F1
:10DF000004D88A1B2800310014F0A5FB07B0F0BD2F
:10DF10000023029A0093210033002800FFF750FFEE
:10DF20000278012153B2002B06DA4023012101E0DF
:10DF300001315B081342FBD10122FAF7C3FFE5E789
:10DF40000020E3E780D70200E88C02008F0E030078
:10DF500010B5F9F7C1FD04490CF006FD0CF0B8F856
:10DF600014F005F9014810BD00007A44E88C020065
:10DF700010B5F9F74DFD002801DD14F0F8F801485F
:10DF800010BDC046E88C020010B504000800F9F787
:10DF90003FFD64102018034C400020400124204322
:10DFA00010BDC046FEFFFF7F10B5F9F731FD002818
:10DFB00001DD14F0D8F8014810BDC046E88C02001D
:10DFC00010B514F0ECF8034B40001840012318433F
:10DFD00010BDC046FEFFFF7F10B514F0DCF8034B08
:10DFE000400018400123184310BDC046FEFFFF7FCC
:10DFF00070B5137804000A3BD8B20F2809D90A007B
:10E000001048114906F0ACF90025636A1860280031
:10E0100070BD002552781B021A43E36AAB420AD155
:10E02000238C0025042BF2D10849064806F098F904
:10E03000636A1860EBE7206BA90009589142E6D0AB
:10E040000135EBE7B0DC0200C06E0300D56E0300C3
:10E05000F0B5040085B00D00100003A9A26A1E00EF
:10E0600018F0CBFA002809D12A000B490B4806F01A
:10E0700077F9636A1860002005B0F0BD0398F9F7DE
:10E08000F3FC0300B343F7D0030000962A000449D1
:10E09000024806F065F9ECE77C6E0300B0DC020094
:10E0A000946E0300F7B51F0013780E000A3BD9B237
:10E0B000050021480F2904D850781B02184314F09A
:10E0C0003CFD15240378009315231C491B1B019369
:10E0D000A300CB1A190055310978009A91421FD13B
:10E0E00019005631427809788A4219D1573381781C
:10E0F0001B788B4214D1002B0FD1019B9A000F4B40
:10E10000D05CB84208D93B0032000D490D4806F0FA
:10E1100027F96B6A18600020FEBDC378002BECD095
:10E12000013C002CD0D132000749064806F018F90E
:10E130006B6A18602000EFE7A40B0300386F030040
:10E14000EC6E0300B0DC0200056F0300F0B513783D
:10E1500085B005000E00462B47D101A9100018F02C
:10E160007CFA019B834240D003781A000A3A0F2AB6
:10E170000AD802000F2331002800FFF793FF012483
:10E180008440200005B0F0BDB32B2ED118F060FA0A
:10E19000040018F058FA02900378B62B25D1012715
:10E1A000A73B220031002800FFF77CFF3C0003A9B9
:10E1B0008440029818F051FA039B02909842E0D0F4
:10E1C0009D2102A818F058FA029A039B9A42D8D0CF
:10E1D0000F2331002800FFF765FF3B0083400298C2
:10E1E0001C4318F030FA0290EEE73200034904486D
:10E1F00006F0B6F86B6A00241860C2E71D6F0300D2
:10E20000B0DC0200F0B50E0087B0040004A93000B5
:10E210001F00019214F096FC019B0500002B0FD10A
:10E22000A4239B009E4205D1BF210902200017F0C4
:10E230007AFF19E0BE4B9E4200D088E0BD49F5E769
:10E24000019B012B00D09AE00A23FF339E420DD19F
:10E2500001003A682000FFF7CBFE0100200017F014
:10E26000ACFF002800D116E207B0F0BDB24B9E42D1
:10E2700009D101003A682000FFF7BAFE0100200032
:10E2800017F0F3FFEDE7AD4B9E420AD101000F23DB
:10E290003A682000FFF706FF8E21C000C901014344
:10E2A000C4E70378622B3BD1049B032B07D0052BDB
:10E2B00036D1C3785F2B33D103796E2B30D1012354
:10E2C0000E265B4269789E480293B300F31AC31886
:10E2D0001A002B3212788A4209D1AA7894461A0081
:10E2E0002C321278944502D12A331B780293013ED6
:10E2F000002EEAD1029B013329D03A682900200080
:10E30000FFF776FE049B0200052B03D12E79773EA2
:10E3100073425E4133000299200017F06AFFA0E7C4
:10E32000884B9E4201D1884980E7884B9E4201D1AB
:10E3300087497BE7874B9E4212D129003A6820002B
:10E34000FFF704FFFF231B02B421184215D0019BE5
:10E350002A008149814806F003F8636A186083E760
:10E360007F4B9E42F3D13A6829002000FFF7EEFE72
:10E37000FF231B021842EAD1BC2109028FE7019B4F
:10E38000022B00D021E17B68764A1B780A3B0F2BD9
:10E3900048D8964212D13A6801000F232000FFF7B7
:10E3A00081FE7A68060029000F232000FFF77AFE1D
:10E3B00031000200200017F0E9FE55E700226A4B09
:10E3C00002929E421AD18026F6013A68290007235C
:10E3D0002000FFF767FE7A680190290007232000DC
:10E3E000FFF760FE019A03003100200017F0C7FE1E
:10E3F0003AE7029B013302930F2BA8D0029B032222
:10E400009E005A4B280099191AF035F80028F0D1CF
:10E41000EB78002BEDD1564BF65C80233601DB0107
:10E420001E43D2E796421AD1802607233A68290074
:10E430002000FFF737FEFF23019029007A682000B3
:10E44000FFF706FE0100019BB6011B023143194391
:10E45000ECE6A026E9E7C026E7E7E026E5E7872324
:10E460009B009E42F5D01E3B9E42F4D0414B9E4203
:10E47000F3D0414B9E4251D0404B9E4250D0404B36
:10E480009E424FD04F339E424ED03E4B9E424DD087
:10E490003D4B9E4200D05AE705233C4A9B009B5AC5
:10E4A000290002933A6807232000FFF7FBFD7E68EE
:10E4B00003903378452B6BD1300018F009F9002810
:10E4C00066D1300018F0C4F80378A62B60D105A9F6
:10E4D00018F0C3F80599060018F0A9F8022857D1DA
:10E4E000300018F0B0F807233200070029002000A0
:10E4F000FFF7D8FD029B0600DB0451D51F233A002D
:10E5000029002000FFF7A4FDF100039B029E80017B
:10E510001E433143F826F6003040C0E60023BCE736
:10E520000123BAE7019BB8E70323B6E70423B4E766
:10E53000E602000030BF00000B0200000F020000E6
:10E540003D6D03002202000072B6000023020000AD
:10E5500062B600009F020000F76D0300B0DC02000D
:10E560009A0200008902000001020000416E0300CF
:10E57000406E0300C50200006E0200006F02000042
:10E5800071020000C1020000C30200003EF0020060
:10E590002A004449444805F0E3FE636A1860D6E661
:10E5A0006B4608229B5E002B07DA3E233A002900C7
:10E5B0002000FFF74DFD4008A6E77C233A00290024
:10E5C0002000FFF745FD80089EE7019B032B00D04C
:10E5D000BDE69E239B009E4222D100263A68072377
:10E5E00029002000FFF75EFD7A68019007232900CB
:10E5F0002000FFF757FD1F230290BA682900200072
:10E60000FFF726FD019F029B374381013943DE005E
:10E6100031430BE680263601E0E780267601DDE710
:10E62000224B9E42F6D0224B9E42F6D0093B9E42A0
:10E630002BD1C02607233A6829002000FFF732FDBE
:10E64000072301907A6829002000FFF72BFDBA68A4
:10E650007601137802900A3B0F2B0DD8072329006F
:10E660002000FFF71FFD029BD900019B1943314396
:10E670000F0081013943D9E58023DB001E432900C7
:10E6800007232000FFF7E4FCEDE70A4B9E4200D091
:10E690005DE6D026CEE708490348646A17F021FEFC
:10E6A0002060E1E5CC6D0300B0DC020079020000DF
:10E6B00007020000C50200002C6E0300F7B50E0033
:10E6C00007001100300017F0B2FF002504000428F5
:10E6D0001ED97C6A1349144817F003FE20600024F9
:10E6E0002000FEBD73780002184314F026FA0236AB
:10E6F000019019F0B9FE022811D1019B1B78722BF1
:10E700000DD1019B5A782B0030339A4207D1013545
:10E71000A542E5D030780A38C3B20F2BE2D97C6A23
:10E720000249D8E7676D0300B0DC02009A6D030070
:10E730000021F0B5070087B0816415F03BFDFB694F
:10E740003C6ABB637B6AFC63002B05DA3A00062156
:10E7500040321170013306E0002B07D03A0005214A
:10E7600040321170013B7B6207B0F0BD002833D00E
:10E77000BB6A002B30D13900043340310B703A6B47
:10E78000AE4B786BD3185B001B5A013C9C42EBD01C
:10E7900017D9F96A8A4207D30831490012F01CFEE2
:10E7A000FB6A78630833FB623B6B5A1C3A637A6BF3
:10E7B0005B009C527B6ACDE7013B3B637B6A013B7C
:10E7C0007B623B6B9D4A9A185200125A9442F3D3D3
:10E7D000CAD002230B70C7E73C69631C03D1002237
:10E7E00040373A70C0E7380015F08CFC04900028E0
:10E7F00000D129E13B00403305930023059A1370B3
:10E800003B69752B5AD0622B07D17B69722B5CD088
:10E8100001240B230022019208E0722B51D17B6965
:10E82000622B52D0049B012401930A23390040310A
:10E830000A78002A4ED10B70002C07D0380015F052
:10E8400089FC022C02D1380015F084FC3B6902934C
:10E85000222B01D027230293380015F07BFC0123E3
:10E86000029A03933B6993420BD113007A69934256
:10E8700007D1380015F06EFC380015F06BFC03234F
:10E88000039300263C69631C00D1CEE0039B012B5F
:10E8900002D10A2C00D1C8E0039B9E421DD3380050
:10E8A0003100443013F012F90121380015F082FCD8
:10E8B000380015F027FC0028A2D155E701240A23CF
:10E8C000A8E700240A230194B0E7049B02240193E3
:10E8D0000B23ABE79A42AFD046E7029BA34209D194
:10E8E0003800190044300136F7F76AFB380015F09C
:10E8F00031FCC7E75C2C00D091E0380015F02AFC11
:10E90000019B3D69002B06D038005C214430F7F7AD
:10E9100057FB2C0071E0622D51D030D84E2D77D0AE
:10E920001AD8222D29D0272D27D000260A2DDDD058
:10E930002C00303C0326072CE6D87B69303B072BA4
:10E940005BD8013E002E58D0380015F003FC3B691F
:10E95000E400303B1C19F0E75C2D0ED00724612D3C
:10E9600021D0552DE4D13B0040331B780B2B2ED109
:10E9700038005C214430F7F723FB2C0013E0742DA2
:10E980001FD007D86E2D1ED0722D0BD0662DCFD183
:10E990000C2408E0762D18D0E5D30226782DC7D1B7
:10E9A000002428E00D243B0040331B780A2B32D191
:10E9B000380021004430F7F703FB002696E70824CF
:10E9C000F1E70924EFE70A24EDE70B24EBE708263B
:10E9D000752DE5D1043EE3E7380015F0BBFB3D693A
:10E9E0002800FFF7D9F8002800D144E1280015F0ED
:10E9F000A1FA24012418013EEED20026631C00D1A6
:10EA000074E70F4B9C42CED90122059B1A70D4E7C4
:10EA10000C4804F019FAFF2CF6D80B2BF4D138006F
:10EA2000E1B2443013F00EF8C7E7039B9E4200D3D7
:10EA300035E73B00032240331A7030E7FFFFFF7FCA
:10EA4000FFFF1000CD6F03002000FFF78DF8041EBC
:10EA5000386903D15F2801D07F2842D93D000723C0
:10EA60003C0040352B704434C1B2200012F0EAFF64
:10EA7000380015F06FFB3869431C1BD1200012F0E1
:10EA8000CFFF002406007E4FA300F958300019F094
:10EA9000E1FC00281ED10D34E4B22C70102C00D003
:10EAA00062E6784BA8331A680D23002A00D102339E
:10EAB0002B7059E6FFF758F8002808D138695F280D
:10EAC00005D07F2803D8FFF75BF80028D6D03B6934
:10EAD000D9B2CAE7002800DA46E60134222CD3D1A5
:10EAE00042E6FFF74DF800280FD03E003969403666
:10EAF0002E2916D1092333703D0044352800F7F73D
:10EB00005FFA380015F026FB31E03B692E2B04D16B
:10EB10007869FFF735F80028E7D100255A4C022321
:10EB20004AE0082333703029E6D17A691833134359
:10EB3000623B0024162BDFD8544CDC4001231C40E0
:10EB4000DAE7002C17D1030020229343452B12D182
:10EB50003C3B337065212800F7F732FA380015F096
:10EB6000F9FA396902220B002B3B9343C6D038696E
:10EB7000431CE6D1F8E5FEF7F7FF002805D0396918
:10EB80002E290BD109233370B8E73869FEF7F8FF57
:10EB90000028F4D13B692E2BF1D0E5E50B002022B3
:10EBA00093434A2BAAD1EDE7633E9E43F6B27242ED
:10EBB0005641A419013501342678002E02D03A6955
:10EBC000B242F1D1380015F0C5FA002E02D140371B
:10EBD000012206E6212E08D13B693D2BF7D13800F2
:10EBE00015F0B8FA40374122FBE52E2E12D13C0039
:10EBF0003B6940342E2B02D17B692E2B02D04A2355
:10EC00002370B1E5380015F0A5FA380015F0A2FA26
:10EC10000C23F5E72A000134267802213300633BF8
:10EC20008B43DBB2002B0ED16378396901359942F1
:10EC300007D1380015F08EFA2A00652E03D0023471
:10EC4000EAE7632EFBD1124B9B5C3A004032137013
:10EC5000190004229143422901D0442B03D1BB6AFD
:10EC60000133BB6280E5432902D0452B00D07BE510
:10EC7000BB6A013BF5E70122059B04001A7092E68E
:10EC800094C70200802E00208C6F030001204000FA
:10EC900057700300F0B5124B87B003AD40C901387F
:10ECA00000930195032303F021F868680D4F1E249B
:10ECB000B84202D012F04FFB44B2A8680023B84219
:10ECC00002D012F048FB43B270680399437104719B
:10ECD00009F042FF70680AF0CBFC380007B0F0BDC5
:10ECE00090C80200E88C020030B5124B8BB003AC28
:10ECF00020C9013800930194032302F0F7FF6168F3
:10ED000006A812F050FE039B089A5900237A00933C
:10ED10006868079B08F048FB021E05D006490748B3
:10ED200005F01EFBF4F742FB06A90548FAF794F834
:10ED30000BB030BDA8C8020081700300C0DB020028
:10ED40004CA5020030B5114B89B002AC20C9013886
:10ED500000930194032302F0C9FF012205A9606812
:10ED6000F9F710F8029B059A5900237A0093686816
:10ED7000069B08F029FB021E05D00549054805F051
:10ED8000EFFAF4F713FB044809B030BDC0C8020025
:10ED900093700300C0DB0200E88C02000021F8B58C
:10EDA0004768080012F0E8FB08250600B1223B681E
:10EDB000D2009D508022002092001900985001221C
:10EDC000FC319A6088605A61104A8868002803D133
:10EDD000002A19D0013AF8E70024A24204D00C4AD4
:10EDE0009C5863425C41E4B238000AF041FC002CBC
:10EDF00005D001216B0019433000F4F76FFB01359A
:10EE0000782DD3D13000F8BD1400EDE710270000B5
:10EE1000C404000010B50400082012F0BFFA024B31
:10EE20004460036010BDC04604C9020010B5010073
:10EE300083880120A0229840044BD205D050CA8874
:10EE4000083117F093FD024810BDC0460C050000C4
:10EE5000E88C0200EFB5070008001500F9880200F1
:10EE600000233868F8F7ACFE03267043002D14D059
:10EE70003F18042D14D101237A7A01A952001A43B4
:10EE800001923A7A30009A401A430292BA7A9A4032
:10EE900013430393F6F704F80500280004B0E0BD1F
:10EEA000310001AA2800F8F777FE019B1868F8F7EF
:10EEB000AFFD019B06005868F8F7AAFD019B05000D
:10EEC0009868F8F7A5FDFF2E03D8FF2D01D8FF287D
:10EED00002D9044803F0C6FD3D727E72B872024D3D
:10EEE000DBE7C046BF700300E88C0200F7B51C00EA
:10EEF000002300930233080011001A0002F0C6FE3E
:10EF0000206812F028FA47B26068F8F781FD041E05
:10EF100002DC104803F0A6FD0326300060430830F1
:10EF200012F03CFA0C4BA2B20500878072430360DA
:10EF3000C4800021083019F071FA3B00A022C133CF
:10EF4000FF33D2059B009E500123BB40034928009C
:10EF50005350FEBDA670030098C902000C050000C6
:10EF6000032210B50400C38800215A43083019F069
:10EF700055FA2000FFF75AFF004810BDE88C020048
:10EF8000014BD8607047C046802E0020034B82B0F2
:10EF9000D86801ABC01A02B07047C046802E00206E
:10EFA000014B18617047C046802E002010B54E21DD
:10EFB000024817F08FF9F4F7F9F9C04638DC02007F
:10EFC00007B5054A01ABD1681269CB1A9A4201D83C
:10EFD000FFF7ECFF07BDC046802E0020F0B50D0006
:10EFE000002785B0110003901E002800104B02225C
:10EFF000009702F04BFEAB1C9B001800029312F02E
:10F00000CDF90400039B013D036045603368029D18
:10F010008360083D0437BD4202D1200005B0F0BD39
:10F020000021F05903F0EEF8E3199860F2E7C046CA
:10F03000FFFF0000044B88600B60044B08004B602E
:10F040000023CB607047C04658CC020075430200D5
:10F05000044B0B60037A0B71436808008B6000233C
:10F06000CB60704704CB020010B504000C2012F0F6
:10F0700095F9034B446003600223037210BDC04640
:10F0800040CB020010B5043012F032FB004810BD36
:10F09000E88C0200002803D0012808D0002005E0F9
:10F0A00007224B680448934300D1044870474B68DB
:10F0B000DB085B001843F9E720DE020018DE0200DF
:10F0C0000B6870B506000D00181D49681400F5F7AF
:10F0D000A1FB002802D04368002B10D1022E08D1DA
:10F0E000094B022C06D16968084817F0F3F8F4F7C9
:10F0F0005DF9AB68012C00D14360180070BD022C93
:10F10000FBD100224260F8E7E88C020058DA0200E6
:10F1100070B504000D000B7A164A9B0086B0995812
:10F1200011F0F2FD1449200011F0EEFD134B02AA7C
:10F1300002932B7A012613716B68019304930023C9
:10F14000059302A815F020F9051E05D10C492000F1
:10F1500011F0DAFD06B070BD002E03D10949200080
:10F1600011F0D2FD012229002000F8F781FB0026D2
:10F17000E7E7C0467CCB02001771030004CB020016
:10F180001A71030065F70200F0B51368140001223C
:10F1900087B00F680D000092D9080223060002F024
:10F1A00075FD022E12D103236868034018D101684F
:10F1B0002A4AC968914213D12A68904206D0059321
:10F1C00005A9686815F0C1F8061E01D100253EE0CA
:10F1D000381D01223168F5F71DFB73684360EFE7C6
:10F1E000002103F00FF80390039803F06DF8002856
:10F1F000ECD0002103F006F8050003F065F802905A
:10F20000280003F061F80600280003F05DF8029B77
:10F21000002B03D0002E01D0002802D0104803F0AC
:10F2200021FC381D01220299F5F7F4FA4660DBE76C
:10F23000A368EE009E193168002907D0042905D083
:10F24000381D0122F5F7E6FA7368436001356368FB
:10F25000AB42EDD8034807B0F0BDC046D5F400007E
:10F26000F1700300E88C020030B5002585B001A9DB
:10F270000400019515F069F8A84203D109490A482C
:10F2800016F071FA636802A9083B63600368029391
:10F2900043680393042328C00220F5F701FE05B05C
:10F2A00030BDC046CE70030058DA0200F7B50C003E
:10F2B00015001B280DD000231F2808D1081D00228F
:10F2C0002900F5F7A7FA2C4B002800D12B4B18008A
:10F2D000FEBD03222B001340114225D1284922688C
:10F2E0008A4221D1002BF1D1296891421ED100938D
:10F2F00001936946200015F028F801A907002800AD
:10F3000015F023F80600002F31D00028DED0316838
:10F310003868F8F72BFB0028D8D071687868F8F7C0
:10F3200025FB0028E5D1D1E7002BCFD1154B2A686A
:10F330009A42CBD16A686368534007229343C5D190
:10F34000019301A9200015F000F8061E01D10A4B17
:10F35000BDE7281D00223168F5F75CFA0028B5D01A
:10F3600041687068F8F702FB0028EAD1AEE7024B6B
:10F370000028ABD1ABE7C04620DE020018DE020059
:10F38000C4CB020088CB0200F7B50B681C4A04000E
:10F390000D00934203D05A681A4911F076FD1A49BC
:10F3A000200011F0B1FC00230127019301A92800DE
:10F3B00014F0CBFF061E0CD11449200011F0A4FC60
:10F3C0002B680F4A934203D01149200011F09CFC96
:10F3D000F7BD002F03D10F49200011F095FC012249
:10F3E00031682000F8F744FA0B49200011F08CFC3A
:10F3F000012271682000F8F73BFA0027D6E7C046E3
:10F4000088CB0200ED70030063F70200366F030043
:10F41000941E030065F702000274030010B5040097
:10F420000C2011F0BBFF034B446003600023037208
:10F4300010BDC04640CB020010B504000C2011F0F6
:10F44000ADFF034B446003600123037210BDC0464F
:10F4500040CB020010B5043000220C00F5F7DAF9B9
:10F46000002805D12100034816F034FFF3F79EFF72
:10F47000406810BD58DA020010B5024B08C012F007
:10F480001CF910BD88CB0200F8B50E000700002162
:10F49000706802F0B7FE0E4C0500022F00D9B46868
:10F4A0007068F8F7CFFB002809D114F097FF060029
:10F4B000280002F009FF011E03D13000F8BD401002
:10F4C000F3E7331D01221800F5F7A4F94460EFE7D4
:10F4D000E88C0200F0B5070089B000201E000D0086
:10F4E000019214F07BFF0E4B040007609F4203D192
:10F4F0000423027913430371019B2B430DD033681E
:10F50000AA00B218019905A80394049312F0E3F835
:10F51000681C05AA03A9FFF737FE200009B0F0BD5B
:10F52000C4CB020010B50C00002A03D114F099FFDF
:10F530000A480EE0042A0DD104300022F5F76AF9DA
:10F54000002805D12100064816F0C4FEF3F72EFF6F
:10F55000406810BD14F07BFFEAE7C046E88C02006B
:10F5600058DA0200F7B50600194D0C00280010F01B
:10F57000F5FD3100174810F077FD174810F0EEFD4B
:10F58000164810F0EBFDFF239B00E61821787F2939
:10F5900001D0A64206D1280010F0E0FD104810F07E
:10F5A000DDFDF7BD6278A37850290CD80D48475C83
:10F5B0000D48405C019300923B0002000B4810F0A4
:10F5C00053FD0434E2E70A4810F04EFDF9E7C04667
:10F5D000F17103001E72030026720300AF71030075
:10F5E000CD710300347D0300E37C03004772030008
:10F5F0006A720300F0B51D0087B006001A481700B4
:10F600000C0010F0ABFD2900184810F02DFD184833
:10F6100010F0A4FD174810F0A1FDAD006519AC4233
:10F6200004D1114810F09AFD07B0F0BD3878A278E7
:10F630000490206823780003400E0390E0789B0636
:10F640000009029020883178C004400E0190E078D3
:10F650009B0E0007000F00901209074810F004FDF0
:10F66000043401360137DAE7F17103003E7103001B
:10F670006B7103009D710300CF710300F0B50F00A3
:10F68000496885B005001600002901D0002A05D17F
:10F690003900280015F046F805B0F0BD0F32130907
:10F6A000C918009314F0AFFF0F22A868B9687C68EE
:10F6B000324000D11032009B1E19234BF3185B001F
:10F6C000C018214B0290E3185B00CB18019010206A
:10F6D0009C4621000023801A002921D1C3401A48EA
:10F6E000029A84466400141B2380009B5B00E41A8A
:10F6F000009B023463445A00200018F08FFE002E55
:10F7000004D07300023BE35A002B1BD001216E6032
:10F710003B78DB07DA0F2B788B4313432B70BBE767
:10F7200062461288013913431A00C2400393019BB9
:10F730001A80019A039B023A0192022252421B0450
:10F740009444C9E7013EDAE7FFFFFF7FF0B54B685D
:10F750001500526889B006000C00934201D22C00BB
:10F760000D000121227863680A4201D12A781140F4
:10F77000C918300014F047FFB36822780193A368DA
:10F7800017000293636829789C46AB684F40039347
:10F79000012318001F408B430693634690430200E9
:10F7A0006046591E019B04936B681B1A07934B1C00
:10F7B00018D163465900019B5918002F02D001232C
:10F7C0000B800231019814F0A1FE012170602278B3
:10F7D0002B7853403278DB078A43DB0F13433370B7
:10F7E00009B0F0BD029B13481B881B189B1805939A
:10F7F000079B5B188B421AD8039B039A1B88023223
:10F800001B180392069A01399B18059A5A4092B226
:10F810001B0CD7190693049A059B17801A0C049B9E
:10F820003F0C02330493029B02330293BFE7014B68
:10F83000E8E7C046FFFF0000F0B5060095B006936C
:10F8400053680D00591C0492009314F0DCFE049BD5
:10F8500000215B68B0685A1C5200009318F0DEFD6E
:10F8600000237360049B28005B68591C009314F00C
:10F87000CAFE0499280014F055FFAB686F68019325
:10F88000069B9B680393069B5B680293B368079390
:10F89000029BBB422DD82ED3039A3900019814F055
:10F8A000F5FE002823D10123079A68601380736056
:10F8B000049B1A78069B1B785A4001231A4214D0E5
:10F8C0003278134333706B68002B0ED0012111A8DE
:10F8D000494214F046FF11AA3100300015F048F9F2
:10F8E000069A2900280015F043F915B0F0BD00284C
:10F8F00001DA0023DBE7824A029B9B185B009C46EF
:10F900000022039B634405931B8800921AB2002ACD
:10F9100063DA0022019B7C001A537B1C1027099399
:10F920006B60019BA01C00991B180893791A019B1E
:10F930000A9108998B4256D3059B009A1B889340E5
:10F940000893029B012B0AD91022039B0099634460
:10F95000023B1B88521AD340089A1A430892019B13
:10F96000029A1C19099B9B1A654A73609B18079A97
:10F970005B00D3180A93634602330E936B680B93B4
:10F980000B9A029B934239D313005D4A102194468F
:10F990000024019A63445B00D318009A891A019AE3
:10F9A0009A4200D89FE07368002B07D0544A079909
:10F9B0009A185200525A002A00D19EE06B68002B20
:10F9C00000D175E74E4A01999A185200525A002AFE
:10F9D00000D06DE7013B6B60F0E7009A5B000132FD
:10F9E0009BB292B291E71988009F0800B840024389
:10F9F0001A800A9A0233D1408AB29AE7A31E20885D
:10FA00000D931B880004184308990AF053F90E9BC4
:10FA10000022E31A0C931900039B05909C4609925F
:10FA20008C4212D823889A4234D3D31A5A42190CE2
:10FA30009BB222805A1E9341CA18002A2CD00399E7
:10FA40000C9B8C4600210F0042E0099B009F180C84
:10FA500063461B88BB4018436B4609909F8C059BEF
:10FA60005F430B889F4203D2D81B0F9090420CD863
:10FA7000D31AFF187B420B80BBB23A0C5F1EBB410E
:10FA8000D218022302319C44CAE70F9B9A1A0A80BB
:10FA90000022F6E79A1A22806A460A9B928A023B63
:10FAA0005A800A930B9B0D9C013B6B6066E7380CF8
:10FAB00009906046009F0088B840099F0743188856
:10FAC0004118B8B24118022019808444090C02334D
:10FAD0009C42ECD823885918059B2180013B090CD6
:10FAE000521A0593A9E71A88009F100038418A40EE
:10FAF0002043188094B2023B51E7013B736052E708
:10FB0000FFFFFF7F436870B55A00002384680A4DE9
:10FB1000A218944206D30278D20700D55B42012096
:10FB20000B6070BD023AAB4203D816881B04334306
:10FB3000EFE70020F5E7C046FF7F0000F8B50500BD
:10FB400010200C001F00160011F028FC054B44602B
:10FB50008460A4190760C4606B60034B2860AB60CD
:10FB6000F8BDC046F55102000B52020080235B0530
:10FB70001869034B1B7843438020C002C01A7047AA
:10FB8000402E002080235B051869034B1B784343FC
:10FB90008020C002C01A7047412E002070B5084D69
:10FBA000C4012B680021181915F072FD2868054B57
:10FBB00000197F3000781B788342F0D270BDC046B8
:10FBC000DC2A00203F2E002010B5C3790400002B52
:10FBD00008D0064A037981791068DB01C01801302A
:10FBE00015F056FD0023237210BDC046DC2A00200C
:10FBF00010B5124B01001A684379DB01D3181800C5
:10FC00007F300478FF2C08D10879C001121852788F
:10FC1000FF2A0FD0887990420CD08A799B18013244
:10FC2000D2B258787E2A01D08A7110BD00234C715F
:10FC30008B71FAE701204042F7E7C046DC2A00203A
:10FC400070B5F8248025A40223786D054D2B4CD186
:10FC50002B698020E41A2B69C002E41A2969001B71
:10FC60000AF028F82B4B2C4918702B69E21852180F
:10FC70005D421540294B2A4A9B1A2A4A9B1880222A
:10FC8000520511699D4234D38020C002401B0AF006
:10FC900011F8254B641B1870E411244BE4B21C705E
:10FCA000A12001230025224A22491360C0004D6093
:10FCB0004B68002BFCD01358DBB2A342F7D21E498D
:10FCC00001330B7001235360FFF750FF03780500E9
:10FCD0001A4CFD2B0FD180235B051869184BC00906
:10FCE000C018C0012818206070BD80242B69E40270
:10FCF000AFE76D18C5E7FFF745FF0378803DFD2BA3
:10FD000001D12560F0E7FFF73DFFFD2115F0C0FCB4
:10FD1000F7E7C046412E0020FF87FFFF18010020B3
:10FD20000000002004810300402E00203F2E002010
:10FD300000D00040FCD00040422E0020DC2A0020F1
:10FD4000FFFFFF01F7B5254B254F1A78254B14000F
:10FD50001B7839680133E001405CFF2829D0013469
:10FD6000E4B29C4200D101249442F4D180230026C5
:10FD70005B051B69DB090193E30100933B68E2012A
:10FD80009D182B7828005A425341F61815F096FC1E
:10FD9000002810D0002304E0DA01AA5C002A0AD16E
:10FDA0000133019A9342F7D13868009BC01815F0CF
:10FDB0007BFC2000FEBD0B4B01341B78E4B2013309
:10FDC0009C4200D10124054B1B78A342D4D1072EBD
:10FDD00002D915F026FAB6E7FF24EAE7422E002002
:10FDE000DC2A00203F2E0020F7B507000D0001247B
:10FDF0000E4B1B7801930E4B1E68019BA34202D24F
:10FE0000FF242000FEBDE10171180B78FE2B09D103
:10FE10008B78AB4206D103312A00380018F0D3FAB0
:10FE20000028EED00134E4B2E7E7C0463F2E0020C0
:10FE3000DC2A002010B5054A03791068DB01C018E0
:10FE4000817800220330F9F73DF810BDDC2A00204C
:10FE5000F0B585B002900D0016000393782949D8BB
:10FE6000FFF7C2FF0400002E3CD0FF2801D0FFF7AF
:10FE700095FEFFF767FF0400FF2803D11E491F48C6
:10FE800015F071FC1E4FC0013B680190FE2118184F
:10FE900015F0FEFB3B68019AE9B29818023015F0A4
:10FEA000F7FB3868019B2A00C0180330029901F063
:10FEB000C3FE0C2011F072FA039A0300002A17D037
:10FEC000104A1A600E4A1C7112685C71E401141920
:10FED000A278DE7102329A7101221A726A46127B8E
:10FEE0005A7202E03300FF28E3D1180005B0F0BDDC
:10FEF000054AE6E70023F8E78B720300C0DB020047
:10FF0000DC2A0020909202003C93020007B501A970
:10FF1000F9F730FC0199FFF767FFFF2803D1044987
:10FF2000044815F020FCFFF739FE03480EBDC0461B
:10FF3000DC0A0300C0DB0200E88C0200F7B5019286
:10FF4000027A04000091002A02D1244802F08AFDBE
:10FF5000C579002D06D1224A17680279D201D25DF7
:10FF6000002A05D1092201251A606D422800FEBD34
:10FF700061797E22C901791808007F30A379007861
:10FF8000D21AFF2809D12079C00138184078FF28FB
:10FF900019D0C01A824200D902000198461B96422D
:10FFA00000D91600002EE1D0009A01335019C9186B
:10FFB000320018F017FAA3799B19DBB27E2B04D01C
:10FFC000A371AD19D4E70022E7E70023A371637999
:10FFD000DB01FB187F331B786371F2E7A17203002A
:10FFE000DC2A0020F0B585B00393037A0400029167
:10FFF0000192002B02D1304802F034FDC379002B6E
:020000040001F9
:1000000008D02E4A03791268DB019B5C019A0092AA
:10001000002B25D10923039A13600A3B0193019811
:1000200005B0F0BD7E22A379D71A009A974200D975
:1000300017006079214E0133C001C01833683A00BF
:100040001818029901F0F8FDA379DB19DBB27E2BB9
:100050000AD0A371029BDB190293009BDB1B009368
:10006000009B002BDED1DAE70023A371FFF76AFEC5
:100070000500FF2809D12079FFF790FD00232372A6
:100080001C23039A13601D3BC8E760793368C001E5
:10009000181829007F3015F0FBFA3368ED01581964
:1000A000617915F0F5FA62793368D2019B187F33D4
:1000B0001B786371CEE7C046A1720300DC2A0020E2
:1000C000002170B5080011F057FA012405000C4B0F
:1000D0001B78A34201D2280070BD0A4AE3011068D0
:1000E000C0180378FE2B08D1817800220330F8F77E
:1000F000E9FE01002800F3F7F1F90134E4B2E6E784
:100100003F2E0020DC2A002073B501A9F9F732FB4D
:100110000199FFF769FEFF2803D10E490E4815F03B
:1001200022FB00257E260D4B1C68C301E31859787D
:100130009B780233DBB2C201A2187F321078FF280D
:1001400004D1C81A401912F06AFC76BDF31AED18F2
:100150000023F0E7DC0A0300C0DB0200DC2A0020F9
:100160001FB5034A034B14F058F805B000BDC04654
:10017000F1FB0000C9FB0000F7B503780400002B79
:100180001FD0402B20D101230193002304221E0005
:100190001D00190094462278002A3ED10132002920
:1001A00010DC002D0EDC002E0CDC033B934209D941
:1001B000013C23785C2B05D00199002901D00A2B42
:1001C00000D100221000FEBD3F4915F093F8002831
:1001D000D9D13E49200015F08DF80028D3D13C49F3
:1001E000200015F087F80028CDD13A49200015F0FD
:1001F00081F80028C7D13849200015F07BF8002885
:10020000C1D13649200015F075F80028BBD134491A
:10021000200015F06FF80190B7E76778272A11D111
:10022000002B4DD0032B09D1272F05D1A278272AE7
:1002300004D10234243AD31A0134ACE7012BFBD8A1
:100240000122F8E7222A11D11A006046824309D11F
:10025000222F05D1A278222A02D102346246EAE78F
:10026000002B01D0022BE7D10222E4E75C2A0AD15D
:10027000272F03D0222F01D05C2F04D11A00571E44
:10028000BA41A418D8E7002BD6D15B2A12D006D8E1
:10029000282A0DD0293A57425741C91BCCE77B2A5F
:1002A0000AD07D2A0AD05D3A57425741ED1BC3E779
:1002B0000131C1E70135BFE70136BDE7013EBBE7CC
:1002C000272FBDD1B2E7C0461A7003004B70030060
:1002D00031700300477003007F3A0300F38003008E
:1002E00022730300F0B58BB0079343180390049278
:1002F00001930093009B5C1E039BA34201D90093D2
:1003000010E02078FDF730FC002801D00094F1E7E0
:100310002078FDF735FC0028F8D123785F2BF5D045
:100320002E2BF3D07D4B1D68009C019B9C4202D27A
:1003300023782E2B21D1009BE71A019B9C4241D3AD
:100340000024260002940194AB68A34256D8019B76
:10035000002B00D084E0009B039A93422FD1704C75
:100360003A002100180018F02EF8002827D1079B2A
:10037000E41907301C60C01B22E00134D5E70136C8
:10038000AB68B3421BD9F3000293EB68F2009858B4
:100390000028F4D00428F2D009A9F9F7EBF9099B59
:1003A0000100BB42EBD13A00009818F064F8002835
:1003B000E5D1EB68029A9B185868002804D1002008
:1003C0000BB0F0BD0026DBE7032318420CD1036815
:1003D000544A934205D115F07DFE0500631C00933D
:1003E000A2E7514A934201D0F7F72AFA856B002D14
:1003F000E5D04E4B2A689A42F0D0E0E7EA68E30085
:10040000985800281CD004281AD009A9F9F7B2F985
:10041000099B06900593BB4212D301003A00009855
:1004200018F029F800280BD1029B002B12D03B00BA
:100430009E4202D3059A9A4204D2019B0133019352
:10044000013481E7029AD15C069AD25C914205D1CF
:100450000133EDE7069B059E0293EEE71E00ECE7F5
:10046000019B012B01D0BE4254D9029B079ADB1994
:100470001360F01BA4E7029BEA68DB009858002891
:100480003AD0042838D009A9F9F774F9099B0390E8
:100490000593BB4230D301003A00009817F0EBFF00
:1004A0000190002828D133000F220F33DC171440AD
:1004B000E41824112401A41B012C00DC1034059A3B
:1004C00033199B18402B0DD9039A1949049810F041
:1004D000DCFC099E10E01749049810F015FC019B04
:1004E00001330193019B9C42F5DC0399049810F0C1
:1004F0000BFC099BF6183619029B01330293AB687B
:10050000029A9342B7D80C49049810F0FDFB0120E1
:10051000404255E7002340260293F0E7802E00205A
:10052000BE72030044D502005CD0020088CB0200FA
:10053000C6720300501D030072250300002803D07B
:10054000012807D0002004E08B680448002B00D16C
:10055000034870478B685B001843FAE720DE02000F
:1005600018DE0200034B48600B60002308008B601C
:10057000CB607047A4CC02007FB5040001220800C4
:1005800001A9F7F7FFFB002221794020F7F7E8FDEA
:1005900001000500029809F08DFB636806001A0A45
:1005A000824218D2A368C1186943E06810F014FFB2
:1005B0006368E060DBB22A00A06863606843E368B8
:1005C00072431818019917F00DFFA36804489E198B
:1005D000A66004B070BD121A1202DBB21343EAE740
:1005E000E88C0200F7B5FF27456804000191BD4380
:1005F0001DD101792A004020F7F7B2FD636806009B
:100600003B408027A1683F011F4308314143676099
:10061000E06810F0E1FE6368E0601A0AA368013A3E
:10062000013372435E432900801917F0F7FE2079E9
:10063000019BA268E168F7F733FFA3680348013321
:10064000A3606368013BFF3B6360FEBDE88C020072
:10065000F8B5002207000D0001004020F7F780FDEB
:100660000600102010F09AFE084B0400012F00D065
:10067000074B2800277123606368A560DBB27043D5
:10068000636010F08BFEE0602000F8BD3CCD0200FE
:1006900000CD020070B506008AB00C0015001228CB
:1006A0005CD003D8052826D0002454E01B2800D1B4
:1006B0006CE01F28F8D1012207A9280011F08BFD5A
:1006C000032300284FD01C4213D13B4B22689A428F
:1006D0000FD1012204A9200014F02BFE0123079A58
:1006E00000930599089B049811F096FF334C00285D
:1006F00031D1334C2FE0012204A9200014F019FE5F
:100700002800012207A9F7F73DFB069B002203936F
:100710006B464020197BF7F723FD0100060008987F
:1007200009F0C8FA069BA16803936B4641180500BF
:10073000187BFFF78DFF059B04001A000499C06821
:10074000039317F04FFE2A000598E36872431818C8
:10075000079917F047FE20000AB070BD1100200075
:10076000FFF70AFFF7E7EA070DD41D4203D1154B47
:100770002A689A4207D003232B40022BB9D1124B8F
:100780001D40062DB5D0114802F05EFB012204A9E0
:10079000200014F0CEFD012207A9280011F01BFD56
:1007A0000028A6D0089B059A00930499079B300067
:1007B00010F01DFC9AE7C0463CCD020020DE02008E
:1007C00018DE02000C970200070080FFA40B030054
:1007D000F0B5050087B00E00012808D08B0726D1A0
:1007E0000B68264A934202D0254A93421FD1012228
:1007F00003A9300011F0EFFC002818D000222900D6
:100800004020F7F7ADFC01000700049809F052FA08
:10081000060001002800FFF71BFF320004007A43A6
:100820000399C06817F0DEFD200007B0F0BD30006E
:10083000F7F708FA071E00D0471039002800FFF725
:1008400007FF00210400300001F0DCFC00260090CE
:10085000009801F039FD031EE6D0002F04D11900E5
:100860002000FFF7BFFEF3E7721C0192E16832003F
:100870002800F7F715FE019EEAE7C0464CA50200E6
:100880003CCD020070B50E7904000D00012E0DD193
:10089000194910F039FA3300AA68E9682000F8F71E
:1008A00077FA1649200010F02FFA70BD3200144973
:1008B00010F0EBFAAB68002BF3D01249200010F0D7
:1008C00023FA0026AB68B34204D80F49200010F089
:1008D0001BFAE6E7002E03D00C49200010F014FAB2
:1008E0003200E9682879F7F7A3FC01220100200013
:1008F000F6F7BEFF0136E5E7CA720300941E030057
:10090000D6720300E1720300F56D030065F7020083
:1009100070B5050086B0161E44D0032480680C40D4
:100920002BD1214B0A689A4227D103AAF0F7DCFCAD
:10093000002802D11D4802F087FA042E1AD12200A5
:1009400029794020F7F70CFC049B06000093039BD9
:1009500028790193019A009B991AFFF779FE039970
:10096000049A0400521A71437243EE68C068711809
:1009700017F038FD200006B070BD0A00002301000A
:100980002868F7F71DF902002879042E04D1E968D8
:10099000F7F74EFC0400EDE73300E968F7F780FD58
:1009A000034CE7E71400E5E780D702008F0E030051
:1009B000E88C020037B50C00110000221D000092E7
:1009C0000123200001F062F9002C05D12100012053
:1009D000FFF73EFE040016E02968CB0705D48B071D
:1009E00013D10C4B0A689A420FD10800F7F710F8A0
:1009F000010005000120FFF72BFE2A000400002162
:100A0000C06817F00BFD20003EBD0120FFF7E0FE9F
:100A1000E0E7C0460C970200044B054A98331B6878
:100A200004481A60044A9A807047C046802E00200D
:100A300078000400E88C020004040000084A10B5A5
:100A4000130098331B689979002908D0916C00290C
:100A5000F9D0002199711B69587901F047F810BD50
:100A6000802E002013B5084C98342368188811F0A4
:100A7000D6FF23680090588811F0D1FF6946019095
:100A80000220F4F70DFA16BD802E002010B50D4C93
:100A9000002803D00868F2F749FA04000A49200048
:100AA000FAF7BAFD6079002101F020F82000FAF78A
:100AB0009DFD0022054B064898331B681A619A7108
:100AC00010BDC046C0950200C0B70200802E0020B5
:100AD000E88C02001FB50C4B02AC0093019402237A
:100AE00001F004F9029A002A03D0084B98331B68DE
:100AF0005A806268002A03D0044B98331B681A801E
:100B0000034804B010BDC046B8CE0200802E0020BD
:100B1000E88C0200F0B5254B89B004AC0093019439
:100B2000042301F0E3F8224F224A3B0098331B686C
:100B300004989A80204B0340062B06D0830730D1BF
:100B400002681E4B92699A422BD1012303940293AF
:100B5000002598373B681869FAF748FD3B686068DC
:100B60001D61F2F7E3F916490600FAF755FD3B68F7
:100B7000144A9D71126802999A60227B9981DA71F8
:100B8000DD81039A012900D112685A6101221E6198
:100B90009A71237A002B01D0FFF750FF0A4809B061
:100BA000F0BD03AA02A9F6F7D5FFD1E778CE02007F
:100BB000802E002004040000070080FF119D00002B
:100BC000C0B70200782E0020E88C0200F0B5274B59
:100BD00089B004AD01950093042301F087F86B6898
:100BE000A868049E0393F2F7A1F9214F04009837F7
:100BF0003B681869FAF7FAFC00223B681D491A6144
:100C00002000FAF709FD607980212D7B00F06EFF4E
:100C1000002E1CD1607900F0E9FF039B002B13DB51
:100C20000022134B144998331B6803989A71096882
:100C3000DA714118DA605A61023299601C619A7166
:100C4000002D01D0FFF7FAFE0C4809B0F0BD3100CD
:100C50000B4809F02FF800F025FF0028DDD060795F
:100C600000F0C4FF074801F0FDFEC04698CE020028
:100C7000802E0020C0B70200782E0020E88C0200F1
:100C800040420F00E572030010B5182010F086FBFB
:100C9000064B98331860064B0360064B8380002395
:100CA000837103614361044810BDC046802E00205B
:100CB0007800040004040000E88C0200F0B56D4CDC
:100CC00087B0260098363368002B40D09A79002AE6
:100CD0003DD0694D99682A68914238D89A79022A9C
:100CE0000BD11B690021587900F000FF2B68326896
:100CF0000A3393600123937129E09A79012A26D15E
:100D00009A89D989914204D3DD79002D19D0002127
:100D1000D9815869012A02D0DA8992001058574ABD
:100D2000904216D11B6900215879983400F0DEFEFC
:100D300024685348218809F047F80123A060A37173
:100D400005E09D711869FAF751FC33681D6107B021
:100D5000F0BD05A9F8F70EFD9834236801901B69D2
:100D6000802158790293059E00F0C0FE019B246803
:100D70001F781F23218842481F4009F025F8618809
:100D800009F022F87D1EEDB20390012E5AD9019B85
:100D90005B78232B4DD0622B50D1002D4BD0023FDE
:100DA000FDB26A1E53425A415242022E4ED00121D8
:100DB00002230198C05C3A2803D00F2738402071E5
:100DC0000133207984469E420ED90198C05C3A28AE
:100DD0000AD1581C864207D9019F0233385C0F277D
:100DE00038409E4235D86071092D3DD86346043B9A
:100DF0009A1852B26F00234B002900D1224BD85BC6
:100E0000002A2EDB104100F04DFE1A4B0399983357
:100E10001A68537959430B0017490A3B09680A2B92
:100E200000DA0A235B189360D3890133D38102234C
:100E300061E70022B9E72A000625B6E70021012371
:100E40000A00B6E7002101230A00BAE733000121B6
:100E5000B7E70A267043019E6071F65C3E40801938
:100E6000C1E752429040CEE7029B0021587900F042
:100E70003DFECAE7802E0020782E0020E88C02007C
:100E800060EA000064F0020056F00200F8B5124A71
:100E90000E00124B124990421AD0C4688C4203D003
:100EA000012430602000F8BD406B002812D0046897
:100EB0009C42F0D10500002447680835BF00EF19B7
:100EC000BD42EFD2310001CDFFF7E0FF2418F7E774
:100ED0000024E7E70400E5E744D70200849B020012
:100EE000D50F0100F7B505000C00AB68002B0AD048
:100EF000344AE168914206D0E358002B03D0042223
:100F0000EB681A60F7BDA06B002820D06B68043036
:100F1000D900062300221943F3F77CFC002816D0E1
:100F2000297C4268EB682868002904D00100002071
:100F300001F090F8E6E7002807D02249E5688D42E5
:100F400003D021498C4200D000692100F0E72B68D2
:100F5000002B16D1646B002CD4D01C4B22681A4F86
:100F60009A420BD126006368194A08369B189B00E9
:100F7000F3180193019B34689E4216D3BC42B4D14E
:100F8000C0E72A7C002AE5D10E4AE1689142E1D00F
:100F90000D4A9442DED01869EA68696801F0B4F835
:100FA000EB681B68002BD5D0ACE7BC4201D10436FE
:100FB000E0E721002800FFF795FFEB681B68002B96
:100FC000F5D09FE7D50F010044D70200849B0200B3
:100FD000FFFFFF3FF0B58FB00E0005A9019202930D
:100FE0000700FFF753FF041DA400200010F0D6F9FE
:100FF0000500002180C010F060FB22002800103A9C
:101000001030002117F00AFA012E05D1029B1B684F
:101010000393042B00D189E007AC082200212000B3
:1010200017F0FCF9F222002309A8FF324260E63AE9
:10103000FF3A39008260C46003740993FFF752FFDE
:10104000079804282FD10598029BC468019A3100A3
:10105000A04728612800F6F7F3FBB84266D1EA22E0
:101060000023FF32390009A8089307930B930995D1
:101070000A92FFF737FF079B002B57D001983043A8
:1010800036D107AA010014F032FB0400294B9C4220
:101090004CD0200011F088F827490200274803F0BF
:1010A0005FF9F2F783F90028D4D0019A324306D1D0
:1010B00006AB0121069700F0AFFF0500CAE7019BD0
:1010C0005D00AD190135AD00280010F067F92A1F49
:1010D0000390029980C017F085F9711C039B019A57
:1010E000206800F099FF0500039810F086F9B1E739
:1010F000019B5C00A4190234A400200010F04EF9FA
:1011000022000700079B029903600393089B083A9B
:101110004360083017F066F93A000199300014F086
:10112000E6FA0400380010F068F9AFE728000FB0C5
:10113000F0BDC046E88C02004473030028DD0200C5
:10114000F0B5146889B01700002C0ED1436803ADC8
:1011500082686960596B0392AC60EF602C7400295F
:1011600005D111492800FFF7BDFE09B0F0BD0F4BB6
:101170000A689A4210D14B6808310E000193019B16
:101180009C42EED0A300F1582800FFF7ABFE3B686D
:10119000002BEAD10134F2E72800FFF7A3FE3B68F9
:1011A000002BE2D1DDE7C04644D70200849B020059
:1011B00010B54A6801490FF068FE10BD3E74030087
:1011C000F0B58BB005000E0014000021082268461F
:1011D00017F024F90021102206A817F01FF9202388
:1011E00007936B46059508932968E023002C02D0ED
:1011F000042C10D1E623FF3305A80693FFF772FEF7
:101200000221009F042F0ED1220031002869F6F739
:1012100087FD0BB0F0BDFC2305A85B000693FFF72C
:1012200061FE0321EDE7381EF3D002AB00220295E8
:101230000396049400F0F0FE042CEAD00048E8E79E
:10124000E88C0200F0B5204B8BB08200D35803AF7E
:101250000C000822002106003800019317F0DEF888
:10126000019B05AD6B601423AB600023280021684F
:101270000594EF602B74FFF735FE0398042805D121
:101280002169300000F056FE0BB0F0BD00280AD0F6
:10129000210014F024FA022EF6D1F6F7E5FB440003
:1012A00001202043F0E7022E01D00020ECE7E223EA
:1012B0002168FF3328006B60FFF714FE3B68002BAA
:1012C000F3D16400ECE7C04698D00200F0B5564276
:1012D000564103238BB00C00019000211700764289
:1012E000082203A81E4017F099F80823079303ABC0
:1012F0000893002305ADF736FF36216828002B74CC
:1013000005940696FFF7EEFD039B002B09D1002FF5
:1013100007D1F733FF33216828006B60AF60FFF718
:10132000E1FD039804281AD12069F6F789FA154BD4
:10133000C2689A4211D1002F07D02368586811F073
:10134000FCFB010001980FF0DFFC80223A43216989
:101350000198F6F78DFA0BB0F0BD3A00F7E70028D8
:1013600005D0210014F0BBF900220100F0E72000B5
:1013700010F01AFF23000200034901980FF085FDC9
:10138000E9E7C04621420100F372030070B5040092
:101390000D000B490FF0B8FC696800222000F6F739
:1013A00067FA084920000FF0AFFCA968002220006E
:1013B000F6F75EFA044920000FF0A6FC70BDC046A7
:1013C000FC73030065F702004974030010B5C4689C
:1013D000002C06D142680449044802F0C1FFF1F72D
:1013E000E5FFA04710BDC0460574030028DD0200DC
:1013F000F0B5154B89B016008200D5580C000C22B0
:1014000000210700684617F009F8182303A8456073
:10141000836000256B462168C36003940574FFF761
:1014200061FD009B042B06D132002169380001F0D8
:1014300021FB09B0F0BD181EFBD06A46290001202F
:10144000029614F054F9F4E710CF0200F0B517003B
:10145000EE228DB004000393002307A852004260DF
:10146000CD3A05ADFF3A0E0021688260C560037475
:1014700005936B600794FFF735FD0598002809D1A7
:10148000200010F091FE0C4902000C4802F068FFA9
:10149000F1F78CFF039B042806D13A003100206944
:1014A00000F0BAFD0DB0F0BD009332003B0069685A
:1014B00015F07FF9F6E7C0462873030028DD020027
:1014C000F0B50D0085B001A907001600280002AA9A
:1014D00010F00CFA00230199029899422CD13C207B
:1014E0000FF06EFF2A4B019A03602A4B04008360C1
:1014F000294B4760C360294B0361294B4361294B4A
:101500008361294BC361294B0362294B4362294BF9
:10151000C362002A06D0029B1968096B0163012A85
:1015200018D94563A66303A92000FFF7AFFC012883
:1015300013D9214801F05AFC9A008258D468002C33
:1015400006D152681D491E4802F00AFFF1F72EFF2E
:101550000133C2E71B684363E4E7A36B0022181D55
:101560001849F3F757F9051E0ED0032243681A40B5
:101570000AD11968144B4968994205D1031D01210C
:10158000124813F058FF6860200005B0F0BDC04657
:101590005CD00200CD120100D50F01004D140100F6
:1015A00045120100F1130100A9530200C11101000D
:1015B00029550200DF540200CE730300A573030017
:1015C00028DD02008E0F000045020000E4CF02007B
:1015D00037B50D001C0000231100009301220333D6
:1015E000280000F053FB012D04D0032D06D007483E
:1015F00001F0FCFB2068F6F723F93EBD2068F7F701
:1016000083FCA2686168FFF75BFFF6E722740300C2
:101610001FB5064B0A0001934B6802938B680100CB
:1016200001A8039300F0A2FD05B000BD20D0020088
:10163000F8B50E0003271349134AB0421CD003002B
:101640003B401BD104688C421AD1406B002814D057
:1016500003689342F1D1050044680C4B0835E41847
:10166000A4002C192868A542E5D23100FFF7E0FF5D
:10167000002802D10435F5E70120F8BD0020FCE781
:101680001800FAE75CD00200849B0200FFFFFF3FD6
:10169000F0B585B00500019108008B0717D10B68E4
:1016A000134A93420BD10123029301AB039300240D
:1016B000029E039FA6420DD10E4805B0F0BD0E4A12
:1016C000934204D103AA02A910F010F9EFE70B48E6
:1016D00001F08CFBA300F958094B994206D0280071
:1016E000FFF7A6FF002801D10134E3E70548E4E74E
:1016F0005CD0020018DE0200849B02006C730300C1
:1017000044D7020020DE020010B5830703D1054B49
:1017100002689A4202D0044801F068FBFFF7B8FF64
:1017200010BDC0465CD0020005730300F0B5050093
:101730008BB008680C00F8F707F8049004A813F0C1
:101740004FFF00260127049B03900693069B197800
:1017500000291AD13000F3F7A3FB0122070007A9E3
:101760006068F6F70FFB079B089A05939B18019397
:10177000022D1FD9A068F6F74BF9002817DA089B4D
:10178000C01814D5284801F06DF90800FCF7F8F9E5
:10179000002806D006A813F035FF069B1B78732B94
:1017A00000D13800069B361801330693CEE7059B1F
:1017B000181805900025B54202D338000BB0F0BDD3
:1017C000049B01241878FCF7DBF9002803D004A857
:1017D00013F018FF04000598019A03199A42D1D317
:1017E000049B1B78732B10D02D19AB000293049B24
:1017F000013C14D3197805AA0398F6F77BFD029AE9
:10180000A300D31AFB185860F1E72100F7F772FB29
:10181000059B1C19AB1C9B0005940135D851049BFA
:1018200001330493C7E7C0464B740300F0B589B099
:10183000039101921E00F7F787FF049004A813F0AC
:10184000CFFE00250290B54201D309B0F0BD049B44
:1018500018780028F9D0FCF793F90124002803D068
:1018600004A813F0CFFE0400039B019A1B199A42AF
:1018700002D21B4801F0F6F8049B1B78732B10D0A2
:101880002D190E9BAF00DF19049B002C24D0A20061
:1018900052421978BA5803AB0298F6F78BFD013C17
:1018A000F2E70E9B6F1CAD00E858012205A9F6F780
:1018B00069FA069DA54200D925002A0005990398DA
:1018C00016F090FD039B621B58193D00002116F095
:1018D000A5FD039B1C190394049B01330493B2E7F9
:1018E0004B740300F0B50E0089B0039001CE0F00D9
:1018F00013F09EFE4410210004A810F054F8069D39
:1019000022000021280016F089FD039B0096013B70
:101910002A1929003868FFF789FF04A90248F7F758
:101920009BFA09B0F0BDC0464CA5020030B50C00D2
:1019300089B005000222606805A9F6F723FAA068BD
:10194000F6F766F8002806DA069B0393C01802D55E
:10195000084801F087F80599069AEB1E8A180918BD
:1019600020000C3000902068FFF760FF024809B0AB
:1019700030BDC0464B740300E88C0200F7B5002070
:10198000214A224E12783368111D4900CC5A5F1843
:1019900059880190A020C00584466405640D4C431D
:1019A0001B49A4120968787807270500BD43F82D64
:1019B0001DD00125C00885402800A1256746ED00FF
:1019C00001327851D2B2101D4000C55A1F186D0562
:1019D00058886D0D68438012001BE4D00A4C2270B9
:1019E000019A002A02D00A4A33601160FEBD6046A7
:1019F000084A5C688450002903D001220B000021B2
:101A000001920A000C00DEE7432E0020E02A0020AD
:101A1000E42A00200C05000010B572B600220F4B1E
:101A200018681A6062B6904210D10D4B0D4A1B68BF
:101A30000D48934200D010001A7802705A884280F4
:101A40005A684260002219788A4200D310BD5100C2
:101A500044185918098901322181F4E7E42A002049
:101A6000E02A0020E82A0020182B0020044B054A19
:101A70001A600023044A1360044A13707047C0467A
:101A8000E02A002028D10200E42A0020432E002072
:101A900010B5782202490220EEF780FC10BDC04646
:101AA0007D190100421E084BFF3A10B504009A420E
:101AB00007D8FFF7B1FF054B2411448018600020C0
:101AC00010BD01204042FBE740410F00E42A002006
:101AD000044B1B68002B01D1034B1B685888000185
:101AE0007047C046E42A0020E02A0020F7B53D4AAE
:101AF00004000D000B00914200D913008022D20097
:101B0000D31A0193FFF788FF0122A2404668009292
:101B1000164207D12300A0210327C133FF339B00C6
:101B2000C9055F50002703789F4206DB002D01D0D6
:101B3000132B0BD92C4B1860F7BD391D49004218E7
:101B40005278D208A24243D00137EDE7009A191D1E
:101B500032434260019A490055050A5A6D0DD20A76
:101B6000D2022A430A525205E400520F411814438C
:101B700001334C700370851C012225E0009A013B63
:101B8000DBB2964303704660BB42F4DD04335B0076
:101B90001B5A0B52EFE72F00131D5B00195A2E89B9
:101BA0004905490D531E1C1D6400245A6405640D2B
:101BB0008C4204D9FC88023F7C81013BF3D205337F
:101BC0005B001E520132023503789A42E3DBB1E733
:101BD000002DD3D0019B5A050B5A520DDB0ADB02B4
:101BE0001343D6E7FF030000E42A002070B500216C
:101BF0000400FFF77BFF00210D4B18680578A94210
