:020000040000FA
:1000000000400020E5530100215401002354010069
:1000100000000000000000000000000000000000E0
:100020000000000000000000000000002554010056
:1000300000000000000000002754010029540100C6
:100040002B540100B1340100DD5D01002B5401008F
:100050002B54010000000000ED9701002B5401001B
:10006000C94700002B5401004D9401002B5401009E
:100070002B5401002B5401002B5401002B54010080
:100080002B540100C95A01002B5401002B540100CC
:100090002B540100719101004D91010011490000A4
:1000A000214900002B540100000000000000000066
:1000B0000000000000000000000000000000000040
:1000C00008B5054B054803331B1A062B03D9044B0F
:1000D000002B00D0984708BD2801002028010020EF
:1000E000000000000648074908B5091A8910CB0F1F
:1000F0005918491003D0044B002B00D0984708BD75
:1001000028010020280100200000000010B5074C45
:100110002378002B09D1FFF7D3FF054B002B02D02A
:10012000044800E000BF0123237010BD2801002017
:100130000000000070B1030008B5094B002B03D08C
:100140000848094900E000BF08480368002B02D1B5
:10015000FFF7C8FF08BD064B002BF9D09847F7E71B
:100160000000000070B103002C01002028010020D5
:1001700000000000144B002B00D1124B9D46402282
:1001800092029A1A924600218B460F461148124A53
:10019000121A2BF04AF80D4B002B00D098470C4B4D
:1001A000002B00D098470020002104000D000B48D0
:1001B0002AF014FF20F034FF2000290028F02BFD46
:1001C00020F07AFC00000800004000200000000041
:1001D0000000000028010020D82F0020D10D0200CF
:1001E000C4600561466187614146C161494601625B
:1001F00051464162594681626946C16271468160D9
:10020000124B1A6802601860002070470F4B1A6882
:1002100012681A6070470D4B1A68002A01D123F04A
:10022000A8F8506010681860D46815695669976915
:10023000D1698846116A8946516A8A46916A8B4615
:10024000D16A8D4691688E4601207047902E00201D
:10025000F0B587B0039205910D9A0399051C541AC5
:100260000CAA12782021101C884305D0302A05D012
:100270000CAA0292012204E0224A00E0224A0292E1
:100280001022019280221A4005D0E30F1B195B1047
:10029000E71A1C1C03E001210B4012D11F1C002C8B
:1002A00012DD261C019B04969E4200DD04936B68C0
:1002B00028680299049A9847049BF61A002EF1DCEC
:1002C00003E0271C141C00E00024039B002B06D035
:1002D0001A1C28686B6805999847039BE418002F3F
:1002E0000DDDE419019B3E1E9E4200DD1E1C2868A8
:1002F0000299321C6B689847BF1B002FF2DC201C50
:1003000007B0F0BD8724030076240300F0B593B056
:100310001F1C18AB10CB05901B780D1C161C0793E7
:10032000CB070BD48B0703D1814B0A689A4205D0C7
:10033000281C03F023FE01254000054381231C42B5
:1003400009D1079B302B06D11A9B1B9A934200DAE6
:100350001A9200231B93281C23F03BFD0AAA131CAE
:1003600000280DDDA30703D52B231370123B05E0F6
:10037000131C620704D520221A70192304AA9B18A3
:10038000E20618D5022E03D130221A707A1C10E032
:10039000082E08D130221A70A20501D401330AE0D8
:1003A0003A1C0E3205E0102E05D130221A703A1C8C
:1003B00017325A70023300220AA91A705B1A069388
:1003C000A30600D52C320EAB0B9310230C93002305
:1003D0001B990D93012901DD40210C4304A9CB7524
:1003E000FBB20096610614D500210293019103929D
:1003F0002B1C0BA80CA90DAA04F060F80378061CAE
:100400002D2B15D104AAD3750D9B0136013B0D93FD
:100410000EE00AA90191029303922B1C0BA80CA9D0
:100420000DAA04F04BF81B9B061C012B4BDC02E0D1
:100430001B9B012B6ADC00273D1C630621D517217D
:1004400004ABC9180B78002B0AD0002301220093BB
:1004500001920598FFF7FCFE1A9B2D18013B1A9399
:10046000069B002B0DD000230122009301920598DA
:10047000069A0AA9FFF7ECFE1A9B069A2D189B1AFA
:100480001A931B9B012B00DD1A93079B0598009381
:100490001A9B311C01930D9A231CFFF7D9FE2D18CE
:1004A000002F09D0202300220093019705982149AD
:1004B000131CFFF7CDFE2D180B980EAB984234D0CD
:1004C00023F052FC31E00D9A1B9B93421CDB1A9ADD
:1004D000934206DA0127D51A274004D02F1C0025A5
:1004E00001E000273D1C01239C43002D09D0002280
:1004F0001F330093019505980E49131CFFF7A8FEC2
:10050000051C3023079398E7131CE0E70D9A1B9B0B
:10051000934200DA131C172204A952181278511EB4
:100520008A419B18069A9B18D1E7281C13B0F0BD8E
:10053000E4C10200C92B0300F0B5071C00248DB0F4
:1005400005920D1C2B78002B09D18D420BD96E1A08
:100550003868321C7B689847A419291C03E0252BB6
:10056000F3D00135EEE70B78002B00D134E12023E6
:100570000026013109930B78002B12D02D2B01D1CD
:100580002C3B02E02B2B02D1293B1E430FE0202BFA
:1005900001D11C3BF9E7212B01D1193BF5E7302BA9
:1005A00002D00023069304E0402209931643013150
:1005B000E1E70B781A1C303A092A07D80A22069874
:1005C00001314243D318303B0693F2E708912E2BBA
:1005D00027D14B782A2B05D00B1C0133089300231D
:1005E00007930CE0089B02330893059B1D1D1B68B5
:1005F0000793DB43079ADB171A40079215E0089B25
:100600001B781A1C303A092A09D80A2207994A434A
:10061000D318303B0793089B01330893EFE7059D00
:1006200003E00123059D5B420793089B1B786C3B0D
:1006300059425941089B5B1808931B780493002B7F
:1006400000D1C9E0642B00D187E013D8502B00D132
:1006500091E004D8453B022B00D89CE0B2E0049B1B
:10066000622B1AD032D8582B00D0ABE02B1D05934B
:10067000412383E0049B712B34D005D8672B00D82D
:1006800089E0702B77D09DE0049B752B58D0782B98
:1006900071D0732B00D095E036E02B1D05932B68AD
:1006A000002B07D0099B381C0093069B4C490193F3
:1006B000042206E0381C0522099B4A490093069B48
:1006C0000193331CFFF7C4FD241882E02B1D059312
:1006D0002B680BA90B70099B381C0093069B012209
:1006E0000193EEE72B1D0BA92868059324F088FFE2
:1006F000079B011C013301D10B9B0793099B381CFD
:100700000093069B019311E02B1D2D680593002D8E
:100710000ED0079B013303D1281C2AF08BFE0790D3
:10072000381C291C099B0093069B0193079AC8E774
:10073000099B381C0093069B2B4901930622C0E7B6
:100740002B1D059361230093099B01960293069B41
:10075000381C0393296800220BE02B1D05936123AD
:10076000381C01220093099B01960293069B039378
:1007700029680A230CE02B1D059361230093099B34
:10078000381C0293069B00220393102301962968CC
:1007900022F04CF998E7072307359D432B1C286866
:1007A0006968083305931CF011F9099B011C00933B
:1007B000069B381C0193079B049A0293331C22F07A
:1007C000A4F981E73868089901227B6898470134C9
:1007D000059508990131B4E6201C0DB0F0BDC04666
:1007E00064240300692403006F24030010B5041C73
:1007F000082023F092FA024B4460036010BDC0460B
:1008000098B9020010B50B1C041C002906D0054A3B
:10081000096802609A6B002310F0A6FF201CFFF706
:10082000FAFCC04690FD0200F0B5041C87B00392AC
:1008300002936718002A0ED0023A222A0BD93D49AA
:100840003D4827F006FAFFF7E6FC20780BF0DEFAC9
:10085000002803D00134BC42F7D30AE023782B2BC5
:1008600001D1013405E0061C2D2B03D101340126F2
:1008700000E00026391B201C03AA22F01AFC2318D2
:100880001D1C00240093BD4210D22B78181C01932C
:100890000BF0D4FA039B002806D0019A2F3A9A4213
:1008A00002DC019B303B0DE0102B03D0002E19D051
:1008B000644217E02023019A13431A1C613A052A67
:1008C000F4D8573B201C0399019309F0A3FC00289E
:1008D0001AD1039B5C43019B1C196300634013D432
:1008E0000135D0E7012364001C43009B9D4216D0D4
:1008F000BD4206D228780BF089FA00280FD00135C6
:10090000F6E7BD4213D00AE0009B05A80593F91A4B
:10091000321C039B23F0A6FA059D041CE5E707495A
:100920000548039A10F0B2FE0299FFF76BFF201CF6
:1009300007B0F0BD9824030028F80200BB24030090
:10094000F0B5041C8BB00993431808920193019BE6
:100950009C4200D30EE120780BF058FA002801D019
:100960000134F4E723782B2B02D10134049005E005
:1009700004902D2B0ED12C3B01340493019B9C42FF
:1009800008D3824B002706930023251C07973E1CA3
:10099000039356E0202322781A43692A2ED1019925
:1009A000A21C914200D8BEE062781A436E2A00D0A1
:1009B000B9E0A2781A43662A00D0B4E0E21DE51C33
:1009C000914200D8A8E0E2781A43692A00D0A3E057
:1009D00022791A436E2A00D09EE062791A43692A6E
:1009E00000D099E0A2791A43742A00D094E0E27909
:1009F0001343792B00D08FE005358DE06E2AC0D1EE
:100A00000199A21C914200D88DE062781A43612AB4
:100A100000D088E0A27813436E2B00D083E0E51C61
:100A200000265B4F7BE06B1C02932B781A1C303A3C
:100A30000592092A30D8022E07D10A237B43D71802
:100A4000029D019B9D42EED354E0012E15D10598E5
:100A50001AF034F9069919F019FE011C039819F0DF
:100A6000A7FA039006981BF05DFF4A4A4A4B1BF019
:100A7000D3F81BF0ABFF0690E2E74849039819F062
:100A800005FE051C05981AF019F9011C281C19F01F
:100A90008FFA00260390D3E7002E02D12E2B02D12D
:100AA00026E0022E19D020221A43652A15D1029B76
:100AB000019A93420BD26B782B2B02D1AB1C029381
:100AC00005E02D2B03D1AB1C029301230793029B5E
:100AD000019A934247D00226B2E70026089AB24212
:100AE00009D0202213436A2B05D1029D013602E072
:100AF0000126A5E70026079B002B00D07F42381C6B
:100B00001AF094F8011C25481CF094FF011C03986E
:100B100019F0BCFD071C02E0FF270026FF05049B1F
:100B2000002B09D005E0049B002B1CD0251C0026BF
:100B3000002780231B06FF18A54214D0019B9D426D
:100B400006D228780BF062F900280CD00135F5E7C1
:100B5000019B9D4207D1002E02D1099B002B0CD096
:100B60000F48104901E00E480F4927F072F810991C
:100B7000FFF748FE0023049303E7032302209F436B
:100B80000A4B0743F8180BB0F0BDC046CDCCCC3DA6
:100B90000000C07F9A9999999999B93F0000204126
:100BA00028F80200E32403000025030000008080F1
:100BB00073B501A901F01EFC019B061C502B02D944
:100BC000184819491CE08020400023F0A6F8174C73
:100BD000051C231C883318600023019A934203D01C
:100BE000F15CE9540133F9E75B22281CEA5402F076
:100BF00013FE2B1C002807D1883420600C490948BB
:100C000027F027F8FFF707FB5A1B0133591E097815
:100C10009B29F9D1291C074822F000F900238834C8
:100C2000236076BD28F802001A250300882E0020D4
:100C3000292503001CC00200F0B58BB0061C10A8CB
:100C40000778364805AD00900195081C111C1A1C48
:100C500005230CF0ADFB9120000123F05EF8304B32
:100C6000304A1860059B476043702B7904A90370D4
:100C70002B7A041C83702B7BC3702B7C301C13607D
:100C800001F0B8FB0025284B071C0C201D6023F049
:100C900044F8264B061C036013F0ECFCB06013F024
:100CA000E9FC234B23491860234B70601D70234BD4
:100CB000301C1D70224B0A1C1D602B1C13F0E8FB1E
:100CC000201C391C049A25F092FC201C0DF0B6FD66
:100CD0001C4B071E0393134E194D164C0AD113F0EB
:100CE000FBFA0F4B18481F60184B196826F0B1FF2C
:100CF000FFF791FA0122164B1A7013F0B5FC002889
:100D0000FBD1039B883318603368002B03D0114854
:100D1000296820F049FE201C0BB0F0BDE0B90200AC
:100D2000102F0020482700204C0100201CBA020090
:100D30004801002044C20200F72D0020F82D0020B9
:100D400050010020882E002028F802001C000020FE
:100D5000F62D00204025030000220D4910B50B7828
:100D6000DBB2934212D10B4A1478002C02D001243A
:100D70000C701370084B1B78002B06D0074A1368C1
:100D800020331360064B1A6800E08268101C10BD07
:100D9000F82D0020F62D0020F72D00204C0100201A
:100DA00048010020D2235B005843134A30B5136832
:100DB000000C834206D9114C236801332360136869
:100DC000203B13601F23051C14689D43A54203D9D3
:100DD00001240B4B1C70F5E703401A1D202A00D993
:100DE0002022084C2468934203D2E518297101336C
:100DF000F9E7054B186030BD4C0100205001002080
:100E0000F72D00204801002044010020F0B545687E
:100E100087B00393AB6805A80F1C0292059322F0DC
:100E200073FB061C05A822F06FFB0323321C5843FA
:100E300009321018800022F070FF041C094BAA68C8
:100E400003606B68291C4360059B06629B1AC360A4
:100E5000039B083000933A1C029B04F0A5F9201C68
:100E600007B0F0BD08BB020038B5051C88680C1C33
:100E700024F0B8F90349021C231C281C21F094FE1D
:100E800038BDC0464F25030010B5041C082022F0D1
:100E900044FF024B4460036010BDC046C0BA02006C
:100EA000F8B5041CC0680E1C002801D118602FE0A2
:100EB000201C111C626920301D1C824208D1154A79
:100EC000964206D01449154826F0C3FEFFF7A3F951
:100ED0001660201C124E636808307768736007F054
:100EE0008DFC7760012806D00023E360022809D03A
:100EF00063691B680BE063691B682B60002B07D1DB
:100F0000E36005E0236A07339B00E41863682B6005
:100F1000F8BDC04644C202006D25030018FD020062
:100F2000882E002013B501AB141CFFF7B9FF012870
:100F30000DD0184C02281CD0019BA34228D0002BB6
:100F400026D0012101AA144826F070FE0DE0002CE5
:100F50000DD0201C02F028FF10490CF073FF002870
:100F600005D00F480F4926F074FEFFF754F9019899
:100F70000FE0019802F018FF07490CF063FF00280A
:100F800001D10198F1E7019810F060FBA042F8D17F
:100F9000002016BD44C20200D4FA0200CCFD0200BB
:100FA00064F80200A325030010B50C1C022801D12F
:100FB000486800E088680CF0D9F80649021C2068EF
:100FC000FFF7B0FF002804D1034826F035FEFFF7F5
:100FD00022F910BD44C20200D4FA020008B5002272
:100FE000FFF7A0FF002804D1024826F025FEFFF7F6
:100FF00012F908BDD4FA020008B502490022FFF731
:1010000091FF08BD44C2020013B5124C124A211CC4
:1010100001ABFFF745FF012802D0022805D017E0F9
:101020000E490F4826F015FE10E0019802F0BCFEB4
:101030000C490CF007FF00280AD1019802F0B4FE19
:1010400009490CF0FFFE002802D10198FFF7E3F8F0
:10105000201C16BD44C20200E4F80200A3250300D0
:1010600064F80200CCFD0200D4FA020010B5041CA2
:101070000C2022F052FE034B4460036002230372F3
:1010800010BDC04674BD020010B5041C102022F033
:1010900044FE044B0360237A03716368836000237A
:1010A000C36010BD0CBD020010B5041C102022F05E
:1010B00034FE044B84600360034B43600023C36031
:1010C00010BDC04684BB0200432C020008B50430AA
:1010D00022F0F3FF004808BD44C20200F8B5041C2A
:1010E0000D1C0B7A124A9B00995821F091FC114972
:1010F000201C21F08DFC281CFFF7C6FF0126071CD1
:10110000381C21F0A8FD051E0CD0002E03D1201C98
:10111000094921F07DFC201C291C012202F05EFE01
:101120000026EDE7201C054921F072FCF8BDC04601
:10113000CCBB0200C3250300C6250300C92503005C
:10114000F7B50B681C4A041C0D1C934203D01B49C5
:101150005A6821F029FD201C194921F059FC00236F
:1011600001270193281C01A921F056FD061E15D068
:10117000002F03D1201C134921F04AFC0122201C1E
:10118000316802F02BFE1049201C21F041FC201C8C
:101190007168012202F022FE0027E3E7201C0B49C0
:1011A00021F036FC2B68044A934203D0201C0849E6
:1011B00021F02EFCF7BDC0462CBC0200CC2503005C
:1011C000D0250300C6250300D19003006B4903001E
:1011D0001D400300002806D001280BD14B68DB0816
:1011E0005B00184307E007224B680348934302D192
:1011F000024800E00020704770C10200B4C1020044
:1012000038B5151C1A1C1C1C07F012F9002802D056
:101210004368002B0ED12B1E08D1094B022C05D19F
:101220000849094826F015FDFEF7F5FF012C05D108
:10123000436003E0022C01D100224260181C38BD3B
:1012400044C20200D225030008FE020030B500258A
:1012500085B001A9041C019521F0DEFCA84205D14E
:101260000A490B4826F0F5FCFEF7D5FF636802A992
:10127000083B63600368029343680393042328C018
:10128000022010F05FF805B030BDC046DA2503003B
:1012900008FE020073B50C1C151C1B280BD0002384
:1012A0001F2839D1081D111C002207F0C1F81B4B63
:1012B000002831D118E00323194208D10A681849DF
:1012C0008A4204D12B4002D12968914224D0154B87
:1012D000AA0721D1144A296891421DD162686B681E
:1012E00053400722934301D00E4B15E00193201C7D
:1012F00001A921F091FC061E0DD0281D31680022A5
:1013000007F096F8031EEFD07068596802F0E4FD0C
:101310000028ECD1E8E7014B181C76BD70C1020033
:10132000F0BB0200B4C102002CBC0200F0B513688F
:10133000141C012287B00F680D1C0092D9080223EB
:10134000061C0CF003F8022E22D103236868034028
:1013500016D10268D1682C4A914211D12A68904274
:1013600016D00593686805A921F056FC061E0FD01B
:10137000381D3168012207F05BF873684360F1E7BC
:101380000BF02CFA039003980BF076FA002801D1A9
:10139000002526E00BF022FA051C0BF06DFA0290F6
:1013A000281C0BF069FA061C281C0BF065FA029B3E
:1013B000002B03D0002E01D0002805D0134914487B
:1013C00026F047FCFEF727FF381D0299012207F09F
:1013D0002FF84660D7E7A368EE009959002904D199
:1013E000013563689D42F6D30AE00429F8D0381D20
:1013F000012207F01DF8A3689E1973684360EFE7A8
:10140000044807B0F0BDC046CD140000F925030024
:1014100028F8020044C2020010B5041C0C2022F07F
:101420007CFC034B446003600023037210BDC04684
:1014300074BD020010B5041C0C2022F06EFC034B9E
:10144000446003600123037210BDC04674BD0200F6
:1014500008B50430002206F0EBFF002805D104494E
:10146000044826F0F6FBFEF7D6FE406808BDC046ED
:10147000D225030008FE020008B5024B08C022F086
:10148000FDFD08BD2CBC0200F8B5071C48680E1C09
:101490000BF0A4F9041C02F08DFE0B4D022F00D9B5
:1014A000B568002800D0401021F029FC061C201C43
:1014B0000BF0E2F9011E05D0301D012206F0B8FF45
:1014C0004560F4E7301CF8BD44C20200F0B5071CCB
:1014D00089B000201E1C0D1C019221F010FC0E4B47
:1014E000041C07609F4203D1042203791343037154
:1014F000019B2B430DD03368AA00B21805A80199AF
:101500000394049322F0CCFD681C03A905AAFFF7FD
:101510000DFF201C09B0F0BDF0BB020008B5002A89
:1015200002D121F02FFC11E0042A0DD10430002259
:1015300006F07EFF002805D10549064826F089FB04
:10154000FEF769FE406802E021F012FC024808BD87
:10155000D225030008FE020044C2020070B5061C3A
:10156000081C25F033F9051C25F006FA041E06D1E7
:1015700008492A1C084810F089F8FEF74CFE301C78
:1015800022F0F6FB031C0121201C1A1C0BF08AFE22
:1015900070BDC0464A260300D0FB020010B5041CF3
:1015A00025F014F921F0D8FE031C012083420CD051
:1015B0000649201C25F026F9201C25F007F921F00A
:1015C000CBFE023843425841400010BD9B26030029
:1015D000F0B59DB000AF0C68032807D9CB68002593
:1015E000FB60042805D00D696D1002E00025A24BB8
:1015F000FB601C23201CF91800F0FCFE7861002D14
:1016000056D09E4C6E216068FFF722FF061C606872
:1016100096210022043006F00BFF1823FA18D11887
:10162000041C301C00F0E6FE3B6B011C013DC018A1
:10163000002C0CD188420AD9013803782E2BF9D11D
:1016400005E0884203D9013803782E2BF9D1013DFA
:10165000F7D2FE69441A251C002E01D0751C2D19E5
:101660002B1C6A460E33DB08DB00D31A9D46181C80
:10167000221C3B6129F0BCFD002E08D02E233A69C4
:101680007969135501341019321C29F0B1FD3869FC
:10169000291C09F00FFF012804D17949794826F067
:1016A000D8FA5FE006243B69C0000443FD617B611A
:1016B000201C00F009FA06F027F8051E15D02E218F
:1016C000786929F09FFE011C281C002900D1D0E078
:1016D000694BFA689A4200D0CBE07B69C91A181CA2
:1016E00009F0E8FE06F010F8C3E018220823BA1843
:1016F000D0181033FA184021D21825F00CF8012622
:10170000BD603D612C1C04E07B699B5D2E2B05D0E8
:101710000136FB699E4200D9A5E0F5D1311C7869FC
:1017200009F0C8FE18220823BA183860D01825F02E
:101730001BF818220823BA18002815D1D018321C1B
:10174000796924F0A8FF18220823BA18D018FFF7E7
:1017500025FF78607B68002B13D14A484A493A68D4
:101760000FF094FFFEF757FDD0182F210DF0D6F89B
:101770007B693A691820991808233818B21AC018DA
:10178000DFE7386805F0C0FF041E57D1386805F060
:1017900081FFFB69041C9E4208D13C4BFA689A42C7
:1017A00004D180686E215E2221F0E2FA7B68012B71
:1017B0003DD118220733BA18D01824F0CEFF1822D2
:1017C0000823BA187860D01824F0CEFF0022011C3C
:1017D000786800F057F91221021C201C0AF0DAFF89
:1017E00018220823BA18D0182F210DF097F81822C4
:1017F0000823BA18D018264925F004F8182208231F
:10180000BA18D01824F0E2FF21F0A6FD022806D174
:1018100018220823BA18201CD118FFF79FFE18229F
:101820000823BA18D0180C2125F02BF806E018224E
:101830000823BA18201CD118FFF790FE002D0AD0FB
:101840003A697B69B11A981809F034FE221C011C10
:10185000281C0AF09FFFBB68002B00D1BC60731CE2
:101860003B61251C54E7044BFA68201C9A4200D1C6
:10187000B868BD461DB0F0BD44C20200882E0020ED
:101880005F260300D0FB02007E260300B4C10200E5
:1018900093260300032210B502400121002A04D13F
:1018A0000A4C03688C46A3420ED00B1C03409C4696
:1018B00008D1002A08D1036805481B1A5A425A4128
:1018C000944601E001239C46604610BD78C10200A9
:1018D000E4C1020010B5041CFFF7DCFF012300285F
:1018E00009D10322031C2240022A04D1034B2340C6
:1018F000063B581E83410120184010BD070080FFA1
:1019000008B521F04DFC0349021C03480FF0BEFE50
:10191000FEF781FC9F26030018FD020010B5041C91
:10192000102022F0FAF9044B84600360034B4360FB
:101930000023C36010BDC04684BB02008D3002008E
:10194000F7B50E1C0193041C8B180A1C0021009390
:10195000009B9A420ED21378272B04D0223B584288
:101960004341DBB201E0002301210132002BEFD023
:10197000272503E02725002900D0053D1F4F201C07
:10198000391C2A1C21F010F9009B9E422FD232787C
:10199000AA4203D1201C1A492A1C24E05C2A02D145
:1019A000201C18491AE01F2A0AD97F2A19D0019B46
:1019B000002B02D053B2002B0CDB201C391C12E090
:1019C0000A2A02D1201C104908E00D2A02D1201C4D
:1019D0000E4903E0092A04D1201C0D4921F018F812
:1019E00003E0201C0B4921F0DFF80136CCE7391C5D
:1019F0002A1C201C21F0D8F8F7BDC046CC260300D5
:101A0000CB260300CF260300D2260300D5260300F1
:101A1000D8260300DB260300194B70B5061C0D1CED
:101A200098420ED18868496809F00EFD041E08D05E
:101A3000281C24F07BFE00230620E4002B602043BA
:101A40001DE0102022F069F96968041C81600660BD
:101A5000A86809F0DBFC6B686060591C2B68994230
:101A600002D1AB68E36003E0A86822F06CF9E060A3
:101A70000023201CE268A1685354AB602B6070BD4A
:101A80001CC0020038B5051C0C1C002A02D009F04D
:101A900011FD03E009F0D8FC002803D00623C000A4
:101AA000184304E00248291C221C21F0B7F938BD74
:101AB0001CC0020008B5031C0A1C0248191C21F0B6
:101AC000ADF908BDD4BF020008B50B4B0340062B8F
:101AD00001D1C0080EE0031C820708D1074A016843
:101AE000914204D19968C06809F0E4FC02E0181C36
:101AF000FFF706FF08BDC046070080FF1CC00200BC
:101B000008B5064B0340062B03D1C00823F078FD2F
:101B100002E08368C0680B6008BDC046070080FF14
:101B2000F0B5002689B0051C0F1C081C1C1C111CDC
:101B30000096321C03230BF009FC0E20B74237D06D
:101B4000012F0ED104A802AA10210CF0DBFE02A87E
:101B50002168321C02F042F9281C04A9FFF75CFF3F
:101B600026E0206804A983071AD1124B02689A4222
:101B700016D1FFF7C5FF104B061C20680340062B4B
:101B800004D1C00823F02DFD041C00E0446810209F
:101B9000049F22F0C2F805608760C660446007E0D9
:101BA000012202F0ABFB049805990022FFF76AFFBF
:101BB00009B0F0BDD4BF0200070080FFF0B58BB0C4
:101BC000049008680D1C0692079302F0EDF8041CBF
:101BD000686802F0E9F8061EA64202D06868FFF7BE
:101BE0008FFE08A92868FFF78BFF041C09A9686805
:101BF000FFF786FF089A0590A3180393049B271C00
:101C0000022B19D9AB681F498B4206D00121301C29
:101C10000091211C01F070FB071C049B032B0BD0CF
:101C2000EB68184A934207D00122301C0092211C15
:101C3000089A01F061FB0390039B381CD91B069B9B
:101C4000059A0093099B21F0CAF8011E0AD10120D0
:101C5000079B4042002B12D00B490C4825F0F9FF9E
:101C6000FEF7D9FA0A4B9E4205D1201C24F099FABE
:101C70000121400002E0001B4100012008430BB09D
:101C8000F0BDC04644C20200E226030028F802006C
:101C90001CC00200F0B58DB0041C039102F084F862
:101CA00004A9061C201CFFF72BFF01900398830753
:101CB0000BD10368314A934204D105A906AA25F045
:101CC000ACFF10E02E4A934208D02D480121C36892
:101CD00000220293029C03ABA0470390039805A93E
:101CE00006AA21F0A5FF0024251C059B9C421ED2BC
:101CF000069BA700D85902F057F8B04205D02149F9
:101D0000214825F0A6FFFEF786FA002C01D0049B9F
:101D1000ED18069BD8591D4B0340062B03D1C00874
:101D200023F064FC00E080682D180134DDE7291CF5
:101D3000002508A824F0E7FC0A9C059B9D4217D2C9
:101D4000002D06D0201C0199049A29F051FA049B19
:101D5000E418069AAB00985807A9FFF7D1FE079A36
:101D6000011C201C29F044FA079B0135E418E4E724
:101D7000301C08A9FFF750FE0DB0F0BD80F702003F
:101D800088CA0200F626030018FD0200070080FF43
:101D9000F0B5071C87B008680D1C02F005F804A90F
:101DA000061C2868FFF7ACFE05A9041C6868FFF74D
:101DB000A7FE0390201C022F07D90123301C00939B
:101DC000211C049AAB6801F097FA059A041B049948
:101DD000A418064B8C4206D8039929F0FAF9044B53
:101DE000002800D0014B181C07B0F0BDB4C10200A0
:101DF00070C1020073B50D1C061C08686946FFF728
:101E00007FFE01A9041C6868FFF77AFE011C022E00
:101E100002D908480BF090FA019A009B06489A42B2
:101E200007D8981A201829F0D4F9031E034800D0C7
:101E3000014876BD3B270300B4C1020070C1020017
:101E4000F0B58FB0079010680C1C171C01F0ACFFA8
:101E50000690012C10D0786801F0A6FF069B9842EE
:101E600002D07868FFF74CFD78680DA9FFF748FEAF
:101E70000D9B0890099303E0072309932C4B0893CB
:101E800038680DA9FFF73CFE0D9B0B900493079B50
:101E9000012B05D1049B5D1E01235B420A9302E0E6
:101EA000012300250A930024261C049B0394059318
:101EB000059B002B22D00B9B08985A1901230999E6
:101EC000009320F08CFF002812D1039B002B0ED131
:101ED000079B002B03D1049B2E1C5D1E19E0079B62
:101EE000012B15D001232C1C2E1C039300E02C1C6D
:101EF0000A9BED18059B013B0593D9E7039B002B3B
:101F000008D10C4B069A0E209A420FD00A480DE0D9
:101F1000039E2C1C049B0134A21B9A4201D13868F9
:101F200004E00B9B0698991920F078FF0FB0F0BDE4
:101F30003F2B03001CC00200E0BD0200F0B589B0D9
:101F4000049008680D1C01F02FFF041C686801F064
:101F50002BFF071EA74202D06868FFF7D1FC06A935
:101F60002868FFF7CDFD061C07A96868FFF7C8FDC4
:101F7000069A0590B3180393049B341C022B19D9BD
:101F8000AB681F498B4206D00121381C0091311CDF
:101F900001F0B2F9041C049B032B0BD0EB68184A28
:101FA000934207D00122381C0092311C069A01F09E
:101FB000A3F90390079B0025002B10D1039B201C45
:101FC000191B24F0FDF801304000012514E0201C0D
:101FD000059929F0FEF8002807D10135341C079A2D
:101FE000039BA6189E42F2D904E0201C24F0D2F8EC
:101FF000061CF3E701206D00284309B0F0BDC04680
:1020000044C20200F0B58BB00E1C071C039201F015
:10201000CBFE041C301C01F0C7FE844202D0301CF1
:10202000FFF76EFC05A9381CFFF76AFD06A9051C21
:10203000301CFFF765FD069B021C002B05D11A49D9
:102040001A4825F006FEFEF7E6F819498C4201D140
:102050000E2100E017490791089109910399002981
:1020600001DD079700E009970399281C0091059965
:1020700020F0B5FE002811D0471B3A1C291C201C5B
:1020800020F0CCFE069A059BB918DF1B0790691853
:10209000BA1A201C089620F0C1FE099007A9032057
:1020A0000FF050F90BB0F0BD4D27030028F80200E7
:1020B0001CC00200E0BD020008B5011C014820F070
:1020C000C4FF08BDE161020008B5011C014820F011
:1020D000BCFF08BDF5610200F7B5061C081C01A98C
:1020E000FFF70EFD019B051C002B01D1144826E0D3
:1020F000144B041C9E4201D1002712E0124B9E4259
:10210000FAD0019A631B934218D22078B047013469
:102110000028F6D1EAE7207809F084FE002805D1EE
:102120000134019A631B9342F5D305E02078B04750
:102130000028DBD00127F3E7002FD7D00348FEBDEE
:10214000B4C102008DBE0000A5BE000070C1020037
:1021500008B5011C0148FFF7BFFF08BD0DBE000018
:1021600008B5011C0148FFF7B7FF08BD25BE0000F8
:1021700008B5011C0148FFF7AFFF08BD3DBE0000D8
:1021800008B5011C0148FFF7A7FF08BD8DBE000080
:1021900008B5011C0148FFF79FFF08BDA5BE000060
:1021A000F0B585B0041C0D1C171C01F0FDFD69463F
:1021B000061C201CFFF7A4FC041C042F22D1AB0733
:1021C00015D1124B2A689A4211D10098291C01AAF4
:1021D00009F03AFA002802D10D480BF0ADF8019B46
:1021E000029AE118D21A301C20F018FE0BE00023EE
:1021F000301C00992A1C01F099FF0123205C40004B
:10220000184300E0002005B0F0BDC04628C1020020
:102210005D27030070B58AB000296BD018681C1CBC
:10222000031C364D2B40062B05D083071ED1344BA3
:1022300002689A421AD10239012955D806A9FFF736
:102240005FFC061C20680540062D04D1C00823F061
:10225000C8F9041C00E044681020069D21F05DFDD3
:10226000284B85600360C660446044E001293BD888
:10227000012210420CD04410211C06A824F043FA7D
:10228000089B0021181C221C019328F0CEFF26E099
:1022900003A920F09BFF002805D00399049A194850
:1022A00020F0BCFD27E0206801F084FF002802D167
:1022B00006A8102101E0411006A824F00DFA2068BC
:1022C0000AF08CFA041C201C0AF0D6FA002806D06A
:1022D00001F054FEC1B206A824F08BFAF3E706A978
:1022E0000848FFF799FB06E00749084825F0B1FCCC
:1022F000FDF791FF06480AB070BDC046070080FF99
:102300001CC00200D4BF02008E27030018FD02008B
:10231000E0BD020073B5041C081C01A9161CFFF7E0
:10232000EFFB051C201C042E05D10849019A2B1C2B
:1023300020F03AFC08E0064920F06AFB201C291C2A
:10234000019A0123FFF7FCFA73BDC046A8270300DA
:102350009A730300F7B5021C1A4B051C0C1C1A409B
:102360001E1C062A08D10B40401A062B26D0E8086E
:1023700023F037F9071C00E047682640062E03D1FA
:10238000E00823F02EF900E06068002F05D0002857
:1023900003D0874201D0002013E0281C6946FFF7D4
:1023A000AFFB01A9051C201CFFF7AAFB009A019BAB
:1023B000011C9A42EFD1281C28F00BFF44426041D7
:1023C000C0B2FEBD070080FF084B07B50340062BD7
:1023D00008D0830704D103689A69054B9A4201D05B
:1023E000FFF78EFA01A9FFF78BFB0EBD070080FFF8
:1023F000D52900000A4B13B503400C1C062B08D04E
:10240000830704D103689A69064B9A4201D0FFF70B
:1024100077FA01A9FFF774FB019B236016BDC04644
:10242000070080FFD5290000F0B59BB00B900C1C75
:10243000079212A810210EAA09930CF063FA079BC9
:102440009C4200D3ACE221787D2909D1079B671C0F
:102450009F4202D261787D2910D0BE48BE493EE03D
:102460007B2904D012A824F0C4F9271C87E2079B1B
:10247000671C9F4254D261787B2903D112A824F0B3
:10248000B8F97CE27D2916D0212914D03D1C3A29C7
:1024900011D02B787D2B08D0212B06D03A2B04D0DD
:1024A000079B01359D42F4D140E0079B9D423DD200
:1024B0003C1C2F1C01E000252C1C3B78212B12D149
:1024C000079A7B1C9A4208D97E78331C723B012BF9
:1024D00003D8BB1C934208D328E09E489F4925F0AF
:1024E000B8FBFDF798FE3B1C00261A7800273A2A15
:1024F00000D048E25F1C5B787D2B14D03B1C393A3E
:1025000007998B4212D219787B2901D1013205E05B
:102510007D2903D1013A002A00D134E20133EFE7EB
:102520000026351C341C079B9F4202D389488C49E6
:10253000D5E7002305933B787D2B02D08548894958
:10254000CDE7002C47D000232078169309F076FCC5
:10255000211C002822D0099B1B680493002B02DD5C
:102560007C488149BBE716AA201C291C20F01FFCCF
:10257000209A169B013A0690934237D2219A013352
:102580009B009B58099A049301235B4213601CE053
:102590000B782E2B04D05B2B02D00131A942F7D34C
:1025A0000691201C091B0122FFF76CFA041C002273
:1025B0002298211C05F03CFF002804D1211C6B4807
:1025C00025F040FB8DE743680493069BAB4217D28E
:1025D00067480AF0B1FE099B1B68002B02DA5D48D0
:1025E00064497CE7209A013A934202D362486349E6
:1025F00075E7013321999A0052580492099A1360A1
:10260000059B002B03D1002E00D1BAE101E0002E82
:1026100012D016A8102110AA0CF074F9321C733ACB
:10262000531E9A4110A8D2B2049901F0D7FB544826
:1026300016A9FFF7F1F9049001235B420D93109363
:10264000059B002B00D1A3E00FF08EFC209B16A869
:102650000093219B05990193229B3A1C0293099BAD
:10266000FFF7E2FE16A824F0B1F8179B0678C3180E
:102670000A930023041C05939E4216D0414D311C41
:10268000281C28F0BFFE002800D07FE16378059366
:10269000002B09D0281C191C28F0B4FE002800D0FB
:1026A00078E10590061C00E0059E237808932B2B0B
:1026B00005D02D2B05D00425202B05D102E00225C5
:1026C00000E00025013401E0002508952378232B44
:1026D00002D1133B1D4301342378302B07D1059BD6
:1026E000002B01D13D330593002E00D13036201C44
:1026F0000A990DAA20F05BFB037806902C2B04D1DD
:102700000C3B1D43031C01330693069B1B782E2BA9
:1027100006D106980A99013010AA20F048FB0690CD
:10272000069B1C78002C07D01748211C28F06AFE55
:10273000002800D030E1041C069B1B78002B02D03F
:1027400004481249CBE616A823F0F0FF059B002BA6
:102750002BD121E028F80200AD270300D527030084
:10276000EE270300062803002A28030008FE0200C3
:102770008D280300AA28030084F9020074280300AE
:102780001CC00200F4280300F928030009290300F3
:10279000059D2C1C2E1C08950498FFF79BF83E23E2
:1027A0000593002801D1023B0593002E00D120366D
:1027B000089B002B09D0732C02D17E487E498EE6FF
:1027C000632C02D17B487D4989E6059B3D2B05D0D2
:1027D0005E2B05D03C2B05D13B3B02E0402300E0C3
:1027E00080231D430498FFF755F800285FD0632C21
:1027F00023D016D8472C06D8452C58D2002C27D0E9
:10280000252C54D04CE0582C3CD0622C48D10D9B48
:10281000009502930023019603930EA804990222C7
:102820002EE0672C02D8652C12D340E06F2C19D013
:10283000782C27D06E2C33D10AE0049801F09EFB4F
:102840000D9B16A908700122009601930EA889E03D
:102850000D9B009502930023019603930EA8049903
:102860000A220DE0EB0602D580239B001D430D9B41
:1028700008220293002304990095019603930EA861
:1028800061330AE00D9A231C0292002204990392FC
:10289000173B009501960EA81032FDF737FD6EE04C
:1028A000049820F07DFC4649031C424863E00498EC
:1028B000FFF710F8002838D0002C1FD06E2C1DD048
:1028C000472C15D8452C1AD2252C27D1049801F075
:1028D000B9FB3C4917F0DAFE80230D9A5B000192A8
:1028E000109A011C02922B4300960EA8662212E059
:1028F000231C653BDBB2022B10D800E06724049850
:1029000001F0A0FB0D9B221C0193109B011C029364
:102910002B1C00960EA820F0F8F830E0049820F068
:102920003FFC2949031C234825E0059B3D2B02D190
:1029300020482649D3E50498002C01D0732C15D1EA
:1029400016A9FFF757FD109B011C169A002B00DA01
:102950001092109B9A4200D916930D9B169A0096DE
:1029600001930EA82B1CFDF773FC08E020F018FC67
:102970001749031C0F48221C0EF088FEB1E57C1C91
:102980005DE5732645E605971F1CD4E505960134E1
:1029900000268AE6023488E6069B01330693CBE6DE
:1029A0000B9A12AB13CB13C21B6813600B981BB0AE
:1029B000F0BDC04628F80200222903004E2903007A
:1029C000812903000000C842B2290300E629030060
:1029D0001B2A0300F0B5A1B0041C0D1C0D920A289F
:1029E00000D0E6E1073C0692144010D11368B94AC2
:1029F000934206D1069810A90FAA25F00EF9069465
:102A00000BE0B54A934202D10F94109405E00DAB50
:102A10000F930123109300230693109B281C089307
:102A20000F9B11A90A93FFF76BF800230B900C93EF
:102A3000AB0705D1A94A2B689B1A5A425A410C92FE
:102A400014AA18A810210BF05DFF119A00279446D4
:102A50000B9B0B9C63440593059B9C4200D39BE11D
:102A60002178252903D018A823F0C3FE92E1059B05
:102A7000661C9E4202D39A489A4916E0617825293D
:102A800004D118A823F0B5FE341C83E100252829C1
:102A900019D1A01C061C00E001363378292B08D080
:102AA000059B9E42F8D38E488F4925F0D2F8FDF75A
:102AB000B2FB311A0122FEF7E5FF011C0698FEF772
:102AC000C7FC051C01360023341C00260993203363
:102AD0000793059B9C4211D223782D2B01D12C3BCF
:102AE00006E02B2B01D1293B02E0202B02D11C3B1D
:102AF0001E430FE0232B0BD0302B05D00023129365
:102B0000059B9C4208D320E040220793164301E036
:102B1000102309930134DCE723782A2B0FD1089A7C
:102B20003B1E934202D371487149BEE70A9A9B004B
:102B3000985801F023FA01371290013405E0201C67
:102B4000059912AA20F033F9041C01235B42139368
:102B5000059B9C428FD223782E2B1ED1059B601C97
:102B6000984288D263782A2B0CD1089A3B1E934254
:102B7000D9D20A9A9B00985801F000FA01371390B5
:102B8000023406E00023059913AA139320F00FF9ED
:102B9000041C059B9C4200D36DE7002D07D1089AC9
:102BA0003B1E9342BFD20A9A9B009D58013723785F
:102BB000672B0FD8652B6AD2582B00D1D1E004D8EF
:102BC0001A1C453A022A62D9DBE0632B12D0642B2F
:102BD00042D0D6E0732B07D8722B00D392E0692B3A
:102BE0003AD06F2B63D0CCE0752B35D0782B00D149
:102BF000B7E0C6E03F4B2B40062B05D0AB0714D106
:102C00003D4B2A689A4210D11CA9281CFFF7F2FB01
:102C10001C9A011C012A02D03448384945E7202378
:102C20000093129B14A801930FE0281CFEF732FEBC
:102C300000280ED0281C01F0A1F9202301221CA994
:102C400008700093129B14A80193331CFDF700FB3E
:102C5000A0E026482A4928E703222B1C291C134000
:102C6000022B0AD1234B2B40062B06D0FF23DB057A
:102C7000E818904304F0DAFD011C079B00960193CD
:102C8000129B14A80293139B0A2203931FE0281C93
:102C900001F0D8F9079B22780093129B011C019345
:102CA000139B14A80293331C1FF02FFF72E0099BA3
:102CB000002B02D084239B001E43291C0822079B63
:102CC00000960193129B14A80293139B0393612314
:102CD00054E0C04680F702002CBC0200D4BF0200C2
:102CE00028F802004D2A03005F2A030018FD0200A5
:102CF000752A0300070080FF1CC002009C2A030005
:102D0000B52A030016AA1CA810210BF0FBFD23789E
:102D10000122722B0BD000220C9B934207D0AB07F1
:102D200005D12B68644A9A1A514251418A0016A86B
:102D3000291C01F053F8139A1D9B002A00DA139303
:102D4000139A9A4200D91A1C20230093129B14A8AC
:102D500001931E99331CFDF77BFA1CA823F0E6FCB7
:102D600018E0099A291C1643079A173B0192129AF8
:102D700000960292139A14A803921022FDF7C6FA45
:102D800008E00B9A4D49A41A00941A1C4C480EF006
:102D90007DFC8CE601345FE6089B9F4202D04948E7
:102DA000494982E60C9B4448002B00D1474818A9AA
:102DB0006EE0081C00F0F8FF16A9061C281CFEF7A0
:102DC0009FFE071C0D98072C1DD118A901F014F9BE
:102DD0000025A8426DD01899A94205DC3B4B0E3561
:102DE0009E4266D03A4D64E0169B1CA8594323F0DE
:102DF0008AFC1E9B381C059300930121169A189B90
:102E000022F006FC42E000F0CFFF864206D10D988A
:102E10001CA9FEF775FE1C9D05900DE0264B0025B4
:102E20009E4246D10D981CA9012220F0CFF9A8425C
:102E30003FD01C9B1D9D05931D2C06D8192C2BD211
:102E4000052C0DD0122C0BD032E01F2C30D10123D9
:102E5000381C00931699059A2B1C1FF0C0FF22E026
:102E6000169B1CA8E91823F04EFC1E9B391C181C4D
:102E7000169A069328F0BCF9169A1E9B9446069360
:102E80006344181C05992A1C28F0B2F9301C1CA9AF
:102E9000FEF7C2FD051C0CE00095201C391C169A9B
:102EA000059B22F0E9FB0B4D002802D10A4D00E002
:102EB0000025281C21B0F0BDD4BF0200C62A0300A3
:102EC00028F8020018FD0200FB2A03001CC00200C3
:102ED000E0BD020070C10200B4C1020070B58AB04A
:102EE000061C0C1C086804A9151CFEF709FE00232B
:102EF0000593049B011CC218009606A805AB01941B
:102F00000295FFF791FA06A90248FEF785FD0AB07F
:102F100070BDC0461CC00200F0B5071C87B0086831
:102F20000D1C00F041FF0190012F07D96C68022FA2
:102F300005D0A86801F022F8071C02E0444C0127E4
:102F40007F420020011C20F05BFE04A9009028684D
:102F5000FEF7D6FD049B051CC6183D4B9C4238D19C
:102F6000B54229D2287808F051FF002824D0013535
:102F7000F6E7002F23D02C1C207808F047FF00280C
:102F800002D10134B442F7D1291C621B01981FF011
:102F900045FF011C009803F0F1FAB44255D2251CFC
:102FA000287808F033FF002802D00135B542F7D168
:102FB000FB17DB1BDB0FFF1AB542DAD345E0291CF8
:102FC000721B01981FF02AFF011C009803F0D6FA2B
:102FD0003BE0201C00F0E8FE019A0290031C201C3C
:102FE000934201D0FEF78CFC05A9FFF703FA059B7D
:102FF0000390002B25D11749174824F02AFEFDF72E
:103000000AF9019BE3189E4209D3201C0399019AF7
:1030100028F0DFF8002803D00134002FF1D1341C50
:10302000291C621B02981FF0F9FE011C009803F096
:10303000A5FAB44209D2059BE518FB17DB1BDB0F91
:10304000FF1A059B2C1C0193E7E7009807B0F0BD21
:1030500044C202004D27030028F80200F0B50C1C02
:103060008BB0022802D8FFF757FF7EE0086800F017
:103070009BFE08A9049020686668FEF741FD009059
:10308000A06800F07BFF431C051C0021181C059361
:1030900020F0B6FD364B041C9E4202D135480AF0A2
:1030A0004BF9301C09A9FFF7A5F9099B0690002BE5
:1030B00005D13149314824F0CCFDFDF7ACF8089A30
:1030C0002F1C9446009B63440293AB000393099B1F
:1030D0000193019A029B9E1A002D0BD0009B9E42E9
:1030E00008D3301C0699019A28F073F8002822D0E2
:1030F000013EF1E7E368BD005E19009A029B049867
:103100009A1A00991FF08AFE3060002F11D0059B9B
:10311000DF1BE368BE005919181C321C28F071F837
:1031200063680021DA1BE3689200981928F07DF8A3
:10313000A760201C19E0039AE36894466344079350
:10314000019B0498F118029B013F9A1B019BD21A24
:103150001FF064FE079B02961860EB175B1BDB0FEA
:10316000ED1A039B043B0393B1E70BB0F0BDC046DF
:1031700044C20200302B03004D27030028F8020050
:1031800010B5041C102020F0C8FD044B84600360BF
:10319000034B43600023C36010BDC04684BB0200E4
:1031A0002D31020013B5041C081C01A9FEF7A8FC70
:1031B000002C07D0012C0BD1019923F001F840001D
:1031C000204306E0019B0348002B02D1024800E0A7
:1031D000002016BD70C10200B4C10200F0B585B078
:1031E000041C081C03A9151CFEF78AFC061C002DF4
:1031F00006D1201C3549039A331C1FF0D5FC63E02F
:10320000011C0022039BC3180093009B99420ED21D
:103210000B78272B04D0223B58424341DBB201E01C
:10322000002301220131002BEFD0272703E02727BD
:10323000002A00D0053F264D201C291C3A1C1FF0F7
:10324000B3FC0195009B9E4239D2301C22F087FFCF
:10325000051C301C22F09EFF061CBD4203D1201C21
:103260001C493A1C28E05C2D02D1201C1A4914E0AC
:103270002B1C203B5E2B02D8201C01991BE00A2D41
:1032800002D1201C154908E00D2D02D1201C144943
:1032900003E0092D04D1201C12491FF0B9FBD1E72E
:1032A000FF2D02D8201C104905E0104B201C1049AE
:1032B0009D4200D90F492A1C1FF076FCC2E7201C52
:1032C00001993A1C1FF070FC05B0F0BDA82703005F
:1032D000CC260300CB260300CF260300D226030012
:1032E000D5260300D8260300DB260300FFFF0000DD
:1032F000462B03004D2B0300F7B51F1C08AB0C1C1D
:10330000161C1D78FB0702D57F1001970EE0381CB4
:1033100001A900F071FE002808D1381C1FF040FF01
:103320001B49021C1B480EF0B1F90DE0019BA019CE
:10333000002B17DA0138A04208D20193002D25D1C5
:10334000154816490EF0A2F9FCF765FF3F210278F7
:1033500001388A43803A511E8A419B18002BEAD1DA
:10336000013014E0002B11D0844203D30193002DCF
:103370000DD1E5E73F2122788A43802A01D101342B
:10338000F8E7002B02D00134013BEDE7201CFEBD25
:10339000542B030018FD020084F902007C2B03006B
:1033A000F0B587B0061C0D1C171C00F0FDFC02A92F
:1033B000041C301CFEF7A4FB061C042F4FD1AB07E6
:1033C00035D1284B2A689A4231D105AB281C03A974
:1033D00004AA1FF0C5FE059B234FBB4204D0032B5C
:1033E00002D0224809F0A8FF039B351CBB4207D03E
:1033F0000122201C0092311C029AFFF77DFF051C60
:10340000049BBB4208D00122201C0092311C029A6E
:10341000FFF772FF021C01E0029BF2180E20AA4285
:103420001ED3521B201C291C1FF0F8FC18E000239F
:10343000311C0093029A2B1C201CFFF75DFF0278C1
:10344000012153B2002B06DA402301211A4202D097
:1034500001315B08FAE70122FEF714FB00E00020CF
:1034600007B0F0BD28C1020044C202005D2703007E
:1034700070B5041C0D1C10491FF0CAFA6968201CA5
:10348000012200F0ABFC0D4E201C311C1FF0C0FAD5
:10349000A968201C012200F0A1FC311C201C1FF097
:1034A000B7FAE968201C012200F098FC201C0449AE
:1034B0001FF0AEFA70BDC046962B0300C625030070
:1034C0001D40030070B5061C10200D1C141C20F0BC
:1034D00024FC034B466085600360C46070BDC04639
:1034E00028C10200F0B593B0061C06A80F1C141CDE
:1034F000FCF776FE051E23D13368311C012603A894
:103500003A1C019302F000F9A3082A1C33400199E8
:1035100003A80DF065F9051C03200FF0D5FA281C4F
:1035200022F0BAFE012040420FF0CEFAFCF76EFE08
:10353000344203D01348311C0FF0FAFA012518E089
:10354000012040420FF0C0FA01210C4202D00D4888
:103550000FF0EEFA079800F027FC0B490AF072FC16
:10356000051E04D10948079900F05CFC01E08025A4
:103570006D0001210C4202D002480FF0D9FA281C3C
:1035800013B0F0BDC82B030048F9020090B9020047
:103590001FB52021684623F09FF8254824F0C0FD80
:1035A000684623F0CEF8234824F0BAFD0FF0A8FABD
:1035B0000128F2D002280AD11F4824F0B1FD684644
:1035C00023F0B4F801221D4B00201A702DE00328CF
:1035D00003D1684623F0B5F8E8E7042804D0C1B267
:1035E000684623F006F9E1E7154824F099FD019AB1
:1035F000002A08D1104824F093FD684623F096F87D
:103600008020400011E0962002994000002300F045
:10361000B1FB002803D10B481EF0C6F9C0E7012119
:103620000A1CFFF75FFFC305BAD505B000BDC04651
:103630009D2B0300204503000847030006010020DE
:10364000B82B0300BB2B030030B587B002A82021A4
:1036500023F042F8444824F063FD444824F060FD20
:1036600002A823F06EF802A8414921F00EFF0128BC
:1036700009D1404824F054FD02A823F057F8002057
:103680003D4B18706EE0022803D13A4824F048FD03
:10369000E0E703281AD0042808D1364824F040FD7A
:1036A00002A823F043F8802040005BE0052825D1E4
:1036B000324824F035FD02A823F043F80FF020FA39
:1036C0006B46C1B2DC1D2170032901D12948C5E731
:1036D000042904D1274824F023FD012427E002A86F
:1036E00023F087F823780D2B03D1254824F018FD0B
:1036F000E4E7201C01210FF01BFADFE702A823F00A
:1037000033F80028ACD002A823F060F802F002FAE7
:1037100000280BD002A80A2123F06BF802A819494F
:1037200021F0B3FE0328D1D00428ECD1002402A854
:1037300023F013F8051C02A823F016F8021C9620AB
:10374000291C4000002300F015FB002803D10E487F
:103750001EF0FCF984E7211C0622FFF7C3FEC30517
:1037600000D47DE707B030BDCA2B03000F2C030047
:10377000352C030008470300060100203A2C030003
:103780006A2C0300712C030047750300064B0139B6
:10379000C9B21970411880310B78044A1370044A79
:1037A000D25C044B1A707047F92D0020FA2D0020CE
:1037B000CA2C0300FB2D0020064B0131C9B2197041
:1037C000411880310B78044A1370044AD25C044BD0
:1037D0001A707047F92D0020FA2D0020CA2C030022
:1037E000FB2D0020074B984204D9074B18184118AD
:1037F000064B03E0064B1818064B4118C918087809
:103800007047C046A4920000502D03005B6DFFFF7F
:103810000F2F03000083FFFF031C20228033F0B52D
:103820001A70CB4B1F3A1A70041C002389B0591C24
:10383000E05C7F23CAB203406F2B01D95F2302E013
:103840005F2B01D94F230340A21880321370CBB2F3
:103850007F2BECD1BF4A1370231C1B22FF331A703D
:10386000E432171C531CDBB203936B46B8491B7B35
:10387000B94D0B70039B2E1CE31880331B782B7003
:103880005B2B06D19B227B1CDBB20B702A70E254AF
:103890002DE02E2B11D10232D2B20A70A218803242
:1038A0001278AC480270AD48825CD20705D47A1C0D
:1038B000D7B22B70E355039AD4E7A64A1370A74AF0
:1038C000D05C820727D4002813D120220B782A70DD
:1038D000E31880331A707B1CDFB20F70782F01D889
:1038E000E255E8E79B23E3556B461B7B33700120D1
:1038F00035E27F229043984A107003D1984A994B41
:103900001A602CE2413B984ADBB29849D25CCB5C0E
:103910001202134300E0964B0593059B0093009B16
:10392000002101339BB2181C0093FFF75BFF0306D5
:10393000F5D5009B05930123029300980299FFF7A8
:1039400051FF029B0133DBB22828F5D1029D0135DE
:10395000EBB20098191C0193FFF744FF019D292841
:10396000F5D10135EBB2191C00980693FFF73AFF29
:103970007F23069D18403D28F3D16A46764B127B83
:103980001870734B039E1A70029B04965D1C714B5A
:10399000EDB21D70A31980331B780098291C079382
:1039A000FFF720FF079B9842B7D10135019A731C9E
:1039B000EDB2DBB2954202D01E1C0493EAE7644BE1
:1039C000039D1E706A46029B0098013BDBB2029386
:1039D000127A604B02991A70FFF704FF5E4E0306DD
:1039E00000D590E07F225A4B18705C4B1B5C9343D0
:1039F000337009D0564B013DEDB21D706319803311
:103A00001B788342DED088E73070202812D023282C
:103A100019D02E281FD0262825D0402841D05E2836
:103A200049D02B2852D03A285FD0524A4D4B002023
:103A30001A6094E1201C291CFFF7A8FE7F2233782E
:103A4000934340D069E7201C291CFFF79FFE337881
:103A50005B0638D461E7201C291CFFF797FE3378FA
:103A60001B0730D459E7201C291CFFF78FFE1022BA
:103A700033781340337026D1354B1B78E1188031F1
:103A800009783170482900D047E7013B3049DBB263
:103A90000B70E31880331B789343432B00D03CE733
:103AA00011E0201C291CFFF771FE0423327813401B
:103AB000337008D131E7201C291CFFF767FE3378EB
:103AC0009B0600D429E7224B1D787BE7204B013D64
:103AD000EDB21D70651980352B78452BF3D010227F
:103AE0009343492B00D018E7EDE7291C201CFFF772
:103AF0004DFE2023184A11780B40137000D161E766
:103B0000134B1D78F1E7049D019B124E0133DBB28C
:103B100001936B461B79069A3370019B934200D147
:103B200005E1191C0098FFF75DFE7F22084B0A4E45
:103B300018700A4B1B5C934333701DD0044B013546
:103B4000EDB21D70631980331B788342DCD0E4E64C
:103B5000F92D0020FA2D0020FB2D0020CA2C030097
:103B6000B62C03001C0000209C2C0300362D030003
:103B7000A5920000C02C0300307020286ED02328AE
:103B800075D02E287BD0262800D180E0402800D197
:103B90009BE05E2800D1A2E02B2800D1AAE03A28C1
:103BA00000D1B6E0252800D03FE76B1C6D4ADBB2A0
:103BB0001370E31880331B786B490B70452B37D19A
:103BC000A81CC0B2231880331B78684E3370684E2F
:103BD000F65CF60900D18AE010700B70522B00D110
:103BE00085E0532B00D182E0442B00D17FE04C2BA9
:103BF00008D10335EDB21570651980352B78592B36
:103C000075D08AE6462B00D087E6EB1CDBB213703A
:103C1000E31880331B780B70552B00D07DE60435FC
:103C2000EDB21570651980352B784C2B5FD074E69A
:103C3000492B00D071E6AB1CDBB21370E318803364
:103C40001B780B704E2B00D067E60335EDB2157074
:103C5000651980352B78472B49D05EE6201C291C3E
:103C6000FFF7AAFD7F223378934340D055E6201C0E
:103C7000291CFFF7A1FD33785B0638D44DE6201CE4
:103C8000291CFFF799FD33781B0730D445E6201C2B
:103C9000291CFFF791FD102233781340337026D191
:103CA000304B1B78E118803109783170482900D0F9
:103CB00033E601332B49DBB20B70E31880331B78FA
:103CC0009343432B00D028E611E0201C291CFFF76A
:103CD00073FD042332781340337008D11DE6201C95
:103CE000291CFFF769FD33789B0600D415E61D4BB0
:103CF0001D7809E71B4B0135EDB21D706519803544
:103D00002B78452BF3D010229343492B00D004E6A7
:103D1000EDE7291C201CFFF74FFD2023124A1178E4
:103D20000B40137000D1EFE60E4B1D78F1E7019DBB
:103D30000098291CFFF756FD7F2303403D2B02D03E
:103D40007A1CD7B2E3556A1CD2B2010605D5064AE1
:103D500035701370049B0393ADE5151CE8E709B0BB
:103D6000F0BDC046F92D0020FB2D0020FA2D0020CB
:103D7000CA2C0300F8B5061C10200D1C141C1F1CB7
:103D80001FF0D8FF011E09D02C190F604D608D6007
:103D9000CC60301C024A034B1FF019FEF8BDC04630
:103DA0007131020087310200084BC2070BD4084A68
:103DB000084B0240062A06D003230340022B01D100
:103DC000054B00E00368181C7047C046E4C10200C0
:103DD000070080FF1CC0020054E00200F8B50D1C73
:103DE000041C161C0EF0C0F8281CFFF7DDFF8768C6
:103DF000031C201C002F03D0291C321CB84703E0F1
:103E000002495A681EF0D0FEF8BDC046FB3E0300D2
:103E100008B5031C0A1C0248191CFFF7DFFF08BD88
:103E200090B90200F7B5051C081C0E1C23F015FF05
:103E300000282AD0301C694601AA0DF0CDFC009B59
:103E4000002B22D0281C16491EF0E2FD009C154BC9
:103E5000E71EE418A400002F17DB019A281C131991
:103E60005B68125910491EF09FFE019B281C1B190C
:103E70009A68002A03D10D491EF0CAFD02E00C49E0
:103E80001EF092FE033F0C3CE5E7281C311C022289
:103E9000FFF7A4FF281C05491EF0BAFDF7BDC04678
:103EA000003F0300FDFFFF3F243F030009470300DD
:103EB000393F030010B5041CFFF776FF054B00697E
:103EC000984203D0431E9841C0B202E0201C22F069
:103ED00064FB10BD49DC000038B5051C0C1C01203A
:103EE0008D4241D0214B9D4201D100203CE09942BE
:103EF000FBD001231D4204D01942F6D12B1C0D1C0E
:103F00001C1C2A1C1A4B1A40062A05D0AA0711D1DC
:103F1000184A296891420DD12340062B05D0A307EA
:103F2000E3D1144B22689A42DFD1281C211CFEF7F2
:103F300011FA19E02340062BD7D0A30703D10D4B6C
:103F400022689A42D1D0281CFFF72EFF8369002BEC
:103F5000CBD01B20291C221C98470028C5D0064B1B
:103F6000C01A42424241D0B238BDC04644C20200EB
:103F7000070080FF1CC0020070C1020008B5104B92
:103F8000984219D00F4A0123904217D0184201D00D
:103F9000184114E0830706D10B4B02689A4202D104
:103FA00003F072FC0BE01FF0FBF80849021C084804
:103FB0000DF06CFBFCF72FF9002000E0181C08BD89
:103FC000B4C1020070C10200E4C10200423F03001C
:103FD00018FD020008B5C30705D4830706D1054BB9
:103FE00002689A4202D11FF054FF01E0FFF7C6FFBA
:103FF00008BDC046E4C1020038B50F4B0124984209
:1040000002D100230B6014E00C4B984201D10C60EC
:104010000FE0031C234002D04010086009E0820733
:1040200008D1074A0568954204D10D1C03F02CFC09
:104030002860231C181C38BDB4C1020070C10200E6
:10404000E4C1020008B5184B984228D0174B98429B
:1040500027D0C30703D5401016F0E8FD23E0032363
:10406000184206D1124A0168914202D11FF01AFF8C
:1040700019E00340022B09D10E4B0340062B05D05B
:10408000FF23DB05C018032398430CE01FF088F8DA
:104090000949021C09480DF0F9FAFCF7BCF80020A8
:1040A00001E0FE20800508BDB4C1020070C102001D
:1040B000E4C10200070080FF5A3F030018FD020020
:1040C00010B583070CD103680A4CA34202D123F038
:1040D000A4FD0EE0084CA34202D11FF0A9FD08E0A8
:1040E0001FF05EF80549021C05480DF0CFFAFCF7F9
:1040F00092F810BD80F7020088CA0200743F0300E6
:1041000018FD020013B50C1C01A9FFF7D9FF019B94
:10411000A34206D00349221C03480DF0B7FAFCF76E
:104120007AF813BD973F030028F80200F7B5051C85
:104130000C1C171C1E1CD30702D55710019710E04A
:10414000101C01A9FFF758FF00280AD1381C6C6821
:104150001FF026F81349031C221C13480DF096FA91
:104160001BE0019B002B08DA1B190193002E0AD0DB
:10417000002B04DA0023019311E0002E03D0A342A8
:104180000DD901940BE0019B002B01DBA34206D368
:10419000064807496A680DF079FAFCF73CF801987F
:1041A000FEBDC046C43F030018FD020084F90200B2
:1041B000E83F030010B5041C830710D10D4B0268C3
:1041C0009A420CD10C4B0340062B03D1C00821F0BE
:1041D0000DFA00E0806801234000184308E0201C2D
:1041E000FFF7E2FD4369181E02D00120211C984709
:1041F00010BDC046D4BF0200070080FF174A70B54B
:104200000023904227D0164CA04201D1012322E086
:10421000144A002390421ED0012606409E4201D03F
:10422000401015E0051CFFF7BFFD4369002B09D0C6
:10423000301C291C9847002804D0031B58424341D6
:10424000DBB208E0281CFFF7B5FF0028DED00138FC
:10425000431E9841C3B2181C70BDC046B4C10200D1
:1042600070C1020044C2020010B5041CFFF7A2FF97
:10427000002809D1201C1EF093FF0449021C0448A9
:104280000DF004FAFBF7C7FF10BDC046FE3F030068
:1042900018FD020070B5041C0D1C161CFFF784FDF0
:1042A000036A002B05D0201C291C321C98470028CB
:1042B0001AD10E4D201C002E05D11EF071FF0C49A5
:1042C000021C281C06E0042E08D11EF069FF021C07
:1042D000281C08490DF0DAF9FBF79DFF1EF060FF7E
:1042E0000549021C281CF5E770BDC04618FD0200F8
:1042F0001F4003004A4003006B40030008B51EF056
:1043000065FF002805D10349034823F0A2FCFBF711
:1043100082FF08BD9840030018FD020008B50B7924
:104320000349002B00D103491EF072FB08BDC046B3
:104330001A7603001276030037B51D1C0023081CF3
:1043400000930C1C111C1A1C013308F0FFFF064BD4
:10435000002C06D02868FFF751FF044B002800D13D
:10436000014B181C3EBDC046B4C1020070C1020022
:104370007FB5012803D108680021FFF749FD02A895
:10438000102122F0A9F902A8094921F07EF8039B27
:104390000193002B06D1042804D1064823F04CFCDD
:1043A000FBF739FF02A90448FDF736FB07B000BD53
:1043B000C92B030048FC02001CC002007FB54B68FB
:1043C0000E1C5C106846211C22F09DF9029D002104
:1043D000281C221C26F029FF01213068014004D14D
:1043E000221C2B1C1FF0F0FC08E0042C00D9042434
:1043F00043100021201C2A1C21F0B7F9694602480D
:10440000FDF70AFB04B070BDD4BF0200F0B5002573
:1044100085B0081C0C1C1E1C111C00952A1C0223B4
:1044200008F094FF0120AC423FD0844228D130688C
:1044300020423AD103230340AB4203D11C4A016816
:10444000914232D01B4A0240062A06D0002B0BD1E3
:1044500003689A69184B9A4206D103A9FDF7CAFF6F
:1044600000220399131C18E00323021C1A40022A9D
:1044700016D1FF22D2058018984303F0D7F914E033
:1044800003A93068FDF7B6FF071C7068039CFFF7AF
:1044900075FD211C021C2B1C381CFCF7C5F904E01F
:1044A000FFF76CFD01234000184305B0F0BDC04686
:1044B000E4C10200070080FFD5290000F0B58DB0EF
:1044C000099214AA1278041C0B9215AA12780F1CD8
:1044D0000892DA0700D494E0181CFFF74FFD002380
:1044E00005900793002803DA434205932D23079391
:1044F000129B0026023B1E2B16D8524B129A2020EC
:10450000995C15F0A5FA089BC5B2B34204D0681CAB
:10451000032115F09DFA061C1398002801D026F0FF
:1045200089FF0335AE1936183B689E4204D9301C0A
:104530001FF0F3FB20603E6023689F190693002361
:104540007D1E2B70059B002B03D1023F30333B7047
:1045500033E00A950598129915F0F0FB0F1C0598A9
:10456000129915F005FB3B1C05903033092F02DD35
:104570000B9B0A3BFB186F1E3B70089B002B16D051
:10458000059B002B19D0069B9F4216D90A9BDB1B6B
:10459000032B01D03D1CDDE76B4620229B181B78C6
:1045A000AF1E3B70069B9F4207D90A97F2E7069B16
:1045B0009F4202D9059B002BECD1139B002B0ED000
:1045C000181C26F037FF069B381A984207D900239B
:1045D000139AD25C002A2ED0C2540133F8E7079B0D
:1045E000002B06D0069B9F4203D96B461B7F013FE1
:1045F0003B702368381C9E19F61B099B013E1E6008
:104600001EE09A0710D1104A196891420CD1129AF3
:10461000391C0092139A01920B9A0292089A039203
:10462000099A1FF0A8FB0BE0002322681370099A77
:104630002068136004E0079B071C002BD5D1D8E746
:104640000DB0F0BDBD400300E4C1020010B50C1C6C
:104650001449031C8A4202D1211C01221EE0124986
:104660008A4202D1211C032218E00020072B17D117
:104670000E4B1340062B0ED0930711D113680C4933
:104680008B4208D00B498B4205D00B498B4202D09C
:104690000A498B4204D1111C0720221C08F02CF976
:1046A00010BDC046B4C1020070C10200070080FF07
:1046B0001CC00200D4BF020080F7020088CA0200BA
:1046C000054B002805D00023022802D101224B000F
:1046D0001343181C7047C046B4C1020008B5024914
:1046E0001EF096F908BDC0460B7603008022044BED
:1046F00052001A600123034A1360034A1360704793
:1047000000E100E00C8C0040008000408022054B5E
:104710005200DA67044BFF3A5A600022034B1A60DA
:104720007047C04604E100E0008000400C8C00406F
:1047300038B501251D4B1E4C18601E4BE550C04678
:10474000FFF7E4FF1C4A1D4BE560E2500023022105
:104750001B4AC220A3500432A15049180832A1506C
:104760008021C12209039200A150053AFF21FF3A9E
:10477000A3504024134B80001A588A4322438024BC
:104780001A500C301A5824061202120A22431A50E8
:1047900004301A588A433F390A431A5080221204BF
:1047A0001A60802252041A6038BDC04654010020AD
:1047B00000800040FC0F0000701700004C05000056
:1047C0000405000000E100E038B5224C224D636C86
:1047D000002B0AD000236364204B1B689847A82253
:1047E000D200AB580001C018A850A36C1A4D002B82
:1047F0000AD00022174B9A64184B5B689847184AF6
:104800000001AB58C018A850E36C134D002B0BD01F
:104810000022104BDA64114B9B689847A922D20002
:10482000AB580001C018A850236D0B49002B0FD0C6
:104830000022084B0B481A650B4A8B581B188B50EB
:104840000A4A1368063313608022094B12045A6027
:1048500038BDC046FC8000400080004004000020BD
:1048600044050000701700004C050000FC2C0020DF
:10487000FCE100E0F7B50191032824D8134B800038
:10488000C758C2230125124C9B00E75003191D6431
:10489000A825ED005E59B4460E4EA659921B6244FF
:1048A000D117090F8C4662441211013200920A4955
:1048B000019A4250C121009A89001201B61867502E
:1048C00000205E5101E001204042FEBD84C2020092
:1048D000008000404C0500000400002003280BD895
:1048E000074B8000C158C223064A9B00D150064A9C
:1048F000064BC250002001E0012040427047C046F4
:1049000084C2020000800040BF3202000400002088
:1049100008B5024B1B68984708BDC04654010020EB
:1049200010B50024054AA358002B02D00021A15045
:1049300098470434102CF5D110BDC0465801002012
:10494000074A89008B58002B06D188508021054AE0
:1049500049045160181C01E0012040427047C046E4
:1049600058010020FCE100E0F7B501911149041C59
:10497000171C00251EF04CF87B689D4214D2002DB8
:1049800003D0201C0C491EF043F8019BAE009A593D
:104990000A49201CBE191EF007F9201CB16801222B
:1049A000FFF71CFA0135E7E7201C05491EF030F837
:1049B000F7BDC0469B2B0300C6250300DE40030065
:1049C0001D400300004870470CC3020013B5041CCF
:1049D000A06807F051FF019000280ED06368074AD5
:1049E000934205D0181C0121002201AB07F0FCFD09
:1049F000FFF704FC0028EBD0019816BD44C202006A
:104A00000F22114008B5031C081E03280ED815F00C
:104A100001F80204090D181C0BE00648002B08D110
:104A2000054806E0181C1FF0F7F902E0181C1FF0FB
:104A30000EFA08BD70C10200B4C1020010B588B002
:104A4000694601AA041C0CF0C7FE009B022B2AD960
:104A500004A8322102AA09F055FF019B13495A68A4
:104A600002A81EF0A1F8201CFFF79EF9104BC268A7
:104A70009A4210D1236802A85A680E491EF094F891
:104A8000E368002B07D05A68002A04D002A899686E
:104A90000022FFF7A3F904A821F098FE0EF090F889
:104AA00004A821F043FE08B010BDC0461C4103001D
:104AB000751501002541030070B5051C90B0002854
:104AC00003D11F481DF042F838E004A8FBF788FB2B
:104AD000041E19D12E6801A8291C012200F014FE21
:104AE000221C231C311C01A80BF07AFE041C03209D
:104AF0000DF0EAFF201C21F0CFFB012040420DF019
:104B0000E3FFFBF783FB19E0012040420DF0DCFFDF
:104B100005990C48FFF786F90598FFF745F90A490A
:104B2000041C09F08FF9002808D1201C074909F05E
:104B300089F9002802D10598FFF780FF10B070BDF9
:104B40002941030090B9020048F90200E0F7020091
:104B500037B5294B01AA1A600DF0E0F9E120C00039
:104B60000DF0F0F9254B2648C11803F065F807F061
:104B700025FC0DF087FF06F0DDF80FF0ADFE0023F9
:104B8000204CA367204B1A781D1C012A1FD1F82343
:104B90009B021A784D2A07D15A78502A04D1598895
:104BA0001A481EF0C6FB12E0002219480721131C08
:104BB0000AF094F8002802D01EF0C6FB07E0A620F9
:104BC00014490122400008F0EFFA21F08DFB2B7808
:104BD000002B0ED1FEF7DCFC0028F8D00E4823F0A5
:104BE0009FFA00230D4A53601360636721F050FB66
:104BF00037BDFEF729FDEFE744270020DC25000044
:104C000068010020882E00200601002004E0030037
:104C100056410300BCF702005E410300F42E002061
:104C200007B503F095F8054B01A81968091A89081A
:104C300003F048F803F0A0F807BDC0464427002061
:104C40000023820708D10268044901338A4203D055
:104C5000034BD31A5A425341181C7047A8C502008F
:104C600070C4020070B5061C0D1C0124B44206D2AB
:104C7000A3002868E9581EF07DFB0134F6E70148DF
:104C800070BDC04644C2020010B5041C10201FF0C5
:104C900044F8044B84600360034B43600023C3600B
:104CA00010BDC04684BB02005334020038B5051C59
:104CB00010201FF032F8041C074B696808C01FF071
:104CC00011FAAB68E968A3606B68E0689A0026F0A7
:104CD0008FFA201C38BDC046A8C502000023F7B5D6
:104CE000041C0D1C01938B0705D10B68224FDF1BA1
:104CF0007A427A410192AB68002B09D1019B002BCB
:104D000003D0201C1D491DF083FE201C1C492FE0F0
:104D1000019B002B03D0201C1A491DF079FE201C9A
:104D200019491DF075FE002601236A68964216D2C5
:104D3000B200171CEA68D259002A0ED0042A0CD0FF
:104D4000002B03D1201C11491DF062FEEB68201CD2
:104D5000D9590122FFF742F800230136E5E7201C6C
:104D60000B491DF055FE019B002B03D0201C094967
:104D70001DF04EFEF7BDC04670C402006C4103003A
:104D80007341030079410300D0250300C6250300C9
:104D90006B4903001D40030008B5FFF751FF0028D1
:104DA00005D1034903480CF071FCFBF734FA08BD48
:104DB0008441030018FD020038B50D1C041CFFF7E8
:104DC000EBFF281C07F00AFD051C281C07F054FD0A
:104DD000011E07D0201D00221FF08EF90028F4D0FC
:104DE000014800E0014838BDB4C1020070C10200B2
:104DF00008B583070BD10368084A93420DD0084ACF
:104E0000934204D10749084822F023FF03E00748F2
:104E100007490CF03BFCFBF7FEF908BDA8C50200F2
:104E200070C402009A4103004CFB020018FD02000E
:104E30008441030038B50D1C041CFFF7D9FF281C62
:104E400007F0CCFC051C281C07F016FD011E04D041
:104E5000201D03221FF050F9F5E7014838BDC04678
:104E600044C2020038B50D1C041CFFF7C1FF291C09
:104E7000201D01221FF040F9004838BD44C2020045
:104E800038B50D1C041CFFF7B3FF291C201D02229E
:104E90001FF032F9004838BD44C2020010B5041CAE
:104EA000FFF7A6FF201D1FF0B0F9014810BDC04656
:104EB00044C2020008B501221EF095FA004808BD60
:104EC00044C2020038B5041C0D1CFFF791FF201DE1
:104ED000291C02221FF010F9002804D1034822F0F7
:104EE000ABFEFBF798F9024838BDC04608FE020049
:104EF00044C2020010B5041CFFF77AFF201D1FF00A
:104F000066F9002805D10349034822F0A2FEFBF709
:104F100082F910BDBC41030008FE0200F8B501286B
:104F20000AD0002802D002280AD029E08B68154850
:104F3000002B26D1144824E08B685B00184320E046
:104F4000032500200D4085421BD10C680F4B281C07
:104F50009C4216D10E1C4F68BD420DD0F268AB00CA
:104F60009958002906D0042904D0022007F0D2FA6B
:104F7000401024180135EFE701206400204300E0D1
:104F80000020F8BD70C10200B4C1020070C402006C
:104F9000F7B5071C102001911EF0BFFE051C0A4B3F
:104FA000061C08C5281C391C1FF09CF80024BC42B4
:104FB00008D0019AA300D158281C01221FF09CF8A8
:104FC0000134F4E7301CFEBDA8C50200F7B5051C8E
:104FD0000E1C171E05D0FFF70BFF1A4CB54209D166
:104FE0002EE0FFF7D9FEB54204D1281C1EF0D3F9FC
:104FF000041C25E00020011CFFF7CAFF041C301C24
:1050000007F0ECFB0190019807F036FC061E0BD070
:10501000281D311C00221FF06FF80028F3D0201C3F
:10502000311CFFF71FFFEEE7002F09D0E8681EF0E4
:105030009BFE63686B60A368AB60E368014CEB6048
:10504000201CFEBD44C20200F0B585B0041C0390D4
:10505000029101920027FFF7F3FDB84207D13A1CF5
:105060002048012103AB1EF019FA041C0137029DF0
:105070000026281CFFF7E4FDB04207D1321C194876
:10508000012102AB1EF00AFA051C0136019B002B20
:1050900005D0A368AA68934201D1002310E0201C28
:1050A000FFF7F2FD019001981EF0D3F9011E06D022
:1050B000281D00221FF020F80028F4D1EDE701237D
:1050C0000193002F02D0201CFFF7E8FE002E02D033
:1050D000281CFFF7E3FE019B0348002B00D1034887
:1050E00005B0F0BDA8C5020070C10200B4C1020045
:1050F00037B5009101921F2850D8151C0C1C14F0D4
:1051000089FC10151A4D4D4D1F4D4D4D4D4D4D10F7
:10511000151A4D4D4D1F4D4D4D4D4D24272C393EEB
:105120004D43081C111C1EF040F938E0081C111CEE
:105130001EF049F933E0081C111C1EF0A4F92EE002
:10514000694602201EF080F929E0081C111C00E0CD
:10515000101C0122FFF778FF21E0081CFFF71CFE5E
:10516000281CFFF76DFD031E0D4818D0A368AA6820
:10517000934214D1201C291C1EF0C1F90FE0081C19
:10518000111C1EF0B4F90AE0081D111C00221EF0CB
:10519000B3FF031E034802D1014800E000203EBDDA
:1051A000B4C1020070C10200F0B5151C42688FB096
:1051B000944606938369CA6802938B68826063444D
:1051C0005A1C42601A78041C01929A1C4260DA1C34
:1051D0005F7842609A78059104921A1D4260DB78EC
:1051E00000210393031C1833C360029B03339B000D
:1051F000C31804330361029B1C309B001A1C0793E5
:1052000026F013F8149AAB00D3180B93029B049A60
:10521000DB1B08939B1A05339B00E3181E1D01221C
:105220000199BD420FD9114203D1834883493A1CE9
:105230002CE01E1C149BB900E81B59180CF082F8D6
:105240003D1C706027E0114202D01E1C7C4B736035
:10525000069B002B1FD1019B1B071CD4039BFA1A32
:10526000954211D3D91B8B009C462A1CBA4212D2FC
:10527000614693005818059901320818079900698A
:10528000CB1AE3189861F1E76B486C492B1C0CF0C2
:10529000FDF9FAF7C0FF0022AA4208D01499079836
:1052A0009300C958C31AE31899610132F4E7069BC9
:1052B000002B03D1019B1B0700D494E00223019A29
:1052C0001A4000230A920793002A04D006981DF082
:1052D00016FD079030600026A3680B9D0993069B7E
:1052E0009E4228D000222968049BDB199A4215D2DD
:1052F00009989300C35899420ED1029B013B9B1A17
:105300009B00E318DA69002A03D0CA084A484D49CD
:1053100066E06A68DA610BE00132E5E70A9B002B80
:1053200002D14548484963E007986A681DF020FDAE
:1053300001360835D3E7089B03989A1D039B92001A
:10534000D91CA218059B043289005918131C002887
:1053500008D01D68002D01D10D681D60013804338F
:105360000439F4E7039B9B00D318029A063292009B
:10537000A2180432934209D20433191F0968002984
:10538000F3D1D21A92102C48304929E0089B099A8F
:105390009D00BB00D31865190693002610E0039BFF
:1053A000059904339B0058580699B3000430C95836
:1053B00003F03EF800280CD04368AB610136043D91
:1053C000049B9E421ED2AA69002AF7D1019B1B07AB
:1053D000E5D4F619099BB600F25817481C49D208C3
:1053E0000CF054F955E7049B002B04D012481949DE
:1053F00022F02FFC4DE7019B9B0703D504981DF07D
:105400007EFC306065680DA825600D951EF07CF867
:105410002E180136731E1D78FF2D09D0029B013B0B
:105420005D1BAD006519E869FBF7E0F9E861F0E79D
:1054300066600FB0F0BDC04618FD0200D241030007
:10544000BCF702000B4203003A4203006342030030
:1054500095420300C54203009F230021024A5B00DE
:105460000248D1527047C046882E002044C2020034
:105470009F230121024A5B000248D1527047C04677
:10548000882E002044C202009F23044A5B00D35AA6
:105490000348002B00D103487047C046882E0020E7
:1054A00070C10200B4C1020008B5FFF7B9FB0148A2
:1054B00008BDC04644C2020008B503480968FEF7AB
:1054C000B1FC024808BDC04690B9020044C20200C7
:1054D0000D4B73B530CB161C012804D94D682C1C1C
:1054E000022800D08C68086801A9FCF783FF011C22
:1054F0002C20019A0023FF30FEF73CFC311C2A1CB3
:10550000231C07F0CFFE76BD882E0020002313B5A4
:10551000046A00930A05A16B024C920C12591EF00A
:1055200076F813BD5CC70200F0B51C7887B07C2C00
:1055300006D185686D5C002D02D09A2D00D0DEE08A
:105540000393231C6B3B02920091071C022B29D86A
:1055500084687D6860180378032B00D0ACE004A950
:105560001EF048F96319984200D19EE00378032B9E
:1055700000D0A1E005A91EF03DF9039B1B786B2B21
:1055800003D1049B059A13430AE06C2B03D1049BBF
:10559000059A534004E06D2BE4D1059B049A134017
:1055A0000493DFE76E2C04D00223221C9A43702A56
:1055B00063D1009BBE68F0187B6801930378032BCE
:1055C0007AD104A91EF016F9051C019BF3189D421F
:1055D0006BD0AB78A81C6C78032B6DD105A91EF09D
:1055E00009F9051C372C0ED1059A1F2A64DC4549A0
:1055F000049B11418B425FDCC021090611418B42A3
:105600005ADB934009E0392C09D1059B1F2B01DDA2
:105610001F230593049B059A1341049328E02F2C24
:1056200003D1049B059A9B18F7E7302C03D1049B08
:10563000059A9B1AF1E7312C09D10498059904F0D9
:10564000E9FD002838D1059B049A5343E5E7332C44
:1056500032D00599352C05D100292DD004981FF0A2
:1056600018FE04E0002927D004981FF022FE0490C1
:10567000049B5A005340A8D51EE0752C1CD18368AA
:10568000009A981883784478032B15D102301EF0C5
:10569000C0F82F2C08D0302C05D140424300049094
:1056A000584002D508E0C0430490009B381C7B6042
:1056B00004991DF0DCFF22E000267B68009A029C22
:1056C0009D1A0136E409FCD12B1C0134DB09FCD105
:1056D000731C1A19381C0099019321F09FF8071CBC
:1056E000039B311C1B78029A1A33037001301DF0A2
:1056F0003AFF019B211CF8182A1C1DF034FF07B04B
:10570000F0BDC046FFFFFF3FF0B597B00990C02045
:10571000002540230AAC80000F1C161C2570636016
:10572000A5601EF007FB2561E0606561A561E5618C
:105730002762E562A84202D1BF48C049C0E1331EDA
:1057400003D00423022E00D0033B0026BC4A9B005A
:105750000096201CB96B9A58331C1DF058FF10207E
:105760001EF0DBFA1021041C20F0B6FF0AADAB6876
:10577000002B00D181E12A78002A00D07DE1013B95
:105780000C32AB605343EA68AD49D318DA785D68F0
:105790009200525803921A689B681202120A0493EC
:1057A000039B06925B7807930F23079A1A40059292
:1057B000002D01D1636804933023079A1340102B06
:1057C00002D0202B40D0F4E0002D03D0002E01D1D8
:1057D0000026CBE7039B6A009A18059B9D4231D2B5
:1057E0005388190B012916D1391C403109781B0542
:1057F00002321B0D994221D10AA8211C1DF06CFF19
:105800000028E5D13B1C40331B78062B00D04CE12F
:105810008C488D4954E1059A6B1C934206D2049A38
:105820000AA800920699039A1DF0F1FE039B6D00F1
:105830005D1969880AA8FFF769FEC9E70135CCE759
:10584000012DDFD8012691E7002E0BD0039A6B00C3
:105850009B5A1B0B032BF3D1201C012120F0A4FF2A
:1058600000230370039B6E009E191AE073881A0BC5
:10587000012A29D13A1C40321278DBB29A4220D157
:10588000082A07D1B96CF86C05F014FE011C201C25
:105890001DF0B3FE002D08D0381C1EF0F6F80135BF
:1058A0000236059B9D42E1D310E0039B5B787F2B82
:1058B000F2D90E9B201C591C07930E911DF0D7FEA8
:1058C000EAE7002DBED09DE76B1CA8E700231E1C55
:1058D000059A93420CD203995A008A185288110BE8
:1058E000012903D1D2B2072A00D901260133EFE7FB
:1058F000A368049A981800230793A2686368D318D2
:10590000984206D2079B0121013307931DF04BFEFD
:10591000F3E7039B1B781F2B01D02E2B00D1012610
:10592000039B597840230B40181C4342434149B222
:105930005B421E40002900DA01260025049B0595E4
:10594000D0180895079B9D420FD0059A0378013225
:105950000592002B04D0089B013308930023059384
:1059600001211DF020FE0135ECE7002E02D1089B3D
:10597000012B04D0201C059920F083FF76E0A2685B
:10598000049B944663441D1C079B9E4200D11FE765
:105990002B78002B06D1A368201CE91A012220F0E5
:1059A0007EFF04E0281C01211DF0FDFD051C0136D1
:1059B000EAE7002E1FD0059B022B03D10023012D07
:1059C00045D13FE7012D00D13CE701232A1C1A40B5
:1059D0003CD0059A032A3AD014E73A1C0899403281
:1059E00012780905090D8A4217D1002B10D0381CF6
:1059F0001EF04BF801350123079A039913402B4001
:105A00005A008A1852880892120B012AE5D006E043
:105A10000AA8211C1DF060FEECE70135CBE7049AD3
:105A20000AA8009206996B1C039A1DF0F0FD0AA8C3
:105A30000899FFF76BFD99E6A8F80200FB42030006
:105A40005CC7020010FB020023430300131C079AEB
:105A5000691ED20705D5039A9288120B012A00D13C
:105A60006908012902D1002B00D1B1E6201C04995C
:105A7000069A039BFFF758FDAAE62B78002B00D06F
:105A80005AE63B1C40331E78002E00D0BAE663680D
:105A9000002B00D1B6E62B69201C591C1DF0E7FD38
:105AA000A3686B62EB69AB620FE0022B02D1144872
:105AB000144905E00B3B14481449012B00D9144943
:105AC00022F0C7F80023061C13930D981EF04CF922
:105AD000002E0BD0301C3968BA6B00230BF044FE4B
:105AE000381C1DF060FF301CFAF795FB381C1DF0C8
:105AF0005AFF099A13AB13CB13C2099817B0F0BD24
:105B000010FB02003543030090FD020069430300CF
:105B100090430300F8B5041C03780020834200D1B1
:105B20009AE0402B01D1012528E0201C4B491DF0B3
:105B3000E9FE0028F7D1201C49491DF0E3FE0028AA
:105B4000F1D1201C47491DF0DDFE0028EBD1201CBF
:105B500045491DF0D7FE0028E5D1201C43491DF022
:105B6000D1FE0028DFD1201C41491DF0CBFE0028CA
:105B7000D9D1201C3F491DF0C5FE051C0023191C6E
:105B80001E1C1F1C2278002A51D0272A10D1002B5E
:105B900001D0032B08D16278272A05D1A278272AC1
:105BA00002D10234243A16E00122012B3DD812E042
:105BB000222A12D1181C1E3A904309D1607822285B
:105BC00004D1A078222801D1023404E0002B01D0B6
:105BD000022B2AD10222D31A27E05C2A09D160784D
:105BE000272801D0222804D11A1C501E8241A41853
:105BF0001BE0002B19D15B2A12D006D8282A0DD021
:105C0000293A50424241BF1A0FE07B2A0AD07D2A2E
:105C10000AD05D3A50424241B61A06E0013704E02C
:105C2000013602E0013100E001390134AAE7012028
:105C3000002F11DC002E0FDC00290DDC033B83421A
:105C40000AD9013C23785C2B06D0101C002D03D010
:105C50000A3B581E8341D8B2F8BDC04656440300E3
:105C60009F430300A5430300A9430300A179030058
:105C70004EB00300E2910300F0B5051C8BB046184E
:105C8000049207930296029B5C1EAC4210D32078CC
:105C900006F0C8F8002809D1207806F0CFF80028CF
:105CA00004D123785F2B01D02E2B02D10294EAE796
:105CB0000295724B1D68029CB44209D3029BE31A01
:105CC0000193B44209D30024261C271C039448E006
:105CD00023782E2BF2D00134EEE70027AB689F42E9
:105CE0001CD2FB000393039AEB689858002817D046
:105CF000042815D009A9FCF77DFB019B099A011C1A
:105D000093420DD102981A1C25F09BFB002807D165
:105D1000EB68039A9B185868002803D10020AAE07A
:105D20000137DBE783070AD10368554A934203D161
:105D30001EF01EF8051C0BE0524A934201D0FEF7FC
:105D400033F8856B002DE9D04F4B2A689A42E5D194
:105D5000631C0293AFE7EA68E3009858002804D177
:105D60000134AB689C42F6D329E00428F8D009A995
:105D7000FCF740FB099B05900693069A019B934212
:105D8000EED8029805991A1C25F05BFB0028E7D194
:105D9000019B002F0BD0B3420DD8069A93420AD82C
:105DA000059AF95CD25C914204D10133F3E7069E77
:105DB000059F00E01E1C039B01330393D0E7039B68
:105DC000002BABD0012B02D0019B9E4206D9019B38
:105DD000079AFB181360019BF01A4CE00023402641
:105DE0000393039BAA6893423FD2039BEA68DB00BC
:105DF0009858002835D0042833D009A9FCF7FAFABE
:105E0000099F019B0590BB422BD8029805991A1C4B
:105E100025F017FB002824D1331C0F33DC17240F87
:105E2000E41824112401A41B012C00DC10343319C4
:105E3000DB190027402B0ED80498A74204DA134937
:105E40001CF0E6FD0137F7E705991CF0E1FD099B21
:105E5000F618361905E004980D49059A1CF0A4FEC1
:105E6000099E039B01330393BBE7049809491CF087
:105E7000CFFD012040420BB0F0BDC046882E00206F
:105E8000CCD8020050EE02002CBC0200FAA703009E
:105E9000AD43030009470300F0B5071C443787B042
:105EA000041C381C0191002620F04BFC2069431C87
:105EB00018D00A2804D1201C1DF041FD0126F5E769
:105EC00005F0A4FF002823D12369232B08D1201C2F
:105ED0001DF035FD23695A1CE8D00A2BF7D1E5E700
:105EE0005C2B07D0E369256A019AA363E563002A66
:105EF00012D117E0201C1DF022FD23690A2B07D0C8
:105F0000E369A363236AE363042340342370F9E263
:105F1000201C1DF014FDC9E7012B03D10622012D21
:105F200000D07AE1636A002B04DA221C0721403298
:105F300011702FE0002B06D0221C06214032117078
:105F4000013B6362B8E1002E39D0A36A002B36D141
:105F5000211C052240310A706362226BBA4B606BD0
:105F6000D3185B001B5A013D9D4200D1A4E113D917
:105F7000E16A8A4207D3083149001DF0E4FEE36A72
:105F800060630833E362236B5A1C2263626B5B001D
:105F90009D52636A0133D4E7236BAB4A9A185200CF
:105FA000125A954205D2013B2363636A013B636247
:105FB000F2E7954200D17FE102230B707CE120697A
:105FC000431C1BD1A04A236B616B9B185B005A5A80
:105FD000231C4033002A00D121E105221A7000233E
:105FE0006362994A236B9A185200525A002A00D1D0
:105FF00062E1013B2363636A013BF1E7272800D19B
:106000007EE1222800D17BE1752804D01023021CF8
:106010009A43622A04D16369272B11D0222B0FD017
:10602000722803D16369622B2ED104E062282BD140
:106030006369722B28D1A369272B01D0222B23D18E
:10604000752803D1201C1DF07AFC59E162280ED17D
:10605000201C1DF074FC002301932369722B00D0D7
:1060600048E1201C1DF06BFC0123019342E1002359
:106070000193722800D045E1201C1DF060FC2369CB
:10608000622BEED001233CE105F0CCFE2169002813
:1060900003D15F2901D07F291ED9231C0822403358
:1060A0001A70C9B2381C20F0A4FB201C1DF047FC5C
:1060B0002069431C00D1FFE005F0B4FE002801D0A8
:1060C000217CEFE720695F28FAD07F28F8D805F017
:1060D000B5FE0028F4D1EFE0081C05F0AFFE002863
:1060E00008D0251C216940352E290CD10A23002611
:1060F0002B7035E023692E2B52D1606905F09EFE8E
:106100000028EED14CE0092300262B70302927D13E
:106110006269173313430122161C622B20D06F2BA8
:106120001ED0783B5E425E411AE02069431C00D1DC
:10613000C2E0002E1BD12023021C9A43131E452BC4
:1061400015D13B3B2B706521381C08F0E7FB201C68
:106150001DF0F5FB216902220B1C2B3B9343E4D17C
:10616000381C08F0DBFB201C1DF0E9FBDDE705F027
:1061700059FE002803D021692E2909D10DE020699C
:1061800005F05CFE0028F6D123692E2BF3D093E0B6
:1061900020230A1C9A434A2AE2D10A232B70DFE704
:1061A00021692E291FD1261C381C08F0B7FB201CA2
:1061B0001DF0C5FB236940362E2B00D093E16569A5
:1061C0002E2D00D08FE1381C291C08F0A7FB291CBC
:1061D000381C08F0A3FB201C1DF0B1FB201C1DF097
:1061E000AEFB0D2380E10026184D2F78002F0ED036
:1061F000B9420CD03B1CFD20633B6A1C034202D019
:10620000452F01D1013E151C01360135EDE7201C5B
:106210001DF095FB002F04D10122231C40331A707E
:106220004AE0371C01352B78652B11D16B78226938
:1062300001379A4205D1201C01351DF080FB3E1C20
:1062400006E00235EFE7C046FFFFFF7FDC430300B7
:106250002B78452B0AD16B7822699A4204D1201CF5
:106260001DF06DFB3E1C0EE001220EE0632B0AD1F7
:106270006B78226901379A4205D1201C1DF05FFB23
:1062800002353E1CCFE7A04B9A5D231C40331A70A9
:10629000231C40331B780422191C9143422901D04E
:1062A000442B02D1A36A013305E0432901D0452BD9
:1062B00002D1A36A013BA362211C40310B78082B59
:1062C00000D01FE10023E56CA66C904A980080582E
:1062D00000228418B24205D0875CAC5CA74205D18D
:1062E0000132F6E72278002A00D1FFE00133222BA9
:1062F000EBD107E1231C0C2240331A70012306E086
:1063000000230193231C0B2240331A700023272201
:10631000049323690392222B00D10393201C1DF0C8
:106320000EFB0123039A0593236993420AD1636903
:10633000934207D1201C1DF002FB201C1DF0FFFA28
:1063400003230593002623690293013300D1B0E0B3
:10635000059B012B03D1029B0A2B00D1A9E0059BD1
:106360009E4200D3ACE0029B039A934205D1381CB5
:10637000111C013608F0D2FA97E0029B5C2B00D08A
:106380008DE0201C1DF0DBFA019B2569002B02D05B
:10639000381C02996BE0622D00D1A2E012D84E2D7C
:1063A0004BD007D8222D66D0272D64D000260A2D89
:1063B0007BD045E05C2D5ED0612D00D18FE0552D66
:1063C0003ED11BE0742D11D007D86E2D10D0722D48
:1063D00012D0662D34D10C2550E0762D0AD00DD385
:1063E0000226782D16D06B1C5ED029E0092545E0E9
:1063F0000A2543E00B2541E00D253FE0049B002BDF
:1064000004D0381C5C2108F089FA37E00426752D89
:1064100000D0B6190025013E2BD3201C1DF08FFAA9
:106420002369181C029305F015FD00284DD0029831
:106430001FF0EAFE2D014519EDE7354806F07CFF17
:106440002B1C303B072B10D81D1C03266369303BE7
:10645000072B0ED8013E002E0BD0201C1DF06FFA2A
:106460002369ED00303B5D19F0E7381C5C2108F032
:1064700055FA6B1C18D0274B9D420BD8049B002B60
:1064800004D1381C291C08F049FA0DE0FF2D01D871
:10649000E9B206E0231C012240331A7004E06B4687
:1064A000197A381C20F0A5F90026201C1DF047FAA7
:1064B00049E7059B9E4203D2231C032240331A70F6
:1064C000381C311C20F0DDF9F6E6231C0122403394
:1064D0001A70049B051C002BDAD11D1CD1E707257F
:1064E000CCE70825CAE74A233370E5E6212B07D11C
:1064F000094BA0331A681023002A02D0023B00E0A7
:106500000E330B7007B0F0BDB143030000CA0200A8
:106510001E440300FFFF1000882E0020002805D035
:10652000012809D18B685B00184306E08B6803489B
:10653000002B02D1024800E00020704770C1020029
:10654000B4C102000021F0B58568EA0F521952105B
:1065500091420DDA074BC668EB185B1A8C009B0062
:106560003419F65827682660C4680131E750EFE710
:106570000148F0BDFFFFFF3F44C2020038B50D1CCB
:1065800083684168041C8B4212D3C900C0681DF0A7
:10659000DAFB63680A495A00A3686260D21A0133C1
:1065A00052189B00E0609200C018002124F03DFECC
:1065B000A368E268591C9B00A16002489D5038BD49
:1065C000FFFFFF3F44C20200F8B5071C161C4C1029
:1065D000836803D5E418E243D21714409C4200D9E3
:1065E0001C1C0C4D381C291CFFF7C8FFAC46BB68AF
:1065F00009495A1E5B189B001D1FF968A24204DD61
:106600004859013AC8502B1CF6E7A4000E516046C9
:10661000F8BDC04644C20200FFFFFF3F38B5002569
:10662000041C85601021C0681DF08DFB0423291C0B
:10663000E0606360102224F0F8FD014838BDC046D8
:1066400044C202007FB50C1C114B02AD0431009313
:1066500001380223019506F0ABFE23680D4C9968C2
:10666000012911D9D868029A0B4B2D79C918131B2F
:106670005E1EB34189005B421A404118074B002D52
:1066800000D1074B1DF015FA201C04B070BDC046A8
:10669000C4CA020044C20200FFFFFF3FB4C10200AF
:1066A00070C1020070B50C68021CA368002B05D1F4
:1066B0001A491B4821F0CDFAF9F7ADFD2068012AEF
:1066C00001D04A6801E001225242191C0023FDF763
:1066D0002DFDE268A36881005618013B0431511872
:1066E0001A1A35689200A360301C24F08AFD00213C
:1066F000A368E0689A001150616804290BD95B0017
:10670000994208D949088900E0681DF01CFB6368BC
:10671000E0605B086360281C70BDC0468F440300C6
:1067200084F9020007B500900191022069461DF02E
:1067300022FA694601900220FFF7B4FF00480EBD1F
:1067400044C2020070B50E1C0D49051C00241CF04B
:106750005FF9B3689C420ED2002C03D0281C094973
:106760001CF056F9F268A3009958281C0122FDF785
:1067700035FB0134EDE7281C03491CF049F970BDD5
:10678000F08D0300C625030062B0030070B5032638
:10679000041C0D1C0E4028D1174B0A689A4224D1C4
:1067A0008B68826899184368994210D9043189002E
:1067B000C0681DF0C8FAAB68A268E0609B181A1D9B
:1067C0009B006260C018311C102224F02EFDA368CB
:1067D000E9689800E3681818AB689A0024F008FD8F
:1067E000AB68A268D318A36003E0201C291C1DF02D
:1067F000CBF9024870BDC04688CA020044C20200FC
:1068000010B5041C10201DF088FA044B846003604E
:10681000034B43600023C36010BDC04684BB02002D
:10682000953A020038B50B4B051C03600C1C081E82
:10683000042800D204206860AC6080001DF06DFA6E
:106840006A68E860121BA40092000019002124F07D
:10685000ECFC38BD88CA02007FB50D1C161C12283E
:106860002AD004D8052807D007282BD058E0031CCD
:10687000193B042B41D953E00322002332409A42B2
:106880004FD1131C3168284A91424AD1B368AA6893
:1068900098181DF092F9041CAB68E9689A00C0686A
:1068A00024F0A6FCA868E36880001818B368F168B3
:1068B0009A0024F09DFC1EE0081C111CFFF766FFE7
:1068C0002B1C2EE0101C03A9FDF796FB0023984219
:1068D00027D0039A9A4200DA0393039BA86858438F
:1068E0001DF06BF9C368041C0093E8680421AA68D2
:1068F000039B1EF08DFE231C13E00C4BB20710D13E
:10690000094A316891420CD1B368E9680093AA68DA
:10691000F36804F0D3FE064B002802D1034B00E0DD
:106920000023181C04B070BD88CA0200B4C1020064
:1069300070C10200F0B50B1C87B0041C171C0326A5
:10694000002A16D10E400DD1524A0968914209D150
:10695000191C03AA806804F077FE0398049AE36880
:10696000851A78E003A9022003940493FFF79AFEA6
:106970008DE0042A2DD1314221D1464A0968914245
:106980001DD18068191C03AA04F05EFE002805D101
:10699000A068E16803AA1EF04EFE79E0039B04980C
:1069A000C01A1DF00AF9051C8368E1689A00039B70
:1069B000C0689B00C91824F01BFC281C68E01A1C46
:1069C00020680023A168FDF7B1FBE3688000C05890
:1069D0005EE00E4056D12F4A0968914252D1191CEF
:1069E00003AA806804F030FEBA680398049B8518F7
:1069F0000193ED1A002D22DDA368E918636899421E
:106A000007D98900E0681DF09EF9A368E060EB18E3
:106A10006360039AE368A818910080005918181859
:106A2000A3689A1A920024F0ECFB039BF968980083
:106A3000E3681818BB689A0024F0DAFB1EE0E368EC
:106A4000800018189200F96824F0D2FBB868039906
:106A5000E368049A40189100800059181818A36838
:106A60009A1A920024F0CDFBA3686A42E818E36802
:106A7000800092001818311C24F0D7FBA3685D1920
:106A8000A56004E0201C191C3A1C1DF0D8F802482F
:106A900007B0F0BD28C1020044C20200C379024819
:106AA000002B00D10148704770C10200B4C1020040
:106AB00008B507F0BFFF014808BDC04644C2020048
:106AC00008B5086807F0B6FF004808BD44C20200D8
:106AD00073B50D1C022823D10126486801A9FBF7D4
:106AE00089FC7642341C019BC31898421BD0017864
:106AF000722901D0772905D1621C0ED172394C421E
:106B00004C4108E0622901D0742906D1721C04D1DD
:106B100074394E424E410130E7E70E480E4913E00A
:106B200001267642341C01A92868FBF763FC7342F6
:106B3000734162426241DBB2D2B2019908F0CEF8F1
:106B4000002805D10548064921F083F8F9F763FBD1
:106B500076BDC04628F80200A3440300D8F902001D
:106B6000B0440300F7B5CC1CA400071C201C0E1C6D
:106B700001921DF0D2F8221C051C054B476086606F
:106B800003600C3A01990C3024F032FB281CFEBD46
:106B9000F4CC0200F0B585B000AF7A601D1C7B68B4
:106BA000C26BCB18061C0C1CFB60934204D02B4913
:106BB0002B480AF06BFD3BE0FB68994245D09A00F8
:106BC000131C69460E33DB08DB00CB1A9D46181CEC
:106BD0000021BB6024F029FB0023A200934204D0D3
:106BE000E858B968C8500433F8E7F9687A688C4601
:106BF00062447A60ED1803E06A6802341A6008356E
:106C00007B689C4220D22868FAF75EFF0021021CB4
:106C1000F36B3B603B68994206D08B00F018006C28
:106C2000904207D1013107D10D480E490AF02EFDDF
:106C3000F9F7F1FA0131EDE7B968CB1819680029C5
:106C4000DAD007480849F1E7BD68F868291C0AF05E
:106C500079FBBD46066005B0F0BDC046D2410300D9
:106C600018FD0200BF4403000B42030038B50C1CA2
:106C7000051C0B6805495A681BF096FF2168281C03
:106C80004031221CFDF770FE38BDC0469B8F0300CB
:106C9000F0B585B00C1C0325FAF716FF2540071C3C
:106CA000002D03D11E4B22689A4205D01D491E4873
:106CB00020F0CFFFF9F7AFFA201C02A903AA1CF0BD
:106CC000B7FF029E039B301C1030800001931DF023
:106CD00024F8041C291C3C2224F0A7FA134B6760FB
:106CE0002360134BE663A360124BE360124B6361B6
:106CF000124BA361124BE361124B2362124B63628E
:106D0000124B6363B54208D0019BAF00D859FAF724
:106D1000DBFEE71938640135F4E7201C05B0F0BD4F
:106D200088CA0200E044030018FD020050EE020091
:106D30006D6C0000956B0000C51201008913010005
:106D4000516D0000811401002113010030CD0200BB
:106D5000136870B5002B11D10568EE6BB34213D0E8
:106D60009C002C19246C8C4201D00133F6E7591C8D
:106D70000AD002339B001B58136005E00349044806
:106D800020F067FFF9F747FA70BDC046EE440300F4
:106D90004CFB020008B50B1C02495A681BF004FFAB
:106DA00008BDC0469B8F030008B5FDF74BF915F0F1
:106DB000B9FD0022074B14F02FFF074B074A14F0D0
:106DC000EDFA15F003FE03239843013B1843044BEF
:106DD000C01808BD00806640FB210940182D4454AE
:106DE0000000808008B5FDF72DF915F09BFD084ADD
:106DF000084B14F011FF084B002214F0CFFA15F0E5
:106E0000E5FD03239843013B1843044BC01808BD1C
:106E1000182D4454FB21094000806640000080800A
:106E200008B5FDF70FF9034B184002231843024B36
:106E3000C01808BDFCFFFF7F0000808008B5FDF78B
:106E400001F916F01BFA034B002800D0024B181C66
:106E500008BDC04670C10200B4C1020008B5FDF70C
:106E6000F1F816F00BFA034B012800D0024B181C66
:106E700008BDC04670C10200B4C1020008B5FDF7EC
:106E8000E1F816F0FBF9034B012800D8024B181C5F
:106E900008BDC04670C10200B4C102001FB5002386
:106EA0000193FDF7CFF801A916F058FA0322031C4D
:106EB00002209343064903435B180293019B9343CB
:106EC00003435B1802A903930AF03CFA05B000BD26
:106ED0000000808038B50D1CFDF7B4F8041C281C98
:106EE000FDF7B0F813F082FE011C201C16F012FA18
:106EF00003239843013B1843014BC01838BDC046DB
:106F0000000080801FB500230193FDF79BF801A9C5
:106F100016F0D4F9032302249843074B2043C018EA
:106F2000029001981CF078FF02A90390201C0AF03F
:106F300009FA04B010BDC0460000808038B50D1CB1
:106F4000FDF780F8041C281CFDF77CF8011C201CB0
:106F500016F090FC03239843013B1843014BC018E3
:106F600038BDC0460000808038B50D1CFDF76AF8BA
:106F7000041C281CFDF766F8C00FC307600040081A
:106F8000184303239843013B1843014BC01838BDF5
:106F90000000808038B50D1CFDF754F8041C281C37
:106FA000FDF750F8011C201C16F0ECFB032398435E
:106FB000013B1843014BC01838BDC046000080801B
:106FC00008B5FDF73FF815F05FFF03239843013B39
:106FD0001843014BC01808BD0000808008B5FDF7BC
:106FE00031F816F07DFB03239843013B1843014B16
:106FF000C01808BD0000808008B5FDF723F816F022
:107000001DFB03239843013B1843014BC01808BDE7
:107010000000808008B5FDF715F816F08BFA032301
:107020009843013B1843014BC01808BD0000808005
:1070300008B5FDF707F816F03BFA03239843013B28
:107040001843014BC01808BD0000808008B5FCF74C
:10705000F9FF16F081F803239843013B1843014BD5
:10706000C01808BD0000808008B5034903480AF035
:107070000DFBF9F7D0F8C0460245030028F80200DE
:1070800070B5061C08680D1CFCF7DCFF0021041C11
:1070900012F0BAFE002801D0FFF7E6FF201C16F020
:1070A0004BFC041C012E06D1032302209C430D4BF4
:1070B0000443E01815E06868FCF7C4FF0021051CD4
:1070C00012F0A2FE0028E7D1281C16F035FC011CA6
:1070D000201C13F0E9F8032302249843014B2043BA
:1070E000C01870BD0000808008B5FCF7ABFF16F03B
:1070F0004DFB03239843013B1843014BC01808BDC7
:107100000000808038B50D1CFCF79CFF041C281C77
:10711000FCF798FF011C201C16F08CFC03239843FD
:10712000013B1843014BC01838BDC04600008080A9
:1071300010B5FCF787FF0021041C12F05BFE00284D
:1071400001D0FFF791FF201C16F01CFE032398438B
:10715000013B1843014BC01810BDC04600008080A1
:10716000F0B58BB0079310AB80CB041C01911B785A
:10717000062A11D8012A05D93F230B700B1C0133B5
:10718000019301E0002A02D0002301990B70012332
:107190009342AD4168423BE2002809DA019B019924
:1071A000013300932D230B7080231B06C41807E0C6
:1071B00001990091002B03D00131009101990B70CE
:1071C000FF21C905081C019B20400993231C88420C
:1071D0001FD12023079A00991A40131C64024E22E3
:1071E000CD1C002C09D100985A40492142704622FA
:1071F000594053400170837007E000991A430A70A8
:1072000041214B4000994B708A7000232B70019BE9
:10721000D0E1002F00DA0627551E0099019A521A74
:10722000AD182022079911430291672903D1002F3D
:1072300012D1012710E0002B1DD1029B662B0DD12E
:107240007B1CAB4200DBAF1E6623039300237D1C37
:10725000049305931E1CE9E0002B0CD17B1DAB426F
:1072600000DBAF1F029B652B00D0CDE003933A3BC0
:1072700000250493CCE0B64A934271D8201CB5494E
:1072800012F0D6FD431E9841002620233030059091
:1072900004930396B04B211CF05812F0BFFD002858
:1072A0000AD0049A039B944663440393AB4B201C7F
:1072B000F15813F0EBF9041C049B04365B100493A3
:1072C000182EE7D12D230493A14B039EA34213D381
:1072D000201CA04912F0ACFD002804D0002E09D1DA
:1072E0002B23049306E0201C9D4913F0CFF90136AF
:1072F000041C01E0FE24A405029B662B03D0672B2F
:1073000024D1042E22DC6A46009B127D1A70029B57
:10731000672B01D1731EFF187B1CAB4200DBAF1E35
:10732000002F00D155E12E23009A3D1C5370131CF1
:107330000233013E0093002E6DD0002D04D0302288
:10734000013D1A700133F4E7049565E06B1FBB4201
:1073500000DD48E1029A672A63D0AF1F131C62E088
:1073600000262023039604937C4B211CF05812F036
:107370004BFD00280AD0049A039B94466344039370
:10738000754B201CF15813F081F9041C049B043642
:107390005B100493182EE7D1201C7149039E12F054
:1073A00047FD002805D0201C6E4913F06FF9013607
:1073B000041C029B662B0AD1AE420BDAF31901338F
:1073C000AB421ADBAD1BAF1E17D56F1E15E0029B3B
:1073D000652B05D16B1FBB4200DDEDE0AF1FEBE07D
:1073E000029B672B00D00CE13B1DAB4200DB6F1F03
:1073F000BE4200DBE7E0F343FF180023BD1904930E
:10740000013505966633DCE00025029B0495039365
:1074100005952E1C0AE0049601235B420593673311
:10742000CFE01F1C029B002503930595FB43DB1750
:107430001F40039B652B01D17D1C06E0039B672B3E
:1074400003D13D1E01D101252F1C00230693069B6D
:10745000AB4225DA201C13F0C9FB009B009A0133D4
:107460000893031C30331370059B069A934207D18F
:10747000002F05D0009B009A023308932E235370EF
:1074800013F0D4FB011C201C13F032FA344913F022
:10749000FDF8069B041C01330693089B0093D6E776
:1074A000029B009D662B02D1012E62DCA1E0201C14
:1074B0002D4912F0BDFC00283FD0009B013B1A78FB
:1074C0002E2AFBD0111C3039092902D9013301932E
:1074D0000AE0392A03D0013201931A7004E0302205
:1074E0001A70019A9342E9D1019B1B78302B1CD171
:1074F000019A52782E2A0BD10399662908D0019956
:107500004B70049B0A702D2B01D1013E00E0013627
:10751000009D01352B1C019A934204D95A1E117803
:107520001970131CF7E731231370094B9C4204D8E0
:10753000039B663B5A425341FF1A029B672B18D1AB
:10754000002F16DD6B1E1A78302A0FD11D1CF9E7AB
:10755000FFFF7F3FF8FF7F3FB4D802009CD80200B6
:1075600000002041CDCCCC3D0000A0402E2A00D10F
:107570001D1C049B002B1AD02023079A0A211A40B5
:10758000131C452213432B706B461B7C301C6B7005
:1075900012F0EEFA0A2112F0D1FB3031A970301C42
:1075A0000A2112F0CBFB2C1D3031E970251C002381
:1075B0002B70099BE81A2BE02B23002504930595DB
:1075C0003A33039332E7672303933C3B002504934C
:1075D0002BE7009B04970133009301235B42059343
:1075E0006733039303E0029B039300230593002575
:1075F0001FE7201C074912F01BFC002800D05CE7A5
:10760000B7E7029B002503932B230595049310E70E
:107610000BB0F0BD0000A04008B50B1C02495A6831
:107620001BF0C2FA08BDC0461445030070B5151C16
:1076300012680C1C8368002A09D1CC000621181D91
:10764000214300F0F5FE00281ED043681BE01A79A4
:10765000181C92070BD50D4A934215D10C4E736C32
:10766000002B03D101201BF04AFB7064706C0621D3
:107670006A68E4002143002A02D11BF083FB01E089
:107680001BF076FB00232B6070BDC046B8F60200ED
:10769000882E0020F8B50625C3001D43071C291CB1
:1076A0000C48012200F0C4FE061C4068002810D1DE
:1076B0000C301CF032FB084B041C036047600120B7
:1076C0001BF01DFB6E21A0602A1C1BF051FB201C2F
:1076D0007460F8BDAC2E0020CCD8020008B502487A
:1076E0000321F9F7C9FE08BDA82E002010B50C1C17
:1076F0000621C00001430122024800F099FE4460C7
:1077000010BDC046AC2E002073B50625C3001D4336
:10771000061C291C0F48002200F08AFE041E17D107
:10772000221C0D48291C00F083FE041E11D0606845
:1077300008216A4604F0D6FF009B002B08D00020E9
:107740006A46011C1EF0B7FD301C6168FFF7CEFFD2
:10775000606876BDAC2E002008D9020010B510205C
:107760001CF0DBFA041C034B08C01CF0D2FE201CEA
:1077700010BDC046E4C1020038B5052827D80D1C4D
:1077800012F048F905250D03141C081C20E0081D03
:107790001CF0EBFF031E0F481AD00F4818E0081D1D
:1077A0001DF002FB01214000084311E0FFF7D6FF66
:1077B000291D041C04301DF00EF806E0FFF7CEFF73
:1077C000291D041C04301DF016F8201C00E00020C8
:1077D00038BDC04670C10200B4C1020038B5051CF6
:1077E00083070CD1104B02689A4208D1FFF7B6FF0D
:1077F000041C291D04301CF0E3FF201C12E0281C8F
:10780000FCF7BCFBC0231B06984205D18020002159
:10781000C0051CF0F2FA05E0C317C0185840012358
:107820004000184338BDC046E4C1020038B5051C0D
:1078300015F024FD012802D10F48104903E000286B
:1078400005D10F480F4909F021FFF8F7E4FC281C87
:107850001BF009FD002806D1281C13F0C7F90124EC
:107860004000204307E0FFF779FF041C291C043087
:107870001CF0CEFE201C38BD54FD02002245030042
:1078800028F802003B45030007B5C30701D54010A7
:107890000DE0043001A902F055F8002801D001984C
:1078A00005E00349034820F0D4F9F8F7B4FC0EBD15
:1078B0005445030054FD0200F0B58DB00190012045
:1078C00008400D1C171C041E07D04B1003A802A96A
:1078D00002221CF05DFE03AE08E003230B4065D1DD
:1078E0009A4A0968914200D025E12E1DFB0707D571
:1078F0007B1003A802A902221CF04AFE03AD1AE085
:1079000003231F4205D1914A3968914201D13D1D9F
:1079100011E03B40022B00D011E18D4B3B40062B88
:1079200000D10CE1301C1DF092FA3A1C011C0198A8
:1079300003F068FC08E1019B092B01D0162B16D13E
:10794000281C1CF012FF00283DD1301C1DF07FFACE
:10795000041C281C1DF07BFA011C201C12F0A4FC46
:107960000323022498437B4B0443E018ECE0019B83
:10797000182B00D9BAE0FFF7F1FE041C019812F0B1
:1079800049F86A706476760D10171DDC478E946A8C
:10799000706476760D10171DDC478E00201D311C9B
:1079A0004FE0201D311C2A1C1CF0F7FF201CCBE0EF
:1079B000201D311C2A1C1DF031F9F7E7281C1CF092
:1079C000D4FE002802D06448644957E006A8271D69
:1079D0001CF09FFD321C2B1C381C06A901F05CFE1C
:1079E0002A7833785340DB070ED506A81CF0BDFE7D
:1079F000002809D1012109A849421CF0BFFD381C0B
:107A0000391C09AA1CF08EFF06A81CF08EFDCDE7DC
:107A1000281C1CF0AAFE0028D5D109A8271D1CF09F
:107A200078FD321C2B1C09A8391C01F035FE09A871
:107A30001CF07BFD2A7833785340DB07B6D5381C21
:107A4000391C2A1C1CF06EFFB0E7201D311C2A1CBB
:107A50001CF0EBFFAAE7201D311C2A1C1DF065F865
:107A6000A4E7201D311C2A1C01F0A2FD9EE7381C52
:107A7000FFF70AFF021E05DA39483A4920F0E9F813
:107A8000F8F7C9FB019B201D311C032B01D0102BE3
:107A900002D101F021FD89E71CF0E4FE86E7201DFC
:107AA000311C2A1C1DF03DF980E7281C1CF05DFEEE
:107AB000002888D1FFF752FE271D0190321C2B1C95
:107AC0000430391C01F0E8FD2A7833785340DB0795
:107AD00004D5381C391C2A1C1CF024FF019B09A961
:107AE000022009930A9409F02DFC2DE0301C291C7A
:107AF0001CF040FE019A031C193A0020042A23D8E6
:107B0000101C11F087FF0307130B0F001648002B02
:107B10001ADA0EE01448002B0BDC15E01248002B9B
:107B200012DC06E01048002B03DA0DE00E48002BB3
:107B30000AD10E4808E0181C06E0002004E0019875
:107B4000291C3A1CFCF782FD0DB0F0BDE4C1020017
:107B5000070080FF0000808084FC02008145030054
:107B600028F8020092450300B4C1020070C102006F
:107B7000F7B52E4B2E48191CFC31CA6B824254D9E2
:107B8000043ACA63191C1268A4310F68501C840897
:107B90003E5D051C032425406D002E41811A3440B2
:107BA0000130022CF3D0AC331B6812019B18090181
:107BB000019389080029DCD0019B1B681A072FD18B
:107BC0001A48041CAC342468A34229D3051CB035E0
:107BD0002D68AB4224D2051C1B1BDC17240FE318B5
:107BE000A4351B112E689C0836191D1C0324254042
:107BF0006D00AC46377862463D1C15412540012D8D
:107C00000ED194403C433470061CFC36F46B094F93
:107C1000BC4203D2201DF063236001E0B430056054
:107C2000019B013904330193C4E7F7BD882E00207E
:107C3000402F0020C02F00200F23994370B5061C51
:107C40000D1C081A412111F003FF104C021C231CCB
:107C5000A8331860231C211CA4331E608301EB1A77
:107C6000AC310B60231C301CB03300211D6023F0AD
:107C7000DCFA221C0023FC325364221CFE32D38720
:107C800001223F33FF33E25270BDC046882E0020F0
:107C9000024BFE33DA8F0132DA877047882E0020DC
:107CA000024BFE33DA8F013ADA877047882E0020C4
:107CB000034BFE33D88F431E9841C0B27047C04675
:107CC000882E0020F7B5002400900191019B9C4272
:107CD00038D0009AA300D3581A072FD11A4A111C82
:107CE000AC3109688B4229D3101CB0300068834244
:107CF00024D2101C5B1AD917090FCB18A4301B1102
:107D0000066899087618181C03210840400084462C
:107D100037786546381C2841084001280ED1A94013
:107D200039433170161CFC36F16B084FB94203D24F
:107D30000A1DF2630B6001E0B4321060FFF718FF18
:107D40000134C3E7F7BDC046882E0020C02F0020B5
:107D500008B5FFF79DFF06480022031CB4331A60E4
:107D6000031C044AFC332621DA63FFF7ABFF08BD8E
:107D7000882E0020402F0020F8B52C4C0025221C16
:107D8000B4321368AB4221D0231C1560284AFC335F
:107D9000DA63231CA8331B689B009D42EDD2221C92
:107DA000A4321268AB08D15C03232A1C1A4052008B
:107DB00011410B40032B07D1221CFC32D36B191D40
:107DC000D1631D60FFF7D4FE0135E2E71E1C221CC3
:107DD000A83212689200934221D2211CA431096872
:107DE0009A088A18032011781F1C0D1C07407F0079
:107DF0003D410540022D05D0854209D0012D0CD111
:107E00002E1C01E0002E08D0B8408143117004E020
:107E10000220B8400026814311700133D7E70023C8
:107E2000FC346364FFF73CFFF8BDC046882E002099
:107E3000402F0020274AF0B5131C111CB033AC3181
:107E400009681B685B1A111C03600023A8310C68C9
:107E5000191CA432156843608360C36003614361E9
:107E6000A400A1422FD08A08AE5C032294460A40A7
:107E70005700321C66463A413240012A12D8012B83
:107E800003D1C6680136C66004E0022B02D1066940
:107E9000013606614669B34200D94361012A0CD01C
:107EA000002A06D0022A0CD1426801330132426016
:107EB00007E083680133836002E043680133436075
:107EC000131C0131CDE743681B01436083681B012C
:107ED0008360F0BD882E0020F7B5404D0F302B1C7D
:107EE000FE33DC8F0609002C01D0002075E0002E47
:107EF000FBD09F235B00E95A4B4259412B1CFC33BA
:107F00005A6C2B1CA8331B6801932B1CA4331868D4
:107F1000019B9A4228D2835C9F0704D10134B4426A
:107F200002D3920026E000240C273B4205D1013405
:107F3000B44203D3920001321CE0002430273B42BC
:107F400005D10134B44203D39200023212E000247E
:107F50003F27BB4305D10134B44203D3920003321F
:107F600008E000240132D3E70029BED1FCF758FE17
:107F70000121C3E7131B591C012C04D12E1C541CD6
:107F8000FC36A40874648C080019032401260C40F4
:107F90006400A640341C06780233344304709342D4
:107FA0000FD82C1CA4342468980824180320022617
:107FB000184040008640301C267801333043207042
:107FC000EDE7AC352C680B010132E418521A1201AE
:107FD000201C002123F029F9201CFEBD882E002042
:107FE000224B70B51A1CFE32D28F002A3DD10207F7
:107FF0003BD11A1CAC321268904236D3191CB031F6
:108000000968884231D2801AC217120F10181A1C40
:10801000A432001112688108555C041C032214402C
:10802000640025412A40012A1FD11A1CFC32546CDD
:10803000A14200D251641D1CA4352A688408141979
:108040000322011C161C114049008E40311C267869
:1080500001308E4326702C688108645C011C11403D
:1080600049000C412240022AE5D070BD882E002034
:10807000031C0F2070B518402AD1164A111CAC31D0
:1080800009688B4225D3141CB0342468A34220D243
:108090005B1AD917090FCB18A4321B1115689A085F
:1080A000AC5C191C0322114049000C412240012AFA
:1080B0000FD15A1C91086E5C141C03210C40640003
:1080C0002641D01A314001320229F3D0000100E0EC
:1080D000002070BD882E0020F0B55B4F051C3B1CB6
:1080E0000020FE33DB8F85B0834200D0A9E00192EF
:1080F0000E1C854204D1081C291CFFF7EDFEA0E0F0
:10810000002900D199E00F22181C2A4000D098E0E5
:108110003B1CAC331B68101C9D4200D291E0391C03
:10812000B03109688D4200D38BE0EB1AD917090FE3
:10813000C9183B1CA4331B680911009300988B08D5
:10814000C35C0324081C204040000341101C1C4059
:10815000012C76D1331C9446A83738680F33800041
:108160001B0902904F1C029A97421AD20098BA0833
:10817000825C381C039203221040039A40000241A3
:10818000101C03221040022801D1013407E000280E
:1081900007D101229444624612199A4201D2013752
:1081A000E1E7A3423AD01AD2CB181E1C0C1926497B
:1081B000A6420DD0A4310F68B208BF180320321CAC
:1081C0000240520090403A78013682433A70EEE71E
:1081D000FC314A6C9B08934220D24B641EE06246FD
:1081E000A21893421CD86218C81882420FD21648AF
:1081F0009608A4300068022786190320104040002A
:108200008740381C3778013238433070ECE71A1B4E
:10821000240112012819002123F007F8281C10E07E
:10822000019800280DD0301C0021FFF755FE061ED6
:1082300007D02201291C22F0DBFF281CFFF7D0FE0B
:10824000301C05B0F0BDC046882E002010B58AB0A5
:1082500004A8FFF7EFFD069B094C03930093049AD3
:10826000059B201C07491AF09FFC099B201C0393C7
:1082700000930549079A089B1AF096FC0AB010BDB6
:1082800090B90200A7450300CA450300F8B53F4D69
:108290003F4E2B1CAC33301C3E491A681AF084FC4C
:1082A00000242B1CA8331B689B009C4224D2A206EE
:1082B00032D12A1CA4321268271C94466146BA089F
:1082C000895C03203A1C024052001141014202D154
:1082D00001379F42F2D33A1B7F2A12D99209301CF0
:1082E0002D491AF061FC3C1C3F239C432B1CA833F6
:1082F0001B689B009C4204D3301C28491AF088FB61
:10830000F8BD2A1CAC3212682301D2181203120BDA
:10831000301C23491AF048FC2A1CA4321268A30816
:10832000D15C0322231C13405B0019410B1C13403A
:108330007132022B23D0073A032B20D02E22012B9F
:108340001DD12B1CAC331B682201D3581549542274
:108350008B4214D01449083A8B4210D01349083A82
:108360008B420CD0124902328B4208D01149043A98
:108370008B4204D010490B328B4200D01B32301C90
:108380000E491AF011FC01348BE7C046882E0020FC
:1083900090B90200FE450300194603000947030097
:1083A0003546030080F7020088CA02002CBC020098
:1083B00054E002004CDB0200CCD80200CC260300C3
:1083C00030B5072402784160A243053C2243027085
:1083D0007F22039C05882240D400034A83602A4000
:1083E0002243028030BDC04607FCFFFF10B50724C2
:1083F00003782140A34319437F2301700499048823
:108400000B40D900084B426023400B430380039B81
:1084100004685B05D90A054B23400B430360029BAC
:108420008360059BC36010BD07FCFFFFFF03E0FFF7
:10843000F0B5067887B0B30702D5002A00D0F2E085
:10844000F307DB0FDBB20293002B0ED0774B0B4010
:10845000062B0AD003230B4003D1754C0D68A542AF
:1084600002D0012A01D0DEE0029301920D1C041C0F
:10847000730749D503688768DE08F600BE19B7425E
:1084800011D23868A84204D1019B022B00D0A1E090
:108490009EE0029B002B04D1291CFBF71DFD002848
:1084A000F2D10837EBE7019B012B00D0BBE023683A
:1084B000D9086368994210D104316160A068C9008D
:1084C0001BF041FC23686268DB08D21ADB00A06065
:1084D000D200C018002122F0A8FE07222068C3089D
:1084E000591CC90002400A432260A268DB004F49C0
:1084F000D3181D60181C0D40062D00D194E00121F9
:1085000022788A4322708FE04368002B05D1019BBB
:10851000012B00D087E000F08DF8444B2B400493F2
:10852000062B04D1E8081DF05CF8039005E002205A
:10853000291C03F0EFFF431003930398616811F0C7
:108540000DFB002600910591009BDF00A368DF1959
:10855000386800281AD1019B311C012B63D1206897
:10856000C3080133DA000723034013432360002EBE
:1085700000D1391C00234B60049B0D60081C062BA6
:1085800052D001222378934323704DE0042803D175
:10859000002E21D13E1C1FE0A84203D1019B022BDB
:1085A00018D108E0029B002B16D1291CFBF794FC84
:1085B000002811D0F2E723686168083B2360009827
:1085C000013011F0CBFAA368C900CB58002B00D0C2
:1085D00004233B60381C27E000986168013011F0EB
:1085E000BDFA059A00919142AED1019B012B1AD19F
:1085F000002E0ED023680833236000237360049B91
:108600003560062B03D02378019A93432370301CE6
:108610000AE0201C00F00EF80398616811F09EFA41
:108620000091059190E7002007B0F0BD070080FFA2
:108630001CC00200F7B54368041C0193591C0023B9
:10864000174A9A588A4205D204335C2BF8D1012587
:108650000D4300E0151CE800A7681BF070FB072322
:1086600022686560134001223D1C002623601343ED
:108670002370A060019B9E420DD02968002907D07D
:10868000042905D0201C0122FFF7D2FE6B6843604D
:1086900001360835EEE7381C1BF066FBF7BDC04617
:1086A000C4D902000022F8B50768051C8668781C4A
:1086B000114BD358834205D204325C2AF8D10123EE
:1086C000184300E0181C002428606C6080001BF038
:1086D00036FBA860BC420BD0A300F158002905D09E
:1086E000042903D0281C01221BF006FD0134F1E708
:1086F000301C1BF039FBF8BDC4D9020010B5041CB6
:10870000081C1BF0A5FD031C002C04D0012C07D174
:108710004000204305E00348002B02DC024800E053
:10872000002010BD70C10200B4C1020070B54568E0
:10873000C668846810201BF0F0FA034B4560C660E1
:108740000360846070BDC0465CDA020038B50D1C61
:10875000041C6A680749AB681AF026FAEA68201C0C
:10876000012A03D104491AF053F902E003491AF02F
:108770001BFA38BD3D4603001D4003004A46030076
:1087800030B5041C87B00020042A30D1201C0D1CF9
:108790001BF05EFD011CAB071DD1164B2A689A42E7
:1087A00019D1291C03AA02F04FFF10201BF0B5FAC3
:1087B000114B039A0360E36861685A4352184260A0
:1087C000049A111C5943019262688A188260059AC2
:1087D0005343C3600BE0002320682A1CFBF7A6FC70
:1087E000E36858436368C01801234000184307B08A
:1087F00030BDC04628C1020020DA0200F0B583690E
:1088000099B05A1E04925A1D9200821804320791A0
:1088100002920F21012206339B00C31804330393F5
:108820000369019006A81A4009180A7003229343AD
:108830000A930CA8F7F7D4FC031E01D000F08CFDBE
:10884000019A5568D468079A002A26D02A785E2AA9
:1088500023D00798079300F0BEFCAB786A781B0220
:108860001343B84AEB189B186360EB780834236015
:1088700023685A0600D1B1E20A9A013B5268920776
:1088800000D49FE2221C08C205236360141C0A9BCB
:108890001F680A9B0C3B0A933D1C019B6F1C5D608B
:1088A0002B78181C10385A2801D900F005FD11F05A
:1088B000BBF85B005D006200030564000305730004
:1088C00081008700030589009E00AF00BE00CD0037
:1088D000DB00EA00EF00F70005011901290138016A
:1088E00055015E0171018901960103050305030528
:1088F0000305A301A5011A05AC01B201BC01C40125
:10890000D101DE01E901030503050305F901260292
:108910009C029C02B902CF02D302E602E602D4FF17
:108920000305030503050305030503050305030507
:108930000305F20204031503260334033D03520327
:1089400063037B039703A90354048004A7049504DD
:108950000305C003CC03D703E003F0030B0420049A
:108960003C04DE04EE04FE04774B00E0774B6360CA
:10897000043400F0E5FC764BF9E76B785B06DB1717
:108980007F213A78DB01114052B20B430137002AB4
:10899000F6DB5B0001220BE000237F213A78DB014C
:1089A000114052B2CB180137002AF6DB0622DB0059
:1089B0001343DCE70323FD1C9D432F1C08CFD6E7A0
:1089C0000023D4E700237F213A78DB01114052B223
:1089D000CB180137002AF6DB9B005B42029A9858BD
:1089E000002800D049E25B485B4900F05CFD0023B1
:1089F0007F213A78DB01114052B2CB180137002AAF
:108A0000F6DB029A9B005B4298581AF0D8F8E7E729
:108A100000207F223B78C0011A405BB2101801375A
:108A2000002BF6DB251D03F019FD00F03EFC0020B5
:108A30007F223B78C0011A405BB210180137002B2F
:108A4000F6DB251D03F0D8FC00F02FFC00217F226F
:108A50003B78C9011A405BB251180137002BF6DB95
:108A600020681DF036FC26E200217F223B78C901F8
:108A70001A405BB251180137002BF6DB2068221C2C
:108A800003F060FE74E7251D03F000FD00F00DFC0F
:108A9000251F286821680422FBF7FCFB00F036FC48
:108AA00000237F213A78DB01114052B2CB18013705
:108AB000002AF6DB9B005B4200F012FC00237F21C2
:108AC0003A78DB01114052B2CB180137002AF6DBAD
:108AD000029A9B005B4298582168251F1AF071F892
:108AE00000F015FC00207F223B78C0011A405BB2E9
:108AF00010180137002BF6DB2168251F03F0DAFC84
:108B000000F005FC00207F223B78C0011A405BB2D8
:108B100010180137002BF6DB2168251F03F0E2FC5B
:108B2000F5E300217F223B78C9011A405BB251185E
:108B30000137002BF6DB231F20681A6803F02AFE9A
:108B400007E2C0460380FFFFB4C1020044C2020036
:108B500070C1020014FA020050460300231C221FB9
:108B6000083B106821681A68FBF794FB3BE100237F
:108B70007F213A78DB01114052B2CB180137002A2D
:108B8000F6DB029A9B00D31A1A68002A00D12AE762
:108B900000223EE000257F223B78ED011A405BB2C7
:108BA00055190137002BF6DB029BAD005D1B2868D1
:108BB0001AF005F8002800D115E7286800211AF0FE
:108BC00000F8BDE300207F223B78C0011A405BB271
:108BD00010180137002BF6DB03F078FCB0E300201F
:108BE0007F223B78C0011A405BB210180137002B7E
:108BF000F6DB03F083FCA3E32368B8E62368A360F5
:108C0000231F1B68636008349AE3231F19682268D6
:108C100021601A6094E3221F136821682360231CDB
:108C2000083B1868106019608AE3AB786A781B0209
:108C30001343ED18D94BEF1882E3AB7820686E78B8
:108C40000593FBF7DBFAEF1C251F2C1C002800D135
:108C500076E321E0AB7820686E780593FBF7CEFAD7
:108C6000EF1C251F2C1C002800D069E314E0AB7812
:108C700020686E780593EF1CFBF7C0FA002800D13E
:108C800031E309E0AB7820686E780593EF1CFBF7C1
:108C9000B5FA002800D026E3059B1B021E43C04BFB
:108CA000F618E8E0261C27681721381C221C083615
:108CB00003F048FD381C1621321C03F043FD002050
:108CC000321C011C1DF0F7FAAB786A781B021343C3
:108CD0000A9A0F210C320A920A9AEF1CFB181360B1
:108CE000022206ABC9180A9D0B781343221D1343B9
:108CF0006B6000230A9A0B709360A0600DE0261C45
:108D00002568A84B083E9D4209D16560A5600320F7
:108D10000021321C1DF0CFFA3560341C10E3012114
:108D200029402CD06D10231F012D10D1251C1A684D
:108D30000C3D05929B4A03201A600021226062606C
:108D40002A1C1DF0B8FA059B2B60032315E0251C97
:108D50003268103D05921A6803200692914A00215C
:108D600032601A6022602A1C1DF0A5FA059B069A43
:108D70002B60231C0C3B1A6005233360E9E0336849
:108D80003560251C103D23602A1C03201DF093FA3A
:108D9000FBF734FA00280DD00122824B06A92B6084
:108DA0000A9B5B6813400E32521813700A9B0C3BEF
:108DB0000A93ACE223682B60231C043C22680C3B22
:108DC0001A60AAE70A9A06A8516801220A400F21F0
:108DD00009180A700A9A0C3A0A924AE5221F176883
:108DE000002B00D1B5E00C3CAAE2AB786A781B02FC
:108DF00013430A9AEF1C0C320A920A9AFB1813606A
:108E00002B780A9A403B584258410F21430006A84C
:108E10000918087803432343536000230A9A0B7010
:108E200093608DE2206808F079FC251F002803D0AC
:108E3000F7F7ECF92B6817E223685A4A2C1C934287
:108E400000D17DE25B10DBB2012B00D010E592E196
:108E5000206803F0C3FC2EE0AB786E780593019B8D
:108E6000EF1CDC60206803F0E1FC002805D1059BC5
:108E7000043C1B021E43BF1962E2606078E50A9B56
:108E800006A95A68012313400F22521813700A9B37
:108E90000C3B0A9354E200207F223B78C0011A4029
:108EA0005BB210180137002BF6DB8300E41A0434A0
:108EB000211C08F047FA206042E200207F223B7824
:108EC000C0011A405BB210180137002BF6DB83009B
:108ED000E41A0434211C1AF093FEECE700237F21EE
:108EE0003A78DB01114052B2CB180137002AF6DB89
:108EF0009B005B4218592168FDF740FBF3E100201D
:108F00007F223B78C0011A405BB210180137002B5A
:108F1000F6DB251D19F0F3FEC7E1251C231F083DD4
:108F2000286821681A6819F023FFF0E100237F21E7
:108F30003A78DB01114052B2CB180137002AF6DB38
:108F400001339B005B42221F18592168126819F0F7
:108F50000FFF083CF4E100207F223B78C0011A405B
:108F60005BB210180137002BF6DB8300E41A0434DF
:108F7000211CFCF70DF89EE700237F213A78DB01E6
:108F8000114052B2CB180137002AF6DB9B005B423E
:108F9000185921681AF07CFAA5E1C0460380FFFF4A
:108FA0000080FFFF44C2020000237F213A78DB01EA
:108FB000114052B2CB180137002AF6DB251F022BD5
:108FC00005D128682168D34AFAF77CFA9EE1261C6D
:108FD000083E306829682268FAF774FA30609CE627
:108FE00000257F223B78ED011A405BB2551901370D
:108FF000002BF6DB291C2068221C03F061FFC64B06
:10900000ED1813E000257F223B78ED011A405BB29A
:1090100055190137002BF6DB291C221C206803F0B0
:10902000A7FFFF232A0A1A401D405519AD006419F5
:1090300086E103230021FD1C9D4328680A1C1AF0C9
:10904000EDFF2F1D261D606067E60323FD1C9D4379
:10905000261F2868316822682F1D1AF0DFFFBDE740
:109060000323FD1C9D4329796F1D8B00E41A0434F2
:109070000AE00323FD1C9D4329796F1DCB439B0010
:10908000E41880235B0019432868221C1AF0E1FFD2
:1090900011E700237F203978DB01084049B2C3186B
:1090A00001370029F6DBFF20FF22191CDD094000F3
:1090B0001140284040188000241A1B0A1A402068DA
:1090C000231D03F091FAF6E600217F223B78C901C7
:1090D0001A405BB251180137002BF6DBFF23CA0997
:1090E0005B001340CAB29B189B00E41A083C0020A6
:1090F0002FE000237F203A78DB01104052B2C318E2
:109100000137002AF6DBFF25181CFF22DE09284064
:1091100052003240411C891889001B0A641A2B40F6
:10912000191C221C1DF0C7F8C5E600217F223B78E0
:10913000C9011A405BB251180137002BF6DBFF233F
:109140000120CA095B001340CAB29B189B00E41AB5
:109150000C3C221C03F08CFDADE60F2206ABD218AE
:109160001378002B07D00A9B596801230B4013701A
:109170000A9B0C3B0A930A9B039A934213D30A9BC4
:109180005B689B07F4D503220A9B21685B689343C5
:109190001C1C59609A600A9B08341F680A9B0C3B90
:1091A0000A93FFF779FBF7F731F8019B0020DC60A9
:1091B0007DE16B78022B01D1043C0BE0002B09D13F
:1091C0000A9B039A934200D26BE19868002802D16F
:1091D0000C3BF6E7206803F0C9FF66E1079E2168B3
:1091E000231F002E02D00021079E07911868321C11
:1091F0000BAB03F04DFF012811D12F1C0B9B2360FB
:10920000F7F704F8019B06A95F60DC600F235B1889
:109210000A9A1B7801201343019A136147E1002841
:1092200006D10B9B043C002B00D13A4B23600CE091
:1092300002281BD10B9839491EF015FD002810D0CB
:109240000B9808F003FA043C2060002E78D0301C04
:1092500033491EF008FD002872D0F6F7D7FF0D96AF
:109260007AE0F6F7D3FF0B9B0D9375E0043C0020EA
:109270007F223B78C0011A405BB210180137002BE7
:10928000F6DB251F21682A6803F08EFF3EE00021EF
:109290007F223B78C9011A405BB251180137002B7D
:1092A000F6DB251C01CD03F091FF60602FE0206804
:1092B000251F1DF019F82AE0AF2B05D80120803BAF
:1092C0005B000343FFF753FBBF2B04D8B020C31A46
:1092D0009B00FFF783FBCF2B07D8C020C31A9B004E
:1092E000029A21689950043C2AE0D62B05D8D03B3D
:1092F000181C216803F00EF9DDE5FA2B12D8251FA2
:10930000D73B181C2968226803F0F6FA28602C1C49
:1093100016E0C04644C20200FFFFFF3FD4FA02003D
:10932000CCFD0200634964481EF093FC041CF6F770
:109330006DFF049B019A06339B00D3185C60AEE07E
:109340005E4B1A6B002A01D1FFF7A6FA00221C6BB4
:109350001A63F6F75BFF0D940D9B5949186804F0EA
:1093600071FD002825D0019B5A68002A21D013786E
:10937000432B0BD19378D11C52781B021343019AD3
:10938000CB185360D3680593043B7EE05E2B10D16D
:10939000019B019ADC680D98231DD36008F056F9F3
:1093A000019B60605B68019A059301335360FFF78E
:1093B00040FA0D9B434A93423CD0434A934239D0F2
:1093C000019B0BA81B6805930B931AF09DF8051CD5
:1093D0000BA81AF099F8041C0BA81AF095F8019B39
:1093E000011C5B680593019B1B680693069A059B0D
:1093F000981A0122401B0B9D2B78002B12D0DE09FE
:1094000004D11F361E4001355B0908E00F26E02716
:109410001E40FF001B011F406B7802353B430B953C
:10942000B04204D20D98231C08F09EF902E0801B84
:10943000D218E0E70F2306AA9B181A78002A08D052
:109440000A9A516801220A401A700A9B0C3B0A933F
:10945000F0E70A9A03998A421AD301221A700A9BEA
:109460000D991B680593059A019B05915A6003228B
:109470000A9B5B6893430A9A9160144A5A600D9A5A
:109480009A6012680C331A60019AD360FFF7D1F921
:10949000049B019A06339B00D3180D9A5A60022050
:1094A00005E00B480B491EF0D4FB041C51E719B032
:1094B000F0BDC0467C460300C0FC0200882E0020A0
:1094C000D4FA0200E4F8020044FE020044C20200A2
:1094D00064F8020096460300F0B50E1C496885B09A
:1094E000041C151C002901D0002A04D1201C311CA9
:1094F0001BF025F858E00F321309591800931AF0A1
:109500008EFF0F22A368B16870682A4000D1103224
:10951000009D264F2D18EF197F00DB190393234B75
:109520000190C3185B00CB189C46039B0293002359
:1095300001991027002913D061460988BF1A0B43EF
:10954000191CF9400F1C02991B040F800199013965
:109550000191029902390291022149428C44E7E7C4
:10956000BF1AFB4003994000081A104903808C463B
:10957000009B01995F00C71B023763445A00381CE7
:1095800021F053FE002D06D06B00023BFB5A002B4E
:1095900001D1013DF6E70121656033780B401A1CCB
:1095A00023788B431343237005B0F0BDFFFFFF7F8B
:1095B000F0B54B68151C526887B0061C0C1C934212
:1095C00001D22C1C0D1C0123227861681A4201D1A2
:1095D0002A7813405918301C1AF021FFB3682978F3
:1095E0009C46A3680F1C0193636820780093AB68C6
:1095F000474002936B68059301231A1C1F408B435D
:109600000493009B8243591E6346101C03934B1C1A
:1096100027D0019B1F4A1B889B181818009A059B8E
:109620009B1A5B188B4207D8029B1A4A1B889B180F
:10963000029A0232029200E0164B049A0139D318C2
:109640001A1C424092B2D719039A1B0C0493131CA4
:1096500002330393019B17800233000C3F0C0193EC
:10966000D5E7009B59006144002F02D001230B80F5
:10967000023160461AF0BEFE0121706022782B781C
:1096800053400B401A1C33788B431343337007B09D
:10969000F0BDC046FFFF0000F0B55C6891B0002C43
:1096A00002D144604C6049E1051C0B9353680E1CC9
:1096B000591C069201931AF0B2FE069B00215B68CA
:1096C000A8685A1C5200019321F0AFFD00236B6083
:1096D000069B301C5B68591C01931AF0A0FE301CDD
:1096E00006991AF02CFFB368776802930B9B9B686E
:1096F00003930B9B5B680593AB680893059B9F42A4
:109700000ED310D80298391C039A1AF0CEFE002806
:1097100004D10123089A7060138002E0002802DA65
:1097200000236B60FFE00021059B854A9A18039B8C
:1097300052009B1804931B88019119B2002905DB84
:1097400001995B0001319BB289B2F5E7931C0C9340
:109750000C9A039B9B1800229C46039B63450BD2EB
:10976000198801980C1C844022431A801022121A76
:10977000114102338AB2F1E700227C00029BA01C57
:109780001A531B1801370993029B77600792099AB5
:1097900093420FD21988019A081C9040021C079826
:1097A00010431022188001980233121A11418AB214
:1097B0000792ECE7049B1B880F93029B1C19059BE7
:1097C000FF1A5F4B6F60FF18089B7F00DB1909933E
:1097D0007368059A0A93934260D9A31E20880E935A
:1097E0001B88000418430F9910F032F90C9B0022DB
:1097F000E31A191C039F07900D93A1421AD20798F0
:109800003B88434308888446834202D2C01A904270
:109810000AD860461B1A9A1853420B80130C92B256
:10982000501E8241D21802E0821A0A8000220231C0
:109830000237E2E723889A4208D3D31A5A42190C16
:109840009BB222805A1E93415A180BE09A1A22802A
:10985000002207E02388C018079B2080013B000CF2
:10986000121A0793002A0ED00020039F0D99A142DF
:10987000F0D20B889C463B88023763441818088056
:10988000000C0231F3E76A46099B928B023B5A8037
:1098900009930A9B0E9C013B736099E70023049A8D
:1098A00003998A420FD3049A01981288111C01412E
:1098B0000B4304990B8010231B1A9A4093B2049A0D
:1098C000023A0492EBE71E4A0A9B9446029A6344CA
:1098D0005B00D318002202998B4214D31988019C93
:1098E000081C204102431A801022121B9140023BA7
:1098F0008AB2F0E7124A08999A185200525A002A7E
:109900000ED1013B6B606B68002BF3D108E00C4A71
:1099100002999A185200525A002A04D1013B7360EE
:109920007368002BF3D101210B9B1A78069B1B78DF
:109930005A400A4202D02B780B432B7011B0F0BD75
:10994000FFFFFF7F436830B55A0000238468A218E8
:10995000944207D2084D023AAB420AD815881B043C
:109960002B43F5E70278D20700D55B420B6001205C
:1099700000E0002030BDC046FF7F0000F8B58D1E1E
:1099800000241E2D16D81F1C40680B4B0001595C8B
:10999000151C10F05DF8061CA74204D0013003210D
:1099A00010F056F8041C281E01D021F043FD0336A8
:1099B00034192418201CF8BDB5460300F7B5061C61
:1099C000194D0C1C281C18F0C1F8311C174817F051
:1099D000EBFF174818F0BAF8164818F0B7F8FF234D
:1099E0009B00E61821787F2916D0B44214D0627803
:1099F00050290BD8104B11485F5C114B5B5C0092F7
:109A0000A27801923A1C17F0CFFF03E0A3780D482B
:109A100017F0CAFF0434E5E7281C18F097F80A4845
:109A200018F094F8F7BDC046D6460300034703007C
:109A30000B470300E1470300E89103002C470300B4
:109A4000399203004F470300FF470300F0B51D1C88
:109A500089B006901B48161C079118F077F8291C4E
:109A6000194817F0A1FF194818F070F8184818F0B5
:109A70006DF80024AC4220DA079BA0001818C778C4
:109A8000069BBC463F073F0F195D8278037800971D
:109A900007889B06FF047F0E019767463F090297E0
:109AA000006812090003400E0390305D9B0E049085
:109AB000084817F079FF0134DCE7024818F046F84F
:109AC00009B0F0BDD6460300704703009D47030070
:109AD000CF47030001480300F0B500270D1C85B0F7
:109AE00003901E1C081C104B111C0097022203F04F
:109AF0002DFCA81C80001AF010F9039B041C0360C5
:109B00006B1E3D1C0393436033688360039B9D423F
:109B100007D20135AF00F05902F060FEE719B860D6
:109B2000F4E7201C05B0F0BDFFFF0000F0B5051CF8
:109B300089B002AF0E1CBA603B6008F015FAAB6842
:109B40007B611423F81819F0DFFC14237860F818EF
:109B500019F0DAFC032358437B68C0188300FB60CC
:109B60002C2B0AD86B46F8682A30C008C0001B1A94
:109B70009D46002302ACFB6005E0F8681C301AF03B
:109B8000D9F8041EEED0AA687B69201C9B1A63607A
:109B90007B68321CA3613B68291C0093BB68FBF700
:109BA00003FB184E201C7368002163616B687360AF
:109BB000FEF724FE6369B8607360002802D00228B3
:109BC00003D00BE0E3681D6809E07B6805339B0068
:109BD000E3185D68FB68002B0CD005E00A4DFB68BC
:109BE000002B0AD00023BB60201C1AF0BDF8BB6814
:109BF000002B02D0281CF6F70EFB281CBD4607B030
:109C0000F0BDC046882E002044C202000122031C81
:109C100030B5134085B04510002B4ED128491D1C8E
:109C200088424AD0274B984247D0274B151C984270
:109C300043D00323041C034006D1244A0168914207
:109C400002D11AF026F90EE0214A251C2240062AEC
:109C500005D0002B09D11F4B22689A4205D1201C48
:109C600001A9F8F7C7FB051C27E0201CFAF79CF8B0
:109C7000194B984207D1FF23DB05E01803239843D3
:109C800010F0B4FFEFE7154B984205D1201C694650
:109C900001AA1DF0C2FF0FE0114B984205D1201C14
:109CA000694601AA19F0C4FF06E0201C01A902229E
:109CB00019F08CFA002800D0019D281C05B030BD99
:109CC00044C20200B4C1020070C10200E4C102003B
:109CD000070080FF1CC0020054E0020080F7020071
:109CE00088CA0200F0B585B0051C0E1C02920393D1
:109CF0001F4F002804D043680193002903D125E0B9
:109D0000002903D00190019B581C01E0081C01911F
:109D1000043080001AF001F8164B041C03607B68C5
:109D20004360029B8360039BC360002D07D0291C06
:109D3000201C019B08319A00103021F059FA002EA6
:109D400013D0019B04339B001E510EE0019B181D94
:109D5000800019F0E2FF074B041C03607B6843603E
:109D6000029B8360039BC360E1E7201C05B0F0BD4C
:109D7000882E00204CDB020070B5061C10200D1C44
:109D8000141C19F0CAFF034B466085600360C46071
:109D900070BDC046D4DA020010B5041C08F0C8F843
:109DA000074B021C9C3307491B68074818F0FCFE50
:109DB000FEF74CFA012C01D1FEF768FA034810BDFA
:109DC000882E00202348030090B9020044C20200FC
:109DD00008B5FDF765FF014808BDC04644C2020052
:109DE00008B5FDF755FF014808BDC04644C2020052
:109DF00010B586B0041C03A902A804AA05AB01F0A3
:109E0000C5FB049B07480093059B07490193029AF1
:109E1000039B18F0C9FE012C01D101F0F3FB0348AC
:109E200006B010BD90B902003848030044C20200D9
:109E300008B50368186B00280ED0CB0702D503685D
:109E4000002B09D08B0702D54368002B04D04B07A9
:109E500008D58368002B05D1034904481DF0F9FE9D
:109E6000F6F7D9F908BDC04680480300D8F90200CA
:109E7000F0B5012189B00190FFF7DAFF8021061CBF
:109E8000490004A81CF028FC80240023069D6400DF
:109E9000009303AB0198291C221C3768B847431C68
:109EA0000ED103990B2904D1009B1848002B21D116
:109EB0002AE001234900194315481DF0C3FE14E0B0
:109EC000002817D0009B1B180093A04202D2241A2E
:109ED0002D18DEE7802104A849001CF04CFC051E6B
:109EE00005D10B480B4907F0D1FBF6F794F9802414
:109EF0006400CEE7009B08480593337BDB0700D462
:109F0000064804A9F7F788FD09B0F0BD44C2020075
:109F1000D8F902009F4803001CC00200D4BF020011
:109F2000F0B589B00091041C08680121FFF780FF9B
:109F3000071C012C04D1009B1868FFF799FF98E0DB
:109F4000009B5868FAF71AF8051C431CF3D001244B
:109F50003B7B23426DD0041C291C04A81CF0BCFBD5
:109F600000230193002C62D0211C04A81CF01CFCCF
:109F7000011E04D14049414807F088FB1FE0009BC7
:109F80003E681868221C03ABB047031C061C013353
:109F900017D1211C04A81CF074FC03990B2908D1CB
:109FA000059B0093002B42D104A81CF0BFFB344852
:109FB0005FE001234900194332481DF043FEF6F7E4
:109FC0002AF9A04202D30699059C14E0211A04A89C
:109FD0001CF057FC002EF6D129E0101C1E339843CC
:109FE0001D3BC0280ED1019A9B18A3421BD8013DEE
:109FF000A34216D20193019BCA5C012350B20028F0
:10A00000F1DAEAE7101C0D3398430C3BE028EAD064
:10A0100004339A43131CF03B5A425A4105239B1ABE
:10A02000E1E72C1C9DE7013B5B191C1B9AE71648D6
:10A030001CE0291C04A81CF066FB009B2A1C186865
:10A04000069903AB3D68A847431C09D104A81CF03E
:10A050006DFB03990A480B290BD049002143ABE75C
:10A060003B7B05900848234200D1084804A9F7F734
:10A07000D3FC09B0F0BDC046AD480300A8F802000B
:10A0800044C20200D8F902001CC00200D4BF020082
:10A090007FB50C1C061C08680121FFF7C9FE0222CF
:10A0A000051C01A96068FAF729F9029A022E07D95E
:10A0B000A068F9F763FF029B021E9A4200D91A1C9E
:10A0C0006B462D6820680199A847431C0BD1009965
:10A0D00007480B290AD001234900194305481DF000
:10A0E000B1FDF6F798F801234000184304B070BDA5
:10A0F00044C20200D8F90200F0B589B00191041CF5
:10A1000008680121FFF794FE061C04A8012C08D959
:10A11000019B5B685C10631C03D0211C1CF0DCFA03
:10A1200013E0012410211CF0D7FA64420DE0019BDA
:10A13000391C1868012203AB3568A847431C11D0AD
:10A14000002823D03B780A2B2AD0631C23D104A8F3
:10A1500001211CF029FB071EE9D11649164807F01A
:10A1600095FA11E003990B2908D1059B0193012B66
:10A170000CD104A81CF0DAFA104819E001234900B8
:10A1800019430F481DF05EFDF6F745F804A80121BC
:10A190001CF077FB04E0631E002C01D01C1CD6E7EA
:10A1A000337B0848DB0700D4074804A9F7F734FCE1
:10A1B00009B0F0BDAD480300A8F8020044C2020097
:10A1C000D8F902001CC00200D4BF0200F7B50F1C72
:10A1D0000221041C161CFFF72BFE01AB4568391C3D
:10A1E000201C321CA847431C0BD1019907480B299E
:10A1F0000AD001234900194305481DF023FDF6F755
:10A200000AF8012340001843FEBDC04644C20200C4
:10A21000D8F9020070B5061C0D1C002811DD0029BC
:10A2200006DD15480FF0A4FC0124864213DC11E082
:10A23000C020311C00060FF09BFC012485420ADB84
:10A2400008E0002909DDC02000060FF091FC012480
:10A25000864200DB0024E4B20BE00024A04208D0D8
:10A260000548311C0FF084FC0123854200DB231CD0
:10A27000DCB2201C70BDC046FFFFFF3F10B5041CC0
:10A280000C2019F04AFD034B4460036001235B423C
:10A29000836010BDB4DC0200F0B500240E1C85B054
:10A2A000071C0393081C0D4B111C0094221C03F087
:10A2B0004DF8B01C800019F030FD051C07604660A9
:10A2C000B44208D0039BA700D85902F087FAEF19CF
:10A2D000B8600134F4E7281C05B0F0BDFFFF0000B2
:10A2E000F7B51F1C13780E1C0A3BD9B2051C1F487A
:10A2F0000F2904D850781B0218431BF07CF9152451
:10A30000037801931A4B01331522121B009219781E
:10A31000019A91421CD1427859788A4218D18278A8
:10A320009978914214D100290FD1009B9A00104BCB
:10A33000D45CBC4217D93B1C0E480F49321C07F0B5
:10A34000A5F9AB68002418600DE0C1780029ECD0B5
:10A35000013C0433002CD7D106480849321C07F0D1
:10A3600095F9AB681860201CFEBDC046C92B0300E0
:10A37000B64A030090FD0200214903003A49030058
:10A38000F0B5177885B0051C0E1C992F47D1101C0D
:10A3900001A919F068FA019B021E9A423FD0037886
:10A3A000191C0A390F2908D80F23281C311CFFF764
:10A3B00097FF01238340181C39E0AE2B2FD119F0F1
:10A3C0004DFA041C19F045FA02900378B22B26D1FD
:10A3D000221CA33B311C281CFFF782FF012403A988
:10A3E0008440029819F03FFA039B0290984203D0F0
:10A3F00002A8391C19F046FA029A039B9A420CD023
:10A40000311C0F23281CFFF76BFF012383400298A8
:10A410001C4319F01EFA0290EEE7201C07E00548E5
:10A420000549321C07F032F9AB681860002005B00E
:10A43000F0BDC04690FD020052490300F0B585B062
:10A44000041C0D1C101C03A91E1C19F0E8F9071EA2
:10A4500008D10E480E492A1C07F018F9A3681860A5
:10A460003B1C0FE00398F9F7B5FD021C031CB24337
:10A4700008D00096054807492A1C07F007F9A36889
:10A4800018600023181C05B0F0BDC04690FD020006
:10A490006D4903008549030038B513780D1C0A3B4C
:10A4A000D9B2041C0F2908D92A1C1248124907F0F6
:10A4B000EDF8A368002518601AE052781B021343D8
:10A4C000C2680020904208D025698100495999420C
:10A4D00001D1051C0CE00130F4E722880025042A94
:10A4E00006D11A1C0348054907F0D0F8A368186084
:10A4F000281C38BD90FD0200B1490300C649030085
:10A50000F0B587B0041C0F1C081C04A91E1C019286
:10A510001BF076F8019B051C002B13D1322F03D1C1
:10A52000BF2160690902EAE1482F08D0019BBE48BB
:10A53000BE492A1C07F0AAF8A3681860E1E1606927
:10A54000BB49DCE1019B012B00D08BE0412F09D1FD
:10A55000291C201C3268FFF79FFF011C60691DF059
:10A5600068FC0AE0422F12D1291C201C3268FFF738
:10A5700093FF011C60691DF0B3FC002800D0C0E10E
:10A58000A948AC49A4681DF064FB2060B9E1432FE1
:10A5900009D1291C201C32680F23FFF7A1FE8E2150
:10A5A000C000C901A9E10378622B33D1049B032BBE
:10A5B00007D0052B2ED1C3785F2B2BD103796E2BBF
:10A5C00028D101279C4A6978531C7F422B32187886
:10A5D000884206D1A87884465878844501D1581E0F
:10A5E000077803339342F2D17B1C9FD03268201C42
:10A5F000291CFFF751FF049B021C00266069052BF4
:10A6000003D12B79773B5E425E41331C391C1DF030
:10A610002CFCB2E7462F02D1606988496FE1472FD1
:10A6200002D1606986496AE1442F0BD1291C201CA4
:10A630003268FFF7A5FEFF231B02B421184200D0A9
:10A6400074E70DE0452F00D070E7201C291C32680C
:10A65000FFF796FEFF231B02184200D066E7BC21DD
:10A6600009024AE1019B022B00D0D4E073681B78F9
:10A670000A3B0F2B49D8332F12D1291C3268201CDA
:10A680000F23FFF72DFE291C071C7268201C0F23C7
:10A69000FFF726FE391C021C60691DF0B5FB30E196
:10A6A00000230293342F1BD18027FF01291C32681D
:10A6B000201C0723FFF714FE291C01907268201C40
:10A6C0000723FFF70DFE391C031C019A60691DF07A
:10A6D00094FB16E1029B013302930F2B00D125E777
:10A6E000029B281C9F00574B791C5918032220F00D
:10A6F000A8FE0028EED1EB78002BEBD1514BFF5C8C
:10A7000080233F01DB011F43D0E7332F01D1802796
:10A7100002E0352F13D1A027291C32680723201C03
:10A72000FFF7DEFD291C0190FF23201C7268FFF754
:10A7300085FE019BBF01074319023943DEE0362F36
:10A7400001D1C027E8E7372F01D1E027E4E7002354
:10A750003D4A990050184088874258D18B5A201C96
:10A76000029332680723291CFFF7BAFD766803902D
:10A770003378982B28D1301C19F0B0F8002823D159
:10A78000301C19F06BF803789A2B1DD105A919F02C
:10A790006AF80599071C19F050F8022814D1381CE2
:10A7A00019F057F83A1C0723061C291C201CFFF738
:10A7B00097FD029B071CDB040ED5201C291C321CB4
:10A7C0001F23FFF73BFE17E0174820492A1C06F01D
:10A7D0005DFFA3681860A9E6029B201CDB0B291C07
:10A7E000321C002B04D03E23FFF728FE400803E074
:10A7F0007C23FFF723FE80080399029BFF00194387
:10A800000F43F8218001C9000840391C75E001336D
:10A81000062B9DD18AE6019B032B00D086E6382FBC
:10A8200016D1002718E0C04690FD0200DD49030064
:10A8300030BF00003D4A0300F748030072B6000035
:10A8400062B60000BB4803001E240300124A030046
:10A85000392F1DD180273F01291C32680723201C76
:10A86000FFF73EFD291C019072680723201CFFF7AB
:10A8700037FD291C02901F23201CB268FFF7DEFD64
:10A880000199029B394380010143DB00194335E004
:10A890003A2F02D180277F01DEE7362F01D1C02772
:10A8A00003E0372F00D041E6D027291C3268072368
:10A8B000201CFFF715FD726801900723201C291C3E
:10A8C000FFF70EFDB2687F01137802900A3B0F2B51
:10A8D00005D8201C291C0723FFF702FD07E0802371
:10A8E000DB001F43201C291C0723FFF7A7FD029B49
:10A8F0008001D900019B19433943014360691DF070
:10A9000045FA07B0F0BDC046F7B5061C0D1C002483
:10A910000192019B9D4228D0631C0093052B03D11B
:10A92000B4681348134907E028780A38C3B20F2BDC
:10A9300007D9B4680E4810491DF08BF9206000203B
:10A9400014E06B78000218431AF055FE0235071C1C
:10A9500020F070FD0228ECD13B78722BE9D17B7896
:10A960003034A342E5D1009CD3E7201CFEBDC04695
:10A9700090FD0200514A0300844A0300F8B50D1C03
:10A98000061C141CF9F7C2FE2B1C032733433B4261
:10A990000BD1BC4209D9A208301C291C0EF03AFC8C
:10A9A000231CBB43F618ED183C40002C04D0301C8F
:10A9B000291C221C20F05CFA8023044ADB00D358B7
:10A9C000002BF9D0F9F792FEF8BDC04600E0014037
:10A9D000A0200B4A0B49D36F30B5C0058B4201D183
:10A9E000094C01E0A124E4001D68055118895B6849
:10A9F000D3671B89181A002801DC0B89C01830BDE9
:10AA0000882E0020100000200C05000008B5044A24
:10AA1000044B0220DA6704497822F9F72BFF08BDBE
:10AA200010000020882E0020D1A90000F8B5144B9A
:10AA3000C218144B9A421FD8134B051118681E1CDC
:10AA4000002801D11D8119E01AF01AFDA0220F4B38
:10AA50003168D205D15037897468B44207D0208953
:10AA6000391C68430FF084F820816468F5E725817C
:10AA7000FFF7CCFF002001E001204042F8BDC046B6
:10AA800018FCFFFF583E0F00100000200C050000CE
:10AA9000014B18890001704710000020334BF7B5B7
:10AAA000051C99425ED80120314AA840161C536803
:10AAB000B34205D01F68074204D11A1C5B68F7E750
:10AAC000002310E0C44327401F60A0270194294CB5
:10AAD000FF0538513068019C044034601868002834
:10AAE000EED158685060002081423DD0204A490094
:10AAF000148901316143C912814200D10121081B2F
:10AB0000474247416DB2C91B641A291CA020032685
:10AB1000C131FF318900C0050E500120A840051C3D
:10AB2000161C106851682843A4B21060088991422D
:10AB300004D0A04202D20E1C4968F7E7A04203D11C
:10AB40000B681D430D600BE0002B04D1191C0C2079
:10AB5000FDF7C2F9031C72681D605A601C817360A6
:10AB6000002001E001204042FEBDC046FF0300007E
:10AB7000100000200C050000F7B5002805D13A4967
:10AB80003A4A3B4818F010F86BE00D68281CF9F7BA
:10AB90000BF94368061CEF2B04D16D68281CF9F7EC
:10ABA00003F9061C00233349DA005058854203D1CB
:10ABB0008A182F4851680AE00133602BF3D12C4CDE
:10ABC0002D4B201C9D4201D09E4203D12B4917F0F2
:10ABD0001FFF46E02A4917F0E7FF281C0021F9F77C
:10ABE00017F9201C2749726817F0DEFF264B9E429A
:10ABF00003D1281C19F0BCF80CE0244B9E4200D075
:10AC0000351CA86B00282CD083072AD1204B026862
:10AC10009A4226D118F0BFF80025061EAE4220D079
:10AC200073689D421DD2B268EB00D3181F68002FD5
:10AC300015D05B681749201C019317F0B5FF381C2D
:10AC40000021F9F7E5F81449201C17F0ADFF019831
:10AC50000021F9F7DDF8201C104917F0A5FF013598
:10AC6000DEE70F48FEBDC046AE4303000A4B0300BB
:10AC700090B9020048DD020004130300814F030075
:10AC80009D4F0300A54F0300CCD8020050EE0200F8
:10AC90002CBC0200F9A70300B54F030009470300CD
:10ACA00044C20200F8B5214D2E687368012B3BD9D0
:10ACB000B1685C1E0A5D0A2A36D1002C03DD621ED3
:10ACC000885C0A2801D1221C05E0141CF5E7885C89
:10ACD000202802D101329A42F9D3002C0BDD501CFE
:10ACE000984208D1601E002805D001380F5C0A2F59
:10ACF0001AD0202FF7D0CB18023B1B78141B3A3BFD
:10AD000059425941A4086418013C0DD3084F301C26
:10AD1000391C04221BF0BFFC381C042107F008FF7B
:10AD20002B6904332B61EFE7F8BDC0464C270020A8
:10AD3000F7A7030008B503480021202220F075FA88
:10AD400008BDC046D02E002008B5084B42681860E8
:10AD50000020986018750138D860081C5A601A6184
:10AD600099611DF0DDF9FFF79DFF08BD4C2700201C
:10AD7000F8B50378002B1ED00F4D041CA86C0028DA
:10AD800004D0211C20F04CFB002814D0201C20F003
:10AD900051FB471C381C18F0CDFF061E0BD03A1C87
:10ADA000211C20F025FA054B054A1968043B9960DF
:10ADB0009342FAD1AE64F8BD882E0020E82E002020
:10ADC000CC2E0020F0B5BD4B051C18689E6842686B
:10ADD00085B001921C1C002E00D0C5E06B1E042B18
:10ADE0001BD81BF0C1FC6368984200D163E1012DC0
:10ADF00000D106E1022D0AD00FE09A60412D37D034
:10AE0000422D2ED0432D19D0442D00D0E8E02369E7
:10AE10006268934200D91CE158E1032D00D14AE158
:10AE2000042D06D1206821694368994200D3E0E0EF
:10AE3000FCE0052D00D1EFE0062D06D123685D680A
:10AE40002369AB42AD416D4228E10B2D07D1019B37
:10AE500022692068991A1BF014FD002504E10E2DCB
:10AE600004D1E368002B00DBA1E02FE1102D04D119
:10AE7000E368062B00DC8DE028E1152D0BD123695A
:10AE8000626820689A1A61681BF009FD236962688C
:10AE900000259E1A1DE10D2D0AD189481DF040F9AB
:10AEA00020681BF093FC6368C018FFF761FF14E192
:10AEB0001B2D02D10123A36008E1082D01D07F2DB5
:10AEC0001BD121696268914200D8FFE0131C206801
:10AED0009D1A8B4205D08568ED5C202D06D101338B
:10AEE000F6E70126032D02DD033600E00126891B6B
:10AEF000321C1BF0D4FC0127ADE0092D28D12368BA
:10AF000061689868236940186E4A591A03ABFAF7CA
:10AF1000B3FE061E00D1D9E00025431C0BD1A06969
:10AF20001DF0FEF823686168986823694018591A73
:10AF300007F0FEFD98E023692068E918039B0135BE
:10AF40005A1C03921A781BF08AFCB542F3D18BE0AD
:10AF50002B1C203B5E2B00D9B8E02A1C20682169FD
:10AF60001BF086FC01257FE00022012E07D14F2D2A
:10AF700003D05B2D6BD1023269E0042267E0022E20
:10AF800033D1291C3039092900D936E703221D7530
:10AF90009A609BE05A1C4C4913339B005958002976
:10AFA00000D193E020686368E26043600FE02068AE
:10AFB000013BE36062684368991A1BF062FCE36836
:10AFC000002B06DB1233404A9B00206899581BF087
:10AFD00019FC63682269D61A22685568ED1A78E070
:10AFE000482D0ED0462D71D116E0032E29D17E2D8D
:10AFF00002D000252F1C1EE01B7D312B01D0372BEA
:10B0000005D10025236962682F1C9E1A14E01A1CC2
:10B01000FB21343A0A4206D1002723683E1C5D68B2
:10B020002369ED1A08E0332BE3D1FBE601221BF084
:10B0300036FC002501272E1C0023A3609E420BDC5A
:10B0400010E0042E03D1462DE6D0482DD9D09A60C9
:10B050003CE0002701260025301C07F08DFD236908
:10B060009E1B2661002F19D02368019A5B689342CA
:10B0700004D2131C2269981A07F08EFD22682369F6
:10B080009168C8185168C91A07F052FD23685868BA
:10B090002369C01A401B07F06FFD08E0002D15DD85
:10B0A0002368291C98682369C01807F041FD2369AB
:10B0B000ED1825610AE02E1C0FE0C0464C27002049
:10B0C0000847030090B90200882E0020012676422E
:10B0D00003E00127002EBFDCC6E7301C05B0F0BD41
:10B0E000FF2310B50324DB05CB18A343021C181C57
:10B0F000A24213D0042A09D00021002A0ED10EF05A
:10B1000073FE0749002809D0064907E08022022083
:10B1100012069B18A343044A03439918081C10BD48
:10B1200070C10200B4C1020000008080FF23DB0573
:10B1300010B5041CC818032386B098430433009349
:10B14000002302A9019310226733FCF709F802A932
:10B15000201C17F05DFC02A82E2120F053F90028D6
:10B160000FD102A8652120F04DF9002809D102A8CD
:10B170006E2120F047F9002803D1201C024917F066
:10B1800047FC06B010BDC0461941030030B51D1C78
:10B19000002385B00C1C0093081C111C1A1C0133E1
:10B1A00002F0D4F8002C21D02868124B0340062B63
:10B1B00006D0032318420DD10F4A0168914209D1EC
:10B1C00003A9F7F717F90023039900931A1CF5F761
:10B1D000B7FB0CE00340022B09D0F8F733FF032341
:10B1E0009843013B1843054BC01800E0044805B0E4
:10B1F00030BDC046070080FF1CC0020000008080F8
:10B200000200808070B5051C86B0101C0191F8F713
:10B2100019FF041C0390681F182800D9B0E00EF035
:10B22000F9FB0D10161B2C37686DAFAFAFAFAF0D2C
:10B2300010161B2C3768898E93989D000198211C4D
:10B2400054E00198211C0FF053FB01908FE001980E
:10B25000211C0FF01BFAF8E7201C00210EF0C4FDA2
:10B26000002805D0484949481CF0F3FCF4F7D3FF07
:10B2700001A803A91AF013F979E0201C00210EF0AF
:10B28000B3FD0028EED10198211C0FF00DF8DCE78A
:10B29000201C00210EF0A8FD0028E3D1211C0198FC
:10B2A00012F0E8FA0021051C01900EF09DFD002827
:10B2B00007D0039A0023002A01DA80231B0601939A
:10B2C00055E00021281C0EF095FD431E98410124F5
:10B2D000039E404204400021301C0EF08BFD431EB3
:10B2E0009841E4B2844242D0281C311C0EF060FE2A
:10B2F000ABE70198211C12F09DFBA6E7201C002162
:10B300000EF072FD0028ADD101A803A91AF0C7F80C
:10B3100003220220019B1E49934303435B180493BD
:10B32000039B934303435B1804A9059306F00AF8B3
:10B33000031C26E00198211C0EF05CFD12E0019830
:10B34000211C0EF06BFD0DE00198211C0EF04CFD50
:10B3500008E00198211C0EF057FD03E00198211C24
:10B360000EF066FD0B4B00280BD10B4B09E00323BD
:10B37000019A02209A43131C054A03439B1800E0DC
:10B380000023181C06B070BD8145030084FC020038
:10B390000000808070C10200B4C10200074BDB686E
:10B3A000002B09D05A68904204D3801A04308000E0
:10B3B000C05802E01B68F3E7181C7047882E002075
:10B3C00038B5114D041CEB689868DB6883420FD3D5
:10B3D0000230C00018F0A1FCEB68DA68596803601D
:10B3E0009B6852185B00836000234260C360E86082
:10B3F000E968CB6848685A1C04339B000138CA606E
:10B4000080185C5038BDC046882E0020074B41187C
:10B41000884205D25A01D318027801305340F7E729
:10B42000D8B2002800D101307047C0460515000091
:10B43000034B044ADA6000228C331A607047C0461E
:10B44000882E002090E00200F0B585B0071C0E1C8D
:10B45000FFF7DCFF164B0290DC68002C24D0231C85
:10B4600010330193E368019D04339B00E3180393B9
:10B47000039B9D4216D22868029A037893420FD10B
:10B480004378B3420CD10230391C321C1FF0A1FEAC
:10B49000002805D1019BE81A63688510E81804E0CC
:10B4A0000435E5E72468D8E7201C05B0F0BDC046A8
:10B4B000882E0020F0B585B002900191FFF7C4FFFF
:10B4C000021E5BD12F4C019B271C8C373868DD1C7A
:10B4D000002819D0261C2C4B90361B68316803932A
:10B4E000EB188B4210D9691818F03AFC0390002829
:10B4F00007D1254B3868196818F025FC039B3B6081
:10B5000002E03368EB183360231C8C331B68002B7C
:10B5100017D12E1E7F2E00D88026301C271C18F035
:10B5200009FC8C373860002804D1281C18F0F5FB82
:10B530002E1C3860231C90331E60231C0022943381
:10B540001A60221C943213688C342468ED18019917
:10B550000298E4181560FFF759FF6B461B792070BD
:10B5600063700299019AA01C1FF042FE0022019B09
:10B57000201CE3189A70FFF723FF021C101C05B073
:10B58000F0BDC046882E00201C2F0020F7B51D1CE2
:10B59000161C0023071C03600B6033602B60174BE5
:10B5A0000091DC68002C24D0154B9C4221D03B68D4
:10B5B00001333B60E268009B94461B68009A01934C
:10B5C00063441360221CE368103204339B00E318C9
:10B5D0009A4206D23168C81C02CA497841183160C3
:10B5E000F6E7201CFCF744FD2B6824681818286037
:10B5F000D8E733682A68D3182B60F7BD882E00205F
:10B6000090E002000C4B70B5DC68002C13D00B4BA3
:10B610009C4210D0261CE36810361D1DAD00651934
:10B62000AE4206D204CE06490232064817F0BCFAF2
:10B63000F6E72468E9E770BD882E002090E002005C
:10B640002171030090B9020030B585B003AB051C31
:10B65000141C081C02AA01A917F082FD019A1649C0
:10B6600000238A4200D0531002984210884200D131
:10B670002A1C002B04DA5B19D843C017034002E0F0
:10B68000AB4200D92B1C002A01DA521902E0AA426F
:10B6900000D92A1C23609A4200DA1A1C039B6260BC
:10B6A0008B4205D0032B03D05B10A360002001E088
:10B6B0000120A06005B030BD44C20200F0B587B0E3
:10B6C000061C151C0C9F1B2803D1BA4212D0002067
:10B6D0003FE0192808D01C280CD13D1C171C0A1C5F
:10B6E0001D26191C131C05E03D1C171C0A1C1A26DC
:10B6F000191C131C0397AF4200D903951C1C00238F
:10B7000002910193019B039A93421BD0029B0594E3
:10B71000049301CB02CC0293F8F7DEFB002802D0A1
:10B72000019B0133EDE71B2ED1D0049B301C19681F
:10B73000059B1A6801F0E0F8074BC01A43425841D4
:10B74000C0B206E0BD4201D002D2C0E71A2EBED080
:10B75000012007B0F0BDC04670C10200F0B51E1C4C
:10B7600085B0039018680D1C171CF8F71DFB736853
:10B77000019002930024022F18D9291CB2680123DA
:10B78000F8F7D4FC041C032F10D0291C0198F26890
:10B790000123F8F7CBFC051C08E0039AA300D0585E
:10B7A0000299F8F799FB002808D10134AC42F4D390
:10B7B000054906481CF04DFAF4F72DFD0120640000
:10B7C000204305B0F0BDC046008C030028F80200FD
:10B7D0003E2803D0402809D03C280ED14239C9B2B6
:10B7E0002F290AD8084B585C012308E0712904D896
:10B7F000064B585C064B5B5601E001230020002AF3
:10B8000000D013607047C046FB8C0300178C030008
:10B81000898C030008B5512836D00FD8492827D085
:10B8200006D842281CD048281FD000284BD117E04A
:10B830004F2840D042D84C281AD044E0682811D074
:10B8400007D864282AD0662825D062283BD188569C
:10B850003AE06C2832D071280FD0692833D12DE01E
:10B86000885C31E05200505E2EE05200505A2BE0CE
:10B870009200505818F0EBFA29E0D2008A181068AC
:10B88000516818F0BAFA22E0D2008A18106851689C
:10B8900018F0CEFA1BE09200505805E0D2008A184A
:10B8A0001068516811F092F803239843013B184344
:10B8B000074BC0180BE09200505808E09200505817
:10B8C00018F0AAFA03E0002001234000184308BD45
:10B8D00000008080F7B5161C156801AA041C0F1C17
:10B8E000FFF776FF402C05D1019B043C5A1EAD1892
:10B8F0005B421D402B183360221C5A263E3ABE4242
:10B90000B6415442624176422B1CD2B2311C19F02E
:10B9100003FF041C0D1C4F2F3ED0532F08D1201CB9
:10B920001FF088FD0022011C201CF6F7ABF833E065
:10B93000662F06D1032302209C43184B0443E018D2
:10B940002AE0642F09D1201C11F040F803230224BF
:10B950009843124B2043C0181EE0002E10D08022C6
:10B960000023D20512196B41201C002B04D1002AA0
:10B9700002DB18F051FA0FE0291C18F03EFA0BE038
:10B98000201C002905D1064B9C4202D818F05FFA12
:10B9900002E0291C18F04CFAFEBDC0460000808071
:10B9A000FFFFFF3FF0B587B0141C03AA071C0E1C55
:10B9B00001931D68FFF70CFF0090402F05D1039BFA
:10B9C000043F5A1EAD185B421D40009B019AEB18C4
:10B9D00013603E3F642E09D0662E02D04F2E22D136
:10B9E00040E0201CF8F72EFB041C3BE0201CF8F77D
:10B9F00029FB7C427C4110F095FFE4B20490059154
:10BA0000A30006AAD318083B211C2A1C1B6804208B
:10BA100019F0ABFE01235C40A40006AB1C19083CE6
:10BA2000043524681EE0A3070CD1154B22689A4206
:10BA300008D179427941201CC9B2009A2B1C18F018
:10BA4000C3F91AE0201CF8F799FA009B041C042B98
:10BA500008D95A2E06D9002804DA281D1A1FFF21FA
:10BA60001FF0E3FB0098042800D9042079427941B3
:10BA70002A1CC9B2231C19F078FE07B0F0BDC046DD
:10BA8000E4C1020070B5061C0D1C141C181C642EA9
:10BA90000CD0662E04D04F2E11D19400635127E0B4
:10BAA00094000D19F8F7CEFA286021E0D4000D19A2
:10BAB000F8F7C8FA10F036FF2860696018E0202314
:10BAC0003343712B0CD10321014009D1094B02688A
:10BAD0009A4205D1E4002B19082218F075F907E005
:10BAE000F8F74CFA291C031C221C301C19F050FEDC
:10BAF00070BDC046E4C1020038B5151C041C19F025
:10BB0000DCFE2A1C201C024919F088FE38BDC04604
:10BB10009D58020038B543790D1C0024032B06D92B
:10BB2000836A074C9200E41AC369D358E4180321CE
:10BB300019F0B4FE447024120570847038BDC046FC
:10BB4000FD7F0000F8B50023041C617183608371E0
:10BB5000E260036101330F1C151C4361032906D801
:10BB60000121836949429A00C0691FF05EFB0023EE
:10BB7000A36223622A8C6B8CD3180122002B00D085
:10BB80001A1C364E201C311C19F048FEAA8C201CB1
:10BB9000311C19F043FEE368201C197E19F077FE72
:10BBA000E368201C997E19F072FEE368201C197F5F
:10BBB00019F06DFEE368201C997F19F068FE042FD0
:10BBC00007D1636A226A201C9A1A311C19F026FEDA
:10BBD00003E0201C022119F04EFE311C201C2A69B2
:10BBE00019F01CFE311C201CEA6819F017FE002613
:10BBF0002B8D9E420BDAEA6AF300D3181A78032AD7
:10BC000003D19978201C19F058FE0136F0E7201C6A
:10BC1000FF2119F052FE042F1FD10022698BAB8B3C
:10BC2000C9188A4219D000202E8DB0420CDAEF6A72
:10BC3000C300FB185F78FF0704D55F88974201D1E6
:10BC40005B6802E00130F0E702230626DB003343A5
:10BC5000666B900083510132E3E7F8BD775802002C
:10BC600013B54379012B2FD08268041C002A03D01E
:10BC70001648174916F098FF201C002119F007FEFE
:10BC80006379032B13D1226AD01C9843A36A2062E4
:10BC90006062E362C01818F052F8E3682063588BC2
:10BCA0009B8BC018800018F04AF860630CE0042BEE
:10BCB0000AD1E368616AE26A5218197E00915869F4
:10BCC000216B636BFCF77CFB13BDC04690B902008F
:10BCD0002B8D0300224BF7B5A0331B68022B3ED8F7
:10BCE0004469A1423BD9051C836A026901919E1AED
:10BCF0000C1B331C23432ED00096062C10D81F2E6D
:10BD000001D91F230093271E032F00D90327281CC6
:10BD1000012119F0B0FD009A7B011343037016E076
:10BD20000F2E01D90F2300930E4B271E9F4200D9DF
:10BD30001F1C0221281C19F09EFD802370220099EF
:10BD40005B4219433B0913400B4303704770009B50
:10BD5000E41BF61ACDE7AB6A2B61019B6B61F7BD63
:10BD6000882E0020FF07000038B5041C0D1C01219F
:10BD700019F073FD201C0F2D05D0102D05D01021BA
:10BD80000E2D06D102E0112100E0122119F095FDDF
:10BD90000DE0172119F091FD0322A36A201C033343
:10BDA0009343A362042119F079FD014B036038BD70
:10BDB00048CD0200F8B5061C0D1C141E124F11D1FF
:10BDC000111C19F04AFD80231B021D4203D0301CB8
:10BDD000322119F072FD2A1C301C3A403521FFF740
:10BDE00099FE0FE03A1C0A404621FFF793FE80239C
:10BDF0001B021D406A1E9541ED012C43E1B2301C2F
:10BE000019F05BFDF8BDC046FF7FFFFF00237F28D0
:10BE100003D8034B1B5C9B07DB0F181C7047C04605
:10BE2000578D030000237F2803D8034B1B5C1B079F
:10BE3000DB0F181C7047C046578D030000237F2876
:10BE400003D8034B1B5C5B07DB0F181C7047C04615
:10BE5000578D030000237F2803D8034B1B5C5B0630
:10BE6000DB0F181C7047C046578D030000227F2847
:10BE700008D8054B0132195C0C23194202D15F38F6
:10BE800042424241101C7047578D030000237F2817
:10BE900003D8034B1B5CDB06DB0F181C7047C04646
:10BEA000578D030000237F2803D8034B1B5C9B06A0
:10BEB000DB0F181C7047C046578D0300002805D0C3
:10BEC000012809D18B685B00184306E08B680348A2
:10BED000002B02D1024800E00020704770C1020030
:10BEE000B4C102007FB5041C0122081C01A9F8F7A7
:10BEF00005FA002221794020FFF76AFC061C02980F
:10BF0000311C0DF0A5FD6268051C130A834208D29E
:10BF1000A368C1187143E06817F015FF2379E0604A
:10BF200003E01B1A1B02D2B21343321CA0686360E9
:10BF30007043E3686A43181801991FF059F9A36820
:10BF400002485D19A56004B070BDC04644C202003D
:10BF5000F7B5FF254668041C0191AE431DD1017958
:10BF6000321C4020FFF734FC6368071C1D4080230F
:10BF7000A1681B011D43083141436560E06817F06B
:10BF8000E2FE6368E0601A0AA368013A01337A436B
:10BF90005F43311CC0191FF048F92079019BE1680B
:10BFA000A268FFF76FFDA36803480133A3606368CD
:10BFB000013BFF3B6360FEBD44C2020010B5041CA0
:10BFC000102017F0BCFE024B4460036010BDC04659
:10BFD00014ED020070B50A79041C0D1C002A09D169
:10BFE000194916F015FD201CE968AA680123F5F728
:10BFF000A7FC23E0154916F0D7FDAB68002B1DD038
:10C00000201C134916F004FD0026AB689E4211D295
:10C01000002E03D0201C0F4916F0FAFC321CE968F0
:10C020002879FFF7F7FB0122011C201CF7F7D6FE49
:10C030000136EAE7201C084916F0EAFC201C0749F3
:10C0400016F0E6FC70BDC046D78D0300E38D0300FB
:10C05000EE8D0300C625030062B003001D400300FF
:10C06000F8B5071C0D1C4020391C0022FFF7B0FB5F
:10C07000061E05D10C490D481BF0EBFDF4F7CBF87B
:10C08000102017F04AFE0A4B041C002F00D0094B69
:10C09000281C2360FBB2A5607043636017F03DFE6F
:10C0A000E060201CF8BDC046F28D030028F80200B5
:10C0B0008CED020050ED0200F0B5061C8BB00D1C9B
:10C0C000141C12283AD034D8052800D087E0081C68
:10C0D000012204A91AF09FF8201C07A90122F8F7F1
:10C0E0000DF9069B002203936B464020197BFFF756
:10C0F0006FFB061C0898311C0DF0AAFC069B071C60
:10C1000003936B46A968187B7918FFF7A9FF059B75
:10C11000041C1A1C0499C06803931FF069F8321CB0
:10C12000E36805987A43181807991FF061F8231CF3
:10C1300056E01B2839D01F2806D050E0081C111CDF
:10C14000FFF7D0FE2B1C4BE0101C07A9012217F0B3
:10C150003DF80322002814D0234B154240D1234A36
:10C16000296891423CD104A9281C01221AF053F8F5
:10C170000123049800930599079A089B16F02FFE57
:10C1800028E0E3070ED4144203D1194B22689A42E7
:10C1900008D00322144B2240022A21D1154A144010
:10C1A000062C1DD0144801F0C7F8081C012204A970
:10C1B0001AF031F8201C07A9012217F007F80A4BE2
:10C1C00000280DD0089B301C00930499059A079B0A
:10C1D00019F052FA094B002802D1034B00E000236A
:10C1E000181C0BB0F0BDC046B4C102008CED0200BB
:10C1F000E4C10200070080FFC92B030070C10200E8
:10C20000F0B5051C87B00E1C002808D08B0724D180
:10C210000B68264A934202D0254A93421DD1301C16
:10C2200003A9012216F0D2FF002816D00022291CF3
:10C230004020FFF7CDFA061C0498311C0DF008FCD5
:10C24000071C281C391CFFF70BFF321C041C7A4307
:10C250000399C0681EF0CCFF24E0301CF7F7AAFF5A
:10C26000071E00D04710391C281CFFF7F9FE041CDC
:10C27000301C00F0B3FA00260090009800F0FCFAA1
:10C28000031E0FD0002F04D1201C191CFFF760FEE5
:10C29000F3E7721C0192281C321CE168FFF7F2FBE5
:10C2A000019EEAE7201C07B0F0BDC046D4BF0200E3
:10C2B0008CED020070B586B0002A44D00324161C11
:10C2C000051C0A1C0C402CD1204B0968994228D12E
:10C2D000111C806803AAFFF7B7F9002802D11C4897
:10C2E00001F02AF8221C042E2DD129794020FFF7D5
:10C2F0006FFA049B061C28790093039B0193019A13
:10C30000009B991AFFF7ACFE041C0399049AEB6892
:10C31000521A714372435918C0681EF069FF221CFB
:10C3200011E0A96828680023F7F700FFE968021CFC
:10C330002879042E03D1FFF76DFA021C03E0331CA9
:10C34000FFF7A0FB034A101C06B070BD28C1020015
:10C350005D27030044C2020037B51D1C00230C1CDE
:10C360000093081C111C1A1C013300F0EFFF002C75
:10C3700004D1201C211CFFF773FE1BE02968CB07AA
:10C3800005D48B0713D10C4B0A689A420FD1081CB5
:10C39000F7F7F4FD051C0020291CFFF761FE041CC3
:10C3A0000021C0682A1C1EF040FF201C02E0002073
:10C3B000FFF726FF3EBDC046E4C1020070B5FFF79F
:10C3C00037F80B4C0026231CA0331E602663FBF7B6
:10C3D00085F9084D0121281CF5F74EF8281C6E211F
:10C3E0005E2216F0C5FC65602560666470BDC046BF
:10C3F000882E0020BC2E002070B50624134EC300EA
:10C400001C4373680022051C211C181DFCF710F842
:10C41000021E18D1706C002807D00430211CFCF7D4
:10C4200007F8002801D040680EE000220848211CCF
:10C43000FBF7FEFF021E06D106492A1C064805F03E
:10C4400025F9F3F7E8FE506870BDC046882E00203D
:10C45000BCF60200FF8D030014FA02000A4B10B56F
:10C46000041C18685B6898420AD00621E300043077
:10C4700019430022FBF7DCFF002801D0406802E0EE
:10C48000201CFFF7B9FF10BD882E002008B5074B10
:10C49000586C002801D1064807E00430262100220C
:10C4A000FBF7C6FF0028F6D0406808BD882E0020A4
:10C4B000E0F302000A1C062108B5034BC00001434B
:10C4C000186816F055FC08BD882E0020062108B516
:10C4D000034BC0000143186816F054FC08BDC04669
:10C4E000882E00200A1C062108B5034BC00001431A
:10C4F000586816F03DFC08BD882E0020062108B5BE
:10C50000034BC0000143586816F03CFC08BDC04610
:10C51000882E002038B5051C0C1C062806D1081CE6
:10C52000F7F76CFE00284CD028484DE00123194253
:10C5300017D04810042D06D0052D0FD0002D42D164
:10C540000028F1D03DE0C0221206904204D18020A4
:10C55000C00517F061FC37E0404200E0C0434000F6
:10C5600013E0022813D11A4B0B40062B08D08B077F
:10C570000DD10B689A69174B9A4208D1486802E0BE
:10C58000C80819F02EF80123400018431CE0201CB5
:10C59000F7F70AFC4369002B0DD10F4BAD00201CAF
:10C5A000ED5816F0FDFD0D49031C2A1C0C4805F042
:10C5B0006DF8F3F730FE281C211C9847002803D1A2
:10C5C000EBE7084800E0081C38BDC046B4C10200D3
:10C5D000070080FFD5290000D4EF0200188E030069
:10C5E00018FD020070C10200F8B5041C1D1C0F1CD0
:10C5F000161CF7F7D9FB0369201C9C46002B08D1B9
:10C6000016F0CEFD0549021C054805F03FF8F3F78A
:10C6100002FE391C321C2B1CE047F8BD368E03008D
:10C6200018FD0200F8B5061C0D1C171C1C1C002967
:10C630000BD01868F7F7B8FB7368984205D0064925
:10C6400006481BF006FBF3F7E6FDB068291C3A1C10
:10C65000231CFFF7C9FFF8BD528E030018FD02002E
:10C66000F8B5061C0F1C141C1D1C930714D113686D
:10C67000174A934202D163682B6028E0154A93421F
:10C6800007D1002802D0F7F78FFB071C636888C525
:10C690001DE0114A934201D12C6018E05B681A1C1E
:10C6A000F23A012A01D9F02BF6D1002E0ED1201C2E
:10C6B000F7F77AFB094B984208D10C2017F02DFBB5
:10C6C000074B476003608460286000E050C5F8BDF8
:10C6D0008CEF020050EF020050EE020010DB02006F
:10C6E000D8ED0200F8B5002313605360071C0C1C42
:10C6F000151CF7F759FB061C102C05D1836A002B7B
:10C7000002D00F4B88C519E0F369002B04D0381C08
:10C71000211C2A1C984711E0B06B00280ED006217E
:10C72000E4001A1C04302143FBF782FE031E05D0EF
:10C730005A68381C311C2B1CFFF792FFF8BDC0460D
:10C74000ACF6020070B5161C041C0D1CFFF7CAFFE6
:10C750003368002B15D10B4EA30707D10A4B226873
:10C760009A4203D1301C0949626805E0201C16F08A
:10C7700017FD021C301C06492B1C04F087FFF3F741
:10C780004AFD70BD4CFB020050EE02006A8E0300B1
:10C79000918E030073B5041C0D1C161CF7F704FBE7
:10C7A000C369002B09D0042201960092201C291C89
:10C7B0006A469847009B002B0AD0201C16F0F0FC1C
:10C7C0000449021C2B1C044804F060FFF3F723FD0E
:10C7D00073BDC046918E03004CFB020013B5041CD0
:10C7E000F7F7E2FA436A002B0BD1201C1A216A46A4
:10C7F000FFF778FF009B002B08D0684605F0EEFBA2
:10C800000EE0201C984700280AD1EEE7201C16F005
:10C81000C7FC0449021C044804F038FFF3F7FBFC92
:10C8200016BDC046B38E030018FD020037B5041CC8
:10C83000F7F7BAFA856A201C002D01D0A84716E048
:10C8400010216A46FFF74EFF009B002B05D0281CE5
:10C85000291C6A4619F02FFD09E0201C16F0A0FCE7
:10C860000349021C034804F011FFF3F7D4FC3EBD5A
:10C87000CF8E030018FD020030B5051C8FB005F007
:10C8800073FB281CF7F790FA846A281C002C01D04F
:10C89000A04728E010216A46FFF724FF009B002BE9
:10C8A00017D002A8F3F79CFC011E07D16A4619F0C5
:10C8B00002FD041CF3F7AAFC201C14E0039B0B49A7
:10C8C000186801F0BFFA031C201C002B0BD1039841
:10C8D00007E0281C16F064FC0549021C054804F01A
:10C8E000D5FEF3F798FC0FB030BDC046D4FA020075
:10C8F000CF8E030018FD0200F0B585B002900E1C2B
:10C90000171C202802D1914214D1A1E1029B1B2BBC
:10C9100001D01E2B10D1301C391CF7F7DDFA00288E
:10C9200003D0029B1B2B05D192E1029BBA481B2B23
:10C9300000D099E1B94897E1029B212B2AD1101C24
:10C9400004F0ECFE002807D0301C391C1BF08BF9DA
:10C95000002800D07CE1EDE703243C4000D042E118
:10C96000AF4B3A689A4200D03DE17B689C42E1D2ED
:10C97000A300FB189D68281C04F0D0FE002800D1FD
:10C9800030E1301C291C1BF06EF9002800D05FE15B
:10C990000134EAE70123194200D1EAE04D101A42BE
:10C9A00000D1DEE0029B54101D2B00D91BE1181CA6
:10C9B0000DF044F81E0020002300260038003F0040
:10C9C000410043004E0056006B007400A3001E009F
:10C9D00020002300260038003F00410043004E00A5
:10C9E00056006B007400BC00C0001901C400C800F0
:10C9F000254300E065402E1CA8E02C40261CA5E045
:10CA0000002C02DA8748884902E11F2C6FDC874B33
:10CA100023419D426BDCC0231B0623419D4266DB04
:10CA2000A540E8E7002CEDDB1F2C00DD1F2425418D
:10CA3000E1E72E198AE02E1B88E0281C211CFDF757
:10CA4000E9FB002853D101206C43640020430BE133
:10CA5000002C00D1DAE0281C211C18F02AFC1BE075
:10CA6000002C00D1D2E0281C0EF0E0F8051C201CA0
:10CA70000EF0DCF8011C281C0DF016FC0323022527
:10CA800098436B4B2843C018EEE0002C00D1BDE06A
:10CA9000281C211C18F0FDFB061C57E0002C02DBB3
:10CAA0000395012617E0281C0EF0C0F80323022688
:10CAB00098435F4B0643F61889E0E3070ED4012C38
:10CAC00044D003986410011CFDF7A4FB00280ED18C
:10CAD000039B5B430393002CEFD137E0301C039999
:10CAE000FDF798FB002802D1039B5E43E7E7E917B7
:10CAF000281C17F082F9061C69E0002C00D185E0A3
:10CB00000021022004F01EFC211C061C281C18F029
:10CB1000D0FB012740003843B060211C281C18F0CE
:10CB2000B8FBB8403843F060301C9DE0A54200DB04
:10CB300000E78DE0A54200DCFCE689E0A54200DDCF
:10CB4000F8E685E0A54200DAF4E681E073001A1CFD
:10CB5000724002D40120184386E0301C17F05CF9C3
:10CB600082E003231340022B03D1324B1340062BE8
:10CB700070D1029B1F2B2AD1381CF7F715F9836956
:10CB8000051C002B07D16B6A002B16D0381CFFF751
:10CB900025FE041C0BE00298391C321C9847002823
:10CBA00062D1F0E7311CF7F797F9002850D1201C2B
:10CBB000FFF762FE0028F5D1BCE6381C16F0F0FA4B
:10CBC0001D49021C1D4804F061FDF3F724FB301CD5
:10CBD000F7F7EAF88369002B05D00298311C3A1C5C
:10CBE00098473FE02F1C029B301C9A00144BD558ED
:10CBF00016F0D6FA041C381C16F0D2FA114900902F
:10CC00002A1C231C0D4804F041FDDEE70E480F49A5
:10CC10001BF01FF8D9E7C04670C10200B4C1020082
:10CC200080F7020028F8020092450300FFFFFF3F53
:10CC300000008080070080FFB38E030018FD020013
:10CC40008CEE0200EE8E030084FC0200814503009E
:10CC5000064809E0281C0DF0E9FF3A1C011C029867
:10CC6000FEF7D0FA0028BED005B0F0BD70C10200BA
:10CC7000F0B513688DB00693002803D1131D0393FC
:10CC8000041C03E0131C546808330393FF220B1C9D
:10CC900013400193090A1140019A4B0005939B1818
:10CCA000039A9B00D558D3185F680491381E09D0A9
:10CCB0000020BB0706D17F4B3A689A4202D1381C4C
:10CCC00016F053F8049BC618002D16D1019B760070
:10CCD00001339B199800009317F01FF8251C061CC0
:10CCE000002C01D001250460019BA8009A00301897
:10CCF00003991EF07DFA019B30E0AB0731D12B6820
:10CD00006D4A934202D06D4A93422AD1281C09A948
:10CD10000AAAF7F7D5F9099B019A01339B18760007
:10CD20009B199800009316F0F8FF251C061C002C98
:10CD300001D001250460019BA8009A0003993018D6
:10CD40001EF056FA019B0A99E818099B80009A0088
:10CD500030181EF04DFA019B099A9B185B1902933B
:10CD600038E0019B7600181D83199800009316F097
:10CD7000D4FF0294061C002C02D00123046002930D
:10CD8000029B03999800019B30189A001EF030FA1C
:10CD9000019A029B9446281C63440293FFF71EFDF0
:10CDA000029B07909C000798FFF766FD051E11D0B7
:10CDB000029B009A934207D3301CD10016F0C3FFA8
:10CDC000061C009B5B000093029B355101330293CC
:10CDD0000434E8E7029B9800049B3018DA00019BBA
:10CDE0009900039B59181EF003FA029A059B94467A
:10CDF00063441C1C002F4ED00325381C3D4019D124
:10CE00002C4B3A689A4215D115F0C5FF41688D4206
:10CE100041D08368EA009F58002F09D0042F07D023
:10CE2000A300F7508768F318BA18526802345A60A2
:10CE30000135ECE7C5210AAAFFF784FC00200AAA05
:10CE4000011C19F038FAFFF7C9FCA5000190019800
:10CE5000FFF712FD071E1ED0009A631C93420BD3EE
:10CE600053000093032B01D804230093009B301C34
:10CE7000990016F068FF061C09AA381C0221F7F772
:10CE800041F9099B02341B687351099B5A68731955
:10CE90005A600835DBE7029B0698E21A191C520813
:10CEA000331CFFF7A1FB041C301C16F05DFF201C97
:10CEB0000DB0F0BD2CBC020080F7020088CA020051
:10CEC00073B50C1C161C83071FD10368224A9342BA
:10CED00007D0224A934218D1694601AA16F0A8FE4B
:10CEE00003E0694601AA1AF098FE009BA34227D3EB
:10CEF0002AD80023019DA000A3422CD09900421AF9
:10CF0000043AAA5801337250F6E7FFF767FC002392
:10CF1000051C0093009B281CA3420CD2FFF7ACFC1D
:10CF200000280DD0009A0E49A31A5B189B0001320D
:10CF300098510092EEE7FFF79FFC00280BD003E02A
:10CF400008480949009A02E0221C0648074904F0F3
:10CF50009DFBF3F760F973BD80F7020088CA0200F9
:10CF6000FFFFFF3F28F80200138F0300368F0300F6
:10CF7000F7B5141C0A0AFF230E1C151C1E401D4089
:10CF800083073CD107683E4B9F4203D03D4B9F42F5
:10CF900035D104E0694601AA1AF03FFE09E0FF23FB
:10CFA0001143194201D1206068E0694601AA16F0D8
:10CFB0003FFE009BAA19934259D39A009446002041
:10CFC00001998200A84206D06746BF1A043FCF5994
:10CFD0000130A750F5E79B1BB500181A4919A41892
:10CFE00016F00EFE019B20605D190023013601330F
:10CFF000B34243D09A0051426958A150F7E7FFF776
:10D00000EDFB0023071C0093009BB3420CD2381C9D
:10D01000FFF732FC00282AD0009AB31A5B199B0054
:10D02000013218510092EFE70020011C16F0E8FDD4
:10D03000061C381CFFF720FC011E03D0301CF9F73A
:10D040009DFAF6E7B168A94211D3AB00E3181E6060
:10D0500088009C4206D0C21AF768A218D259043B35
:10D060001A60F6E7491B301C16F0E7FD06E006499A
:10D07000009A064804F00AFBF3F7CDF8F7BDC04666
:10D0800080F7020088CA0200138F030028F802000C
:10D09000F0B587B01D1C061C0C1C0192F6F784FE2F
:10D0A0002F4B984206D1301C211C019A2B1CF3F700
:10D0B000F7FE53E0876A2B4B002F07D09C4220D10C
:10D0C000301CB8472860002816D147E09C4218D190
:10D0D000301C102103AAFFF705FB039B002B0DD189
:10D0E000301CCD2103AAFFF72DFB01200021059460
:10D0F00003AA19F0E0F8286001202FE0381C391C41
:10D10000F6E7002CECD1019B201C002B26D0181C2C
:10D11000F6F74AFE144900F095FE00280FD0301CA7
:10D12000CC2103AAFFF7DEFA039B002B07D0201CBB
:10D13000211C03AA19F0BFF82860201C0EE0301C47
:10D14000CE2103AAFFF7CEFA039B002B03D00120C8
:10D15000002101AACDE70220019B2B6007B0F0BDA2
:10D1600008BB020044C20200CCFD020010B5041C42
:10D1700004F0D4FA002806D00021201C0A1C0B1C45
:10D18000FFF732FA0AE0201C1AF067FD031C201C8E
:10D19000002B03D1024803491AF05BFD10BDC046C5
:10D1A00018FD02005E8F03007FB50623C000184300
:10D1B000054B01900491052001A902930393059268
:10D1C000F4F706FA07B000BD44C202000C23F0B524
:10D1D0008BB000AFFA18051C0C1CFFF783FA3B69F3
:10D1E000002B06D02B49221C2B4804F04FFAF3F7F2
:10D1F00012F8F86800284AD1281C15F0CEFD002846
:10D20000F0D00C23281CFA180D21FFF76BFA082325
:10D21000F868F918F5F7EEF83860201CBD6818F0CA
:10D22000E5F96A4601352B187B600E33DB08DB001D
:10D23000D31A9D46BD6839682A1C68461DF0D8FF80
:10D240006E462E23201C735518F0D5F93860201C2B
:10D2500018F0CCF901357519021C3968281C1DF02D
:10D26000C7FF79686846FEF725F90623C000184312
:10D270000A4B0822BB61FB61094BBA183B620123D0
:10D280007B620B337861D1180520F4F7A1F9BD4614
:10D290000BB0F0BD888F0300D0FB020044C2020037
:10D2A00070C10200F0B5174C0F1C616895B0039176
:10D2B0002168061C08A8049162602360F2F790FFC1
:10D2C000051E06D0039B09986360049B2360F2F758
:10D2D000A2FF336805A8311C3A1C0193F8F714FA31
:10D2E0002A1C2B1C019905A803F07AFA18F0D4FF28
:10D2F000051CF2F78BFF281C039B6360049B2360D3
:10D3000015B0F0BD882E002010B5041CFAF7D0FC33
:10D31000031E064803D006491AF09BFC03E00549AA
:10D32000221C04F0B3F9F2F776FFC046A8F8020019
:10D330009E8F0300C78F0300011C08B502481AF036
:10D3400088FCF2F768FFC046C0FC020010B5041C60
:10D3500002A80078002906D0002804D10F491048FF
:10D360001AF077FC08E09A4208D1944214D00C4895
:10D370000C49231C04F08AF9F2F74DFF944205D2C0
:10D38000121B0949064804F081F9F5E79C4203D9CC
:10D39000034806491A1CECE710BDC0463A42030098
:10D3A00018FD0200D2410300F58F0300279003000F
:10D3B000F0B50025171C87B00C9C0D9E03900491BE
:10D3C000059302950195059B9D4239D0039B9D4293
:10D3D00009D263689B0537D4019B049A01330193FA
:10D3E000AB00D05819E006212368381CDB00194334
:10D3F0000022FBF71DF800280BD16368DB0505D57B
:10D4000019492268194804F041F921E0A368336002
:10D4100012E0029B4068013302932379012B03D170
:10D42000F6F7ECFE307007E0022B02D1F6F7A6FD0E
:10D4300001E0032B00D1306001350C340436C2E723
:10D44000019B039A934205D2084809491AF001FC4E
:10D45000F2F7E1FE3B68029ADB089A4202D20348E7
:10D460000449F3E707B0F0BD5690030018FD020031
:10D470006D9003008E900300F8B50327041C381C40
:10D480000E1C5043151C13F049FE0121331CA02231
:10D49000B140C133FF33D2059B00606026706580C8
:10D4A0009F50094BD1500022AA420CDA03230021DD
:10D4B000534360680132C1546068C01841706068AD
:10D4C000C3189970F0E7F8BD0C0500000122F0B513
:10D4D0000378A0219A40131C894AC905051C85B010
:10D4E0008B5032200138C046C046C046C046C046B8
:10D4F000C046C046C046C046C046C046C046F1D140
:10D50000EFF31081019172B60020698802910299AF
:10D51000884200DB07E1032141436C686118CC1CA1
:10D520000394A024A1260F78E405FF09F600002F3C
:10D530000BD0A351C046C046C046C046C046C046F8
:10D54000C046C046C046A3500AE0A351C046A350FF
:10D55000C046C046C046C046C046C046C046C0469B
:10D560000C78A127A446A0246646E405FF00E351F9
:10D5700076060AD5C046C046C046C046C046C0462C
:10D58000C046C046C046A35009E0C046A350C046AE
:10D59000C046C046C046C046C046C046C0460C78DD
:10D5A000A127A446A0246646E405FF00E351B60681
:10D5B0000AD5C046C046C046C046C046C046C04662
:10D5C000C046C046A35009E0C046A350C046C0466E
:10D5D000C046C046C046C046C046C0460C78A127DB
:10D5E000A446A0246646E405FF00E351F6060AD5EA
:10D5F000C046C046C046C046C046C046C046C046FB
:10D60000C046A35009E0C046A350C046C046C0462D
:10D61000C046C046C046C046C0460C78A127A446B6
:10D62000A0246646E405FF00E35136070AD5C0464C
:10D63000C046C046C046C046C046C046C046C046BA
:10D64000A35009E0C046A350C046C046C046C046ED
:10D65000C046C046C046C0460C78A127A446A024B8
:10D660006646E405FF00E35176070AD5C046C0468A
:10D67000C046C046C046C046C046C046C046A3508D
:10D6800009E0C046A350C046C046C046C046C0469A
:10D69000C046C046C0460C78A127A446A0246646D2
:10D6A000E405FF00E351B6070AD5C046C046C046B0
:10D6B000C046C046C046C046C046C046A35009E06A
:10D6C000C046A350C046C046C046C046C046C0463D
:10D6D000C046C0460C78A127A446A0246646E405AF
:10D6E000FF00E351F6070DD5C046C046C046C04610
:10D6F000C046C046C046C046C046A3500CE0C04627
:10D700000C050000C046A350C046C046C046C046F7
:10D71000C046C046C046C046039C0131A14200D06D
:10D72000FFE60130F3E6019B83F3108805B0F0BDFE
:10D73000F8B5041C0D1CA368002B0AD0334AE96815
:10D74000914206D0EB58002B03D00422E3681A6004
:10D750005AE0A86B002820D0062163680430DB0063
:10D7600019430022FAF764FE031E16D0227C002A19
:10D7700002D0002021680BE02068002807D0234A4F
:10D78000E968914203D0224A954200D00069291CE1
:10D790005A68E368FEF764FF36E02368002B03D184
:10D7A0006E6B002E14D12FE0227C002AF8D1174A8C
:10D7B000E9689142F4D0164A9542F1D0186961683F
:10D7C000E268FEF78FFFE3681B68002BE8D01BE0E0
:10D7D00075680836002D17D000276B1E0C4A9F4233
:10D7E0000CD2BB00F158914206D0201CFFF7A0FFDD
:10D7F000E3681B68002B07D10137EEE7054BED18F6
:10D80000AD00AD59954296D1F8BDC046C5DA0000CD
:10D8100014EC0200FFFFFF3FF0B5146889B0002C44
:10D820001FD143685E6B002E1BD0171C736803ADBD
:10D8300001938368083603936960AC60EA602C74D6
:10D84000019B9C4209D0A300F158281CFFF770FFF0
:10D850003B68002B05D10134F2E7281C0249FFF791
:10D8600067FF09B0F0BDC04614EC020008B50B1C00
:10D8700002495A6815F098F908BDC046AC900300FB
:10D8800070B50E1C00218AB0041C151C05A81422BA
:10D89000009101911DF0C9FC202307936B4605946C
:10D8A00008931C23002D02D0042D07D11A232168D0
:10D8B00005A80693FFF73CFF022106E01B23216821
:10D8C00005A80693FFF734FF03210098042805D12B
:10D8D0002069311C2A1CF6F7DDFC0DE000280BD076
:10D8E00002AB0022029403960495FEF77DFE031C12
:10D8F0000248042D00D1181C0AB070BD44C20200B9
:10D90000F0B5204B82008BB0D25805AE0023726078
:10D910001422019003AF05910D1C301C096803937C
:10D920007B60B260F7603374FFF702FF039C042C46
:10D9300005D101982969FEF7EDFD041C1EE0002CBD
:10D940000DD0201C291C18F0AEFC019B041C022BDE
:10D9500014D1F6F73FFB0124400004430EE0019B85
:10D96000022B0BD12433301C29687360FFF7E0FED3
:10D970003B68002B02D101246D002C43201C0BB00E
:10D98000F0BDC046D4EF0200F0B5161C72427241E1
:10D9900089B00C1C1F3200230492082201A903AD98
:10D9A0000691071C2168281C019302932B74039491
:10D9B0000592FFF7BDFE019B002B08D1002E06D17A
:10D9C0001F33281C21686B60AE60FFF7B1FE019821
:10D9D000042819D12069F6F7E7F9164BC2689A4274
:10D9E0000ED1002E07D02368586817F004FE011CE2
:10D9F000381C15F00DF88022381C324321690BE0E9
:10DA0000381C2169321C07E0002808D0211C18F0BE
:10DA10004AFC0022011C381CF6F7E0F908E0201C43
:10DA200015F0BEFB0449021C231C381C15F0BCF881
:10DA300009B0F0BD75150100B990030038B5041C9C
:10DA40000D1C0B4914F0E4FF6968201C0022F6F756
:10DA5000C5F9201C074914F0DBFFA968201C00222F
:10DA6000F6F7BCF9201C044914F0D2FF38BDC046BB
:10DA7000CB900300C625030020450300F7B5002521
:10DA8000436808300F1C061C2C1C0193019B9D420F
:10DA900012D0AB00F358094A93420BD0084AD96818
:10DAA000914202D03B60013404E0586B391CFFF70F
:10DAB000E5FF24180135E9E7201CFEBD14EC020047
:10DAC000C5DA0000F0B58FB0051C0F1C406B05A92E
:10DAD00001920293FFF7D2FF061DB600301C16F02C
:10DAE0001CF9041C002120C016F0C8FA321C201CAE
:10DAF000103A103000211DF098FB012F05D1029B38
:10DB00001B680393042B00D183E00922002309A89A
:10DB1000426007AE0332291C8260C660037407931B
:10DB200073600993FFF704FE0798042807D105984E
:10DB3000391CC668019A029BB047206123E0002887
:10DB400021D0019A3A4306D1012106AB0695FEF792
:10DB50004BFD041C17E0019B5C003C190134A40040
:10DB6000201C16F0DAF8221F0390029920C01DF045
:10DB70003FFB791C3068019A039BFEF735FD041CBE
:10DB8000039816F0F1F8201CF6F70EF9A84240D1E0
:10DB90000023082209A8291C089307930B930994D2
:10DBA0000A92FFF7C5FD079B002B32D0019939433C
:10DBB00005D1081C07AA18F07EFB061C1CE0019B7F
:10DBC0005E00BE190236B600301C16F0A6F8321CF4
:10DBD000051C079B083A03600393089B0299436066
:10DBE00008301DF005FB381C01992A1C18F063FB56
:10DBF000061C281C16F0B8F8074B9E4209D0301CB2
:10DC000015F0CEFA0549021C054803F03FFDF2F776
:10DC100002FB201C0FB0F0BD44C20200D4900300F0
:10DC200018FD020038B5C568041C002D06D1044952
:10DC30006268044803F02AFDF2F7EDFAA84738BD00
:10DC4000FC90030018FD0200F8B5041C0F1C161C04
:10DC50001D1C18F0C0FB002809D1201C15F0A0FAEB
:10DC60000949021C094803F011FDF2F7D4FA04280F
:10DC700001D1206902E0211C03F0EAFA391C321CB0
:10DC80002B1CFEF7B1FCF8BD368E030018FD020018
:10DC9000F0B5154B89B0161C8200D5580C1C0C220F
:10DCA0000021071C68461DF0C0FA182303A8456030
:10DCB000836000256B462168C36005740394FFF7F9
:10DCC00037FD0098042805D1381C2169321CFEF765
:10DCD00013FE07E0002805D00120291C6A460296A1
:10DCE00018F0E9FA09B0F0BD8CEE0200F0B585B08D
:10DCF000071C0D1C081C161C01A902AA19F08DFF97
:10DD00000023019902988B420CD09A008258D46863
:10DD1000002C05D123495268234803F0B7FC26E0C4
:10DD20000133F0E73C2016F00AF8204B041C036096
:10DD30001F4B476083601F4B4563C3601E4B866368
:10DD400003611E4B03A943611D4B83611D4BC361DE
:10DD50001D4B03621D4B43621D4BC362281CFFF722
:10DD60008DFE012805D910481A4919F072FFF2F703
:10DD700052FAA36B4E21181D0022FAF759FB051E1B
:10DD80000DD0032243681A4009D11B685B68F22B4F
:10DD900005D1031D0121104818F078FB6860201C94
:10DDA00005B0F0BD1991030018FD020050EE02000D
:10DDB00089D90000C5DA000049DC000001D9000063
:10DDC00091DC00000164020081D80000516502006E
:10DDD0000D650200429103008CEF020037B51C1C58
:10DDE00000230D1C0093081C0333111C0122FFF7B4
:10DDF000ADFA012D09D0032D0BD12068F3F764FE95
:10DE00006168A268FFF772FF09E02068F5F7CCFFB0
:10DE100005E00349034819F01CFFF2F7FCF93EBD89
:10DE20007091030018FD020038B5051C0C200C1C75
:10DE300015F073FF024B45600360846038BDC04637
:10DE400014EF0200F8B50F1CB8421ED003240440A2
:10DE50001DD1134B02689A421BD1466B002E1AD07B
:10DE600075680836002D18D06B1E9C4208D2A3009E
:10DE7000F058391CFFF7E6FF00280FD10134F3E713
:10DE8000084BED18AD00A859DEE7012006E00020A0
:10DE900004E0201C02E0301C00E0281CF8BDC04655
:10DEA00050EE0200FFFFFF3FF0B585B0051C019169
:10DEB000081C8B0710D10B68154A934204D101232B
:10DEC000029301AB03930DE0124A934204D102A9DD
:10DED00003AA19F0A2FE05E00F49104819F0B9FE97
:10DEE000F2F799F90024029E039FB4420BD0A300DD
:10DEF000F9580B4B994208D0281CFFF7A3FF0028C4
:10DF000003D10134F1E7074800E0074805B0F0BD50
:10DF100050EE020080F702008C91030018FD020011
:10DF200014EC0200B4C1020070C1020008B58307FE
:10DF300003D1064B02689A4205D00549054819F0FD
:10DF400088FEF2F768F9FFF7AFFF08BD50EE020058
:10DF5000C591030018FD02000022114B1A60031C3A
:10DF6000104A1233FF33811800225A701A7004339A
:10DF70008B42F9D1011C031C09310833FF31002207
:10DF80001A709A705A70DA7004338B42F7D1C32337
:10DF90007F329B00C254044A044B1A607047C0464B
:10DFA0006827002011030000B82B03001C0000208C
:10DFB0000023F7B5071C1C1CA200BA18FF32517CC5
:10DFC0007F2951D0927C651C9B18DBB2EF2B2AD99C
:10DFD000EBB20193C1239B00FE187D23351C0093F7
:10DFE000009B019A934209DB281D291C04221DF085
:10DFF000FFF8009B043D013B0093F1E700239500EF
:10E000007D19FF356B74AB74EB742B757D25023471
:10E01000E4B2A5421CDB301D311C04221DF0E8F8DF
:10E02000013D043EF5E77D291BD8104A525CD2071A
:10E0300017D5C1237D269B00ECB2FD18A64207DB55
:10E04000281D291C04221DF0D3F8013E043DF5E7EC
:10E050007E23A200BA18FF32537400239374D37442
:10E0600013750134E4B2A7E7F7BDC0462B93030054
:10E07000012110B54B1EDBB29B00C318FF335A7C45
:10E080007F2A15D00B4CA25C520602D40131C9B2D2
:10E09000F0E75A7D7F2AF9D0A25C7F2AF6D9DA7D93
:10E0A000002AF3D054B2002CF0DB0132DA74EDE731
:10E0B00010BDC0468A920300031CF7B54B4A1333C8
:10E0C000FF3382180021197004339342FAD10B1CDC
:10E0D0005AB2002A01DA464A7DE0021CFC32176976
:10E0E000B94205D37F2244339B001A5401207CE0BF
:10E0F000D668755C602D01D9203DEDB24C1CE4B2B0
:10E10000BC4223D0325D0092602A02D9203AD2B2BA
:10E110000092232D1ED1009A303A092A01D9354A9E
:10E1200059E00231CCB2BC4204D3FF2AF7D8427086
:10E13000211CCDE7315D0D1C303D092DF5D80A2598
:10E140006A430134303A5218E4B2ECE7232DE6D0AA
:10E15000002200920026F7B20197274FF25DAA42F3
:10E1600014D1264AB25C94462A2A0FD0009A9445CC
:10E170000CD16C469A0024798218FF32547444788A
:10E18000013302311475DBB2CCB2D1E70136512E26
:10E19000E1D10022194ED1B2965D2A2E0BD1BE5C80
:10E1A000AE4208D19A008218FF325174417801338F
:10E1B0001175DBB2BCE70132512AEBD1493A104963
:10E1C000895CA94204D0002A04D0013AD2B2F6E711
:10E1D000002A04D10B4A0C4B00201A6005E0191CE0
:10E1E0004331890041188A70A2E7FEBD1203000086
:10E1F000799303008B930300E891030039920300A5
:10E2000058940300999303001C0000201130FF3044
:10E2100003787F2B0AD002228256002A01DC044AAE
:10E2200000E0044AD35C43700430F1E77047C04615
:10E2300008940300DB9203000023F0B589B001903D
:10E240000093009B019A9B00D3180393FF335E7CDD
:10E250007F2E00D1C6E064498A5D900702D4009BFE
:10E260000133BDE0D2074BD4009A7D25571C721CA8
:10E27000D2B204925D4AFFB2921952780592DA7CCA
:10E280001B7D0692C122920094460793019B634432
:10E290001C1C0293BD4207DB201D211C04221CF024
:10E2A000A7FF013D043CF5E7019BBF00DF196B466A
:10E2B0001B7CFF377B746B461B7DB51CBB746B46A8
:10E2C0001B7EEDB2FB746B461B7F3B75009B9C1C59
:10E2D000464BE4B29E19B7787D26039BFF33DA7C68
:10E2E0001B7D03920493A6426CDB029B0422181D43
:10E2F000191C1CF07DFF029B013E043B0293F2E7D8
:10E30000009A0132D2B2131C019844339B001B5C6B
:10E31000002BF6D0009A571C7F2B07D0CA5C12073F
:10E3200002D4243B012B01D8FBB289E7731CDBB27A
:10E3300004932E4B7D259B195B78FFB20593039BBD
:10E34000FF33DA7C1B7D0692C1229200944607932C
:10E35000019B63441C1C0293BD4207DB201D211C52
:10E3600004221CF045FF013D043CF5E7019BBF0082
:10E37000DF196B461B7CFF377B746B461B7DB51C1E
:10E38000BB746B461B7EEDB2FB746B461B7F3B750B
:10E39000009B9C1C154BE4B29E19B7787D26039B0D
:10E3A000FF33DA7C1B7D03920493A6420ADB029BB7
:10E3B0000422181D191C1CF01BFF029B013E043B8C
:10E3C0000293F2E7019BA4001C196B46FF346574AD
:10E3D000A7741B7BE3746B461B7C2375009B033384
:10E3E000DBB22DE709B0F0BD8A9203000894030068
:10E3F000F0B5002587B00190019AAB00D3180293C5
:10E40000FF335A7C002A00D12EE17F2A00D155E14A
:10E41000AB496C1C895CC8062AD5DA7C7D2604923F
:10E42000202211404A424A4115218A1A0392C122F0
:10E430001B7D92000593019BE7B29C18BE4207DB4F
:10E44000201D211C04221CF0D3FE013E043CF5E7F4
:10E45000019BBF00DF196B461B7BFF377B740023DA
:10E46000BB746B461B7CFB746B461B7D3B75ADE040
:10E4700018264E2A02D04F2A23D11B26DA7C7D276C
:10E4800002920D225A74C1221B7D92000393019BBC
:10E49000E4B29D18A74207DB281D291C04221CF0AA
:10E4A000A7FE013F043DF5E7019AA300D31800221F
:10E4B000FF339A746A46127A5E74DA746A46127B83
:10E4C000B1E0502A01D11C26D8E7C90933D0D97C44
:10E4D000002930D0E4B2211C019844318900095C44
:10E4E000002928D1A91CC9B20391890041180F1C29
:10E4F000FF37787C7F281ED0714E305CC0091AD05F
:10E50000F97C002917D0C1227D26019B92009D181D
:10E51000039B9E4207DB281D291C04221CF068FE79
:10E52000013E043DF4E71F237B740023BB74FB749E
:10E530003B75251C60E76C1C172A12D1597B6A1E9B
:10E54000D2B2452901D11B3902E0392902D10D3956
:10E5500059738DE05A4A525CD20900D1ACE01222C4
:10E56000A9E0182A07D15A7B55498A5C7F2A00D82E
:10E57000A2E013229FE0202A05D15A7B3C2A00D03A
:10E580009AE0262297E0482A09D15A7D7F2A03D0B3
:10E590004B498A5C92060FD44B225A740CE03C2AF9
:10E5A0000AD15A7D7F2A00D186E045498A5C9206CD
:10E5B00000D581E03F227EE05A7C4149895CC90751
:10E5C00004D5597B20294BD10C3A74E0029B6C1C7A
:10E5D000FF335A7C352A06D15A7B3A498A5C520766
:10E5E0006AD5102267E02A2A1FD1C1227D26DF7C4E
:10E5F0001B7D92000293019BE4B29D18A64207DBAB
:10E60000281D291C04221CF0F3FD013E043DF5E702
:10E61000019AA300D3182B22FF335A7400229A7454
:10E620006A46DF74127A1A7583E72C2A18D1C12240
:10E630007D26DF7C1B7D92000293019BE4B29D1836
:10E64000A64207DB281D291C04221CF0D1FD013E37
:10E65000043DF5E7019AA300D318FF332D22DCE730
:10E66000452A04D0392A02D00135ECB261E72A1CD0
:10E67000111C019843318900114B095C6C1C595CD9
:10E680007F2919D901320199D2B292008A18FF323A
:10E69000517C002906D05B5C7F2B0DD9D37C002BED
:10E6A00006D009E0527D7F2A06D09B5CDB0903D0AF
:10E6B0001E22029BFF335A74E4B23AE707B0F0BD62
:10E6C0008A9203002B930300F7B501214C1EE4B29C
:10E6D000231C44339B001B5C7F2B2CD0554DEB5CE3
:10E6E000DB0702D40131C9B2F0E7231C013BDBB2E6
:10E6F000002B21D01A1C44329200125C7F2A03D0D6
:10E700004D4EB25C7F2AF1D99A008218FF32567CB6
:10E710007F2E0BD0AF5DBF0603D5474FBE5D76079A
:10E7200004D5967C77080136F61996740133DBB26E
:10E73000A342E9D1D6E700239A008218FF32517C28
:10E740007F2976D03C4D6E5CF40933D04127591CAB
:10E75000C9B28C000419FF34667C0194BC467F2E3C
:10E7600001D0AF5DBC464024AF5D27420FD1123EC1
:10E77000012E01D90B1CDFE70233DBB244339B00CF
:10E780001B5CEB5C2342F5D0937C013B08E06346C5
:10E790005B0707D46346DB07ECD5937CDC081B1BC7
:10E7A0009374E7E7019B9B7B5A1C9B08D318019A43
:10E7B0009373DFE71F4C645C21070FD50133D9B297
:10E7C0008B00C318FF335A7C7F2AD3D0AA5C9207F0
:10E7D000D0D506229A74013A9A73CBE702210E42F1
:10E7E0001BD01C1C0134E4B2211C44318900095C9B
:10E7F0000029F7D001337F2919D00F4D695C8907B3
:10E8000015D5A4000419FF34A17C49080131A17475
:10E81000947C64080134947409E0E40606D5547BC2
:10E820002C5D0C4202D0917C023991740133D9B233
:10E83000A0E7F7BD2B9303008A92030070B5041C78
:10E84000FFF78AFB201CFFF737FC231C0022FC3358
:10E85000011EDA601A61914244D0261C224D113605
:10E860002B68FF36934203D02048311CFBF7A6F8F3
:10E87000201CFFF7BDFD201CFFF7FAFB201CFFF753
:10E88000C5FC201CFFF720FF201CFFF7D5FCC4228D
:10E89000331C9200A1181A78502A06D97F2A07D073
:10E8A000134A144B00211A601CE004338B42F2D14E
:10E8B0002B68002B02D0104813F048F9201CFFF7FA
:10E8C00077FB2B68002B03D00C48311CFBF776F844
:10E8D000201C17F090FE074B094918681CF0A0FD9A
:10E8E00041424141081C70BD48270020B0930300FD
:10E8F000BF9303001C000020E5930300F593030081
:10E90000B82B030038B5051C141C17F0E5FE024BAC
:10E910002560636038BDC0469766020010B50C1EC6
:10E920007F2C06D8012117F03FFF002844D0047047
:10E9300042E0224B99420FD8022117F035FF002800
:10E940003AD04022A3095242134303703F231C4094
:10E95000BF3B1C4344702FE0194B994214D803214C
:10E9600017F022FF002827D02022230B5242134306
:10E97000037080213F23A20949421A401C400A43E8
:10E980000C434270847017E0042117F00DFF00283B
:10E9900012D01022A30C52421343037080213F2354
:10E9A000220B49421A400A434270A2091A401C40F5
:10E9B0000A430C438270C47010BDC046FF070000BC
:10E9C000FFFF000007B5034B009068460193F1F785
:10E9D000B3FD07BD976602008023044A5B051B69EF
:10E9E000107858438023DB02181A7047FE2D002050
:10E9F0008023044A5B051B69107858438023DB029F
:10EA0000181A7047FD2D002038B5084DC4012B6839
:10EA10000021181916F015FD2868054B00197F30E4
:10EA200000781B788342F0D238BDC0466C270020A6
:10EA3000FF2D002010B5C379041C002B08D0064B15
:10EA400000791B68C00118180130A17916F0F9FC93
:10EA50000023237210BDC0466C27002008B503496F
:10EA6000034819F0F6F8F1F7D6FBC04661940300AD
:10EA700028F80200021C124B10B518685379DB010C
:10EA8000C3181C1C7F342178FF2908D11179C901D2
:10EA900041184978FF2910D0907988420DD091799A
:10EAA0005B1801315878CBB27E2B01D0937106E010
:10EAB000002393712378537101E00120404210BD7F
:10EAC0006C27002038B5F8239B021A784D2A01D014
:10EAD0008023DB02802580206D052C69C002644202
:10EAE00023402C6929691C1B001B0AF0B1FF2A4B2B
:10EAF0002A4A18702B69E518AD185B421D40284959
:10EB0000284B294A5B1A9B18802252059D4202D24B
:10EB10001369ED18F3E78020C0021169401B0AF069
:10EB200097FF0122214B641B1870E411204BE4B2C3
:10EB30001C70204B1A6000221F4B5A6059681D4AF6
:10EB40000029FBD0A123DB00D358DBB2A342F2D2D1
:10EB50001A4901330B7001235360FFF73DFF03781F
:10EB6000051C174CFD2B09D180235B051869154B3B
:10EB7000C009C018C001281820600BE0FFF738FF5B
:10EB80000378803DFD2B04D0FFF732FFFD2116F006
:10EB900058FC256038BDC046FD2D0020FF87FFFFD3
:10EBA0000000002028010020A4B10300FE2D002059
:10EBB000FF2D002000D00040FCD00040FC2D0020A4
:10EBC0006C270020FFFFFF01F0B585B0264E274AD5
:10EBD0003478274D201C137829680133029603925C
:10EBE000C201525CFF2A3DD00130C0B2984200D130
:10EBF0000120A042F4D1802300275B051B69DB09BB
:10EC00000193E3010093009A2B689E183278301C20
:10EC100053425341FF1816F02AFC002809D0002364
:10EC2000019A934218D0DA01B25C002A01D1013373
:10EC3000F6E7039B01341B78E4B201339C4200D118
:10EC40000124029B1B78A342DBD1072F02D917F0C6
:10EC500040FEBBE7FF2005E02868009BC01816F0C7
:10EC6000FCFB201C05B0F0BDFC2D0020FF2D00207A
:10EC70006C270020F7B5071C0D1C01240E4B1B78D8
:10EC800001930E4B1E68019B9C4211D8E101711843
:10EC90000B78FE2B09D18B78AB4206D10331381C9F
:10ECA0002A1C1CF096FA002804D00134E4B2EAE7EA
:10ECB000FF2000E0201CFEBDFF2D00206C2700205F
:10ECC00008B5054A03791268DB01D318D81C997876
:10ECD0000022F2F7D7FE08BD6C270020F0B585B002
:10ECE00002900D1C161C0393782949D8FFF7C2FF28
:10ECF000041C002E26D0FF2801D0FFF785FEFFF769
:10ED000063FF041EFF2C05D11F49204818F0A1FF06
:10ED1000F1F781FA1E4FC0013B680190FE211818DF
:10ED200016F08FFB3B68019AE9B29818023016F092
:10ED300088FB3868019B0299C01803302A1CFBF736
:10ED40001DFE02E0331CFF281BD00C2014F0E5FF51
:10ED5000039B002B01D00F4B00E00F4B03600C4BCB
:10ED600004711B684471E4011C19A378C671023355
:10ED70008371012303726B461B7B4372031C00E00B
:10ED80000023181C05B0F0BD7E940300D8F90200E2
:10ED90006C27002000CC020048CC020007B501A976
:10EDA000F3F728FB0199FFF765FFFF2805D1054917
:10EDB000054818F04EFFF1F72EFAFFF725FE03483D
:10EDC0000EBDC046B0440300D8F9020044C20200A0
:10EDD000F7B50192027A061C0091002A01D1FFF7D3
:10EDE0003DFEC579002D06D1214A17680279D2016E
:10EDF000D25D002A23D1092201201A60404236E068
:10EE00003279D201BA185278FF2A24D0D21A944209
:10EE100000D9141C019A521B944200D9141C002CD6
:10EE200024D0009AC91850190131221C1CF0E0F9B5
:10EE3000B379E318DBB27E2B0FD0B3712D19717942
:10EE40007E24C90179180A1C7F32B3791278E41A3A
:10EE5000FF2ADFD1D4E70024DCE70023B371737904
:10EE6000DB01FB187F331B787371E7E7281CFEBDBD
:10EE70006C270020F0B585B00393037A041C019140
:10EE80000292002B01D1FFF7E9FDC379002B07D0D7
:10EE90002B4A03791268DB019B5C029F002B1CD17B
:10EEA000092341E060793368C0011818291C7F30BC
:10EEB00016F0C7FA3368ED015819617916F0C1FAF6
:10EEC00063793268DB01D3187F331B786371009A52
:10EED000019B944663440193BF1A002F29D07E22E0
:10EEE000A3790097D21A974200D90092144E607904
:10EEF0003268C0011018C018009A01300199FBF760
:10EF00003DFDA379009AD318DBB27E2B13D10023E9
:10EF1000A371FFF759FE051EFF2DC3D12079FFF71E
:10EF200073FD002323721C230120039A40421360C7
:10EF300003E0029801E0A371C9E705B0F0BDC04647
:10EF40006C270020002038B5011C14F059FE012464
:10EF5000051C0C4B1B78A34212D30B4AE301126829
:10EF6000D3181A78FE2A08D19978D81C0022F2F713
:10EF700089FD011C281CF7F701FB0134E4B2E8E726
:10EF8000281C38BDFF2D00206C27002013B501A9D7
:10EF9000F3F730FA0199FFF76DFEFF2805D10F490D
:10EFA0000F4818F056FEF1F736F90E4B1C68C301F6
:10EFB000E31859789B780233DAB20023C001201895
:10EFC0007F300078FF2803D09B1A7E330022F5E7BC
:10EFD000881AC01814F020FF16BDC046B0440300C4
:10EFE000D8F902006C27002008B5024A024B14F041
:10EFF000EEFC08BD75EA000035EA000008B50B1C00
:10F000004179021C012904D1C06A191C15F0FFFFC7
:10F0100004E0006B0249D26A16F035F808BDC0461C
:10F02000F4EB020008B50B1C4179021C012904D144
:10F03000C06A191C16F00BF804E0006B0249D26A92
:10F0400016F021F808BDC046E4EB020008B50B1C21
:10F050004179021C012904D1C06A191C15F0F7FF7F
:10F0600004E0006B0249D26A16F00DF808BDC046F4
:10F0700004EC020008B53F22014B17F014FD08BD57
:10F08000B774020008B59122014B17F00CFD08BDC2
:10F0900031020100F7B5041CC579868A0F1CC18AAC
:10F0A00000200191E071A082E082111C201C1A1C3A
:10F0B0000F4B17F0F8FCA368002B18D1E18A002948
:10F0C00008D0A38A002B05D1206B16F0FCFE206B24
:10F0D00016F08BFDA38AE28A201C391C17F093FCE2
:10F0E0006B1E9D416B469B88E571A682E382F7BD4E
:10F0F00035FE000038B58368002B0BD1041C0D1CB5
:10F100000548111C18F0A5FDA060201C291C0C301E
:10F1100017F02EFD38BDC04690FD0200F0B58DB051
:10F120006B4601921B79041C43710123E162036168
:10F130000B780D1C012B02D000219B4A46E0019B5D
:10F14000012B07D9836B01991E68231C406B2A1C75
:10F150000833B047AB68181C049314F07AFB63794A
:10F160000490032B0FD109900C2109A814F08AFBFD
:10F17000A36B021C9B68606B09999847A36868831E
:10F18000002B00D009E1049814F063FB049003788D
:10F19000011C002B23D00A3B0F2B1CD809A917F008
:10F1A00006FC099B772B14D004D803220292312B42
:10F1B00017D008E0812B04D002220292992B10D0A4
:10F1C00001E001230CE0201C0499784AFFF792FF2C
:10F1D000E8E0002304E0201C754AFFF78BFF0223C0
:10F1E0000293049814F035FB5A21049004A814F0FB
:10F1F00049FB049D0390039B9D4200D1C2E004950E
:10F200002B78432B00D1B8E0392B03D0201C049974
:10F21000684ADBE7281C05A914F025FB0378061CC7
:10F22000912BF3D114F015FB059B9842EED1301CC5
:10F2300005A914F018FB0378071C0A3B0F2BE5D82F
:10F2400014F007FB059B061E9E42DFD00378A02B1F
:10F25000DCD114F0FEFA059B9842D7D106A9381CE0
:10F2600017F0A5FB301C14F0F9FA9C21079007A8B1
:10F2700014F008FB011C079814F0DFFA069B061C2B
:10F280002E2B1FD1012804D1079803780A3B0F2B9E
:10F2900003D9201C0499484A98E72669731C236106
:10F2A000019B012B66D909A917F081FBA36B606B49
:10F2B000DB68311C099A984700285BD1201C04990F
:10F2C0003E4A83E72F2B15D1012803D107980378F5
:10F2D000032B03D0201C0499394A77E7019B012BAB
:10F2E00048D9A36B676B1E6914F093FA011C381C94
:10F2F000B0473FE0302B27D1012803D90798037886
:10F30000032B03D0201C04992E4A5FE7019B012B9D
:10F3100030D908A914F06EFA0127079007980378EE
:10F32000032B03D0201C0499274A4FE709A914F0A6
:10F3300061FAA36B07905B69606B0899099A0137C2
:10F340009847B742EAD115E0019B012B12D9032857
:10F3500000D95BE7079B181C099314F07AFA0A900E
:10F3600014F077FAA36B0B909F69606B0699321CBF
:10F3700009ABB847A368002B0FD1281C14F069FA19
:10F38000051C38E76379012B04D9A36B606B5B68BC
:10F3900002999847A368002B04D0201C04990C30D4
:10F3A00017F0E6FB0DB0F0BD9F940300C39403007B
:10F3B000D0940300F89403001B95030037950300D5
:10F3C00047950300639503008895030008B5024A3A
:10F3D000FFF790FE08BDC046AA95030030B50B7834
:10F3E00085B04C1C002B7AD00C1C051C032B09D1BA
:10F3F000081C03A914F0FEF90399041C286B16F0ED
:10F400008DFB6CE0012B07D149780234052966D0C9
:10F41000006BFCF7A9FC62E0042B07D189786378C4
:10F4200009021943006B16F0BFFB16E0052B19D13A
:10F430004379042B02D0006B2A490CE088784B7882
:10F440000002184303A916F0DBF803992D6BF2F7BD
:10F4500031FB011C281C16F0B3FB201C14F0F9F939
:10F46000041C3CE01A1C0A3A081C0F2A08D803A9FD
:10F4700017F09DFA0399041C281CFFF7BFFD2EE02E
:10F48000082B0BD103A914F0ABF9039B2A6A9B004C
:10F49000041C9958286B16F093FB20E002AA03ABDA
:10F4A00001A914F007FA041C0299286BFCF712FC5E
:10F4B000019B0D4A9B009B58281C211C002B03D14B
:10F4C0000A4AFFF717FE09E0039A9847AB68002B3A
:10F4D00004D0EB68002B01D1029BEB60039C201C45
:10F4E00005B030BD44C20200FCEF0200C795030026
:10F4F000F0B587B005930B1C141C5A1E9341009164
:10F50000DBB2061C0599201C0193002514F095F927
:10F51000019B0290AB4209D0009B1B78842B05D144
:10F52000291C306B029A16F04CFD009D271C029B93
:10F53000013B0493019B0393059B9F421CD03B78A6
:10F54000842B0ED1002D06D1306B0399049A16F04E
:10F5500038FD3D1C05E0301C391C214AFFF7CAFD6F
:10F560003BE0381C14F075F9039B071C013303932F
:10F57000049B013B0493DFE7002D07D1019A029B16
:10F5800094466344191C306B16F00FFD019B002B51
:10F590001CD0009BAB4205D1281C14F05FF9011C64
:10F5A000301C01E0301C0099002200F01BF80DE037
:10F5B000AC420FD1201C14F051F9011C301C002268
:10F5C00000F010F8201C14F044F9041C059B9C4228
:10F5D000EED102E0301C211CF1E707B0F0BDC046BF
:10F5E000DF950300F0B50B78171C1A1C0A3A85B09A
:10F5F000041C0D1C0F2A0FD8081C03A917F0D7F9FB
:10F60000201C0399002F01D0022F02D1FFF70AFD21
:10F61000E1E0FFF7F3FCDEE0192B01D86F4AD8E0F8
:10F620001A3B7C2B00D183E004D8252B76D0772B96
:10F6300006D0CBE07E2B00D188E0912B6ED0C5E0C8
:10F64000081C02A914F00FF9061C022F03D0201C7D
:10F65000311CFFF7C3FE301C14F0FBF80299061CA6
:10F6600017F09DF9002800D0B0E03378922B14D128
:10F67000301C03A914F0F7F8061C301C14F0E9F84C
:10F68000039A0190904208D2022F01D1019EF4E723
:10F69000201C311CFFF7A2FEF8E73378A12B19D10B
:10F6A000022F04D1206B16F025FB206B0FE0301CDD
:10F6B00014F0D4F8011C201CFFF790FE206B012FE2
:10F6C00005D116F0EBFA206B16F0BBFA1DE016F030
:10F6D000D0FA1AE0A22B79D1301C14F0BFF803A99C
:10F6E00017F065F9012F07D1206B16F0CDFA206BCA
:10F6F000039916F084FA08E0022F02D1206B16F06D
:10F70000E2FA206B039916F0A7FA301C14F0A1F866
:10F71000029917F044F900285DD157E0002F51D12C
:10F7200003A9281C14F09FF8391C021C201C3CE083
:10F73000081C03A914F097F80399061C17F02FF979
:10F74000002843D1002F3DD1351C17E0002F39D1BF
:10F75000081C03A914F087F80399051C17F01FF97A
:10F76000031E04D0201C391C3A1C3B1C27E02A78BD
:10F770009A2A03D0201C291C1A1C20E003A9281C4B
:10F7800014F071F8061C14F064F803789D2B04D172
:10F790000022201C311C131C11E09E2B07D103A951
:10F7A00014F061F8311C021C201C039B07E0BE2BE7
:10F7B0000CD014F04EF80021031C321C201CFFF763
:10F7C00097FE08E0201C291C054A02E0201C291C89
:10F7D000044AFFF78FFC05B0F0BDC046F995030061
:10F7E0002C96030011960300F0B50B7891B00A3BFC
:10F7F000041C019105920F2B00D9ECE0081C14F0B9
:10F8000028F80378912B00D0E5E0019814F021F856
:10F810000DA914F028F8037842780A3B1B02134321
:10F82000AD2B00D0D7E014F014F80378051CA02B02
:10F8300000D0D0E014F052F8002800D0CBE0281C13
:10F8400014F007F80D9B984200D0C4E0281C14F077
:10F8500005F89C210E900EA814F014F80E9B051CC0
:10F860000293012302980F9313F0F3FF061E0E90EC
:10F87000AE4210D013F0EDFF0E90A8420ED00378E8
:10F88000032B00D0A7E00FA913F0B4FF0E90A842FD
:10F8900000D0A0E002E07A4B029E0293029B1B780C
:10F8A0004833DBB2022B00D895E033784833DBB223
:10F8B000022B00D88FE00D9B181C049313F0C9FF96
:10F8C000059A2769831A5A1E9341021C5B421A400B
:10F8D0000F9B03920593238B27830993638B0A93D2
:10F8E000E38B0B937B1C0693BB1C07936B461B8B14
:10F8F0006383A38BE383FB1C08933B1D2361357853
:10F90000033D6B1E9D41EDB2002D03D0201C311C28
:10F91000FFF764FD0299201CFFF760FD206B08993A
:10F9200016F0FDF90799206B16F0C4F8206B16F05D
:10F93000ABF90022201C0199FFF754FE0499201C0A
:10F94000FFF74CFD206B069916F0B4F8206B059973
:10F9500016F0E4F8206B122116F092FA206B089949
:10F9600016F0A8F8206B002D05D016F097F9206B43
:10F9700016F0A9F905E016F087F9201C311CFFF7F5
:10F980002DFD059B206B1921002B00DA1A2116F0A2
:10F9900077FA206B0121079A16F0CDF96B469B8C04
:10F9A00023836B461B8D63836B469B8DE383039B95
:10F9B000002B03D0201C191CFFF710FD206B391CF5
:10F9C00016F078F8206B16F073F9002D56D0206BE6
:10F9D00016F06EF952E0238B25690393638B6E1C3E
:10F9E0000493E38B66830693AB1C0293A38B01986D
:10F9F000E383244B2B432383EB1C236113F029FF68
:10FA0000011C201CFFF7EAFC071C206B16F0E4F930
:10FA1000206B311C16F04EF8206B029916F0E6F9B7
:10FA2000201C01990022FFF7DDFD391C201CFFF787
:10FA3000D5FC071C206B16F034F8002803D1206B8E
:10FA4000311C16F06CF9206B029916F033F8206B1C
:10FA500016F0D8F96B469B8923836B461B8A638318
:10FA60006B461B8BE383059B9F4203D0201C391CF4
:10FA7000FFF7B4FC206B291C16F01CF811B0F0BD88
:10FA8000F24203000080FFFFF0B5171C85B0041C94
:10FA9000081C0D1C13F0DDFE391C061C16F07FFF40
:10FAA000019000281CD02379201C002B11D0E36A80
:10FAB0001E78002E0DD11321FFF7A0FA291C201C5F
:10FAC000FFF78CFC206B0121321C331C16F0B8FAB6
:10FAD00002E0291CFFF782FC206B16F0E9F858E0E1
:10FAE00033783B2B1BD1291C201C0122FFF77AFD08
:10FAF000301C13F0B3FE4378811C4E3BDBB218265A
:10FB00000A2B01D8244AD65C201CFFF767FC206B27
:10FB1000311C16F0B5F9201C291C022237E03C2BC1
:10FB20002ED1301C03A913F09EFE061C071C039B5C
:10FB30009F4205D0381C13F08CFE0197071CF6E796
:10FB40000199201CFFF74AFC206B16F09DF8201C41
:10FB5000291C0022FFF746FD019B9E4219D0301C54
:10FB600013F077FE019B051E9D4202D0206B16F01C
:10FB70008BF8311C201C0022FFF734FD2E1CEBE714
:10FB8000311C201CFFF72AFC201C291C019AFFF7BE
:10FB900029FD05B0F0BDC04694940300F0B589B0CE
:10FBA000041C0D1C059104921F1C002924D183798B
:10FBB000002B27D0C36A02911B78012B23D105218A
:10FBC000FFF71CFAE26A108D854211DAD16AEB0068
:10FBD000CB1801215E780E4208D05A88206B15F0B0
:10FBE000E0FE0022206B0221131C97E00135EBE7B9
:10FBF000201C00214B4A22E005A89C2113F042FE64
:10FC0000029000E0029300231E1C059D00930393C5
:10FC1000019308E0281C1E4313F020FE0390281CCB
:10FC200013F017FE051C029B9D4254D02B78B82B75
:10FC300008D1B73B1E42EDD0201C291C3A4AFFF7E1
:10FC400059FA6DE0B92B0CD1B73B1E4203D0201CF2
:10FC5000291C364AF3E7281C1E4313F0FFFD0090D1
:10FC6000DDE7BA2B2BD1281C13F0F8FD051C13F08F
:10FC7000F0FD0378BE2B09D1201C291C062216F0AA
:10FC8000B4FF281C013713F0E4FDC9E72B780A3BC9
:10FC90000F2B03D9201C291C254AD0E7281C07A9B3
:10FCA00016F085FE051C0799206B15F07DFF291CB9
:10FCB000201CFFF793FB019B051C0133A8E7019B68
:10FCC000201C291C002B01D01A4AB8E7FFF786FB3D
:10FCD0000137051CA7E7002E15D0039B002B03D18D
:10FCE000206B15F082FF03E0201C0399FFF776FBE1
:10FCF000009B002B03D1206B15F077FF03E0201C45
:10FD00000099FFF76BFB049B206B391C019A002BB9
:10FD100003D0331C16F09EF902E0331C16F090F964
:10FD200009B0F0BD58960300769603008D96030047
:10FD3000A5960300C6960300F0B589B0041C039194
:10FD400003A8072113F09EFD0027E36A01905E7E61
:10FD50000398019B98424AD005A913F084FD4021E5
:10FD6000039003A813F08EFD06A9051C039816F056
:10FD70001EFE069B02902A2B19D1A8420DD2029892
:10FD800013F067FDA84208D1029807A916F00FFEEC
:10FD9000079B2B2B07D02D2B07D0201C0021244A9A
:10FDA000FFF7A8F920E001261EE004261CE0201C35
:10FDB0000399FFF713FB013703900398A84208D07B
:10FDC00007A916F0F4FD07990390206B15F017FFB3
:10FDD000F3E7281C059916F0E2FD002804D1A07174
:10FDE000291C201CFFF7FAFA059B0393B0E7181CA7
:10FDF00013F034FD019B03901B78011C321C201C66
:10FE0000242B02D116F088FE01E017F004F9051C3E
:10FE1000013F06D30022206B0121131C16F010F9BC
:10FE2000F6E7201C291CFFF7FDF809B0F0BDC0461D
:10FE3000E8960300F7B50A780824131C293BA3436E
:10FE4000DBB2002B02D10133C37168E0131C2A3BE3
:10FE5000A343DBB2002B62D0131C0A3B0E1C041C14
:10FE60000F2B1DD9081C282A13D101A913F0FBFC64
:10FE7000071C13F0EEFC019B0025984212D013F0F2
:10FE8000E8FC019B051CC31A5A1E93415B421D40AE
:10FE900008E013F0E3FC071C13F0DBFC051C01E099
:10FEA0000F1C0025381C01A916F081FDE379002DF7
:10FEB00002D02A78002A0AD1002B30D1E38A002B05
:10FEC0002DD0201C311C164AFFF714F927E0002B17
:10FED0001ED0A38A01339BB2A382012B0CD1E18AED
:10FEE000206B002902D015F0EEFF01E015F07DFE39
:10FEF000206B002116F00EF8291C201CFFF76EFA6B
:10FF0000206B019915F050FE206B16F00FF806E0FB
:10FF1000E38A201C0133E382291CFFF75FFAF7BD57
:10FF200006970300F0B5041C0E1C056987B0039307
:10FF30006B1C0293AB1C0361291C006B171C15F092
:10FF400028FF201C16F03BFD311C201CFFF746FA51
:10FF5000206B15F05DFF206B029915F0E0FE206B21
:10FF6000291C15F0A7FD206B16F0B9F82669731C43
:10FF70002361039B9F4200D191E0381C13F06EFC7B
:10FF8000002305932369051C019301332361037842
:10FF9000002B0FD113F05DFC13F05BFC039B984228
:10FFA00023D0201C291C4B4AFFF7A4F8A38B013B4C
:10FFB000A3838CE0071C6A2B07D113F04FFC071CAE
:10FFC00013F047FC05A916F0F2FC206B15F05CFE5F
:10FFD000391C201CFFF702FA206B212115F050FF7D
:10FFE000206B0021019A15F0A6FE281C13F031FCAD
:10FFF000071C206B15F05CFE0599002903D1206BCE
:020000040001F9
:1000000015F056FE02E0201CFFF70CF80025206BCF
:1000100015F04EFE059BAB4209D02569206B6B1C89
:100020002361291C15F0C1FE201C16F0C8FC391CE8
:10003000201CFFF7D3F9059B071C002B02D0206B77
:1000400015F0E6FE206B15F004FF059B002B19D080
:10005000206B0F21FBF788FE206B291C15F02AFD71
:10006000206B0F21FBF780FE201C0599FEF7DAFFBD
:10007000201C0599FEF7EAFFA38B206B013BA383AD
:1000800015F09FFE206B311C15F049FE206B019985
:1000900015F010FD206B032115F008FD69E7A38B17
:1000A000206B013BA38315F08CFE206B16F01BF830
:1000B000206B029915F0FEFC0C9B002B03D0201C3A
:1000C000191CFFF78BF9206B311C15F0F3FC07B0FE
:1000D000F0BDC04634970300F0B587B00391437973
:1000E000012B42D1C36A041C1B78002B03D1204A88
:1000F000FFF700F839E0039B03A84321019313F0B5
:10010000C1FB02900398029B98422ED005A90B27B1
:1001100016F04DFC02AB059DFF180390291CE06A08
:100120003A1C13F017FF3B78061C002B06D103780E
:10013000042B03D0201C01990E4A0CE0E06A291C14
:1001400013F035FF002803D00378023B022B05D9BA
:10015000201C0199084AFEF7CDFFD3E70423337032
:10016000E06A291C13F035FFCCE707B0F0BDC046AC
:10017000539703007897030099970300F0B585B073
:1001800001914379012B2BD10091041C432101A83B
:1001900013F078FB071C0198B84221D003A90B2566
:1001A00016F005FC039E6D440190311CE06A2A1C88
:1001B00013F0D0FE2B78002B08D10378012B05D04B
:1001C000201C0099074AFEF795FFE4E7012505701A
:1001D000E06A311C13F0E2FE0028DCD00570DAE79B
:1001E00005B0F0BDB797030010B5438B041C002B7E
:1001F00002D1054AFEF77EFFA38BE28B618B9A1A30
:10020000206BFBF7D7FD10BDD697030010B5038B0D
:10021000041C002B02D1054AFEF76CFFA38BE28B76
:10022000218B9A1A206BFBF7C5FD10BDEE970300DA
:10023000F7B50B78041C1A1C0A3A0E1C0F2A08D8B2
:10024000081C01A916F0B3FB201C0199FEF7FEFE65
:1002500076E0912B3FD1081C694613F004FB011C8A
:10026000201CFFF7BBF80378051C922B10D101A9C5
:1002700013F0F9FA051C281C13F0EBFA019B071E7A
:100280009F4205D0291C201CFFF7A8F83D1CF2E76F
:100290002B78A12B0BD1281C13F0E0FA011C201C99
:1002A000FFF79CF8051C206B15F02EFD0CE0A22B2F
:1002B00041D1281C13F0D2FA01A916F078FB01995C
:1002C000051C206B15F009FD281C009916F067FB32
:1002D000002830D034E0962B2DD1081C13F0FEFA04
:1002E000002828D1301C13F0B9FA061C13F0B6FA16
:1002F000051C201C291CFFF79BFF281C13F0A9FAE2
:100300000378011C9D2B1BD09E2B0ED101A913F04D
:10031000AAFA019B051E9D4212D0201C291CFFF742
:1003200087FF281C13F095FAF3E7BE2B03D0201C9F
:10033000FFF77EFF04E0201C311C024AFEF7DAFEC4
:10034000F7BDC04603980300F7B502260D1CC16A2D
:10035000041C097E314003D0201C291C334A5EE076
:1003600001912978081C0A380F2801D8281C05E0BB
:100370001A32914212D1281C13F070FA01A916F01A
:1003800016FBE279E36A002A04D15A8B01325A83C0
:10039000012635E09A8B01329A83F9E71A339942A4
:1003A00023D1E379002BD7D10127281CE77113F063
:1003B00095FA0326002823D1281C13F04FFA02785F
:1003C000E36A0A3A0F2A04D81A7E281C17431F76BC
:1003D00005E01A7E281C17431F7613F03FFA13F02E
:1003E0003DFA01A916F0E3FA0AE0281C13F036FAE8
:1003F00001A916F0DCFAE26A137E1E431676052682
:100400000199002911D06B46DF1CE06A3A1C13F0F9
:10041000A1FD3B78002B05D1201C291C044AFEF7C6
:1004200069FE02E0022346700370F7BD90430300AB
:100430001B98030038B5C36A041C1B780D1C012BE4
:1004400004D000210B4AFEF755FE11E0081C111CD8
:1004500016F0A5FA002804D0206B0F21FBF784FCCE
:1004600003E0201C291CFEF7B9FF206B15F0FDFDF1
:1004700038BDC0463498030038B5C36A041C1B78E5
:100480000D1C013B012B04D90021164AFEF732FE58
:1004900026E0081C111C16F082FA002804D0206BFC
:1004A0000F21FBF761FC18E02B78C22B11D1281C1F
:1004B00013F0D4F9011C201CFEF790FF206B15F0FF
:1004C0008BFC206B0F21FBF74FFC206B15F0F7FD29
:1004D00006E0201C291CFEF781FF206B15F0E0FDD3
:1004E00038BDC0464E980300F0B5041C85B00D1C05
:1004F000081C111C16F053FA002804D0206B0021B0
:1005000015F008FD80E02B78AF2B0BD1206B01217B
:1005100015F000FD201C291CFEF760FF206B15F074
:1005200005FD71E0AE2B67D1281C13F097F9051C6F
:1005300013F08FF902900378B22B53D103A913F073
:1005400092F9039B0290984203D002A8992113F0DC
:1005500099F92B78AF2B11D103990298266B13F0E0
:100560006CF9411C301C15F0D5FC291C201CFEF731
:1005700035FF206B15F0DAFC012304E0201C291C58
:10058000FEF72CFF0023029F0193039B9F421ED086
:100590003E78391CAF3E201C73425E41FEF71EFFC1
:1005A000019BF6B2071C002B09D0002E03D1201CA2
:1005B000291C164A08E0206B15F0B8FCE5E7002E70
:1005C000E3D0201C291C124AFEF794FD1CE0019B7D
:1005D000002B19D1391C0298246B13F02EF9411C01
:1005E000201C0FE02B78201C291C0422AF2B00D0EC
:1005F000052216F0FAFA07E0291C201CFEF7EEFE91
:100600000121206B15F0AAFC05B0F0BD679803002E
:100610008A980300F0B50123041C0D1C427187B0B9
:10062000E1620361111C006B2A1CFBF78BFA6379F2
:10063000012B02D100236B84AB84AE6833781E2B70
:1006400007D1301C13F00AF9011C201CFEF7C6FE6E
:10065000B9E02B78002B04D1201C311CFEF7BEFE24
:10066000A7E0012B1ED1301C13F0F3F86379051CB1
:10067000012B07D10023201CE371291C0C22564BAF
:1006800016F011FA281C13F0E4F813F0E2F8011C3C
:10069000201CFEF7A3FE206B15F003FA002800D003
:1006A00094E086E0022B18D16379012B07D1002357
:1006B000201CE371311C1422484B16F0F4F9301C55
:1006C00013F0C7F8011C201CFEF788FE2B7E5B0789
:1006D00079D5206B15F0ECFA6BE0033B032B3AD88D
:1006E000301C13F0B6F805A913F0BDF813F0B1F8FB
:1006F00067790390012F09D10B2202ABD218E06A6F
:10070000391C13F027FC022303706F832B78032B13
:1007100004D1206B002115F0E3FB0CE0042B04D185
:10072000206B002115F0F6FB05E0052B03D1206BB3
:10073000002115F013FC201C0121FEF75FFC0023B3
:10074000201C00930399331C059A16F062FF2B7846
:10075000062B38D12DE06379012B06D1281C052109
:1007600005AA13F0F7FB0223037005A9A86816F089
:100770001EF9201C0D21FEF741FC201C0C21FEF768
:1007800051FC206B296915F00FFA1121201CFEF78E
:1007900049FCA86813F05DF813F05BF8011C201CFD
:1007A000FEF71CFE281C052113F0C4FB0378022B66
:1007B00004D1206B0F21FBF7D7FA04E04288052112
:1007C000206B15F0EEF8206B15F04FFC206BFBF75B
:1007D00047FA07B0F0BDC0463B7202002F7202001C
:1007E000F0B51E1C0F1C99B009AC00210590151C1A
:1007F000201C3C221AF019FD059B09975B682671A5
:100800002362059B186813F024F813F002F8606265
:10081000800013F094FA0021059BA06200951B68EC
:10082000201C0A1C16F0D5F815F025F900230290BB
:10083000206303930026331C626A964202D3002B86
:10084000F8D12CE0A268002AF9D1A16AB20055586B
:10085000002D16D06A69002A13D113F0D4FB6B7EE9
:100860006861291C201C0122042B02D1FEF756FCD2
:1008700001E0FFF7CFFE2369039A9A4200D2039367
:1008800001230136D8E70B9A002A00D0AEE0049984
:10089000139B8900CB58002B09D1049B013304938F
:1008A000129B0693069A049B9342ECD39EE0197E1A
:1008B000C90723D51C8D601EC000002C1ED0D96A2C
:1008C00009184D78AE0711D5002A17D050880F1C93
:1008D0008446506816780690557811CF11C262464A
:1008E0004A80069A0E704D704A6007E0002A02D1D5
:1008F000012D00D10A1C013C0838DEE700211984D3
:100900001A8D944691421CDAD86ACA008218187867
:10091000072802D15468052C11D00138052804D8C5
:100920001078002801D1013010701078022802D010
:100930005078C00703D5188C441C1C8450800131AA
:10094000DEE7002161450ED0D86ACA00821810780F
:10095000032806D15078C00703D4188C508001308A
:1009600018840131EEE75E68002E96D00024328DA7
:100970000792221C07998C421CDAF16AE0000918E0
:100980000691097800250339012911D865450FD052
:10099000DF6AE90079180F78042F07D106984768B5
:1009A000381E4F68B84201D14A8001320135EDE767
:1009B0000134DFE70020824200D16EE760450DD0B0
:1009C000DC6AC10061180C78042C02D14C78E40771
:1009D00002D54C8814194C800130EFE7598B92B244
:1009E00051185983198C52181A8456E70026029818
:1009F000039915F045F8351C129B04939E4210D3C1
:100A00000B9B0393002B4FD0149B0CA8996816F0F6
:100A1000AFF8149B0B9809990C9A1B6900F0A4FE7F
:100A200042E00B9B0493002BEAD1139B0493049A9E
:100A3000B3009C58002C35D0637E042B19D1002DB7
:100A400003D1039814F0DFFC051C002315932D4BF4
:100A500009A8211C032217931695FEF75FFB0B9B39
:100A60000493002B1ED109A8211C0422FEF756FB7B
:100A700018E0029B09A8211C02221593FFF7CAFD6A
:100A80000B9B0493002B04D109A8211C0322FFF720
:100A9000C1FD0B9B0493002B04D109A8211C042247
:100AA000FFF7B8FD0136A7E7029814F0F1FF002D1B
:100AB00002D0281C14F0B8FC0024059812F018FF8E
:100AC000139B1B685D69129B02939C420AD2139B85
:100AD0000293029AA3009858002801D013F021FA3B
:100AE0000134F0E7139813F03FF90B9A002A02D073
:100AF000101CEFF790FB281C111C13F08FFA19B093
:100B0000F0BDC0462CDD0200014B58687047C0465E
:100B1000882E0020014B18687047C046882E0020A0
:100B2000F0B5194E87B03368051C00200C1C0193EA
:100B300012F0E5F830600090206815F0ADFB019BE5
:100B4000071C3360114E022D03D0A068F3F72CF977
:100B5000061C211C63680831A81E039300F0F2FBF9
:100B6000009B04900593301C03AB03210022FBF78C
:100B70003BFD074B041C9F4203D0381C211C12F084
:100B800020F8201C07B0F0BD882E002050EE020097
:100B900044C20200F8B50326051C071C3540022D8F
:100BA00015D10E4B0340062B11D0FF23DB05C418D3
:100BB000B443201C002109F01DF900280BD080232C
:100BC0001B06E018B043064B2843C01804E0381C4D
:100BD000F6F704FE00E0381CF8BDC046070080FFB1
:100BE0000000808010B5FBF7F9FD041C201CFBF70A
:100BF00043FE002805D0F3F701FB0028F6D1024898
:100C000000E0024810BDC046B4C1020070C102003D
:100C100010B5FBF7E3FD041C201CFBF72DFE00289C
:100C200005D0F3F7EBFA0028F6D0024800E00248BE
:100C300010BDC04670C10200B4C1020007B5044B2C
:100C400001906946022000220093F2F747F90EBD99
:100C50000604000008B5F3F72DF9034B002800D176
:100C6000024B181C08BDC04670C10200B4C102008E
:100C700037B5F3F783F901AB7F2802D8187001214B
:100C80003CE02149820988420AD8402149420A436E
:100C90001A703F221040BF3A1043587042312DE085
:100CA0001A49040B88420ED8202149420C431C707B
:100CB00080245F310A4064420840224320435A7036
:100CC00098703C391AE01249884211D81025810CDD
:100CD0006D42294319703F21703D0C400A40084085
:100CE0002C432A4328435C709A70D8703B3905E046
:100CF0000849094816F0ADFFEFF78DFA181C0122DC
:100D0000F0F7C0FE3EBDC046FF070000FFFF000039
:100D1000FFFF1000A998030028F8020008B5021C84
:100D200002490A20FBF7E8FD08BDC046BE040000EA
:100D300008B5021C02490A20FBF7DEFD08BDC046CB
:100D40003E050000F0B585B002900192101C0C1C0D
:100D5000002232490393F7F76BFB0090002801D083
:100D600043680093029B012B03D000252E1C0195A4
:100D70003CE020680024FBF731FD271C029002981C
:100D8000FBF77AFD051E17D0009B2E1C002B04D00C
:100D9000181C291C15F087FA061C002C09D0039892
:100DA000311C3A1CFBF7A8FD1D4B984201D0251CB5
:100DB0003E1C2C1C371CE2E7221E2BD1019819493E
:100DC000F7F736FB002801D0426823E016491748A0
:100DD00016F03FFFEFF71FFA009B002B0AD12768A0
:100DE000002E0DD12668019701350434029B9D42E7
:100DF000F2D10EE00098216815F055FA071CEFE7D4
:100E00000398391C019AFBF777FD054B9842EBD10B
:100E1000E8E7321C101C05B0F0BDC046D606000045
:100E200070C102001E050000CA98030028F80200E5
:100E300037B501A9051CF1F7DDFA1E4B041C2B4048
:100E4000062B05D0AB072AD12A681B4B9A4226D124
:100E5000201C019915F0B4F90190012822D12078C5
:100E600043B2002B04DB012320784000184320E02C
:100E70007F23013418403F3B184202D098435B1057
:100E8000FAE722783F23111C9943802904D180017D
:100E9000134001341843F4E712F0BEFF09E0019B50
:100EA000012BE0D00549019A054800F0EFFBEFF770
:100EB000B2F93EBD070080FF1CC00200E3980300AA
:100EC00018FD0200F0B587B0141C02900391101CAD
:100ED00023490022F7F7ACFA2249051C0022201C06
:100EE000F7F7A6FA0123041C049305931E4F002D67
:100EF00007D068681D4B984203D004A9F1F77AFA2D
:100F0000071C1B4D002C07D06068184B984203D07B
:100F100005A9F1F76FFA051C0024029B154E9C42AF
:100F200012D0002C07D00023301C00930193391CF1
:100F3000049AEFF78DF9039AA300D158301C0022D0
:100F4000F2F74CFF0134E8E70023301C00930193D3
:100F5000291C059AEFF77CF9044807B0F0BDC0469C
:100F6000EE050000F6050000FAA7030044C20200E7
:100F70000947030090B902007FB50D4DA84214D077
:100F8000041C0C4E0122301C211CF2F727FF0A49D9
:100F9000301C11F03DFD04230293084B0394DB69E0
:100FA0000748032102AA01939847281C04B070BD8A
:100FB00044C2020090B9020009470300CCD80200E5
:100FC000D8F2020010B5041C86B002A86A461021AF
:100FD000FDF798FC6846211C0122F2F7FFFE02A9EA
:100FE0000248F0F719FD06B010BDC0461CC0020053
:100FF00070B50C68031C201CE2074AD4A20703D179
:10100000244A2568954244D0012B1FD94868F2F73D
:10101000B5FF061C201CF3F715F8051C301C09F061
:1010200005FE011C1C480CF005FD041C211C281C9D
:1010300009F02CFB0CF0B0F9211C09F035F9032361
:101040009843013B1843154BC01822E0201CF2F7CF
:10105000F9FF061C0CF0A0F9051C09F0C7FD291CBE
:10106000041C301C09F044FCFC218905051C08F017
:10107000BBFE002801D0013406E0BF21281C090670
:1010800008F0B2FE002801D001239C43201C12F07E
:10109000C3FE70BDE4C1020000002041000080805A
:1010A00013B5041C081CF0F70FFD6A46011C201C38
:1010B000FBF718FB009B0248002B00D1014816BD2E
:1010C00070C10200B4C1020037B50024022800D963
:1010D0008C6848680D68F0F7F7FC094B011C002C80
:1010E00000D0084B281C6A4698470098002805D075
:1010F0000199002903D000F0ABF800E0201C3EBDB0
:1011000045C70000E5C6000038B5051C081C141CC6
:10111000F0F7DAFC221C011C281CFBF73BFB014802
:1011200038BDC04644C2020008B5FBF77FFB00286B
:1011300004D1034816F080FDEFF76DF808BDC046F6
:10114000D4FA020030B50B1C85B0141C012805D957
:101150000A490B4816F07DFDEFF75DF809480121BB
:10116000C2680192019D0022A84703A90390221C96
:101170000120F5F767FA039805B030BD1D9903000B
:1011800018FD020088CA0200F8B50E1C002803D121
:101190002A4B041C1D6823E0086883070AD10368F2
:1011A000274A934203D112F0E3FD051C0EE0254AC5
:1011B000934201D0F2F7F8FD856B002D06D02A6826
:1011C000214BD31A594259414B421D403068F2F726
:1011D000EBFD1E4BC26800249A4201D134680434EE
:1011E0000020011C12F00CFD0027061CBD4209D195
:1011F0000025AC4216D11FE0EA68FB00995800298F
:1012000004D10137AB689F42F6D3F1E70429F8D047
:10121000301CF5F7B3F9F4E7A268EB009958002900
:1012200004D1013563689D42F6D305E00429F8D066
:10123000301CF5F7A3F9F4E7301CF8BD882E002028
:10124000CCD8020050EE02002CBC0200C5DA00002F
:1012500038B5051C0C200C1C12F05FFD024B4560DC
:101260000360846038BDC04628F7020070B50E1CCC
:101270001049041C002511F0CBFB73689D420ED26F
:10128000002D03D0201C0C4911F0C2FBAB00F31859
:10129000201C99680122F2F7A1FD0135EDE7012B31
:1012A00003D1201C054911F0B3FB201C044911F0A7
:1012B000AFFB70BD9B2B0300C625030048990300BC
:1012C0001D40030070B501281ED0002805D002285B
:1012D0001ED10D1C0F4C002605E04B680E48002B5C
:1012E00017D10E4815E06B689E4209D2B300EB1887
:1012F00002209968FBF70EF9401024180136F2E736
:1013000001206400204304E04B685B00184300E0C8
:10131000002070BDBCF7020070C10200B4C1020021
:1013200010B5041C102012F0F8FC044B846003601C
:10133000034B43600023C36010BDC04684BB020062
:10134000D97B020070B50E4A002816D0841CA40078
:10135000061C201C0D1C12F0E0FC0A4A46600260CC
:10136000021C002D09D00022083CA24204D0AB5838
:1013700081188B600432F8E7021C101C70BDC04657
:10138000BCF7020080F702007FB5041C0E1C151C80
:10139000072829D002D8052805D062E0031C193B94
:1013A000042B3ED95DE0101CF2F7FEFC2F49FCF740
:1013B00049FD011E56D06B68726800219818FFF72E
:1013C000C1FF311C7368041C9A000831083019F001
:1013D0000FFF291C70686B680230800020189A008B
:1013E000083119F005FF18E003A9101CF2F704FEFC
:1013F0000021884236D00398884210DD7368584334
:10140000FFF7A0FF041C231C301C08330093083096
:1014100004217268039B14F0FBF8211C22E014499C
:1014200020E0081CF2F7C0FC281CF2F7BDFC114BB1
:10143000426A9A4206D0281C0C4915F0CBF80E4996
:10144000051E0FD0311C2B1C6A680831009208332E
:10145000201C7268FAF732F90849002802D10649BF
:1014600000E00021081C04B070BDC04680F70200F7
:10147000BCF7020021130100B4C1020070C10200D8
:1014800030B585B0042A2DD103240A1C051C0C405C
:101490001FD1164B096899421BD1111C406801AA43
:1014A000FAF7D2F8002802D11148FBF745FF019B5B
:1014B0000298211CC01AFFF745FF041C636808301E
:1014C0009A00019B991C8900691819F091FE201C53
:1014D00009E0286869680023F2F728FE02308000DE
:1014E000405900E0002005B030BDC04628C10200D0
:1014F0005D270300F0B51D1C002385B0081C009378
:101500000C1C111C1A1C0133FBF720FF1748002C80
:101510002AD02868830703D1154B02689A4223D04A
:10152000102012F0FAFB041C2868FBF757F900257D
:10153000042603900398FBF79FF9071E0BD0B542D2
:1015400005D3F100201C12F0FEFB041C7600AB005A
:101550001F510135EEE7281C211CFFF7F3FE051C87
:10156000201C12F001FC281C05B0F0BDBCF70200E5
:1015700080F70200F7B51F1C0023061C0093081C0F
:101580000D1C111C1A1C0B4BFBF7E0FE102012F077
:10159000D1FB041E04D1084A084B094CDA6104E06F
:1015A000281C391CFFF7CEFEE06000232660201CBB
:1015B000A360FEBDFFFF0000BCF70200882E0020E4
:1015C000982E002010B5013810C9FFF7BBFEE0606F
:1015D000004810BD44C20200F8B57F23171C151C3B
:1015E000041C0E1C1F409A430AD17B1E012B07D8F6
:1015F0000B68586813F0FFFF011C201C11F008FA5B
:10160000022F04D1201C0F4911F002FA01E0002F33
:1016100012D1F368002B02D05A68002A04D1201C92
:10162000094911F0F5F90CE0012A05D1201C99684F
:101630000022F2F7D3FB04E0201CF1682A1CFFF71C
:1016400015FEF8BDD1900300C92B0300C368034801
:101650005A68002A00D098687047C04644C2020009
:10166000136810B5002B0ED17D2902D1C368136019
:1016700009E0054B04689C4205D1BA2903D1141C2A
:10168000FFF7E4FF206010BDD4FA02000EB470B57D
:10169000051C87B0102012F04DFB041E06D11B4B19
:1016A0001B4A1D619861DA611A4C29E0002105602E
:1016B00081600120FFF746FE0B9B051CE060002BBC
:1016C0001ED0181C252119F09DFE061E08D10B986E
:1016D00019F0B0FE321C011C0B98F0F7D3F90EE0A4
:1016E00002A8102114F0F8FF0CAA02A80B9901928D
:1016F000FDF768F9084802A9E568F0F78DF9A860D8
:10170000201C07B070BC08BC03B01847882E00200E
:10171000BCF70200982E00201CC0020008B5031C74
:10172000820708D1064A0168914204D1054AD96866
:101730000120914203D0181C0349FCF783FB08BD2C
:1017400050EE02007515010094FB020010B5041C58
:10175000F2F72AFB034BC2689A4200D024690023A7
:10176000A36010BD75150100F7B5161C0193041C8C
:101770000F1CF2F719FB174BC2689A4200D024697C
:10178000A568002D09D10C2012F0D4FAA060002821
:101790001ED00323E580A38010E0E388A1880233F4
:1017A0008B420BDB03318900281C012212F0D8FA8E
:1017B00000280DD0A388A0600333A380E288A1682D
:1017C00093000332E280019ACB181F605E609A603A
:1017D000F7BDC0467515010070B5151C041C0E1C24
:1017E000F2F7E2FA064BC2689A4200D02469A36875
:1017F000002B01D1336001E0E28832602B6070BDC4
:101800007515010038B50523041C094A094D1068F7
:10181000434309481B199B0018582B68146018187B
:101820000F23194009012860EFF7BCFA38BDC04604
:10183000702700206827002090FE0200A839031CB2
:1018400000B5081E06282ED808F0E4F8040A101582
:101850001B2027009A18E223DB00D218107826E01C
:10186000C4329200D05C8006800E20E0C432920028
:10187000D05AC00403E0C4329200D0580003400E96
:1018800015E0C43292009A1890780AE0C4329200AF
:101890009A18D0780007000F09E0C43292009A1815
:1018A000D078000903E00020014A024B1A6000BD15
:1018B00011A103001C000020A83910B5041C081E4B
:1018C000062846D808F0A6F8040A131E29333B0060
:1018D000E221A218C900521813703DE03F20C43223
:1018E0009200115D034081430B43135534E07F2187
:1018F000C43292000B409901105B184B03400B431C
:10190000135329E07F21C43292000B40105914492F
:101910005B0301400B4313511EE00F21C4329200C0
:10192000A21890781B0101400B43937014E00F2024
:10193000C4329200A218D1780340814306E00F21FF
:10194000C4329200A218D0781B0101400B43D3701F
:1019500002E0044A044B1A6010BDC0463FE0FFFF9E
:10196000FF1FF0FF1CA103001C000020F0B585B094
:1019700003930723D2B21340013BDBB20F1C042BAD
:1019800002D92B4C2B490C602B49CE5C07211B0242
:101990008A43019308D1294BC55C2D09ED43EBB275
:1019A0003D7800932C1C1FE0D443E4B20825244B5F
:1019B000019A1B199B5C5F00FFB2DB0904D0022077
:1019C0000521FFF71FFF05E00120311CFFF71AFF7B
:1019D000002EF4D0013DEDB23B1C002DEBD10134C3
:1019E000E4B2002CE2D120E00826154B019A1B1925
:1019F0009B5C5A00D2B20292DB0902D003201A216A
:101A000001E004200621013EF6B2FFF7FBFE029B37
:101A1000002EEED1009B0134E4B25B1B1B19DBB23C
:101A2000002BE1D1009BED1A3D70039805B0F0BD8D
:101A300028A103001C0000203BA40300190700009C
:101A40004A9903000022F0B5051CFF248BB008ABB7
:101A50000191DA71231CC4339B00EB189978604E16
:101A60000A09B05C0F220001114001439970D97836
:101A70000807000F375C9143174039430809305C71
:101A80000A4000010243DA70013CE3D2E223DB00AA
:101A9000EE5CB308F31ADBB20693524B1B68002BC3
:101AA0000BD081231B01E818C4239B00E918E22313
:101AB000DB00EA18019BF7F7C9FF00244823271C25
:101AC00004930394029481222B1912019B181B7812
:101AD00005930723059A9A4307920BD008ABD91DAB
:101AE000281C231C059AFFF741FF019B0230C4B25A
:101AF000023B32E03C48029BC35C9C46231C62468E
:101B0000C4339B00EB189978DB7809091143374AF5
:101B1000515C039A805C1A07120F1043334A1B0969
:101B2000105C40183249C95D0B43D15C0123411858
:101B3000FF2801DC6B461B7FC9187839C9B2090937
:101B40000020FFF75FFE049B013BDBB20493002BF8
:101B50000AD1019B0134E4B2013BDBB20193019B4A
:101B6000002B3BD02B780493013EF6B2002E0CD113
:101B7000E22200272B19D2009B181E780397B30886
:101B8000F31ADBB2069302979DE7069B013BDBB29B
:101B90000693002B02D1059B002B16D1221CC432C8
:101BA0009200535D02999B069B0ECB18DBB2029309
:101BB000535B0399DB045B0ECB18DBB203935359E1
:101BC0001B035B0EFB18DFB27DE708ABD91D281C99
:101BD000231C059AFFF7CAFE041CC9E70BB0F0BD31
:101BE00096A103004827002077A403009A9E0300D3
:101BF000F7A10300064A125C002A05D0054A135CCF
