:020000040000FA
:1000000000400020359901007199010073990100A9
:1000100000000000000000000000000000000000E0
:1000200000000000000000000000000075990100C1
:10003000000000000000000077990100799901009C
:100040007B990100C16C0000398F01007B99010090
:100050007B99010000000000C99501007B99010017
:10006000FD020000CD8C01001D9701007B9901006D
:100070007B9901007B9901007B9901007B9901002C
:100080007B9901007B9901007B9901007B9901001C
:100090007B990100418801000D89010039040000AD
:1000A000490400007B9901000000000000000000EE
:1000B0000000000000000000000000000000000040
:1000C00010B5064C2378002B07D1054B002B02D02E
:1000D000044800E000BF0123237010BD2001002070
:1000E00000000000587F0300044B10B5002B03D024
:1000F0000349044800E000BF10BDC04600000000F6
:1001000024010020587F0300164B002B00D1144B14
:100110009D46402292029A1A924600218B460F4633
:100120001348144A121A28F0A8F80F4B002B00D0DD
:1001300098470E4B002B00D0984700200021040068
:100140000D000D48002802D00C4800E000BF1FF051
:100150004BFA2000290027F04BFD1FF091F9C04613
:100160000000080000400020000000000000000027
:1001700018010020C42F0020000000000000000033
:1001800010B50C0022F06AFB631E184207D0020073
:1001900023000349034814F0C7F803F0EBF810BD3F
:1001A00086F3020000DC020010B54A680249D20062
:1001B00020F053FD10BDC046AEF3020070B50B0039
:1001C00006001400101E0FD071681800042A0ED10A
:1001D000FFF7D6FF7368012B03D0022B05D0006810
:1001E00000E0007822F0FDFA70BD0088FAE7FFF722
:1001F000C7FF0500200007F01BFC726803000548DC
:10020000012A03D0022A03D02B60EDE72B70EBE725
:100210002B80E9E7488B02008022044B52001A60D1
:100220000123034A1360034A1360704700E100E0B2
:100230000C8C0040008000408022054B5200DA67A1
:10024000044BFF3A5A600022034B1A607047C046C5
:1002500004E100E0008000400C8C004070B50025F7
:1002600001261E4B1E4C1D601E4B18601E4BE65097
:10027000C046FFF7E1FF1D4B1D4AE660E250022237
:100280001C4BFF20E5500433E25008339218E25033
:10029000C12380229B001203E250053BFF3BE55047
:1002A000C2244022144BA400195981430A438021DF
:1002B0001A510C341A5909061202120A0A431A5129
:1002C000C0220434195981430A431A51802212046E
:1002D0001A60802252041A6070BDC0465C2E002055
:1002E000008000404C010020FC0F00004C05000085
:1002F000701700000405000000E100E070B51F4C1D
:100300001F4D636C002B0AD0002363641D4B1B68D8
:100310009847A823DB00EA5800018018E850A36C36
:10032000002B09D00023A364164B5B689847164B3B
:100330000001EA588018E850E36C002B0AD0002333
:10034000E364104B9B689847A923DB00EA5800013F
:100350008018E850236D002B0ED000230B4A236534
:10036000AB580B495B18AB500A4A1368063313604D
:100370008022094B12045A6070BDC046FC800040C8
:100380000080004004000020440500004C050000EF
:10039000701700005C2E0020FCE100E0F7B5019131
:1003A000032823D8134B8000C758C223124D9B004B
:1003B000EF50012344192364A8230F210F4EDB00C3
:1003C0009C46E358AE59921BD218D3170B409A188B
:1003D00001990B4B1211C150C1239B00EF50634692
:1003E0000020013212019619E650FEBD0120404264
:1003F000FBE7C04664880200008000404C05000016
:100400000400002003280BD8074B8000C158C223EA
:10041000064A9B00D150064B064AC2500020704746
:1004200001204042FBE7C046648802000080004093
:10043000040000202509020010B5024B1B689847F4
:1004400010BDC0464C01002010B50024054AA10093
:100450008B58002B02D00020885098470134042C80
:10046000F4D110BD3C010020074A89008B58002BB5
:1004700006D1885080211800044A49045160704711
:1004800001204042FBE7C0463C010020FCE100E0C7
:1004900000B58BB013F012F8684620F046FA054B11
:1004A000D968091A890812F0C5FF13F01FF80BB0BC
:1004B00000BDC046642E0020F0B5060087B000AF36
:1004C0007B60F960BA600EF05FFDB06820F071FFEC
:1004D0003861B06820F073FF20F06BFF03235843AE
:1004E0003B69C01883001D007B6114352C2B2CD870
:1004F0006B460E35ED08ED005B1B9D4600236C46F8
:100500007B61002326606360BA687B68F96820001D
:1005100003F0A4FB154D00216B6820002361736874
:100520006B6004F095FE2369061E6B6013D1A3680F
:100530001D687B69002B04D0200020F040FE002EB7
:1005400011D12800BD4607B0F0BD280020F015FEEF
:10055000041ED6D1CCE73B6903339B00E3185D68EA
:100560007B69002BE8D1280002F004FF642E0020F4
:100570000122030030B5134085B004004510002B64
:1005800014D125491D00884210D0244988420DD03D
:10059000234B1500984209D00323034009D1214A77
:1005A0000168914205D122F059F90500280005B0F3
:1005B00030BD1D4A25002240062A05D0002B08D157
:1005C0001A4B22689A4204D101A9200009F0B6F81A
:1005D000EBE7200007F018F9154B984207D1FF23ED
:1005E000DB05E018032398431AF0B2FBDDE7114B5B
:1005F000984202D0104B984206D101AA69462000C9
:1006000007F08CFA019DD1E7022201A9200021F018
:10061000C4FC0028CAD0F5E7488B020078DC020051
:1006200080DC02006C950200070080FFACC4020071
:1006300064B10200E499020098960200F7B5060042
:100640000F0000920193041E00D044683800431E3E
:10065000984120180430800020F082FD0C4B0500EA
:1006600003600C4B5B684360009B8360019BC3602D
:10067000002E05D03100A2000831103027F0E1FD36
:10068000002F02D00434A40067512800FEBDC046EC
:10069000AC880200642E002070B5060010200D000A
:1006A000140020F05DFD034B466085600360C4606C
:1006B00070BDC04670880200F0B5802787B02B4D12
:1006C00002907F422C78002C1CD063B2002B12DAEF
:1006D0006E787C40E4B2002E14D0013CE4B2FF2CD2
:1006E00002D101350135EDE704AB981D01210670FB
:1006F00007F02EF8F1E704ABD81D0121047007F0D4
:1007000027F8EFE70527029821F013FC0124BC42EB
:1007100027DA0025164E2200290030000DF0BAF924
:100720006B4601901B79002B15D0631E1A0029001F
:10073000300003930DF0AEF9031E0CD12200290006
:1007400030000DF073F9FF22019B290013403000A7
:10075000621E0DF06BF90135052DDBD10134E4B2D9
:10076000D5E7013F002FCED107B0F0BDBEF30200A8
:100770001800002010B5C820FFF79EFF004810BDEC
:10078000488B0200F0B587B0039205910D9A03994A
:100790000500521A0CA9097820200C00844339D096
:1007A00030293BD00CA902910121802401911C40E9
:1007B00036D0D40FA4186410171B002C37DD260088
:1007C000019B0493B34200DD04966B68049A02997E
:1007D00028689847049BF61A002EF1DC039B002B37
:1007E00006D01A0005996B6828689847039BE4189F
:1007F000002F0CDDE419019EBE4200DD3E003200F8
:10080000029928686B689847BF1B002FF3DC200013
:1008100007B0F0BD074902911021C6E70649FAE783
:1008200001271F4001D11400C7E71700D6E70024B5
:10083000D4E7C0466EF402007FF40200F0B593B036
:100840001C0018AB20CB05901B780F0016000793F7
:10085000CB070BD48B0703D1854B0A689A4205D08E
:10086000380007F0B9F801274000074381231D42F3
:1008700009D1079B302B06D11A9B1B9A934200DAB1
:100880001A9200231B93380021F088FF0AAA130054
:10089000002806DBAB070FD52B231370123B04AAED
:1008A0009B18E1B2EA0615D5022E0CD130221A703F
:1008B0004A1C5A7002330DE013006A07F1D520225A
:1008C0001A701923EBE7082E3BD130221A70AA05C3
:1008D00034D4013300220AA81A701B1A2C20069364
:1008E000AB06DB1718400EAB0B9310230C931B9B2E
:1008F0000D92012B01DD40231D43402404ABDA752A
:100900002C400390029123D03B00019200960DAA47
:100910000CA90BA802F032FC037807002D2B00D0A5
:100920008EE004AAD3750D9B1B9A013B01370D93F2
:10093000012A00DD97E00026340035E00A000E327F
:10094000B7E7102EC6D130221A700A001732B0E76E
:100950000AAB019300963B000DAA0CA90BA802F06C
:100960000DFC1B9B07002600012B1DDD0D9B1B9C16
:100970009C4200DA1C001A9BA3425EDD01261C1B70
:100980002E4001D02600002401239D432F330793DE
:10099000002C09D0103B0093002301941A00354924
:1009A0000598FFF7EFFE04006B0621D5172104AB75
:1009B000C9180B78002B0AD0002301220093019262
:1009C0000598FFF7DFFE1A9B2418013B1A93069B3C
:1009D000002B0DD0012301930023069A00930AA94E
:1009E0000598FFF7CFFE1A9B069A24189B1A1A93B4
:1009F0001B9B012B01DC1A9B1B931B9B0D9A0193E4
:100A0000079B3900009305982B00FFF7BBFE2418C5
:100A1000002E09D020230093002301961A001549C7
:100A20000598FFF7AFFE24180B980EAB984201D043
:100A300020F0C5FB200013B0F0BD00263400A3E772
:100A40001B9B012B00DC76E70D9B1B9C9C4200DA74
:100A50001C00172304AA9B181B78002B00D001341C
:100A6000069BE41887E71B9C9C42F8DA1C00F6E71B
:100A70006C950200040A0300F0B50600140000277C
:100A80008DB00D002B78002B15D1A94217D30B7810
:100A9000002B00D148E14B1C049320230025302279
:100AA000082104200893049B1B78002B11D1069386
:100AB000013B07935FE0252BE7D00135E2E76B1A96
:100AC00004931A00306873689847049B2900FF1844
:100AD000DDE72D2B05D12C3B1D43049B01330493F3
:100AE000E1E72B2B01D1293BF6E7202B01D1054370
:100AF000F3E7212B01D10D43EFE7302B2CD110333D
:100B00001D430892E9E7069A4A43D318303B0693FF
:100B1000049B01330493049B1B781A00303A092A82
:100B2000F1D92E2B47D1049B5B782A2B18D0049B3C
:100B30000A210133049300230793049B1B781A00B6
:100B4000303A092A17D8079A4A43D318303B0793FB
:100B5000049B01330493F0E700230A210693DAE7AC
:100B6000049B02330493236804340793DB43079AFE
:100B7000DB171A400792049B1B786C3B5A42534187
:100B8000049AD31804931B780593002B00D1CBE073
:100B9000642B00D1A1E022D8502B29D00ED8453BA0
:100BA000022B00D8A9E001220499306873689847A5
:100BB0000137099452E001235B427AE7059B622BDF
:100BC0003CD057D8582BEED1231D0993069B019595
:100BD0000393089B029341230093313B7BE0059BE9
:100BE000712B53D00FD8672B00D886E0702BDAD149
:100BF000231D0993069B01950393089B0293612390
:100C00000093513B67E0059B752B5AD0782BEFD0B2
:100C1000732BC8D1231D24680993002C49D0079B4E
:100C2000013303D1200027F04EFB0790069B079A63
:100C30000193089B210000932B000BE0231D0993D7
:100C40002368002B0ED0069B04220193089B384991
:100C500000932B003000FFF795FD3F180499099C85
:100C600001310EE7069B05220193089B3149009351
:100C70002B00EFE7231D099323680BA90B70069B3C
:100C800001220193089B00932B00E3E7231D0BA98E
:100C90002068099321F038FE079B0100013301D140
:100CA0000B9B0793069B079A0193089B00932B00CD
:100CB000D0E7069B06220193089B1F4900932B0057
:100CC000C8E7231D0993069B01950393089B029394
:100CD00061230093573B00220AE0231D0993069BE2
:100CE00001220393089B0195029361230093573BD4
:100CF000216830001FF0FFFEAFE7072307349C4355
:100D0000230020686168083309931BF025FB079BCB
:100D1000011C0293069B059A0193089B30000093E7
:100D20002B001FF055FF98E738000DB0F0BDC0460E
:100D30005CF4020061F4020067F4020010B50400E4
:100D4000431C02D0024813F04DFB024B1C6010BD47
:100D50008C2E0020602E0020014B024A9A647047BE
:100D6000642E00208C2E002070B50D0006F098FE39
:100D7000041C280006F094FE211C19F00FFE051C2F
:100D80001FF076FF011C281C19F0D6FC211C19F05D
:100D900061F90323020002209A43024B1043C0185A
:100DA00070BDC0460000808010B51FF061FF0323B6
:100DB000020002209A43024B1043C01810BDC046E7
:100DC0000000808010B5074C002802D00868A042BF
:100DD00003D115F06FF9200010BD06F029FE15F0C3
:100DE00089F9F8E7488B020010B5040006F066FFA9
:100DF00006F0F2FD002803DC0021064824F095FBF4
:100E000015F032F921F0EDFC04220100200006F07B
:100E10006BFF10BD7CD80200F0B5060000248BB03B
:100E2000194B1A48E15806F01DFB03AFE05104349A
:100E30001C2CF5D114230024734301930025AB002F
:100E4000F958134822F06FFE0135300021F071F897
:100E5000072DF4D1013DAB000D48F95822F063FE97
:100E6000300021F066F8013DF5D20134082C03D1A1
:100E70000CF0BCFD0BB0F0BD01231C42DED101988B
:100E800021F057F8DAE7C046148B0200CC8F02003D
:100E90001800002010B51920FFF7BEFF004810BD54
:100EA000488B0200054B10B59A6C002A04D0002232
:100EB000986C9A6402F05EFA10BDC046642E002061
:100EC0000F2310B51940012908D00300002909D0CB
:100ED000022909D121F085FC030003E0044B00281E
:100EE00000D1044B180010BD21F096FCF4E7C04679
:100EF00080DC020078DC0200F0B585B00C0007F061
:100F0000E7FF03AA070002A9200006F007FE029EE1
:100F1000039B35001035AD002800019320F020F927
:100F200004002C221030002127F0A7F96760270069
:100F3000104BE6632360104B019EA3600F4B403DB6
:100F4000E3600F4B403763610E4B7519A3610E4B85
:100F5000E3610E4B23620E4B63620E4B6363AE4242
:100F600002D1200005B0F0BD01CE07F0B1FF01C7EE
:100F7000F5E7C046BCCE0200990F0000F90F000053
:100F80000D4E0000A54E0000BD0F0000A54F000053
:100F9000994D0000E499020070B50C0005000B6843
:100FA00005495A681FF059FE216828004031220087
:100FB00003F0C4FE70BDC0465F740300136870B5D3
:100FC000002B10D10568EE6BB34200D170BD9C00C0
:100FD0002C19246CA14201D00133F5E702339B00A8
:100FE0001B581360F2E70249024824F09EFAC046FB
:100FF00090F40200D8D60200F0B51700C26B85B09D
:10100000CE19050001910393964206D0330025497D
:10101000254813F089F902F0ADF90021300003F002
:1010200023FF0400019B05609B001A000399083010
:10103000029327F006F90298BA0008302018002120
:1010400027F01BF9029A039B94466344F7191E008C
:10105000019BBB4202D3200005B0F0BD306807F011
:1010600037FF00210200EB6B0293029B994204D1EF
:101070000E490D4813F058F9CDE78B00E818006CC5
:10108000824201D00131F0E7E3189968002901D0CC
:101090000749EEE7726808369A60019B02330193B4
:1010A000D6E7C046A4F4020088DB0200DDF40200AB
:1010B000FEF4020010B502491FF00EFD10BDC0463F
:1010C0002DF5020010B5034B186825F002FD21F044
:1010D00088FB10BD6C29002010B5034B186825F063
:1010E000FFFC21F07EFB10BD6C29002010B5034BE6
:1010F000186825F0FCFC21F074FB10BD6C29002061
:101100001FB50021032003F0AFFE0A4B040019684D
:1011100001A825F0D1FC019821F063FBA0600298A2
:1011200021F05FFBE060039821F05BFB2061200071
:1011300004B010BD6C29002010B507F0C9FE0023D3
:10114000064A99008958814205D001330C2BF8D109
:10115000034811F06BFC180010BDC046188C02004B
:1011600032F50200094A70B51378002B0DD1084DF5
:101170002C78E4B2002C08D1013313702B70054B8E
:10118000186803685B6898472C7070BDAA2D002012
:10119000AB2D00206C29002010B5FFF7E3FF054BB5
:1011A000186825F012FD044B8000C3580620DB00B0
:1011B000184310BD6C290020188C020010B50800DF
:1011C000FFF7BAFF0400FFF7CDFF054B186825F0C5
:1011D000FCFC044BA04200D0034B180010BDC046DD
:1011E0006C29002080DC020078DC020010B50800C9
:1011F000FFF7A2FF0400FFF7B5FF0123A340064A53
:10120000064811880B4200D1054811889943118086
:101210000022044B1A7010BDA02D002080DC0200BB
:1012200078DC0200B42D0020F8B5FFF79BFF134CCB
:1012300013482378002B1FD020780021C0B203F080
:1012400013FE012600220F4F2378934212D9150076
:101250005308FB5C3540AD002B410F252B400A4D58
:101260009B005B5906259100DB0041182B438B60E6
:101270000132E9E700232370F8BDC046B42D0020F9
:10128000DC990200AC2D0020188C020070B5438858
:101290005A1E0A2A1FD801252A009A400F49088899
:1012A000024392B20E480A8002780F2A13D80278BD
:1012B0000C4CEA40A25C0678D2B20F212E420BD031
:1012C0000A401B0113430278DBB25208A35403788F
:1012D0000133DBB2037070BD8A43F3E7A02D002019
:1012E000B42D0020AC2D0020F0B585B0050016000F
:1012F000080003AB02AA01A924F0BAFE0398364FF6
:10130000B84209D0032807D006F066FBB060002879
:1013100004D1324811F08AFB0123B3600198B8422E
:1013200029D10024B368A34200DC6C1E0298B842A5
:1013300025D1B368002B47DD2800002C2ADA641978
:1013400001D5B368DC17002834DA401901D5012033
:101350004042B368002B00DA0130B368002B2DDD6A
:10136000A04200DA2000013B706058425841C0B2F0
:10137000346005B0F0BD06F02FFB0400D6E706F0A0
:101380002BFBB368002801DBDA0F8018002CD6DBBA
:10139000002B03DDAC42D6D92C00D4E7002BD2D0F1
:1013A000A54200D86C1E002804DA4019D4D50120CB
:1013B0004042D1E7A842D0D92800CEE7002BD2D0B6
:1013C000A042D0DD601CCEE7002C01DA0020B6E799
:1013D00000208342E4D1C0E7488B020042F50200BE
:1013E000F0B5060085B017001B2805D10A9A974270
:1013F00009D0002005B0F0BD19281AD01C281AD039
:101400000A9A0A9717001A000B0011000A9A019213
:10141000BA4200D901971D000C0000230093009BE5
:10142000019A934209D10A9BBB4220D0E1D301200B
:10143000E0E71A26EAE71D26E8E70295039401CDC6
:1014400002CC06F077FA002802D0009B0133E5E7D2
:101450001B2ECED0039B30001A68029B196811F036
:10146000EDFA044BC01A43425841C0B2C2E71A2EEB
:10147000DDD1BEE780DC0200F0B51E0085B0039030
:1014800018680D00170006F0BFF973680190029309
:101490000024022F0ED90123B268290006F074FB44
:1014A0000400032F06D029000123F268019806F0FA
:1014B0006BFB0500A54202D8084811F0B7FA039A61
:1014C000A3000299D05806F035FA002801D1013462
:1014D000F0E701206400204305B0F0BD5CF5020098
:1014E0000023820708D10068044A0133904203D0E8
:1014F000034BC01A4342434118007047548D020009
:10150000188D0200044B88600B60044B08004B6090
:101510000023CB607047C046B8CA0200170F020014
:1015200030B585B005000800694610F04FFE040094
:10153000200010F0ADFE011E02D1064805B030BDFE
:101540002B1D002218001FF0D4FF0028F0D0024805
:10155000F4E7C04680DC020078DC020070B50500CC
:1015600010201FF0FDFD0400074B696808C01FF044
:10157000B6FFAB68E968A3606B68E0689A0026F084
:1015800060FE200070BDC046548D0200F7B5040017
:101590000D0000268B0704D10B68214E9E1B734261
:1015A0005E41AB68002B0AD1002E03D01D492000FC
:1015B0001FF092FA1C4920001FF08EFAF7BD002E92
:1015C00003D01A4920001FF087FA194920001FF0A4
:1015D00083FA002701236A68BA4207D81549200018
:1015E0001FF07AFA002EE9D01349E4E7BA0001921D
:1015F000EA68B9005258002A0FD0042A0DD0002BF7
:1016000003D10E4920001FF067FAEB68B900595862
:101610000122200006F010F900230137DBE7C04665
:10162000188D0200ABF50200B2F50200B8F5020019
:10163000C3F50200966D0300F41C0300C5F502001B
:1016400010B5830707D1044B02689A4203D10349BE
:10165000034823F06AFF10BD188D020073F50200E5
:10166000D8D6020070B50D000400FFF7E9FF29008D
:10167000201D01221FF03DFF004870BD488B020075
:1016800070B50D000400FFF7DBFF2900201D0222CA
:101690001FF02FFF004870BD488B020070B5060098
:1016A00008680D000124FFF7CBFFB44201D30448C2
:1016B00070BDA300E95828681FF0CBFB0134F4E7A4
:1016C000488B020070B50D000400FFF7B9FF280039
:1016D000002110F07BFD0500280010F0D9FD011E4F
:1016E00001D1044870BD231D032218001FF001FF23
:1016F000F2E7C046488B020010B50400FFF7A0FFD8
:10170000201D1FF084FF014810BDC046488B020019
:1017100010B501221FF0CEFB004810BD488B02001F
:1017200070B504000D00FFF78BFF201D0222290079
:101730001FF0DFFE002804D1034824F0A7FC01F0CD
:1017400019FE024870BDC046B8D80200488B02009E
:1017500010B50400FFF774FF201D1FF039FF0028AB
:1017600003D10249024823F0E0FE10BD95F50200C6
:10177000B8D80200F8B50D0001280BD0002803D01E
:1017800002280BD0002004E08B681448002B00D105
:101790001348F8BD8B685B001843FAE70324002068
:1017A0000C408442F5D10F4B0E6820009E42F0D1D0
:1017B0004F68A74203D1012076003043E9E7EA6889
:1017C000A3009958002906D0042904D0022010F063
:1017D00095FB401036180134EBE7C04680DC020070
:1017E00078DC0200188D0200F8B5040010200D000E
:1017F0001FF0B6FC0600094B210008C607003000A8
:101800001FF06DFEA4002C19A54201D13800F8BDCF
:10181000012202CD30001FF06CFEF5E7548D02006E
:10182000F7B504000E00171E2CD0FFF709FF194D65
:10183000B4422DD000210800FFF7D6FF002105009B
:10184000300010F0C3FC0190019810F021FD061E3D
:101850000CD1002F1CD0E0681FF0B1FC6B686360F6
:10186000AB68A360EB680B4DE36011E0201D002224
:1018700031001FF03EFE0028E6D031002800FFF7BF
:10188000F1FEE1E78842D5D120001FF0F5FA05000E
:101890002800FEBD488B0200F0B589B0040003901B
:1018A000029101920027FFF71BFEB84207D13A00D0
:1018B00003AB012122481FF053FB04000137029DB6
:1018C00000262800FFF70CFEB04207D1320002AB21
:1018D00001211B481FF044FB05000136019B002B32
:1018E00005D00023AA680193A36893420DD0154B3D
:1018F00006940493144B05930023079304A81FF048
:101900000AFB011E12D101230193002F02D02000F7
:10191000FFF7F2FE002E02D02800FFF7EDFE019B3C
:101920000A48002B00D10A4809B0F0BD2B1D002247
:1019300018001FF0DEFD0028E0D10190E5E7C04669
:10194000548D0200B8CA0200170F020080DC0200AA
:1019500078DC020073B50C0015000091019200269E
:101960008B0704D10B68394E9E1B73425E413200D7
:101970001F2868D818F072F82810176767671C6767
:101980006767676767212D346767673B67676767C6
:101990006740464A5358675D290020001FF07DFAD2
:1019A0000400200076BD290020001FF0CEFAF7E7E2
:1019B000694602201FF0AAFAF2E7002E04D0694619
:1019C0000220FFF76BFEECE7290020001FF05BFA16
:1019D000E6E729002000002EE0D0FFF773FEE0E7E5
:1019E00029002000FFF71CFF002EDAD1D8E7694656
:1019F00002201FF05FFAD3E7012229002000FFF741
:101A00004BFFCDE7012221002800F8E72800FFF76F
:101A100067FD002815D0A368AA68934211D1290058
:101A200020001FF0CEFABBE7290020001FF0C1FA0A
:101A3000B6E7201D002229001FF05BFD044C0028A2
:101A4000AFD1044CADE70024ABE7C046548D020093
:101A500080DC020078DC0200F8B5214E3568696848
:101A600001292DD9AA684B1ED05C0A2828D1002B49
:101A700001DC1C0009E0581E145C0A2CF9D003009C
:101A8000F5E7105D202802D10134A142F9D8002BDE
:101A90000BDD601C814208D1581E002805D001389A
:101AA000175C0A2F0CD0202FF7D05218023AE31AF5
:101AB00014789B083A3C624254411C19002C00D116
:101AC000F8BD084F0422390028001FF021FE042130
:101AD000380005F02FFE3369013C04333361EDE734
:101AE00050010020AD1B030010B520220021024848
:101AF00026F0C3FB10BDC046C42E0020084B10B515
:101B0000426818600020986018750138D860080095
:101B10005A601A61996120F0FFF9FFF79DFF10BD2F
:101B200050010020F8B503780400002B1ED0104DA2
:101B3000286E002804D0210026F0BBFB002815D019
:101B4000200026F0C0FB471C38001FF016FB061EC5
:101B50000CD03A00210026F074FB2A00054B5C32C1
:101B60001968043B99609342FAD12E66F8BDC046CD
:101B7000642E0020DC2E0020F0B5B84C0200206856
:101B8000A568436885B00193002D00D0FDE0531E89
:101B9000042B11D8636801998B4200D195E0012A8A
:101BA00000D12AE1022A07D123696268934200D951
:101BB0004FE10122524288E0032A00D185E0042A45
:101BC00000D12FE1052A00D107E1062A0ED12369B1
:101BD000019A9342AD416D42002DEADD2368290050
:101BE00098682369C01805F0A5FD1FE00B2A21D1D4
:101BF000019B2269991A1FF04BFE2368019A5B68CA
:101C0000934204D213002269981A05F0C9FD226894
:101C1000236951689068C91AC01805F08BFD2368C4
:101C200058682369C01A401B05F0A8FD23695D1997
:101C30002561BEE70E2A13D1E368002BB9DB013B17
:101C4000E3606268019B991A1FF022FEE368002B93
:101C500018DB1633824A9B00D318996820680FE07E
:101C6000102A16D1E368062BA3DC5D1C7C4A1733CF
:101C70009B00D318996800299BD06368E560436096
:101C80001FF0CBFD63682269D61A22685568ED1AE9
:101C90000AE0152A0CD12369626861689A1A1FF05C
:101CA000FFFD236962689E1A0127002E2FDCA4E73E
:101CB0000D2A0DD16B4820F02FF920681FF092FDFE
:101CC0006368C018FFF72EFF0022100005B0F0BDBA
:101CD00001231B2A62D0082A01D07F2A20D1216942
:101CE0006268914200D864E700238668B618F75C02
:101CF000202F13D101339F18B942F8D80426032BA3
:101D000000DC033E891B32001FF0CAFD01273000B2
:101D100005F034FD23699E1B266178E00126F1E77A
:101D2000092A28D1636822698068D11AC0184E4AEE
:101D300003AB0EF0BBFA061E00D13AE70027431CA6
:101D40000BD1A06920F0E8F863682269D11A2268F3
:101D50009068C01805F0EEFC4FE723692068F91879
:101D6000039B01375A1C03921A781FF07FFDBE4275
:101D7000F3D1350041E71300203B5E2B00D918E773
:101D800021691FF07CFD012537E7012D08D10423CF
:101D90004F2A03D002235B2A00D00023A36008E768
:101DA000022D20D11300303B092B03D803232275C9
:101DB000A360FEE60023A360412A00D152E7422A35
:101DC00000D139E7432A00D101E7442A00D1EBE6EC
:101DD000482A12D0462A00D0EBE60027019B226950
:101DE0003E009D1A0EE00021032D29D17E2A24D128
:101DF000237D312B01D0372B0DD100252F002369F6
:101E000062689E1A0023A3609E4200DD7FE7002FD8
:101E100000D1E1E6F1E61A00FB25343A2A42DCD093
:101E2000332B0AD12169019B994206D201221FF06E
:101E300037FD002501272E00E4E700252F00FAE7F3
:101E4000042D04D1462AC8D0482AD6D0A5E7A160DF
:101E5000AFE6002501262F0059E7C04650010020BB
:101E6000642E002083700300448A020030B50724EA
:101E70000278084DA24314000222224302707F22FE
:101E8000039C41602240D400028883602A402243A0
:101E9000028030BD07FCFFFF10B50B00072401785E
:101EA0002340A14319437F23017004990A4C0B403E
:101EB000D9000388426023400B430380039B0468DE
:101EC0005905064BC90A23400B430360029B8360FC
:101ED000059BC36010BDC04607FCFFFFFF03E0FF8A
:101EE0000139C9B2054B401880301970044A037893
:101EF0001370044AD25C044B1A707047B62D002050
:101F0000B72D002087070300B52D00200131C9B28D
:101F1000054B401880301970044A03781370044A46
:101F2000D25C044B1A707047B62D0020B72D0020EC
:101F300087070300B52D0020074B984206D9074BB1
:101F40001818074B4118C91808787047054B18181E
:101F50004118054BF7E7C046A4920000C8050300EE
:101F60005B6DFFFFDCF502000083FFFF0300202212
:101F7000F0B57F254F265F27803304001A7089B0A3
:101F800003007F3019780A002A406F2A29D90A00F5
:101F90003A401900013381310A709842F2D17F2210
:101FA000BB4B1A702300643AFF331A70E43202927A
:101FB000531CDBB204936B46B6481B7CB6490370D6
:101FC000049BE31880331B780B705B2B0ED19B2294
:101FD000029B0A700133DBB20370E254012009B0A6
:101FE000F0BD5F2AD5D90A003240D2E72E2B13D19B
:101FF0000232D2B20270A21880321278A448027063
:10200000A648825C0120024206D1029A0B70121887
:10201000D2B20292A354D7E102209D4A13709F4A84
:10202000D25C104000D0A8E0002A19D19948203293
:1020300003780A70E31880331A70029B0133DBB215
:1020400002936B461B7A0370029B782B01D8E254F3
:10205000BAE19B23029AA3546B461B7C0B70BDE72D
:1020600016007F2552B2AE430E70002A03DB8C4B64
:102070008C4A1A60B3E7413B8B4ADBB28B49D25C96
:10208000CB5C120213430393039B002101339BB2E9
:1020900018000393FFF750FF0306F5D50123002630
:1020A00001277B4D2B7039000398FFF745FF7B1C00
:1020B000DBB20193282862D1002E00D02F702D783A
:1020C0000135EDB229000398FFF736FF6B1CDBB238
:1020D000292857D17F26069306990398FFF72CFFEE
:1020E000069B30400133DBB23D284DD16A466A4B36
:1020F000127C1870674B00261A706A46644B12797E
:102100001A70049B0593059B0199E31880331B7893
:1021100003980793FFF710FF079B9842B4D1019BE8
:102120000133DBB20193AB4230D1002E03D06A46BB
:10213000584B127D1A70049D013FFFB2544B390079
:1021400003981F70FFF7F8FE534E030600D509E110
:10215000504B7F211870514B1B5C1A005BB28A43B5
:102160003270002B18DA4B4B013DEDB21D70631934
:1021700080331B789842DFD086E74D4B83E70126FA
:10218000019F90E71D009DE70693A5E7059B0126AB
:102190000133DBB20593B6E7307020281BD023282B
:1021A00025D02E282CD0262832D040284ED05E288C
:1021B00056D02B285CD03A2800D030E120262900C8
:1021C0002000FFF78DFE344A137833401370B3D0EC
:1021D000304B1D78F3E729002000FFF781FE002334
:1021E000F356002B00DA4FE72A4B1D78A4E72900AD
:1021F0002000FFF775FE402233781342F4D143E705
:1022000029002000FFF76CFE33781B07ECD43BE776
:1022100029002000FFF764FE10223378134033704A
:10222000E2D11C4B1B78E1188031097831704829C4
:1022300000D029E7013B1749DBB20B70E31880336C
:102240001B789343432B00D01EE7CDE729002000E5
:10225000FFF746FE0422337813403370C4D113E7EE
:1022600029002000FFF73CFE33789B06BCD40BE727
:10227000084B013DEDB21D70651980352B78452B5B
:10228000B2D010229343492B00D0FDE6ACE7C04604
:10229000B72D0020B62D0020B52D002087070300A4
:1022A00064000020C8F502000D080300F3070300D6
:1022B000A59200006B1C934ADBB21370E3188033C5
:1022C0001B7891490B70452B36D1A81CC0B223183E
:1022D00080331B788D4E33708D4EF656002E02DB08
:1022E000884B1D783FE010700B70522BF8D0532BA9
:1022F000F6D0442BF4D04C2B08D10335EDB2157039
:10230000651980352B78592BEAD0BDE6462B00D0D5
:10231000BAE6EB1CDBB21370E31880331B780B704A
:10232000552B00D0B0E60435EDB215706519803537
:102330002B784C2BD4D0A7E6492B00D0A4E6AB1CBD
:10234000DBB21370E31880331B780B704E2B00D078
:102350009AE60335EDB21570651980352B78472B59
:10236000BED091E6059D6A46019B03980133DBB21E
:1023700001931279654B01991A70FFF7DDFD019BFE
:10238000069A604F934221D100257F272E000199A4
:102390000398FFF7D1FD03003B403D2B04D0029A88
:1023A0000132D2B20292A354019A0132D2B2010692
:1023B00000D4A3E0002E03D06946544A0979117075
:1023C000514A1370059B0493049AF1E5504B7F2109
:1023D0001B5C4D4E1A005BB28A4338703270002B82
:1023E00008DA0135EDB2631980331B783D70834202
:1023F000B9D049E63070202816D023281ED02E28C8
:1024000026D026282DD0402848D05E2851D02B2811
:1024100058D020263A2864D0252800D14AE73D4BE1
:102420003D4A00201A60DAE529002000FFF76EFD22
:102430000023F356002B00DB52E725E6290020009D
:10244000FFF764FD40223378134200D048E71BE6D3
:1024500029002000FFF75AFD33781B0700D53FE71E
:1024600012E629002000FFF751FD102233781340B7
:10247000337000D034E73B78E1188031097831704F
:10248000482900D000E60133DBB23B70E31880330B
:102490001B789343432B00D0F6E521E72900200069
:1024A000FFF734FD042233781340337000D017E770
:1024B000EAE529002000FFF729FD33789B0600D5C7
:1024C0000EE7E1E50135EDB23D70651980352B78F9
:1024D000452B00D104E710229343492B00D0D3E5CC
:1024E000FEE629002000FFF711FD074A137833406C
:1024F000137000D137E7034B1D78F2E701920126F4
:1025000045E7C046B62D0020B52D0020B72D002090
:102510008707030064000020D2F5020010B5040014
:10252000002906D0044B8A6B03600968002311F070
:1025300067FF200000F01EFF10DB0200F0B5040072
:1025400087B0039202936618002A06D0023A222A24
:1025500003D9354810F06AFA0134B44229D2207800
:102560000BF0DAFA071EF7D123782B2B1CD101349C
:10257000311B200003AA21F0C6FB23181C000025F4
:102580000193B44217D3002F00D06D4201236D0098
:102590001D43019B9C422FD12449039A244811F0EA
:1025A000C3FE0299FFF7BAFF2D2BE1D101340127B9
:1025B000DEE70027DCE723781A00303A0092092A88
:1025C00007D9202213431A00613A192ADBD8573B56
:1025D00000930399009B9942D5D928000BF0F4FA97
:1025E000002816D1039B5D43009BED186B006B40E8
:1025F0000FD40134C5E70134B44205D220780BF082
:102600008BFA0028F7D1C7E7B442C5D1280007B03C
:10261000F0BD019B3A000593F11A05A8039B20F039
:1026200006F9059C0500B4E75E0803008108030075
:1026300000DC0200F0B504008BB00893431804924C
:102640000193019B9C4200D3F6E020780BF064FAE2
:10265000071E38D123782B2B37D101340590019BED
:102660009C4200D3EAE0202322781A43692A33D11E
:102670000199A21C914200D8E6E062781A436E2AC2
:1026800000D0E1E0A2781A43662A00D0DCE0E21D27
:10269000E51C914214D9E2781A43692A10D12279B3
:1026A0001A436E2A0CD162791A43692A08D1A27999
:1026B0001A43742A04D1E2791343792B00D10535EA
:1026C000FF26F6051BE00134BBE705902D2BCAD190
:1026D0002C3B01340593C2E76E2A2ED10199A21C2E
:1026E000914200D8B0E062781A43612A00D0ABE092
:1026F000A27813436E2B00D0A6E05D4EE51C059B2F
:10270000002B02D080231B06F618A5427BD1594925
:102710008CE03D002B786F1C18003038092834D825
:10272000022E15D10A23029A53431B180293019BD0
:10273000BB42EED8002304934DE0002207920292A0
:102740004D4A250006920022002603920993E1E7F4
:1027500018F068FB051C012E0DD1069917F0ECFF4F
:10276000011C039817F076FC43490390069817F074
:10277000E3FF0690DBE74149039817F0DDFF291CD2
:1027800017F068FC00260390D1E7002E03D12E2B12
:1027900003D10126CBE7022E16D0099A1A43652AE7
:1027A00012D1019BBB4256D96B782B2B05D1AF1CA4
:1027B000019B9F42ABD00226B9E702262D2BA8D160
:1027C0002C3BAF190793F3E7049A002A04D0202288
:1027D00013436A2B13D13D00079B002B02D0029BB1
:1027E0005B420293029818F0D3FA011C23481AF0B6
:1027F000B1FB039917F0A0FF049F061C7FE700239D
:102800000493E9E70135019B9D4205D228780BF03E
:1028100083F90028F6D17AE7019B9D4200D076E744
:10282000089B002B01D1002F1AD01549154823F021
:102830003AFC1099FFF772FE0023059300230393DF
:10284000002325000493CCE7059B002B00D15EE715
:102850002500002656E7019BBB4200D157E769E7F8
:10286000032302209E43084B3043C0180BB0F0BD39
:102870000000C07F44080300CDCCCC3D00002041C7
:102880002708030000DC02000000808010B50D4C1A
:10289000206824F0F5F9002807D00B4B1B78002B9B
:1028A00003D1206803685B6898470023074A1370C8
:1028B000074A137013F0A8FA0AF00AFF0EF0E2F9C3
:1028C00010BDC04670290020BB2D0020BA2D00206D
:1028D000AA2D002070B5050094B0002804D13F480F
:1028E0001CF0DCFF14B070BD08A800F01DFD041E34
:1028F00019D12E68290004A8012211F0EDFE230051
:102900002200310004A80AF0A1FB04000320FEF716
:1029100015FA200022F0BEFD01204042FEF70EFA1B
:1029200000F020FDDEE701204042FEF707FA09999A
:102930002B4804F0A5FF099804F066FF294904001C
:102940000EF05AFE0028CDD1274920000EF054FE8B
:102950000028C7D1099C01AA6946200011F084FD16
:1029600002AA322104A803F003FB009B022B05D925
:10297000019B1E495A6802A81EF06FF9200004F05E
:1029800043FF1B4BC2689A4210D1236819495A6809
:1029900002A81EF062F9E368002B07D05A68002AEB
:1029A00004D00022996802A804F046FF0320FEF735
:1029B000C5F904A81EF016FF04F008FF04A81EF0D5
:1029C000E5FE01204042FEF7B9F90B4B9A6C002A54
:1029D00000D187E700229A6484E7C046DF0803003D
:1029E000448A02004CDB0200F4D802000C09030008
:1029F000E941010015090300642E0020F8B5434C9D
:102A0000200013F02BFD424F3860200013F0CAFE67
:102A1000404D2860102013F087FB04002968002532
:102A20003D4E3A68330014F0EFF93C4B1C603C48D3
:102A30000CF08AFAE120C0000CF096FA39493A48C5
:102A400010F0B0FC0FF09AF904F03CFEFFF74CF8E0
:102A500013F030FB300024F058FD21F0EBF80DF0BE
:102A6000D3F800F03DFA02F0C5FB0EF0E3FF2F4C67
:102A70002F48230088331D60FDF7F0FBFDF7CCFBEA
:102A80000EF0EAFF2B4F3B78012B0ED100230721DC
:102A90001A0029480DF0C0F9031E1DD00100F720CF
:102AA00040000DF041FBFFF715FF3B78002B2AD1CA
:102AB00000F0FCFF0028F8D020481FF02DFAFDF7A9
:102AC000BBFB082200211E4825F0D7FB23009834C9
:102AD0008C331D602560AAE7F822920211784D29F7
:102AE00009D15178502906D1F72052881549400064
:102AF00021F0B2FAD7E70122134917200FF0CEFEDA
:102B000022F0F2FCD1E701F021F8D3E7F029002010
:102B10006C290020702900207829002074290020C9
:102B2000004000206C2900206C010020642E002051
:102B30008D280000DC000020190903002109030092
:102B4000E42E002004E00300DC99020010B5084CDC
:102B5000084A0621200014F029FA074A07492000F4
:102B600025F00FFB00221E21054824F0D8FC10BDE3
:102B700078290020BC90020000000020656F010051
:102B8000F0290020C3790248002B00D1014870478A
:102B900080DC020078DC020010B50CF0F9FF01487F
:102BA00010BDC046488B020010B508680CF0F0FF5D
:102BB000004810BD488B020073B50D00022836D1C5
:102BC000012601A9686806F0B9FD76423400019B30
:102BD000C318834212D101A9286806F0AFFD7342E1
:102BE000734162426241DBB2D2B201990DF014F935
:102BF000002820D11049114822F097FC0278722A4F
:102C000001D0772A06D1611C0ED1723A5442544148
:102C10000130DEE7622A01D0742A05D1711C03D18C
:102C2000743A56425641F3E705480FF0FFFE01267D
:102C300076423400CFE776BD3C09030020DA02007B
:102C40002F090300F7B5CC1CA400070020000E00DC
:102C500001921EF085FA22000500054B4760866050
:102C600003600C3A01990C3025F0EBFA2800FEBD08
:102C7000F491020070B50400080004F0ADFE0500F8
:102C8000431002D00F480FF0D1FE0F49200008F08A
:102C9000A7FC002807D0A02203216379D205C13305
:102CA000FF339B009950012362799340A022D20503
:102CB000002D04D0A121C9000448535070BD04491F
:102CC000FAE7C0469809030008B60200488B0200E4
:102CD0000C05000070B50500080004F07DFE0B2314
:102CE00003410400DB0702D409480FF09FFE2800CF
:102CF000084908F075FCFF22A40092001440A022AD
:102D00006B79D205C133FF339B0003489C5070BDE3
:102D10006A09030000B60200488B020010B50C4996
:102D2000040008F05DFCA022D205002805D0042193
:102D30006379C133FF339B00D150A223DB00D0580D
:102D40006379D840012318401FF04BFD10BDC046E9
:102D500000B6020010B5040008F00EFC084B9842C3
:102D600002D0200008F016FCA0226379D205C133FE
:102D7000FF339B0098580007800F1FF032FD10BDF5
:102D800000B60200032370B50B4004000800022BBC
:102D900014D1194B0B40062B10D004F081FE19F012
:102DA00089FA0022154B18F07DF819F013FA144B2C
:102DB0000500984205D913480FF038FE04F00CFEC8
:102DC000F5E71149200008F00BFC002807D0A022ED
:102DD00003216379D205C133FF339B009950607999
:102DE00029000EF067FE002D03D10849200008F0ED
:102DF000F7FB074870BDC046070080FF0000E03FBA
:102E0000FF0300007709030048B60200F8B502008E
:102E1000488B020013B50A49040008F0E1FB0521C4
:102E20006846615616F0AEFC684616F0D1FCA02349
:102E30000021044ADB00D1501FF0D3FC16BDC04670
:102E4000F8B502000070004010B5080004F0C4FDA1
:102E5000FA239B0058430EF009FE002802D00248D6
:102E60000FF0E4FD014810BD5B090300488B020030
:102E700010B5080004F0B0FD0EF0F8FD002802D0F7
:102E800002480FF0D3FD024810BDC0465B090300A5
:102E9000488B020010B5040008F06EFB0C49884214
:102EA0000DD00C4B98420AD0200008F099FBA022CC
:102EB00000216379D205C133FF339B009950200074
:102EC00012F0ECFF044B002800D0044B180010BD9A
:102ED00030B6020018B6020080DC020078DC020086
:102EE000A0230C220249DB055A5024315A50704766
:102EF0004407000010B5040004F086FC064B98421D
:102F000008D0064B984205D0054B984202D00548A0
:102F10000FF050FF200010BDF0940200A8930200B3
:102F2000E49302004B090300F0B5486887B00F0036
:102F300004F052FD041E02DA00200FF077FDBB689A
:102F4000164A01939D186B1E9D41010002A81EF0B8
:102F50000CFC049E22000021300025F08EF9386818
:102F6000EDB2C3070AD43300220029001FF006FC8B
:102F700002A90B4805F054FF07B0F0BD4310200034
:102F8000042C00D904200749019F00228F4200D061
:102F9000221AB21829001FF010F9E9E75AECFFFFD6
:102FA000ACA30200A6130000F0B50C0087B001220C
:102FB00003A9606804F0CAFEA3681349039A8B4210
:102FC0000DD10126049976424C1E019114190499E1
:102FD00000200D00002D05D11FF01EFC0DE0140097
:102FE0000126F4E7094F013DB84208D908481B18EB
:102FF000581E8341D8B21FF0B2FB07B0F0BD27784E
:1030000000023843A419E5E7A6130000FFFF3F00C4
:103010005AECFFFF70B546007508041C291C281CDB
:1030200017F080FE00280BD11649281C16F004FF6B
:10303000002808D01449154823F035F800F09AF913
:1030400013480FF0F3FC002C11DA002E12D0FF23EE
:10305000DB05E3189C22D20593420BD907F028FA2E
:10306000211C0500043021F0A9FA280070BDE30DF1
:10307000DB05EFE7201C17F06BFE01254000054340
:10308000F3E7C046FFFF7F7FBD0903005CDA020063
:10309000D6090300F0B50C00002585B01100200012
:1030A0001E00009502232A000EF0D4FD0120AC4240
:1030B0002BD0844231D13068204226D103230340F3
:1030C000AB4203D11C4A016891421ED01B4A024008
:1030D000062A06D0002B0DD10268194B92699A423C
:1030E00008D103A906F02AFB00231A000399FFF771
:1030F00025FA0AE0032302001A40022A07D1FF2220
:10310000D20580189843FFF785FF05B0F0BD04F0A5
:1031100063FC012340001843F7E703A9306806F079
:103120000DFB04007068039F04F056FC2B000200A6
:1031300039002000DBE7C0466C950200070080FFE5
:10314000D99C0000F8B51F000B4B15005918013928
:10315000097816F097FC00260400B74204D001302D
:10316000032116F08FFC0600281E01D025F0ABF8D5
:103170000334A4192018F8BDAD090300F0B58DB0D3
:103180000A9214AA147815AA127806000F00079262
:10319000DA0743D55D100023002D01DA2D236D429F
:1031A0000693139A079B12992020FFF7CBFF3B68E9
:1031B0000590834204D21DF0D3FF059B30603B6035
:1031C00000213768059BFB185A1E11708D4241D0B3
:1031D0000A3C099208920B941299280016F0D8FC28
:1031E0000B003033092901D90B9B5B18089A541E38
:1031F0002370079B002B4AD000282ED0A7422CD248
:10320000099B1B1B032B06D16B461B7F013C2370C4
:10321000A74222D2099405000894DDE79A0712D14B
:10322000244A196891420ED1079A02940392139A84
:1032300039000192129A00920A9A1FF066FA04006D
:1032400020000DB0F0BD0023326813700A9A346874
:103250001360F5E79C1E30232370139B002B05D0D1
:10326000180025F030F8201A874220D3069B002B47
:1032700005D0BC4203D96B461B7E013C23703368EA
:10328000059A9B181B1B0A9A013B1360D8E7A742BB
:10329000E3D20028BFD1E0E7C2540133139AD25CD5
:1032A000002AF9D1069B0400002BE4D1E7E70023B4
:1032B000F4E7C0466C9502001300144A10B50400F0
:1032C000934204D1012220000FF0B8FB10BD104A38
:1032D000934201D10322F6E70020072CF6D10D4AD4
:1032E0001A40062A0ED09A07F0D11A680A4CA24258
:1032F00008D00A4CA24205D0094CA24202D0094C87
:10330000A242E3D10A0007201900DDE778DC0200C1
:1033100080DC0200070080FFACC40200ACA3020006
:10332000E499020098960200C460056146618761D5
:103330004146C16149460162514641625946816236
:103340006946C162714681600049084755330000F3
:103350000020C046024B9A680260986000207047C7
:10336000642E0020024B9A6812689A607047C0462B
:10337000642E00200E4A9368002B01D11DF07AFEC6
:10338000196858609160181CC468056946698769A6
:10339000C1698846016A8946416A8A46816A8B46C4
:1033A000C16A8D4681688E4601207047FEE7C0469F
:1033B000642E00200048704716FCFFFF004870474D
:1033C00016FCFFFF82B007B591B204920593052960
:1033D00009D01B2902D104A8FDF758FF002003B033
:1033E00008BC02B0184704AB5B88032BF6D106A9D2
:1033F0000822684624F025FF0349049A059B0868C3
:1034000013F06AFBEAE7C04674290020034B044A24
:1034100008331360034B1A607047C046A89502003A
:10342000082A0020902B0020002803D0012807D074
:10343000002004E08B680448002B00D1034870474B
:103440008B685B001843FAE780DC020078DC02003E
:10345000044B88600B60044B08004B600023CB607A
:103460007047C046B8CA0200C71102000023816835
:10347000F0B5CA0F094C521852100E199A4201DCCD
:103480000748F0BDC568F11A9C0089002C196D58D9
:1034900027682560C46801336750EFE7FFFFFF3FEF
:1034A000488B020070B583680D00416804008B42B0
:1034B00012D3C900C0681DF071FE63680A495A0042
:1034C000A3686260D21A013352189B00E060920038
:1034D000C018002124F0D1FEA368E268591C9B00AB
:1034E000A16002489D5070BDFFFFFF3F488B020066
:1034F000F8B5070016004C10836812D5E41810D5F3
:1035000000240D4D38002900FFF7CCFFBB68591E81
:103510009B00FA68181F8C4207DBA4002800A65005
:10352000F8BD9C42EDD91C00EBE7D318083B1B68A3
:10353000013913500300ECE7488B020070B50025F9
:10354000040085601021C0681DF028FE04232900B6
:10355000E0606360102224F090FE014870BDC04618
:10356000488B020030B50C0085B0104B02AD043121
:1035700000930138022301950EF09CFB23680C4C4C
:10358000996801290FD9D8680A4B029AC91889008D
:103590004118A24200D100222D79074B002D00D105
:1035A000064B1DF01EFE200005B030BDBC9502008C
:1035B000488B0200FFFFFF3F78DC020080DC020046
:1035C00070B50C680B00A1680200002903D11949ED
:1035D000194821F0AAFF2068012A27D05A68002341
:1035E00004F0D2FAE168A26886008B19013A1D68DE
:1035F0000436A260121A92008919180024F02AFEDB
:103600000021A368E0689A001150616804290BD971
:103610005B00994208D949088900E0681DF0BEFDA9
:103620006368E0605B086360280070BD012252425D
:10363000D5E7C046EF0903007CD8020007B500902B
:103640000191022069461DF034FE69460190022076
:10365000FFF7B6FF00480EBD488B020070B50E00A4
:103660000D49050000241DF037FAB368A34204D8C1
:1036700028000A491DF030FA70BD002C03D008491B
:1036800028001DF029FAF168A300012259582800EA
:1036900004F0D2F80134E8E743710300556C0300ED
:1036A000C5F5020070B5032604000D000E4029D1B7
:1036B000174B0A689A4225D183688A68991843682B
:1036C000994210D904318900C0681DF067FDAA68CD
:1036D000A368E0609B181A1D9B006260C01810224E
:1036E000310024F0CAFDA368E9689800E36818185F
:1036F000AB689A0024F0A5FDAB68A268D318A3605C
:10370000044870BD290020001DF0DCFDF8E7C0462C
:1037100098960200488B02000B4B70B505000360C1
:103720000C000800042900D204206860AC6080000E
:103730001DF016FD6A68E860121BA40092000019D3
:10374000002124F09AFD70BD989602007FB50D000F
:10375000160012283ED005D8052819D007283FD0DA
:10376000002434E00300193B042BF9D893070DD152
:10377000284B12689A4209D1B36800938A68F368AB
:10378000C968FDF72DFE244C002820D1234C1EE0F3
:10379000032300241340A34219D11C001D4A33689F
:1037A000934214D18B68B26898181DF0A4FD0400F0
:1037B000AB68E9689A00C06824F043FDA868E36834
:1037C00080001818B368F1689A0024F03AFD2000D0
:1037D00004B070BD11002800FFF764FF2C00F6E76D
:1037E00003A9100004F036F90024A042EFD0039B97
:1037F000A34200DA0394AB68039858431DF07BFDA5
:10380000C36804000093AA68039B0421E8681DF0C4
:10381000A0FADCE79896020080DC020078DC020067
:10382000F0B5032704008BB00E0010000F40002AF3
:1038300033D1002F2AD1654B0A689A4226D104AAB7
:10384000A068FDF751FD002802D161480FF0E0FAB1
:103850000599049BA268E0685D1A521A9B008900D2
:1038600041189200C01824F0F5FCA368AA00E818DB
:10387000E368800018185242390024F0FEFCA36867
:103880005D19A560534D28000BB0F0BD07A90220BB
:1038900007940896FFF794FEF4E7042A2CD1A06859
:1038A000002F1FD1494B0A689A421BD107AAFDF786
:1038B0001BFD002806D107AAE168A0681DF05CFA8C
:1038C0000500E0E7079B0898C01A1DF014FD836807
:1038D000E1689A00079B05009B00C918C06824F0A6
:1038E000B0FCD0E7002301003200206804F04CF95E
:1038F000E3688000C558C6E7364D002F60D1334BD2
:103900000A689A425CD103AA02A904F007F907AA3F
:103910003100A068FDF7E8FC002896D0079B029ACA
:1039200008999E180191761AE068002E27DDA36899
:10393000F1186368994206D989001DF02FFCA3682D
:10394000E0609B196360029A079BA1689B18F21ABA
:1039500052180899E0689B00890041189200C0182D
:1039600024F078FC029B03999A00079B9800E36877
:10397000181824F06FFCA3689E19A66083E79B00CB
:103980000399C018920024F05CFC0899A268E368CF
:10399000521A8900019359180798029B9200C01887
:1039A000019B8000181824F055FCA368B200F018A1
:1039B000E368800052421818390024F05EFCDAE710
:1039C0000200310020001DF0D7FC5CE7E0D50200CA
:1039D000040A0300488B02000023F0B52F4E93B079
:1039E000050006A81400336001910127FFF79CFC35
:1039F0002740031E35D1E2062DD56A68A96811203B
:103A000020F02AFB05002E6829000125019A03A851
:103A100010F062FEA3082B400022310003A809F039
:103A200015FB04000320FDF789F9200021F032FD89
:103A300001204042FDF782F92C00FFF793FC002F94
:103A400024D02900164803F075FE3C0001211448DB
:103A500003F070FE1AE0A306D5D5280021F019FB6B
:103A6000D0E701204042FDF769F9002F03D0012182
:103A70000B4803F05FFE079803F0C6FE09490DF0FE
:103A8000BBFD041E05D03468002FDFD1200013B029
:103A9000F0BD0799044803F0F3FEF5E70C2A002077
:103AA000030A03004CDB0200448A020010B586B012
:103AB000202102A880241DF047FE64001E481EF04D
:103AC0002BFA00231D4803931EF026FA03F01AFE7A
:103AD0000128F3D002280BD119481EF01DFA02A8C4
:103AE0001DF054FE01220020164B1A7006B010BDC6
:103AF000032802D100230393E8E7042804D0C1B2CD
:103B000002A81DF081FEE1E70F481EF005FA039BB5
:103B10000193002B08D10A481EF0FEF902A81DF0FF
:103B200035FE80204000E1E71122012102A8FFF7C5
:103B300053FF2042C5D0D9E7C20A0300A97203008F
:103B400083700300DC000020DD0A030030B587B07D
:103B5000202102A880251DF0F7FD6D0037481EF0DA
:103B6000DBF937481EF0D8F90024364902A803943F
:103B70001DF02CFA01280AD133481EF0CDF902A815
:103B80001DF004FE2000314B1C7007B030BD022830
:103B900003D12D481EF0C0F9E0E7032801D12A48DF
:103BA000E0E7042808D128481EF0B6F902A81DF065
:103BB000EDFD80204000E8E7052827D124481EF0CD
:103BC000ABF9039403F09EFD6B46C1B2DC1D21707E
:103BD0000329E4D004290AD11B481EF09DF90121D4
:103BE000162202A8FFF7F8FE2842BDD0CDE702A8B2
:103BF0001DF00AFE23780D2B03D116481EF08CF918
:103C0000E0E70121200003F095FDDBE7039B002B9B
:103C1000AAD002A81DF0E6FD0CF092FA00280BD005
:103C20000A2102A81DF0F0FD0B4902A81DF0CEF9F3
:103C30000328B4D00428ECD10021D1E7050A030001
:103C40005B0A0300810A030083700300DC0000208C
:103C5000860A0300B60A0300BD0A0300F0B58FB060
:103C600006924268099394460368040002939B6895
:103C700004300093634403600E001DF08AFB05903E
:103C800060681DF09CFB431C63600378A24A0193AB
:103C9000831C6360437800210093C31C63608378B6
:103CA000B5000393031D6360C378200004932300D1
:103CB0001033A360059B14309A1893000793C31820
:103CC000E360079B0C331A00089324F0D6FA099B93
:103CD000009A5B190B93059B9B1A039A0A939D1AF2
:103CE0002F1D009ABF00E7190123B24264D2019A46
:103CF0001A4207D13300009A8849894810F014FB12
:103D0000FFF738FB009B03359900099BAD0059185C
:103D1000009B6519F01A01F0A7F8009E043F686047
:103D20000022964200D070E0069B002B03D1019B3D
:103D30001B0700D4D6E002230026019A1A400992FC
:103D4000B24204D0069820F02BFA06003860002713
:103D5000029B0B9DDB680893069B9F425ED10A9BEA
:103D6000029805339B00E1180A00049D0C30002DD9
:103D700000D080E0049A92008918079A2032A21895
:103D80008A4200D980E0143B0693009B089A9B006E
:103D9000D3180793039B9D4200D27FE065680DA86E
:103DA0000D951DF0F6FA28180578461CFF2D00D059
:103DB000A7E066600FB0F0BD019A1A4205D0033546
:103DC000AD00584B6519043F6B60069B002BA7D1D3
:103DD000019B1B07A4D4009B049A9A1AB24212D8E2
:103DE000009A049B991A32008900009B9A4297D24C
:103DF0009300029D58182818089D0069EB1AE318D3
:103E000018610132F1E7330076E7099908989300C9
:103E1000C958C31AE3181961013282E7009B03985D
:103E200000221B189C462968944505D8099B002B45
:103E30001CD1CA083C490EE0089B900018588842E3
:103E400012D1059B013B9B1A9B00E3185A69002A7B
:103E500005D0CA083549324810F066FA50E76A685A
:103E60005A610137083577E70132DDE76A683000CB
:103E700020F0CFF9F5E71668002E02D1AE00865982
:103E80001660013D043272E7081D0968002903D15C
:103E9000121A92102649DEE7010071E7069AAB007C
:103EA000D71AE7193A69002A16D1082000996E1826
:103EB0000899B6008E190799C958019B03420DD085
:103EC000049B029804339B001858043000F086FCD1
:103ED000002803D043683B6101355BE73268154930
:103EE000D208B8E7039B002B02D013480EF062FF04
:103EF000019B9B0700D451E7039820F051F93860EB
:103F00004CE7ED43059BED18AD00651968690AF0B3
:103F100065FF6861300047E7FDFFFF3FA4F4020042
:103F200088DB0200DC990200DDF40200FEF40200EE
:103F3000E00A0300120B0300420B030001220020E1
:103F4000074B08495A600860A821DA60064AC90090
:103F50005A5006495A5004315A5005495A50704730
:103F600000A000400CAC0040FCFF00004405000035
:103F70004C050000034B04481B78002B00D103487C
:103F80007047C046B92D002080DC020078DC0200BA
:103F9000F8B5A826324A334BF60019681368042096
:103FA000CB18C9181160304A8C4612781B111700C3
:103FB00009112E4A2E4C2F4D002F48D0002B3ADAF3
:103FC0009051C31AA920C000135081239B000029DF
:103FD00037DA591A135151510123274CD3602378F2
:103FE000002B22D03F222548254B01688C331B68CB
:103FF00001310A409D5C1C4B1B78002B01D0803D99
:104000006D001C23026062466B4308339B1A154AFD
:104010009B1013601F23194007D11A4B1A78002AEE
:1040200003D019481970FCF71FFA012322780420E5
:1040300053402370F8BDA9270433FF00D05193519A
:10404000C3E7535181239B00C9181151C4E70433BE
:1040500090515351A9208123C0009B001350F3E7D6
:10406000102A0020202A0020DD00002000A00040AF
:104070004C05000044050000B82D0020142A002043
:10408000642E0020DE0000202714020030B585B029
:1040900001220400080001A903F058FE029A202A18
:1040A00000D920220023019D934204D0E85CE1184E
:1040B00008710133F8E7014805B030BD488B0200B4
:1040C00070B504000800150003F086FC1F2802D913
:1040D0000C480EF0ABFC002D02D10B480EF06AFE2E
:1040E0002418042D04D1012023795B00184370BDEE
:1040F000280003F071FCFF2801D90448E9E720718A
:104100000348F4E79B0B0300AF0B0300DC1E030026
:10411000488B02000123A022834010B5134CD20526
:1041200013510300C133124CFF339B009C50114BC1
:104130008900C918A223DB00CA580F4C0002224094
:10414000CA50F82252011040C022CC589202224399
:1041500010430322C850CC58084822432043C8507B
:10416000C046C046C046CA5010BDC0460C0500003F
:104170000303000000600040FFE0ECFF031F0000AD
:10418000A0221E21114BD20070B59C58104D8C43BB
:104190009C50A324E4001D510E4C0F4D0F4E5C515A
:1041A00004355E510E4D80005C51A5240D4DE40098
:1041B0001D51084C0C4D00190C4C185104341D5164
:1041C0000B4C185198580143995070BD00F00140B4
:1041D00040A10040006000401C05000044A10040D8
:1041E0002405000048A100404CA100402C0500001F
:1041F0003405000010B504000A4907F0F1F90A4B34
:10420000A0211C6001236079084A8340C9058B50B6
:104210000021FFF77FFF0020FFF7B2FF0022044BD1
:104220001A7010BD28B60200182A00200C050000E4
:10423000DD00002070B50D000400134E2800310091
:1042400007F0CEF93100200007F0CAF90F4BA02289
:104250001C600F4BD2051D60607901242100814054
:1042600026000C4BD15069798E400021D650FFF7C3
:1042700051FF68792100FFF74DFF2000FFF780FF15
:10428000054B1C7070BDC04628B60200182A0020DD
:104290001C2A00200C050000DD000020F8B50025D8
:1042A000FFF74CFE214B280090331D60FCF7AAF865
:1042B000A0221E201E4B1F491D701F4BD2001D60E7
:1042C0001E4B1F4C1D608B581E4F83438B50A223E7
:1042D000DB00E2581C4E3A40E250E2581B493243A0
:1042E000E2500122E5501A4B186843799A401300B6
:1042F000A022D205535007F05DF9164B1B78AB4254
:1043000013D0154B1149E2581740E750E2581643B5
:104310000122E650E550114B186843799A4013008A
:10432000A022D205535007F045F9F8BD642E0020B5
:10433000B92D002000F00140102A0020202A002082
:1043400000600040FFE0ECFF001F03000C050000D0
:10435000182A0020DD000020140500001C2A00207F
:10436000F0B53E4E8DB0330090331B680500002B36
:1043700003D1FFF793FF0DB0F0BD002801D00FF07F
:104380003BF86846FEF7D0FF002822D13300903377
:1043900018680DF055FF0400FEF7E4FF002D01D072
:1043A0000FF034F82E4B20221D6833006D118C3332
:1043B00001356D011B6815405D19002C2DD190361B
:1043C00021002800346023F058FF0122254B1A7089
:1043D000D1E7002D01D00FF019F8019B2249186890
:1043E0000DF00AF900240500A042DBD1019F38003E
:1043F00003F00AFA1D4B98420BD12900012000F06E
:1044000033FD2A000400F8601F21194804F03EFD26
:10441000A060019B0024B364C4E7200003F0F4F91A
:10442000144B984209D033000022903312491348AC
:104430001A6021F038FEB0649DE763682B60A368C2
:104440006B60E368AB602369EB6063692B61A36910
:104450006B61E369AB61236AEB61B6E7642E002010
:10446000142A0020DE000020D4DA02006CD90200F9
:10447000690B03007C970200890B030088DB0200B4
:1044800010B5FFF70BFF014810BDC046488B020076
:10449000F0B589B00493734B03901B780E001500A0
:1044A000002B01D0FFF7FAFE6F4C8C342368002BF1
:1044B00006D16D4A4020903213601CF051FE2060FE
:1044C00080226A4BD200DA670122694C694BE250C4
:1044D000FFF734FD0023684AF021A3500432A350B3
:1044E0000832A350C22209039200A150634F093A37
:1044F000FF3AA3500594BE4200D0A3E0B54200D0DD
:104500009DE05F4D07AC280007F05EF8002805D05D
:1045100001235C492800237007F062F85A4D2800F7
:1045200007F052F8002805D001235649280063708F
:1045300007F056F8554D280007F046F8002805D03A
:10454000012350492800A37007F04AF8002307AA66
:104550005F1C9B5C002B39D04D4ABB00043BD458F8
:10456000A02203213D006379D205C133FF339B00B4
:10457000995007ABEB5C002B26D00426444BAA00D5
:10458000D358019301226379A0219A40A123C90540
:10459000DB00CA50019B0533180002931CF023FF77
:1045A000012811D16379A02198403A4BC905C85020
:1045B00002981CF018FF002806D1013E002EE1D120
:1045C000019949E00225D4E7022DFBD10123022FF6
:1045D000BDD12B48FEF78EFCFFF70CFE002103989F
:1045E0000DF0F4FD002501243F221F4B8021903364
:1045F0001860294B1D70294B1C70294B1A601A4BEF
:1046000012198C33186823F038FE2800FFF7A8FE33
:10461000244B144E1C60059B50221C60224928002C
:104620003470FBF7BBFE049BAB4219D00E4B3278C3
:10463000002A15D09A6C002A12D120BFF7E71B4838
:104640000EF0B8FB3000FEF755FC0400BD42C3D0AD
:104650002800FEF74FFC01002000FFF7EBFDBDE74F
:1046600009B0F0BDB92D0020642E002004E100E067
:1046700000A00040FC0F000004050000488B020071
:1046800020940200F8B502006894020078940200B9
:10469000489702000C050000B82D0020DE00002025
:1046A000142A00200CAC0040913F0000D40B030002
:1046B00010B5084B86B002AC0093019404230DF0B2
:1046C000F9FA02982379E268A168FFF7E1FE02484F
:1046D00006B010BD54970200488B0200014B1878B9
:1046E000C0B27047B92D002010B524201CF038FD51
:1046F0000400044B202208C0802123F0BEFD2000CE
:1047000010BDC0467C970200F8B5070008000D00F8
:10471000160003F079F8304B98425BD1781F0F28D0
:1047200058D815F09BF9080832575757575757571D
:10473000575757303055FFF7D7FF04230400EA5C82
:10474000E2540133242BFAD1300003F05DF8224B00
:1047500098423FD10121052F02D0122F00D00239FB
:104760000422FF20B35CA55C803B4B435B19FF2B0D
:1047700003D90500DB179D432B00A3540132242AE3
:10478000F0D12000F8BD2C00DEE7FFF7ADFF0423D9
:104790000400EA5CE2540133242BFAD1300003F028
:1047A0007FF90F211CF044FE2100FF25221D24313A
:1047B0001378803B4343DB138033FF2B03D92E0058
:1047C000DB179E433300137001329142F0D1D8E7DA
:1047D0002C00E3E70024D4E77C970200F0B587B013
:1047E0000092027804000F00930703D5009B002B72
:1047F00000D0F5E0D307DB0F0ED07A4B3B40062B01
:1048000043D003233B4003D177493868884203D023
:10481000009B012B00D0E3E0019353075FD5236891
:10482000A568DE08F600AE19B54230D3009B012B17
:1048300000D0D5E02368D9086368994210D10431CB
:104840006160A068C9001CF0A9FC23686268DB08ED
:10485000D21ADB00A060D200C018002123F00DFDA9
:1048600007212368DD086A1CD2000B401343236034
:10487000A368ED005D195B4B2F601F40062F21D010
:1048800001222378934323701CE00123C4E72868A6
:10489000B8421AD1009B022B14D129002368721B45
:1048A000D210083B013A6F6828002360D20008311B
:1048B00023F0D0FC2368DD08A368ED005D19002318
:1048C0006F602B60280007B0F0BD019B002B04D166
:1048D000390003F02FF80028DCD10835A4E763681D
:1048E000002B05D1009B012B7AD1200000F07EF82F
:1048F0003C4B3B400593062B27D1F8081DF0F5FFF4
:1049000003906168039815F043F900260491049B15
:104910000293029BDD00A3685D19286800281BD163
:10492000009B012B5CD107212368DA080132D200F9
:104930000B4013432360002E00D0350000236B6032
:10494000059B2F60062B9BD1BCE7390002200DF0A0
:10495000D5FA43100393D4E7042803D1002E1DD1C8
:104960002E001BE0B84211D1009B022BAAD1236874
:104970000298083B23600130616815F009F9A368CB
:10498000C900CB58002B25D12B609BE7019B002B46
:1049900004D1390002F0CEFF0028E5D10298616809
:1049A000013015F0F5F8049B02918B42B1D1009BC8
:1049B000012B15D1002E0FD023683500083323605A
:1049C00000237360059B3760062B00D17AE72378BC
:1049D000009A57E70423D7E7200000F007F890E794
:1049E00000256FE7070080FFACC40200F7B54368FD
:1049F000040001935A1C002317495800455AAA4243
:104A000006D90133222BF8D15508AD18213B1D439F
:104A1000E800A7681CF0B6FB072322686560134016
:104A200001220025236013432370A060019B9D4257
:104A300003D138001CF0C3FBF7BDEE00B9590029C3
:104A400008D0042906D001222000FFF7C7FEBE19B6
:104A5000736843600135E9E748EE0200F8B50500E8
:104A60000023046886681449621C5800405A824238
:104A700006D90133222BF8D15008821801201043A7
:104A8000002328606B6080001CF07CFB3700A400D2
:104A9000A860A419A74203D130001CF090FBF8BD18
:104AA0003968002905D0042903D0012228001CF010
:104AB00020FD0437EEE7C04648EE0200F7B5456832
:104AC0001600A8681F0001911CF073FC0400A86880
:104AD0001CF075FC1CF06DFC0300032058430734E8
:104AE000001980001CF03CFB074B040003606B685E
:104AF0003200436000238560C36001993B000830A9
:104B0000FFF7ACF82000FEBD0898020070B5050064
:104B100088680C001BF0D0FF230002000249280027
:104B20001CF09BF870BDC046160C030010B502487F
:104B300021F0ACFAFEF71EFCD4DA020010B5040036
:104B400008201CF00DFB024B4460036010BDC04602
:104B500044980200F7B5C56804001E00002D02D17C
:104B60001D602800FEBD03691830834205D1184B33
:104B7000994203D017480EF01DF919602000164F16
:104B800011007B680830019363687B6000F060FB74
:104B9000019B05007B60012807D002280CD0002370
:104BA000E36023691B683360DBE723691B683360BC
:104BB000002BD6D1E360D4E7A36898681CF0F9FB1A
:104BC000002305308000E36024186368EBE7C046EB
:104BD000488B0200340C0300642E002013B501AB97
:104BE000FFF7B8FF01280ED0104C02280DD0019B12
:104BF000A34219D0002B17D001AA01210C4821F0A3
:104C00003FFAFEF7B7FB019816BD019802F0FCFDD4
:104C100007490CF0F1FC002801D10198F1E7019857
:104C20000FF04EFBA042F8D10020EDE7488B0200C8
:104C3000D4DA020010B50B00022808D14A680549F1
:104C40001868FFF7CBFF002803D1FFF76FFF8A68D2
:104C5000F5E710BD488B020010B500220149FFF7AF
:104C6000BDFF10BD488B020013B5114C01AB114ABA
:104C70002100FFF76FFF012803D0022805D0200094
:104C800016BD0D490D4820F050FC019802F0BCFD06
:104C90000B490CF0B1FC0028F1D1019802F0B4FDF1
:104CA00008490CF0A9FC0028E9D10198FEF762FB45
:104CB000488B020040D60200F60B030098DA02008F
:104CC000C8D70200D4DA020030B58DB005006846BE
:104CD000FEF72AFB011E10D12A1D012020F0E9FB5E
:104CE0000122EB6804005B1001335B001343EB60AF
:104CF000FEF738FB20000DB030BD0198054A03686F
:104D0000934205D0044A00249342F3D0FEF732FBCD
:104D10000024EFE7D4DA02007CD80200044B0B60D9
:104D200003684B60436808008B600123CB607047C9
:104D3000809802000048704748990200F7B5019139
:104D400011490400170000251BF0C6FE7B68AB422A
:104D500004D80E4920001BF0BFFEF7BD002D03D084
:104D60000B4920001BF0B8FE019BAE009A5909497F
:104D70002000BE191BF071FF0122B168200002F073
:104D80005BFD0135E2E7C0465E780300F41C0300DA
:104D9000C5F50200E90C0300044B88600B60044B6E
:104DA00008004B600023CB607047C046B8CA0200C1
:104DB0007116020070B50E001049040000251BF0AA
:104DC0008BFE7368AB420AD8012B03D10C4920003B
:104DD0001BF082FE0B4920001BF07EFE70BD002DF3
:104DE00003D0094920001BF077FEAB00F318012225
:104DF0009968200002F020FD0135E2E75E780300AB
:104E0000ED0C0300F41C0300C5F5020070B50D00A5
:104E100001281ED0002803D0022807D0002004E07B
:104E20004B680E48002B00D10D4870BD00260D4C7C
:104E30006B689E4203D3012064002043F5E7B30072
:104E4000EB18996802200DF059F84010241801362B
:104E5000EEE74B685B001843E7E7C04680DC0200E2
:104E600078DC0200DC99020070B506000D000B48EA
:104E7000002E0DD0B41CA40020001CF071F9084BCA
:104E800046600360002D03D00023083CA34200D1FC
:104E900070BDE958C21891600433F7E7DC9902004D
:104EA000E4990200F0B5070085B00E0014001D283B
:104EB00003D90025280005B0F0BD01238340324D01
:104EC0001D4044D1314A13421FD1F82292051342AA
:104ED000EFD0200002F098FC2D4B426A9A4205D098
:104EE00020002C4920F051FA041E0CD02300310080
:104EF000626808330092083172683800FCF770FA73
:104F0000254D0028D6D1254DD4E7200002F07CFCA9
:104F100020490CF071FB0028CBD07368626829002F
:104F20009818FFF7A1FF07003100736808379A004F
:104F300005000831380023F084F9210070686368A7
:104F4000800038189A00083123F07BF9B2E703A9F2
:104F5000100002F07FFD0025A842ABD00398104D51
:104F60000028A7DD736800215843FFF77DFF050087
:104F70002B003000083300930830039B7268042133
:104F80001BF0E7FE96E7C0468000100020000400FA
:104F9000994D0000E499020080DC020078DC0200F8
:104FA000DC99020030B5040085B0042A2DD1032518
:104FB00040680D401FD1164B0A689A421BD101AAC6
:104FC000FCF792F9002802D112480DF021FF019B55
:104FD00002982900C01AFFF747FF050021006B68FF
:104FE00008319A00019B08309C00091923F029F927
:104FF000280005B030BD0A0000230100206802F03F
:10500000C3FD023080000559F2E70025F0E7C046F5
:10501000E0D50200EF0C0300F0B50C0011000022F7
:1050200085B01E000092012320000CF013FE184DE5
:10503000002C1ED03568AB0703D1164B2A689A4264
:1050400017D010201CF08CF80021040030680DF0FF
:10505000BDF800250426039003980DF019F9071EEA
:105060000AD128002100FFF7FFFE050020001CF0F8
:10507000A6F8280005B0F0BDAE4205D8F10020002A
:105080001CF08CF804007600AB001F510135E3E7FB
:10509000DC990200E4990200054B10B5186821F074
:1050A000EBFD044B002800D1034B180010BDC04697
:1050B0007029002080DC020078DC020010B5034B70
:1050C000186821F0E1FD024810BDC046702900209B
:1050D000488B020010B5034B186821F043FE1DF009
:1050E00080FB10BD7029002010B5034B186821F01B
:1050F00040FE1DF076FB10BD7029002010B5034B5B
:10510000186821F03DFE1DF06CFB10BD70290020D9
:1051100010B5034B186821F0E8FD1DF062FB10BDCF
:105120007029002030B593B0FBF786F8184C2000AA
:1051300022F0E6F9174D286811F0E0FB200022F07C
:10514000E4F9FBF769F81EF075FD1CF0BAFA0400EB
:10515000296803A821F086FD0F4B20000A93039BCA
:105160000B93049B0C93059B0D93069B0E93079B3F
:105170000F93089B1093099B0193119320F076F9EC
:10518000200020220AA90CF03BFD044813B030BDDA
:10519000782900207029002055BA11C0488B0200E0
:1051A000F8B5114D0400286821F066FD002802D1F1
:1051B0002000FFF7B7FF0D4B1B78002B0DD10C4ED5
:1051C0003478E4B2002C08D10127286837700368CE
:1051D0005B689847054B34701F70286811F064FCB9
:1051E0001DF0FFFAF8BDC04670290020BA2D00203E
:1051F000BB2D0020F0B58DB01CF063FA0E4B026899
:105200009A4217D104694168089444698268C36866
:1052100009948469C0690A9484466C460591069293
:10522000079308A8E0C8E0C460462060034800680F
:1052300021F002FD0DB0F0BD55BA11C0702900205B
:1052400010B54A6801491BF008FD10BD5F740300EA
:10525000F0B5036899B00700986807911CF0A9F8A9
:1052600001220F21431E0430800004933B18029357
:1052700004330393FB6806A81A4009180A70032236
:1052800093430A930CA8FEF74FF8031E00D041E3A6
:10529000079A7D68BC68002A00D19EE22A785E2ABF
:1052A00000D19AE2079807930DF0DAFA04000AE0B9
:1052B000D64B63600434D64B9A6C002A00D18BE243
:1052C00000229C6C9A64FEF74DF80D9422E3D14BBA
:1052D000EFE7D14BEDE77F216B785B06DB17327888
:1052E000DB01100052B2084003430136002AF6DB0E
:1052F00001225B001343DCE700237F213278DB01CE
:10530000100052B20840C3180136002AF6DBDB0059
:105310000622EFE703220336964308CEC9E70023AF
:10532000C7E700237F213278DB01100052B208402A
:10533000C3180136002AF6DB9B005B42029A98589C
:10534000002800D028E3B549B54820F0ACFEADE711
:1053500000237F213278DB01100052B20840C318CD
:105360000136002AF6DB029A9B005B4298581EF039
:1053700091FEE5E700207F223378C00119005BB27F
:10538000114008180136002BF6DB251D0CF058FDE6
:1053900060603EE000207F223378C00119005BB2DC
:1053A000114008180136002BF6DB251D0CF016FD08
:1053B000EEE700217F223378C90118005BB210406C
:1053C00041180136002BF6DB206820F081F82060C0
:1053D00071E700217F223378C90118005BB21040C9
:1053E00041180136002BF6DB220001CC0CF0A2FEA6
:1053F00061E700207F223378C00119005BB21140C1
:1054000008180136002BF6DB21000839251F0CF0A7
:10541000E3F82C004FE7251D0CF02AFDB8E7251F07
:1054200004222168286802F05FFC2860F1E700236D
:105430007F213278DB01100052B20840C3180136D8
:10544000002AF6DB9B005B42029A21689950F8E043
:1054500000237F213278DB01100052B20840C318CC
:105460000136002AF6DB029A9B005B4221689858BD
:10547000251F1EF011FECCE700207F223378C001EB
:1054800019005BB2114008180136002BF6DB2168C9
:10549000251F0CF003FDBCE700207F223378C001FC
:1054A00019005BB2114008180136002BF6DB2168A9
:1054B000251F0CF00BFDACE700217F223378C901DA
:1054C00018005BB2104041180136002BF6DB231F99
:1054D0001A6820680CF056FE083CECE62200231FF8
:1054E000083A21681268186802F0FEFB0C3CE2E6FC
:1054F00000237F213278DB01100052B20840C3182C
:105500000136002AF6DB029A9B00D31A1A68002A99
:1055100000D118E700221A60CDE600257F223378FB
:10552000ED0119005BB211404D190136002BF6DB7D
:10553000029BAD005D1B28681EF0ACFD002800D169
:1055400001E7002128681EF0A7FDB4E600207F22B5
:105550003378C00119005BB2114008180136002BE6
:10556000F6DB0CF0A7FCA6E600207F223378C00112
:1055700019005BB2114008180136002BF6DB0CF065
:10558000B1FC98E6236894E62368A360231F1B6898
:10559000636008348FE6231F196822682160BAE728
:1055A000221F1368216823602300083B18681060DD
:1055B000196080E6737832781B021343ED18194B9B
:1055C000EE1878E633787678206836021E43019626
:1055D00002F040FBEE1C251F2C00002800D16AE6DB
:1055E000114A019B94466344F61864E63378767852
:1055F000206836021E43019602F02CFBEE1C251F8C
:105600002C00002800D056E6EAE7C04678DC02000D
:10561000642E0020488B020080DC0200200D030075
:10562000A8D902000380FFFF0080FFFF337876785F
:10563000206836021E430196EE1C02F00BFB002888
:10564000CED1043C37E633787678206836021E43A4
:105650000196EE1C02F0FEFA0028C1D0F1E7F1211C
:1056600026682200300049000CF064FD2300F02180
:1056700008331A003000490001930CF05BFD002153
:10568000019A08001FF015FFAB786A781B021343DC
:105690000A9A0F210C320A920A9AEE1CF318136030
:1056A000022206ABC9180B780A9D1A43231D134327
:1056B0006B6000230A9A0B709360A060019CFAE56E
:1056C00025002368B54A0193083D934209D16360E0
:1056D000A3602A00002103201FF0EBFE019B2B603A
:1056E00097E60122019B134005932AD0231F1A68D5
:1056F0000592019A5210012A0DD1A84A0C3C1A6059
:10570000E26022610021220003201FF0D2FE059BEF
:1057100023600323E3E72A68002106929F4A0320BF
:105720002A601A602300103B22601A0001931FF0C8
:10573000C0FE019B069A0C3C1A60059B2360052362
:10574000CDE7019B6360180002F05EF8934B206088
:10575000A3602A00059903201FF0ABFE02F07AFA3D
:1057600000280DD001228D4B06A92B600A9B5B6897
:1057700013400E32521813700A9B0C3B0A9348E6F2
:105780006368ACE7737832781B021343844AEB18E2
:105790009B186360EB78083423600F267F2102207A
:1057A000012506AA2368B6180B4206D1221F1668E7
:1057B000002B00D190E6183C7DE50A9A013B526827
:1057C00002426FD0220008C20523636014000A9BC6
:1057D0001E680A9B0C3B0A9335007D602B786E1C7B
:1057E000180010385A2800D905E314F041F961FD7A
:1057F00070FD72FD040374FD040385FD93FD98FDA7
:105800009AFDB1FDC3FDD3FDE2FDF2FD02FE14FEE3
:1058100018FE20FE31FE45FE55FE65FE77FE81FE38
:1058200096FEAFFEBDFE0403040304030403CBFE97
:10583000CDFE2AFFD4FED9FEE3FEEBFEFFFE1FFFE6
:105840002CFF04030403040338FF69FF63006300B3
:105850008000AE00BF00DD00DD00CBFFB30004031D
:105860000403040304030403040304030403E9001E
:10587000FB0004030D011C01040325015201370143
:1058800073018901380268029602800204039E01B6
:10589000A901B401C101CD01EA0104022102CE0235
:1058A000ED02FE020A9A52682A4032700A9A0C3AB5
:1058B0000A9279E7737832781B0213430A9AEE1C36
:1058C0000C320A920A9AF31813602B7806A9403B0F
:1058D0005A4253410F22521810785B000A99034331
:1058E00023434B6000230A9913708B60E3E4236821
:1058F0002A4A934200D1A4E6DA0707D55B10DBB24F
:10590000043C012B00D048E70222CEE1FDF72AFD3E
:1059100023680D930D9B234918680BF06DFE00283A
:1059200000D1AEE27A68002A00D1AAE21378432BB4
:1059300000D098E2937850781B02D11C0343CB1817
:105940007B60BB68103BBB609CE4002120680CF0CE
:105950003DFC3CE52500210020680C350CF036FCB0
:10596000844200D155E50023236011E520003378FF
:1059700076780C383602BC601E4303680196EE1C34
:10598000002B02D12300083B18680CF059FC0028BA
:1059900002D1103C019B27E660608BE4488B02003B
:1059A0000380FFFFD4DA020001220A9B06A95B688C
:1059B00013400E32521813700A9B0C3B0A937AE480
:1059C00000207F223378C00119005BB21140081813
:1059D0000136002BF6DB8100641A04342100FFF746
:1059E00043FAF4E400207F223378C00119005BB24F
:1059F000114008180136002BF6DB8100641A0434CC
:105A000021001BF09BFCE2E400207F223378C001E0
:105A100019005BB2114008180136002BF6DB251D7A
:105A20001EF0BEFBB4E42500231F083D1A68216860
:105A300028681EF0EEFBECE400207F223378C001E2
:105A400019005BB2114008180136002BF6DB81000B
:105A5000641A04342100FBF7C7FEB8E400237F2159
:105A60003278DB01100052B20840C3180136002A18
:105A7000F6DB251F28682168022B03D1CC4A0EF0E3
:105A8000A3FBD2E4083C0A00010020680EF09CFB56
:105A90009DE400237F213278DB01100052B20840E0
:105AA000C3180136002AF6DB9A08920052421059B8
:105AB000032221681340251F002B02D1FDF7F2FCC1
:105AC000A7E4012B03D12A681EF0A3FB04E51BF019
:105AD00041FA9EE400257F213378ED011A005BB284
:105AE0000A4055190136002BF6DB220029002068F8
:105AF0000CF064FDAF4B5D19AD006419FFF7DBFBE3
:105B000000257F213378ED011A005BB20A40551958
:105B10000136002BF6DB2200290020680CF0A2FDE4
:105B2000FF222B0A13401540E5E70322F31C9343A1
:105B30000022186811001E1D251D1BF05DFA27E4C8
:105B40000322F31C9343251F2268296818681E1D31
:105B50001BF052FA69E40322F31C934319795E1D8A
:105B60008A00A41A0434220018681BF061FA2EE49B
:105B70000322F31C934318798021C2434900920009
:105B80005E1DA4180143EEE700207F213378C00199
:105B90001A005BB20A4010180136002BF6DBFF2515
:105BA000FF220100C3096D0011402B405B189B00D0
:105BB000E41A000A0240231D20680CF011FAFFF7D6
:105BC00006FC00217F223378C90118005BB2104027
:105BD00041180136002BF6DBFF22CB09520013409F
:105BE000CAB29B189B00E41A083C220000200CF06B
:105BF0008FFBFFF7ECFB00237F203278DB011100E5
:105C000052B20140CB180136002AF6DBFF21180002
:105C1000FF250840DA096D002A40451C5219920000
:105C2000A41A1B0A194022001FF043FCFFF7CFFB08
:105C300000217F223378C90118005BB2104041185F
:105C40000136002BF6DBFF22CB0952001340CAB20B
:105C50009B189B00E41A0C3C22000120C7E70F228E
:105C600006ABD2181378002B00D14DE601210A9B18
:105C70005B680B4013700A9B0C3B0A9344E60A9B3B
:105C80005B6813420ED003220A9B21685B68934332
:105C90001C0059609A600A9B08341E680A9B0C3BE2
:105CA0000A9399E50A9B0C3B0A930A9B03998B4242
:105CB000E5D2FDF757FB0020BC6019B0F0BD6B7852
:105CC000022B03D1043C2068FFF7EEFA002BFAD137
:105CD0000A9B039A934203D237493848FFF735FBB2
:105CE0009868002801D0FFF7DFFA0C3BF1E7231F8B
:105CF0000593079B0193231F1868019B002B19D064
:105D00000021079B07910193019A0BAB0CF02EFD2C
:105D10000B9B012812D12E002360FDF723FB0F23DC
:105D200006AA9B181A780A9B7E601343BC60FB602E
:105D30000120C2E70BAB019A2168E7E7002811D1E7
:105D4000043C002B00D11A4B2360019B002B19D07F
:105D50001B49180020F0B1F9002813D0FDF702FB11
:105D6000019BD6E51749180020F0A7F9002805D0B7
:105D70000B980EF0A5FA043C2060E6E7FDF7F2FA76
:105D80000B9BC6E5059CFFF796FA00207F2233782F
:105D9000C00119005BB2114008180136002BF6DB78
:105DA000251F2A6821680CF079FDFFF73EFBC046ED
:105DB000488B0200FFFFFF3F660D030098DA0200E8
:105DC000C8D70200D4DA020000217F223378C9014B
:105DD00018005BB2104041180136002BF6DB25009D
:105DE00001CD0CF06DFDFFF7D3FA2068251F1FF0E1
:105DF0007BFBFFF70EFBAF2B05D80120803B5B0040
:105E00000343FFF756FABF2B04D8B022D31A9B00E6
:105E1000FFF794FACF2B04D8C022D31A9B00FFF7C8
:105E200013FBD62B06D8D03B180021680CF066F87F
:105E3000FFF7CDFAFA2B08D8251FD73B18002268A8
:105E400029680CF0FBFDFFF7F0FA4549454820F0C2
:105E50002AF90400FDF786FA049B04339B00FB1823
:105E60005C60022029E75E2B0BD1BC680D98231DD6
:105E7000BB600EF025FA60607B6801337B60FFF742
:105E800001FA0D9B384A93422AD0384A934227D0D0
:105E90003B6898681BF093FA1BF091FA7B68051D2C
:105EA00028005C1B1BF085FA060028001BF087FA0F
:105EB00005001BF07EFAA41B060028001BF07FFAE9
:105EC00005001BF076FA019028001BF078FA0122F9
:105ED0000378002B09D1330001990D980EF090FA48
:105EE0000F2306AA9B1801211DE059B2002909DBE6
:105EF00019001F255B09294001308C42EBD3641A3D
:105F0000D218E5E70F21E0251940ED001B012B40D9
:105F1000457802302B43F0E70A9A52680A401A701B
:105F20000A9A0C3A0A921A78002AF5D10A9903982B
:105F30000D9A81420DD3012119700A9B02311B6811
:105F40007B600A9B5B688B430A9904338A601A6002
:105F5000F9E4049B04339B00FB185A6081E7C046B8
:105F60004C0D0300E4D9020040D6020050D60200D6
:105F700070B5050014001BF0E7FB024B2560636061
:105F800070BDC0461117020010B50C007F2906D85D
:105F900001211BF019FC002800D0047010BD224B19
:105FA000994210D802211BF00FFC0028F6D04023A4
:105FB000A2095B42134303703F23234080246442C1
:105FC0001C434470EAE7194B994214D803211BF093
:105FD000FBFB0028E2D02023220B5B4213433F212E
:105FE00080220370A30952420B400C40134322430A
:105FF00043708270D2E704211BF0E6FB0028CDD06D
:106000001023A20C5B4213433F2103708023220B19
:106010005B420A401A434270A2090A400C401A43EC
:106020001C438270C470B9E7FF070000FFFF000047
:1060300007B5034B009068460193FAF71DFD07BDB5
:10604000111702000523020070B5094C094D2068A4
:10605000434309489B189B0018582B682260C018BE
:106060000F2319400901286002F0E6FC70BDC0460C
:10607000282A00202C2B0020689B0200A83903004E
:1060800000B5080006292ED813F0E8FC040A101603
:106090001B2128009A18E223DB00D218107800BDDB
:1060A000C4329200D05C8006800EF8E7C4329200C1
:1060B000D05AC004400EF2E7C4329200D058000318
:1060C000F8E7C43292009A1890780009E7E7C432E2
:1060D00092009A18D0780007000FE0E7C4329200CF
:1060E0009A18D078F1E7024B024A00201A60D6E7EE
:1060F00064000020850D0300A83910B504000800D5
:10610000062949D813F0AAFC040A141F2A343F00B8
:10611000E221A218C9005218137010BD3F210B4094
:106120001800C4329200135D8B4303431355F4E708
:106130007F21C432920019401948135B8901034042
:106140000B431353E9E77F21C432920019401059E1
:10615000144B490303400B431351DEE70F20C432B5
:106160009200A2181901937803400B439370D4E76F
:106170000F210B401800C4329200A218D3788B4331
:106180000343D370C9E70F20C4329200A218D1781C
:106190001B0101400B43F4E7034B044A1A60BCE7C0
:1061A0003FE0FFFFFF1FF0FF64000020A30D03008E
:1061B000F0B5D2B285B00E000293072113000B4058
:1061C000013BDBB2042B02D9294C2A4D25608A43BE
:1061D0001F02002A24D1284B3578C45C274B2409A0
:1061E000E443E4B22D1BDB19EDB2039308276319D6
:1061F000039ADBB2D35C5A00D2B25BB20192002B9D
:1062000033DA1A210320013FFFB2FFF71BFF019B86
:10621000002FF0D10134E4B2002CE7D135701AE040
:10622000D4431749E4B2CE5C0825144B1B19DB5D3F
:106230005A00D2B25BB20192002B0FDA0521022084
:10624000FFF700FF013DEDB2019B002DF0D10134BD
:10625000E4B2002CE8D1029805B0F0BD3100012075
:10626000FFF7F0FE002EE9D0ECE706210420CAE794
:1062700064000020900D0300190700001B130300A9
:10628000761903000022F0B505000F00FF200F244F
:106290008BB008AB654EDA710100C4318900691812
:1062A0008B781A09B25C234012011343CA788B70B1
:1062B00013071B0FF35CA243234013431A09B25C7C
:1062C000234012011343CB700138E5D2E223DB00F7
:1062D000EE5CB308F31ADBB20493554B1B68002B3A
:1062E0000BD0E222C4218120D200890000013B00B2
:1062F000AA186918281809F061F9002448230294A3
:1063000003930194009481222B1912019B181B788E
:10631000180005930723984320D008A92300059A65
:1063200007312800FFF744FF0230C4B2023FFFB23A
:10633000002F78D02B780393013EF6B2002E47D180
:10634000E2222B19D2009B181E78B308F31ADBB295
:1063500004930023029301930093D4E7354B009AF2
:106360009C469A5C2300C4339B00EB18997809097A
:106370000A4331498A5C019907926246DB78525C94
:106380001907090F0A432C491B098A5C2B490692FD
:10639000029A8A5C06991343079A8A182649C95CAF
:1063A00001238918FF2A00DC031CC9188823090669
:1063B0001B06C918090F0020FFF744FE039B013B91
:1063C000DBB20393002BB7D10134E4B2013FAEE757
:1063D000049B013BDBB20493002B02D1059B002BF5
:1063E00018D12200C4329200535D00999B069B0E87
:1063F000CB18DBB20093535B0199DB045B0ECB1827
:10640000DBB201935359029A1B035B0ED318DBB224
:10641000029378E708A92300059A07312800FFF7BF
:10642000C7FE04008CE70BB0F0BDC0469F0E030012
:10643000242A00206B180300771003001B120300AE
:10644000064B1B5C002B05D0054B185C4843C01164
:10645000C0B27047034B185CFBE7C046C71103008E
:1064600040100300000F0300064B1B5C002B05D0FF
:10647000054B185C4843C011C0B27047034B185C11
:10648000FBE7C046C71103007B190300500F030050
:10649000F0B5037A8DB004007F2B00D158E10300E2
:1064A000070000250933FF330837099301953E782B
:1064B0007F2E00D087E000230693019306998B007E
:1064C000E31803931A7A481C1B7BC0B206907F2BFB
:1064D00000D11CE19F49CE5C8D5C9F49AE4200D04B
:1064E000F2E08D5CCB5C0493039B597A019B5918B5
:1064F000CBB20193049BEB18DBB20793023B1B0664
:10650000DCD4A827019B5D1BEBB20593A82F00D01C
:10651000E2E0039B039A5B7A527B5B08520899186E
:106520000291019901988A18E221C31AD2B2DBB212
:10653000C900A218E31852185B18157818782D1A9C
:10654000EDB27F222B006DB293430893EB17E8184E
:106550005840029913F006FC2800CBB20299099327
:1065600013F01AFB059A00251600C3B20A93029B8A
:106570009B18DBB20B93320039002000FFF77EFD41
:106580000A9B01360B9AC018F6B2C3B2964200D1EC
:10659000B7E0099AAD18029AEDB2AA420DD8AD1A29
:1065A00020216A4652181278EDB252B2002A00DA5F
:1065B000A5E0002B01D00133DBB23200390020000E
:1065C000FFF79AFDD7E7012E78D12B003100019A11
:1065D00020001BF07CF9BA78604BA1789B185B789F
:1065E00030000193FB780893FFF72AFF3F23E178FF
:1065F000034030000293FFF737FF7F22584B9B5D2B
:106600001A40584B03929A5D0F231A400492564A3F
:10661000925D1A400592554A925D1A4006923F22B9
:10662000534B9B5D07937B78EB18DBB20A93029B7D
:10663000134002937F23184083019C462A003F2188
:10664000C4329200135D0F268B4302990B431355FE
:10665000135B48490B4061460B431353039B10598E
:106660005903454B03400B430498190C314000017A
:1066700013510843A21890701B0E0598B343069956
:10668000034309011E400E43D670694681226319F7
:10669000097F12019A181170E222D2009B18089902
:1066A000019A013552181A700A9BEDB29D42C5D16C
:1066B000099B0437BB4200D0F9E6FCE6022E8AD1E2
:1066C0002B00019AFF2183E72C48AE4201D9C55C1B
:1066D00008E78D5C835C06E7049B019A39009A18F1
:1066E000D2B22000FFF7CAFC059A0500390020004D
:1066F000FFF7C4FC079B2D1AEDB2029321E7013B83
:106700005AE70137FFB2AF2F00D0FFE6D6E60231DD
:1067100089006118019B497859186368C9B2002B38
:1067200013D1E22381221648DB001201E318A518D9
:10673000001B1A18C4329200125D1E789206D20E07
:10674000B21A1A7001339D42F3D12000FFF79AFD6F
:106750000DB0F0BDB00E0300771103006B190300FC
:10676000A00F0300AF0D0300FF0D03004F0E030049
:106770001B1803003FE0FFFFFF1FF0FFF00F0300B7
:10678000F0F8FFFF004870470148E80110B501F03C
:1067900023F980F31088014810BDC046488B0200E1
:1067A000044B054A05481A60054A5A6000221A81BE
:1067B0007047C046302A002020030700488B0200A3
:1067C00074696275F7B51600314A0B008832176894
:1067D000002F02D12F480CF029F902212E4C2F4D09
:1067E000E167A324E4002C592D4AE4B206343C1995
:1067F0002C4F3D68A54204D12B4B116001930198A9
:10680000FEBD2578002832D1601C002B04D1290060
:1068100002F054FB01900BE05A68AA4200D92A000A
:106820000100186821F016FD01226B001A43019245
:10683000002E0ED0621953785B423360D378117901
:106840001B0209040B43917852790B431206134340
:1068500073603E68A91D6118721A200021F0FAFCCD
:106860000223751B0E4A063D3D601360C7E7022DEB
:1068700004D8002303600E330193D9E721000422DA
:1068800021F0DFFCE91E201D002202F0FFFAC1E723
:10689000642E0020341A030004E100E000100040E0
:1068A00000E100E03C2A0020488B02007FB5002177
:1068B00001AA0800FFF786FF0A4B98420FD001217A
:1068C000019B03905A00029B0A438B400492064AA4
:1068D000032013400B4303A90593FEF7C5FA07B045
:1068E00000BDC046488B0200FEFFFF7F002213B5AB
:1068F00001AC11002000FFF765FF094B98420ED054
:106900002378022B08D96378012B05D1A378002BBB
:1069100002D1E378012B02D002480CF087F816BDB3
:10692000488B0200141A030002220B4B10B5DA67E1
:1069300000220121094B5A61094A11615A69002A52
:10694000FCD0084C88342068002803D01AF037FCAB
:106950000023236010BDC04604E100E0FC100040AD
:1069600000100040642E002010B5FFF7DDFF014845
:1069700010BDC046488B0200F8B5FFF7D5FF364C76
:106980002678657806360135754328001AF0E8FB4D
:10699000324A861916600022314B45198833186037
:1069A000304B01211D60304B5A608022D2051160AE
:1069B0005A68002AFCD003212C4B61562C4A002532
:1069C0009950A178043A9950617A083299506168D7
:1069D000284A08269950217A274A284F99500121A0
:1069E000274A9D5004329950264A9E50812224788D
:1069F00092042243A324E4001A510224224A9C5008
:106A0000224A9F50224F043A9F501827214A9F50F4
:106A1000214AC0279850C12292009E501F4ABF00B1
:106A2000D0591F4E0640C02000023043D051C02034
:106A3000400014501460102280301C5822431A5019
:106A4000184A5560596051680029FCD00021116135
:106A500001229A60F8BDC046302A00203C2A00205E
:106A6000642E00202C2A0020FC0000400010004072
:106A70000C0500001C05000024050000FFFF0000BD
:106A80002C05000014050000340500003C05000042
:106A900021100100540500000405000000E100E0A1
:106AA000FF00FFFFFC10004010B5FFF765FF014835
:106AB00010BDC046488B0200F0B505008DB0160031
:106AC000002802D06F480CF075F96F4B09AA190025
:106AD00091C991C21A781F7A06925A7805929A78CB
:106AE000039203229A5604925A685B7A01920293A7
:106AF0007368AB424CD9EB000793B368EA009B186C
:106B00001A68002A1BD0042A19D0586800F090FF98
:106B1000B368EA000400985802F0DAF90200B338CA
:106B2000FF3806282ED812F099FF040C13192026DE
:106B30002800631EFA2B00D9A2E0E3B206930135C8
:106B4000D6E7631EFD2B00D99AE0E3B20593F6E782
:106B5000532C00D994E0E3B20393F0E7072C00D95B
:106B60008EE04A4B1B570493E9E7022C00D987E0DB
:106B7000E3B20293E3E70194E1E7FF2C00D97FE061
:106B8000E7B2DCE7424943480DF0CEFBFCF7F2FBED
:106B9000414B09AC88331B68002B17D16B461B7E19
:106BA000277223706B461B7D63706B461B7BA37043
:106BB0006B461B7CE370019B0A936B461B7A6372E6
:106BC000314B07CC07C335480DB0F0BD6B461B7E7B
:106BD0002D4D23706B461B7D637022882B889A4253
:106BE00012D0FFF7A1FE6B461B7B2772A3706B468A
:106BF0001B7CE370019B0A936B461B7A63720ECC7D
:106C00000EC5FFF7B9FEDEE70222254B2549DA67FC
:106C10000022254B4A6101321A614A69002AFCD0E0
:106C20006846007B09AA90706846007C1772D07095
:106C300001980A906846007A5072134870CA70C072
:106C40001A4A049898500398043A985002980832C7
:106C500098500198164A9850164A9F5000224A6050
:106C600001325A604A68002AFCD000220A61C02121
:106C700001329A60104B013249005A501A60A2E763
:106C80000E4980E7BE190300302A0020B619030020
:106C9000D919030000DC0200642E0020488B02009A
:106CA00004E100E0FC100040001000400C05000072
:106CB0001C0500002405000000E100E0EF190300BE
:106CC000214BF7B55A68214D002A03D000225A60A3
:106CD0000132AA601A69002A34D000221A61A32363
:106CE000DB00E8581A4BC2B2883319680C78A2420C
:106CF00001D2140008708023DB00EB58012B1FD158
:106D0000144E154A3768A31D12680193FB189A4266
:106D100016D3621C380021F094FAA923DB00EB584B
:106D2000621CBB5412F040F83368020A1C19E2706E
:106D3000020C2271019AA0709B18000E60713360E2
:106D40000123AB60F7BDC046FC10004000100040BE
:106D5000642E00203C2A00202C2A0020F7B5314F59
:106D600000933B00883301921A680E00002A02D17A
:106D70002D480BF05BFE02212C4B2D4CD9670023D4
:106D80002C4D636101332B616369002BFCD0A3237D
:106D9000DB00EB580099DBB27118994203D9B3427A
:106DA0003DD39B1B0093009B8837F31813703B68FF
:106DB000010001331800320021F043FA009B002B40
:106DC00006D03868013680191A00019921F039FA85
:106DD0000023636001332B606368002BFCD0012328
:106DE000AB60002323612369002BFCD00023636187
:106DF00001332B616369002BFCD0002363600133F6
:106E00006B606368002BFCD00023C0210222236149
:106E10000133AB60084B49005A501A60F7BD1E00A1
:106E20000023BFE7642E0020341A030004E100E0D1
:106E3000FC1000400010004000E100E007B501A98F
:106E400002F07CFC019B020003210248FFF786FF51
:106E500001480EBDB2190300488B02001FB5012284
:106E600001A900F073FF002301981A000299FFF7AF
:106E700075FF014805B000BD488B02000300203BB0
:106E80005E2B00D93F20052320384343014A106878
:106E9000C018704768000020044B0B6043684B60CB
:106EA00083680800CB6000238B607047989D0200C8
:106EB00070B50500080068430130401008300C0030
:106EC0001AF04EF90122044B857103600379447175
:106ED0009343037170BDC046A4A0020010B50379AE
:106EE000DB0702D501480BF065FF10BD491A03000E
:106EF00070B5050020201AF033F905210B4B040072
:106F000003600800FFF7D4FF6B68EA68A0602361A4
:106F100062602A7C2000A276AA689B1863616B7C61
:106F2000E3761AF049FD200070BDC046E8A00200DB
:106F300070B50D000400FFF7D1FF280000F04CFDF4
:106F40000100092802D904480BF070FD20001AF056
:106F500095FD024870BDC046E61A0300488B02004A
:106F6000F7B5C3684269040093420BD1037E052B39
:106F700008D1C37E181E43D020001AF01DFDA06862
:106F80001AF08AFD012500266B1E0193A7683200C6
:106F9000290038001AF03EFD320003000199380044
:106FA00001361AF044FD052EF0D10135052DEAD148
:106FB00000252A0000230421A06801351AF037FDBE
:106FC000052DF6D1227E637E9A421AD2207FFFF7EA
:106FD00055FF002507000426227E7B5DB21A13416F
:106FE000012213400832534304212A00A0680135CE
:106FF0001AF01DFD052DEFD1237EA0680133237605
:10700000FEBD9A42F8D1E36861695A1CE2608A4287
:1070100005D120232377A023DB002383ECE75878D6
:107020002077FFF72BFFA17E0500002901D0064B3A
:10703000F3E71AF098FC4042207628001AF0ABFCE7
:1070400001306076D8E7C046FF050000F0B50C00BF
:107050000B6889B0070018000493FFF73FFF6568CD
:10706000280000F0D1FB1E4B984202D01D480BF0C7
:10707000A1FE072F01D11C48F9E7A06800F0ACFC85
:107080000690E06800F0A8FC0790206900F0A4FCDE
:107090000590606900F0A0FC059B0600002B01DB59
:1070A000002802DA11480BF0C1FC062F14D0A069A9
:1070B00000F092FC0700E06900F08EFC059B039055
:1070C0000093280002970196079B069A04991AF0EC
:1070D00011FD074809B0F0BD00200700EEE7C046EB
:1070E000A4A00200761A0300891A0300A31A030061
:1070F000488B020070B504000800160000F06CFC1C
:107100000500300000F068FC0600002D01DB0028BF
:1071100002DA0C480BF08AFC20001AF0D6FCA842D8
:1071200004DD20001AF0DFFCB04201DC0648F1E784
:107130003200290020001AF0BAFC43000120184355
:1071400070BDC046FF1A0300181B0300F8B50D0000
:107150000C682000FFF7C2FE686800F03DFC0600E6
:10716000A86800F039FC0700002E01DB002802DAD5
:107170000F480BF05BFCE86800F02EFC05000928C6
:1071800001D90C48F5E720001AF09FFCB04204DD5D
:1071900020001AF0A8FCB84201DC0748E9E72B0000
:1071A0003A00310020001AF042FC0448F8BDC04605
:1071B000FF1A0300E61A0300181B0300488B0200A5
:1071C000F7B50E0025490400019219F046FD019B18
:1071D000002B03D12249200019F03FFD2149200056
:1071E00019F03BFD002530001AF07DFCA84225DD9A
:1071F000002730001AF069FCB8420CDD39002A0083
:1072000030001AF054FC184B18491A5C200019F091
:1072100024FD0137EDE71649200019F01EFD019B02
:10722000002B09D130001AF05EFC0138A84203DDC2
:107230001049200019F011FD0135D4E7094920005B
:1072400019F00BFD019B002B03D10B49200019F015
:1072500004FD0A49200019F000FDF7BDA51B03003D
:10726000AC1B0300B81B0300BA1B0300B4220300CD
:107270008F750300B21B0300D2230300F41C03002C
:10728000F0B50E00110000228BB01C000092032309
:1072900030000AF0DFFC032E00D9D5E0300012F0F8
:1072A000DDFB020B919105210800FFF701FE0700AD
:1072B00038001AF0F1FB18E02068644B0340062BFD
:1072C00007D0830700D07AE0614B02689A4200D071
:1072D00075E007A902F032FA079B03900593012B92
:1072E00006D100781AF002FE070038000BB0F0BD9E
:1072F00000231E00039A029303990598511A8842AD
:1073000015DD11780A2901D03A2908D19E4200DA08
:107310001E00029B0133029300230132ECE701338C
:107320002029FAD03929F8D94A480BF07FFB002BE5
:1073300005D0029A013202929E4200DA1E000299A2
:107340003000FFF7B5FD002507002C00039B0493D8
:10735000039A049B9B1A059A9A4223DD049B1B788F
:107360000A2B01D03A2B0FD1A64207DD21000023C2
:107370002A0038001AF05BFB0134F5E700240135E0
:10738000049B01330493E3E7202B07D10023210062
:107390002A0038001AF04BFB0134F1E7392BEFD803
:1073A000303BF4E7029BAB429FDDA6429DDD21000E
:1073B00000232A0038001AF03AFB0134F5E726488A
:1073C0000BF0F8FC206800F007FB0500606800F097
:1073D00003FB029001002800FFF76AFD0700022E60
:1073E00000D165E7012207A9A06800F0AFFC002DDD
:1073F0000BDB029B002B08DB0024089B0394049307
:10740000029B049A6B43934205D014488DE7039B7B
:1074100001345B190393029B9C4200D165E700266F
:10742000AE42F4D0039A079B9446049363449A5D5A
:10743000131C092A00D909233100DBB222003800CD
:107440001AF0F5FA0136EBE70548B9E7070080FFC7
:10745000ACC40200281B0300511B0300691B03007E
:10746000861B0300F0B585B001910500002101984D
:1074700012F0CEFC041E02D021480BF0D7FA2800EF
:107480001AF023FB060028001AF02DFB0100300043
:10749000FFF70EFD070028001AF017FBA0422CDDB5
:1074A000002628001AF011FBB04224DD3200210032
:1074B00028001AF0FCFA13F06BFC019913F03CF968
:1074C00014F0F8FE00220F4B13F0ECFC0E4B0022E0
:1074D0000290039112F062FC0923002804D0029864
:1074E000039914F077FE03003200210038001AF0EF
:1074F0009EFA0136D5E70134CDE7380005B0F0BD7E
:10750000BB1A03000000E03F00002240F0B587B046
:107510000491059207001AF0E6FA040038001AF008
:10752000D4FA029004981AF0DEFA0190A04202D038
:1075300019480BF07BFA01990298FFF7B9FC002576
:107540000390029B9D4223DA0026019BB3421DDD7E
:107550003200290038001AF0AAFA3200040029008B
:1075600004981AF0A4FA059B002B0AD02318092BC3
:1075700000DD09233200290003981AF058FA013679
:10758000E3E7231ADA43D2171340F3E70135D8E7CC
:10759000039807B0F0BDC046C51B0300F8B5040052
:1075A00008000D00160000F02FF9164FB84201D068
:1075B00000200FE0053C042CFAD8200012F044FA19
:1075C000141403F80B00300000F06AFA011C2800C4
:1075D000FFF748FFF8BD300000F062FA011CFE2002
:1075E000800512F0D1FEF1E7300000F00DF9B8424D
:1075F000DED1624262413100D2B22800FFF786FF3D
:10760000E8E7C046A4A00200F7B5070001931420E4
:1076100008AB0E0015001C7819F0A2FD044B476062
:1076200003606B461B798660C56003744474FEBDBD
:1076300024A1020070B505000C2019F091FD052170
:10764000044B0400456003600800FFF731FCA060B4
:10765000200070BD4C9D020010B50400034B036078
:1076600040301FF0D1F8200010BDC04668A10200D4
:1076700010B50F4C200020F02BFB002808D0200074
:1076800020F0CCFA0B4B1B68984202D1F9F764FB4F
:1076900010BD3F21084A138801330B400749098870
:1076A0008B42F5D01188064C13806054F0E7C04639
:1076B000402A0020602E0020A22D0020A42D0020B2
:1076C000BC2D0020002210B5044B05491A80054B43
:1076D00005481A8020F001FB10BDC046A22D0020F5
:1076E00071760000A42D0020402A0020034B18884A
:1076F000034B1B88C01A431E98417047A42D0020DD
:10770000A22D0020084A094B10881988884201D10F
:1077100030BFF9E713880649C85C3F21138801335D
:107720000B4013807047C046A42D0020A22D0020DE
:10773000BC2D002070B504004518AC4205D021785E
:10774000024820F06FFA0134F7E770BD402A0020AC
:1077500070B504004518AC420DD02378064E0A2BB4
:1077600003D10D21300020F05DFA2178300020F0A7
:1077700059FA0134EFE770BD402A002070B50400CB
:107780000825002C08D02100082C00D92900034826
:10779000641AFFF7CFFFF4E770BDC046EB1B030090
:1077A00070B5050004000826002C08D02100082C24
:1077B00000D931000448641AFFF7BCFFF4E7280041
:1077C000FFF7DCFF70BDC046E21B030010B50100EF
:1077D00001481CF005FA10BD18000020142313B551
:1077E000064C00931922182120000FF025FF044AAF
:1077F0000449200020F0C5FC13BDC046402A0020EB
:107800000000002059760000074BC2070AD4074A3F
:10781000074B0240062A05D00322064B0240022AEB
:1078200000D00368180070476C950200070080FFC5
:10783000ACC4020064B1020070B50D000400160073
:1078400007F0A2FB2800FFF7DFFF8368002B04D0BE
:10785000320029002000984770BD4268024920008C
:1078600019F0FBF9F8E7C046381D030010B50A000F
:1078700001000248FFF7E0FF10BDC046448A020045
:10788000F7B5050008000E001EF011FC002810D00E
:1078900001AA694630000CF0E7FD009B002B08D0E0
:1078A0001749280019F018F9009CE71EA400002FC2
:1078B00009DA310028000222FFF7BEFF2800114933
:1078C00019F00AF9F7BD019B28001A1911000C3AAA
:1078D00008390B6812680C4919F0BFF9019B1B1994
:1078E000043B1A68002A06D10649280019F0F4F86A
:1078F000033F0C3CDBE70549280019F0AEF9F7E738
:10790000F61C0300D22303001A1D03002F1D0300E1
:1079100010B50400FFF778FF054B0069984203D0CB
:10792000431E9841C0B210BD20001DF00CFDFAE7C7
:107930001514010070B505000C0001208D4203D024
:10794000214B9D4201D1002070BD9942FBD0012303
:107950001D4204D01942F6D12B000D001C002A0054
:107960001A4B1A40062A05D0AA0711D1184A2968CD
:1079700091420DD12340062B05D0A307E3D1144B30
:1079800022689A42DFD12100280001F087FEDBE760
:107990002340062BD7D0A30703D10D4B22689A4270
:1079A000D1D02800FFF730FF8369002BCBD0220015
:1079B00029001B2098470028C5D0064BC01A434217
:1079C0005841C0B2C0E7C046488B0200070080FFA4
:1079D000ACC4020080DC0200104B10B5984219D0F4
:1079E0000F4A0123904217D0184201D0184110BD10
:1079F000830706D10B4B02689A4202D102F0BCFD0C
:107A0000F5E71AF0B3FA0849020008480CF08CFCBC
:107A1000FBF7B0FC0020EAE71800E8E778DC02009A
:107A200080DC02006C950200BD1C030088DB0200B4
:107A300010B5C30705D4830706D1054B02689A42E7
:107A400002D11AF00BFF10BDFFF7C6FFFBE7C046DF
:107A50006C9502000F4B70B50D000124984204D1C3
:107A600000230B602300180070BD0B4B984201D11E
:107A70000C60F7E70300234002D040102860F1E7D4
:107A80008207F0D1054A01689142ECD102F074FD01
:107A9000F4E7C04678DC020080DC02006C9502004E
:107AA000184B10B5984228D0174B984227D0C307DF
:107AB00003D5401013F06CF910BD0323184206D112
:107AC000124A0168914202D11AF0D1FEF4E7020095
:107AD0001A40022A08D10E4A0240062A04D0FF2288
:107AE000D20580189843E7E71AF040FA09490200E6
:107AF00009480CF019FCFBF73DFC0020DCE7FE20F8
:107B00008005D9E778DC020080DC02006C95020079
:107B1000070080FFA31C030088DB020010B5830769
:107B20000CD103680A4CA34202D119F0C1FD10BD6B
:107B3000084CA34202D119F018FCF8E71AF016FA23
:107B40000549020005480CF0EFFBFBF713FCC046AB
:107B5000E499020098960200531C030088DB02009F
:107B600013B50C0001A9FFF7D9FF019BA34206D072
:107B70002200034903480CF0D7FBFBF7FBFB13BDC6
:107B8000761C030000DC0200F7B505000C001700AE
:107B90001E00D3070ED557100197019B002B1FDA4B
:107BA0001B190193002E1DD0002B15DA0023019321
:107BB0000198FEBD01A91000FFF74CFF0028ECD191
:107BC00038006C681AF0D2F9220003000B490C4807
:107BD0000CF0AAFBFBF7CEFBA342E9D90194E7E73F
:107BE000002EF9D1019B002B01DBA342E0D36A6890
:107BF000044905480CF098FBECE7C046191C03004B
:107C000088DB02003D1C03007CD8020010B5040094
:107C1000830710D10D4B02689A420CD10C4B0340E4
:107C2000062B06D1C0081AF065FE43000120184358
:107C300010BD8068F9E72000FFF7E6FD4369181ED4
:107C4000F6D0210001209847F2E7C046ACA302001D
:107C5000070080FF164B70B5040000209C4203D043
:107C6000144DAC4201D1012070BD134B00209C4249
:107C7000FAD001262640864203D06010431E984168
:107C80000DE02000FFF7C0FD4369002B09D0210063
:107C900030009847002804D0401B43425841C0B2EE
:107CA000E2E72000FFF7B2FF0028DCD00138E5E76B
:107CB00078DC020080DC0200488B020010B5040072
:107CC000FFF7A4FF002809D120001AF04FF904495A
:107CD000020004480CF028FBFBF74CFB10BDC0462B
:107CE000D51C030088DB020070B504000D001600EF
:107CF000FFF78AFD036A002B05D03200290020001F
:107D00009847002818D10D4D2000002E08D11AF0F8
:107D10002DF902000A4928000CF006FBFBF72AFBAC
:107D2000042E04D11AF022F906490200F3E71AF0F2
:107D30001DF905490200EEE770BDC04688DB020070
:107D40003D1D0300681D0300891D030010B51AF0D6
:107D500024F9002802D102480BF02CF810BDC046CF
:107D6000F41B0300F7B505002C200E00170001934B
:107D700019F008FA0400057086608781072D01D08C
:107D8000012D10D1337872780A3B1B021343E38133
:107D90006B461B79202063750423638419F0E0F996
:107DA000A0622000FEBD014B5B5DF0E7B61D030045
:107DB00010B5040019F016FD19F04FF901280BD089
:107DC0000649200019F029FD200019F00BFD19F0DB
:107DD00044F9022800D0002010BDC046F91D030060
:107DE000F0B59DB000AF0C68032835D9CB68FB60B7
:107DF000042835D00D6900206D102BD41C232000E1
:107E0000F91801F09BFC7861002D5AD0954C9649E9
:107E1000606807F003FB06006068002293490430A5
:107E2000FCF7DCFC1823FA18D1180400300001F02C
:107E300085FC3B6B013D0100C318002C05D1994224
:107E400003D2013B1A782E2AF9D1013D0ED2994274
:107E50000FD187480AF0EAFD864B0025FB60CDE78D
:107E60000025CBE7013B1A782E2AEED09942F9D3B0
:107E7000EBE7FE695C1A2500002E01D0751C2D1958
:107E80002B006A460E33DB08DB00D31A9D46220026
:107E900018003B6120F0D5F9002E08D02E233A6956
:107EA000601C135510187969320020F0CAF92900B6
:107EB000386902F05DFD06243B69C0000443FD61A2
:107EC0007B61200001F004F80BF00EFF061E15D0B8
:107ED0002E21786920F0DFF900280BD0654BFA6875
:107EE0009A4207D17B69C11A180002F041FD0BF0DC
:107EF000FBFE06003000BD461DB0F0BD1823180083
:107F00000125FA18D2183818103B4021C01819F072
:107F100034FCBE603E61FB69AB4205D2554BFA684A
:107F20009A42E7D0BE68E5E7AB4204D07B695B5D6F
:107F30002E2B00D094E02900786902F019FD7B6AAD
:107F40003860002B17D12A00082479691833F818F3
:107F5000001919F0DDFB1823FB181819FFF728FF8B
:107F600078607B68002B14D13A68434943480CF091
:107F7000DBF9FBF7FFF918230824FA182F21101951
:107F8000FEF702F83B693969EA1A7B695918182328
:107F9000DDE738680BF0A8FE041E4BD138680BF003
:107FA00071FEFB690400AB4213D1354BFA689A426B
:107FB0000FD17B68012B0FD0324A2B4940681CF04F
:107FC00028F918220823BA18D11820001AF06EF8E0
:107FD00030E07B68012BF4D10022796AB86A00F0A6
:107FE00055FFF4210200FF3120000AF0CBF87B6A34
:107FF00018227B600823B818C0182F21FDF7C4FF92
:1080000018220823B818C0181F4919F006FC1822B6
:108010000823BA18D01819F0E5FB19F01EF8022849
:1080200006D118220823BA18D11820001AF03EF8F9
:108030007B687B62BB68002B0CD07A693B699446F5
:10804000E91A6344180002F093FC22000100B868AA
:108050000AF098F8002E00D126006B1C3B61BC6032
:10806000013558E7642E0020860F00009E0F0000A7
:10807000BD1D0300488B0200DC1D030004D8020074
:1080800078DC0200760F0000F11D0300A32300211D
:10809000024A5B000248D1527047C046642E00205D
:1080A000488B0200A3230121024A5B000248D152FF
:1080B0007047C046642E0020488B0200A323044A68
:1080C0005B00D35A0348002B00D103487047C046D9
:1080D000642E002080DC020078DC020010B5F8F786
:1080E000D7F9014810BDC046488B020010B50C4CB2
:1080F000002808D1FC34236D18005A1C02D0180146
:108100001AF06FFB10BD0868FFF766FCFC34031E15
:10811000044803DA01235B422365F3E71B09FBE70D
:10812000642E0020488B020010B53E2803D0402862
:108130002ED03C2813D1532924D013D84C2921D038
:1081400007D8482950D049291CD0422907D10123FA
:1081500048E04F2903D3502914D9512947D0254845
:108160000AF064FC68293FD006D864293FD066290C
:1081700008D06229F3D1EAE76C2903D0712936D0FF
:108180006929ECD101230420002A00D0136010BD1E
:10819000512926D010D849290CD006D84229D6D04A
:1081A000482918D00129DAD1D1E74C2902D0D6D3F9
:1081B0004F29D4D30423E6E76629FBD006D86229E9
:1081C000C5D064290DD05329F4D0C8E76929F1D06E
:1081D00003D86829C3D1022304E06C29EAD07129AD
:1081E000BDD108231800CFE701230220CCE70123EB
:1081F0000820C9E7FD1D030010B551283DD011D856
:1082000049282ED007D8422803D0482826D0012854
:1082100006D18B5C10E04F284BD017D84C2820D0CB
:10822000002309E0682816D00AD8642836D06628CA
:108230002AD06228F4D18B5601205B00184314E049
:108240006C2803D0712811D06928E9D192005058C8
:108250001AF0C7FA09E05200535EEDE75200535A94
:10826000EAE7920050581AF0D7FA10BDD2008A18E7
:10827000106851681AF0A6FAF7E7D2008A18106859
:1082800051681AF0BAFAF0E7032392005058984365
:10829000030002201843084BC018E6E7D2008A18F2
:1082A0001068516814F058F8032302009A43130031
:1082B000EFE792005058D8E700008080F7B517002C
:1082C000156801AA04000E00FFF72EFF402C05D10F
:1082D000019B043C5A1EAA185D4215405A213E3C9F
:1082E00062426241B14289412B183B60D2B22B00FD
:1082F000494219F039FF04000D004F2E08D0532ECB
:1083000007D11FF0E0FF00220100200000F0BEFDB9
:10831000FEBD662E06D1032302249843154B20434D
:10832000C018F5E7642E06D114F016F803230400F4
:1083300002209C43F2E75A2E0FD980220023D20557
:1083400012196B41002B04D1002A02DB1AF049FA02
:10835000DEE729001AF036FADAE7002905D1064BE4
:10836000984202D81AF058FAD2E729001AF045FAD2
:10837000CEE7C04600008080FFFFFF3FF0B589B028
:10838000160005AA02931C6801900F00FFF7CCFEAF
:10839000019B0500402B06D1059B5A1EA2185C428A
:1083A0003C2314400193029A63191360019B3E3BE6
:1083B00003935A425341DBB20293642F12D0662FCB
:1083C0000BD04F2F2AD12800042D00D904203300D0
:1083D0002200029919F0F1FE2CE03000FFF760FB5B
:1083E0000600F0E73000FFF75BFB13F063FF029B32
:1083F0000690079108AA9B00D318083B22001B682F
:108400000299042019F0D9FE039B04345A1E9341AB
:1084100008AA9B00D318083B1E68D4E7B3070BD10A
:10842000104B32689A4207D123002A00029930008B
:108430001AF0A4F909B0F0BD3000FFF7CDFA06003C
:10844000042DC0D900215A2F02D9884200DAFF3109
:108450002A0020001FF011FF019B3E2BB3D12B1FE0
:10846000E418B0E76C950200F7B506000F001400A1
:108470001D0064280DD0662804D04F2813D1940025
:10848000E35105E0940018000F19FFF709FB38606D
:10849000F7BD1800FFF704FB13F00CFFE4003F19D1
:1084A00038607960F4E703232B40019311D10E4B20
:1084B0002A689A420DD1019A01004020FFF734FE4C
:1084C000230043430200FB18019928001AF056F9D3
:1084D000DEE72800FFF780FA2200030039003000B1
:1084E00019F07EFED4E7C0466C95020010B50C0072
:1084F000FFF78AF9006B00280ED0E30702D5036866
:10850000002B09D0A30702D54368002B04D06307D2
:1085100006D58368002B03D1024903481DF005F8F6
:1085200010BDC0460A1E030020DA0200F0B50F009D
:108530008BB00400012138680392FFF7D7FF0600D3
:10854000012C22D13B68012118000393FFF7CEFFD5
:1085500080210700490006A819F0F6F880240023BE
:10856000089E6400029305AB2200310003983D6829
:10857000A847431C28D105980B2800D0ACE0029BEB
:10858000002B34D159480BB0F0BD7868FFF724FABE
:10859000030002900133D5D00125337B029C2B428E
:1085A00000D181E00026210006A819F0CDF803953E
:1085B000002C6ED0210006A819F006F9011E1ED16C
:1085C0004B494C481CF0B1FF002810D0029B1B18EF
:1085D0000293844202D9241A3618C4E7802106A8DF
:1085E000490019F0DEF8802406006400BBE7029B16
:1085F000414807933B7BDB0775D5404873E0002378
:108600000093220005AB386819F029FE059B050090
:10861000002B0ED006A8210019F03AF905980B2876
:108620005AD1079B0293002B33D106A819F0AEF85C
:10863000A8E7844227D8089B30009C46079C6346E5
:108640009B5D039A59B2002912DA19001F250222F4
:10865000A943C0290CD01900103D0132A943E029DB
:1086600006D004329343F03B1A00511E8A41043273
:108670009619A64212D8029B3000013B0293A642F3
:10868000DDD31C0094E7211A06A819F001F9002D8A
:10869000D1D11A4806A900F0C3FB74E7E443029B5A
:1086A000A419E418060083E7029906A819F05DF8FA
:1086B000039B029A0093089905AB386819F0CFFD27
:1086C000059B002B0AD006A819F060F8059B074807
:1086D0000B2B00D157E718000AF08EFB337B079075
:1086E00005482B4289D106A9D5E7C046488B020030
:1086F000291E03006CD90200ACA30200ACC4020026
:1087000030B50C0087B0012105002068FFF7EEFEB0
:10871000022203A96068FFF719FB049A022D06D90B
:10872000A068FFF759F9049A824200D90200002399
:1087300003990093206802AB19F091FD029B002B76
:1087400005D005480B2B05D018000AF055FB430057
:108750000120184307B030BD488B0200F0B589B046
:108760000191019B040001211868FFF7BFFE07007B
:10877000012C18D9019B5B685C10631C13D021008D
:1087800004A818F0E1FF631C03D0631E002C2FD057
:108790001C00012104A819F017F8061E0AD11B4974
:1087A0001B481CF0C2FE0124102104A818F0CCFFC5
:1087B0006442E8E70100019803AB012200683D68CC
:1087C000A847431C0ED103980B2809D1059B0193A0
:1087D000012B09D104A818F0D9FF0E4809B0F0BD4B
:1087E0000AF00AFB00280CD1012104A819F050F866
:1087F0003B7B0948DB0700D4084804A900F010FBC4
:10880000ECE733780A2BBED1F2E7C046291E0300FD
:108810006CD90200488B0200ACC40200ACA3020079
:10882000F0B51F0004000D00160085B00221FFF70F
:108830005DFE03AB009732002900200019F00FFD08
:10884000039B002B05D005480B2B05D018000AF020
:10885000D3FA43000120184305B0F0BD488B020055
:10886000F0B58BB00600080011001A0010AB1F789D
:10887000314B05AD01950093052309F01BFA9120BA
:10888000000118F06DFC2D4B04A91860059B476092
:1088900043706B682A4F0370AB6804008370EB6809
:1088A000C3702B7C30003B6000F048FF0025254B57
:1088B00003900C201D6018F053FC234B060003604E
:1088C000FBF712FFB060FBF70FFF204B204A186048
:1088D000204B11001D70204B70601D701F4B30002D
:1088E0001D602B00FBF7D4FD2000049A03991DF0B6
:1088F000ADFE20000DF0E4F80400A84207D1FBF71C
:10890000CDFC0E4B1C60164B18680AF08FF8012244
:10891000144B1A70FBF7E2FE0028FBD1124B943384
:1089200018603B68002B04D00C4B1048196816F0F7
:108930003BFF07480BB0F0BDBCA20200F82E0020A0
:10894000242A0020A42A002008A30200A02A002034
:10895000488B0200FE2D0020FC2D0020A82A0020BC
:1089600064000020FD2D0020642E0020371E03002F
:1089700000220D4910B50B78DBB2934210D10B4A9F
:108980001478002C02D001240C701370084B1B7853
:10899000002B07D0074A136820331360064B1A6870
:1089A000100010BD8268FBE7FC2D0020FD2D00208B
:1089B000FE2D0020A42A0020A02A002073B501A9C2
:1089C00000F0BCFE019B06001748502B17D88020F2
:1089D000400018F0C5FB154C0500230094331860C7
:1089E0000023019A9A420CD15B232800AB54F9F77B
:1089F000BDFA2B00002808D1943420600C480AF0FE
:108A000015F8F15CE9540133ECE75A1B0133591EA8
:108A100009789B29F9D12900064819F0FEFC0023AA
:108A20009434236076BDC046461E0300642E0020A9
:108A3000541E0300ACC40200D2235B005843134A07
:108A4000F0B51368000C834206D9114C236801333A
:108A500023601368203B13601F23050001270D4E80
:108A60009D431468A5420BD803401A1D202A00D943
:108A70002022094C2468934204D3084B1860F0BDAF
:108A80003770EEE7E51829710133F4E7A42A0020D6
:108A9000A82A0020FE2D0020A02A0020AC2A0020B9
:108AA000F0B589B0002807D1664B6748196818F0FF
:108AB00013F8664809B0F0BD0D68654B9D425BD167
:108AC0000021080018F03AFC002405000590614BD5
:108AD0005A680192944217D300255F4A05A90120E4
:108AE000FAF740FD07AA06A9059818F03EFC069B78
:108AF00003339B0801939B000393019B524EAB42AF
:108B000010D156493000D2E79B680193019AE300E7
:108B10009958002904D0042902D02800FAF7C2FC91
:108B20000134D4E72F00AB000293079B029A9858B8
:108B300000F0EEFD0100300017F0CEFF019BFF18A2
:108B4000069B9F4212D212231C1A002C07DD013C07
:108B500007D2039A029B944663440293E5E71234DA
:108B6000F3E73F49300017F0B7FFF0E73D49300029
:108B700017F0B2FF0135C0E72800FEF745FE3A4B7B
:108B800042689A4200D16D68280002F041FD061E3D
:108B900000D08EE72C4C3549200017F09DFF3100A6
:108BA0002800FEF763FE280019F0E0F930490200C2
:108BB000200018F052F8AB0732D12B682D4A9342AF
:108BC0002BD128001DF068F91BF038FB00250600AA
:108BD000A84200D16DE773689D4200D369E7B2688F
:108BE000EB00D3181F68002F15D05B6822492000C6
:108BF000019317F071FF00213800FEF737FE1F497F
:108C0000200017F069FF00210198FEF72FFE15499B
:108C1000200017F061FF0135DDE7194A934203D0C8
:108C20002800FEF7F1FD0500A86B002800D140E701
:108C3000830700D03DE7134B02689A4200D038E723
:108C4000C2E7C04610000020448A0200488B0200A0
:108C500046140000D0D20200B89702006A1E03003A
:108C6000B01B0300D22303000D0200008E1E030080
:108C7000961E0300A4D30200AF1B0300A61E030030
:108C8000BCCE0200E8C9020010B504000C2018F0A8
:108C900067FA034B4460036001235B42836010BDAD
:108CA00060A30200032230B502400121002A04D152
:108CB000084C05680B00A54209D00B00034006D103
:108CC000002A04D1036804481B1A58424341180083
:108CD00030BDC04688DC02006C95020010B504006F
:108CE000FFF7E0FF012200280AD1032302002340FE
:108CF000022B05D103480440063C2200541EA24129
:108D0000100010BD070080FF044B88600B60044B0F
:108D100008004B600023CB607047C046B8CA020011
:108D20006B26020010B5FEF76FFD084B426808483D
:108D3000D31859424B41AC215B428B43B02189008F
:108D40005B1804490BF0F0FAFAF714FB40FDFFFF43
:108D500088DB0200AB1E0300F7B504000E00019390
:108D600001208B180A0000210093009B934212D827
:108D70002725002900D0053D224F2A003900200078
:108D800017F06BFF009B9E4214D32A00390020008D
:108D900017F063FFF7BD1378272B08D0223B5D4205
:108DA0006B41DBB20132002BDFD02725E4E7002343
:108DB0000100F7E73278AA4205D12A0012492000C3
:108DC00017F04BFF1AE011495C2A14D01F2A09D969
:108DD0007F2A15D0019B002B02D053B2002B07DB5A
:108DE0003900ECE70A490A2A05D00A490D2A02D0BF
:108DF000092A05D10849200017F06EFE0136C1E7A7
:108E00000649DCE7B4220300B3220300B7220300C3
:108E1000BA220300BD220300C0220300C3220300C4
:108E2000194B70B506000C0098420FD14968A06834
:108E300001F06CFD051E09D0200018F0A7FC0023EE
:108E4000ED00236006331D43280070BD102018F08C
:108E500087F96168050081600660A06801F038FD4F
:108E600063686860591C2368994208D1A368EB6065
:108E70000023EA68A9685354A3602360E4E7A0686C
:108E800018F08CF9E860F3E7ACC4020070B5040098
:108E90000D00002A05D001F06BFDC3000620184329
:108EA00070BD01F033FD0028F7D12A0021000248EF
:108EB00019F0B3FAF4E7C046ACC4020010B50A00DA
:108EC0000100024819F0A9FA10BDC046ACA3020087
:108ED000094B10B50340062B01D1C00810BD830714
:108EE00008D1064B02689A4204D18168C06801F03B
:108EF0003FFDF3E7FFF716FF070080FFACC4020059
:108F0000064B10B50340062B03D1C00819F0FCFC3A
:108F100010BD8368C0680B60FAE7C046070080FF99
:108F2000F0B50F00002589B0110006001C003800C4
:108F3000009503232A0008F08DFE0E20AF420FD0CB
:108F4000012F0FD102AA102104A8FDF711F8216802
:108F500002A82A00FEF770FC04A93000FFF760FFAA
:108F600009B0F0BD2068830722D1164B02689A42EF
:108F70001ED104A9FFF7C4FF134B0500206803406E
:108F8000062B13D1C00819F0B0FC0400002C04D14A
:108F90000499280001F09CFC04001020049F18F0A4
:108FA000DFF806608760C5604460D9E74468EDE794
:108FB00004A90122FEF7CAFE002205990498FFF7D2
:108FC00065FFCDE7ACA30200070080FFF0B58DB0D0
:108FD00004000391FEF718FC04A906002000FFF727
:108FE0008FFF039B01902F489A0705D11B6883428E
:108FF0000AD02D4A934207D0C36800220293012170
:1090000003AB029CA0470390002406AA05A903987D
:10901000FEF784FD2500059BA3420ED829000025FC
:1090200008A818F0A2FB0A9C059BAB4221D808A90E
:109030003000FFF7F5FE0DB0F0BD069BA700D85934
:10904000FEF7E2FBB04202D0184809F0B3FE002C54
:1090500001D0049BED18069BD859154B0340062BF5
:1090600005D1C00819F046FC2D180134D3E78068FB
:10907000FAE7002D06D02000049A01991FF0E1F8CC
:10908000049BE418069AAB00985807A9FFF738FF2D
:10909000079A010020001FF0D4F8079B0135E4185F
:1090A000C2E7C04698960200E4990200F02203004D
:1090B000070080FFF0B58BB0049008680D000692A1
:1090C0000793FEF7A1FB04006868FEF79DFB06000E
:1090D000A04202D06868FFF725FE08A92868FFF7BC
:1090E0000FFF040009A96868FFF70AFF089A0590B6
:1090F000A3180393049B2700022B19D9AB681D49C1
:109100008B4206D0012130000091210004F03CFE8A
:109110000700049B032B0BD0EB68164A934207D041
:109120000122210000923000089A04F02DFE0390E5
:10913000039B059AD91B069B38000093099B19F0E5
:109140004DF9002806D1079B0138002B0CD00A48A6
:1091500009F06CFC094B9E4208D1010020001AF076
:109160009AFD4400012020430BB0F0BD041B6400B5
:10917000F8E7C046488B0200DC220300ACC40200C2
:10918000F0B5070087B008680D00FEF73DFB04A9A5
:1091900006002868FFF7B4FE05A904006868FFF719
:1091A000AFFE03902000022F07D901230093AB6884
:1091B000049A2100300004F0E7FD059A041B049B8B
:1091C000A418064D9C4205D803991FF02BF80028DF
:1091D00000D1034D280007B0F0BDC04678DC020086
:1091E00080DC020073B50D00060069462868FFF7B1
:1091F00087FE01A904006868FFF782FE0100022EC5
:1092000002D9084809F004FE019A0098064D8242EE
:1092100006D8801A20181FF005F8002800D1034D49
:10922000280076BDCA22030078DC020080DC020040
:10923000F0B58FB0079010680C001600FEF7E4FA46
:109240000690012C31D07068FEF7DEFA069B98423A
:1092500002D07068FFF766FD0DA97068FFF750FE39
:109260000D9B089009930DA93068FFF749FE0D9BEF
:109270000B900493079B012B1CD1049B5D1E0123C3
:109280005B420A9300242700049B03940593059BEB
:10929000002B13D1039B002B23D1214B069A0E20C8
:1092A0009A4200D01F480FB0F0BD072309931E4B10
:1092B0000893D8E7012300250A93E3E70B9B09995C
:1092C0005A1901230898009319F088F8002816D13C
:1092D000039B002B19D1079B002B09D12F00049B66
:1092E0005C1E049B0134E21B934212D13068DAE722
:1092F000079B2C00012B0AD001232F0003930A9B0C
:10930000ED18059B013B0593C1E72C00F7E7039F90
:10931000E7E70B9B0698D91919F07FF8C3E7C04619
:10932000ACC402009CA3020049230300F0B589B03D
:10933000049008680D00FEF767FA04006868FEF7FD
:1093400063FA0700A04202D06868FFF7EBFC06A9A9
:109350002868FFF7D5FD060007A96868FFF7D0FD6C
:10936000069A0590B3180393049B3400022B19D975
:10937000AB681E498B4206D00121380000913100B4
:1093800004F002FD0400049B032B0BD0EB68174A8A
:10939000934207D00122310000923800069A04F06F
:1093A000F3FC03900025079BAB4212D1039B2000E6
:1093B000191B1AF07FFC013045000120284309B039
:1093C000F0BD059920001EF02DFF002808D10135C1
:1093D0003400079A039BA6189E42F2D96D00ECE771
:1093E00020001AF04FFC0600F2E7C046488B02004E
:1093F00010B50100014819F002F910BDD53C02007A
:1094000010B50100014819F0FAF810BDE73C020060
:10941000F7B50600080001A9FFF772FD019B0500E2
:10942000002B01D11348FEBD134B04009E4207D10F
:109430000027019A631B9A4211D8002F07D1F1E748
:109440000E4B9E42F4D0019A631B9A4201D80C48FD
:10945000E9E72078B04701340028F4D1E2E720782A
:1094600004F066FB002803D02078B047071ED9D04F
:109470000134DEE778DC020099DB0000B1DB00009C
:1094800080DC020010B501000148FFF7C1FF10BDEC
:1094900019DB000010B501000148FFF7B9FF10BD4E
:1094A00031DB000010B501000148FFF7B1FF10BD2E
:1094B00049DB000010B501000148FFF7A9FF10BD0E
:1094C00099DB000010B501000148FFF7A1FF10BDB6
:1094D000B1DB0000F0B585B006000C001700FEF708
:1094E00093F9694605003000FFF70AFD0600042FD6
:1094F00023D10098A30715D1114B22689A4211D1AC
:1095000001AA2100F7F7F0FE002802D10D4809F06A
:109510007FFC0199029A2800521A711818F07DFFF9
:1095200005B0F0BD0023010022002800FEF72CFB4F
:10953000335C01205B001843F2E70020F0E7C046EF
:10954000E0D50200EF0C030070B51D008EB00029BD
:1095500000D174E018683B4C03002340062B05D073
:10956000830726D1384B02689A4222D10239012959
:1095700062D80AA9FFF7C4FC060028680440062C3C
:1095800015D1C00819F0B1F90400002C04D10A99D2
:10959000300001F09DF9040010200A9D17F0E0FD55
:1095A0002A4B85600360C66044600EB070BD44689D
:1095B000EBE7012940D80122104210D044102100CD
:1095C0000AA818F0D2F80C9B002122001800019381
:1095D0001EF053FE0AA91D48FFF722FCE5E703A988
:1095E00018F0DBFC002805D0049A0399174818F0FE
:1095F00014FFDAE72868FEF709FB1021002800D0E5
:10960000411006A818F0A0F80AA9286808F0DEFDA5
:109610000400200008F03CFE002801D106A9DAE78A
:10962000FEF7DAF9FF2802D9094809F0FFF9C1B2BB
:1096300006A818F0E9F8ECE7064809F0BBFB064875
:10964000B3E7C046070080FFACC40200ACA3020031
:10965000D61E0300EF1E03009CA3020073B5040096
:10966000080001A91600FFF74BFC0500042E06D1E7
:109670000300019A0749200017F0EFFA73BD06496D
:10968000200017F029FA0123019A29002000FFF792
:1096900063FBF3E7352303003C2E03000A001B4B5A
:1096A00073B51A4005000C000340062B0CD1062AA6
:1096B00004D1441A60426041C0B212E0C00819F0FF
:1096C00014F90600606805E04668062AFAD1C80861
:1096D00019F00BF9002E05D0002803D0B04201D0BC
:1096E000002076BD69462800FFF70AFC01A90500A5
:1096F0002000FFF705FC009A019B01009A42EFD180
:1097000028001EF08FFD44426041D5E7070080FF2E
:10971000084B07B50340062B08D0830704D1026825
:10972000054B92699A4201D0FFF7FCFA01A9FFF7B5
:10973000E7FB0EBD070080FFD99C00000A4B13B564
:1097400003400C00062B08D0830704D10268074BA6
:1097500092699A4201D0FFF7E5FA01A9FFF7D0FB21
:10976000019B236016BDC046070080FFD99C000006
:10977000F0B59BB00B900591089210210EAA12A88B
:109780000993FCF7F5FB059B089A934208D30B9AC3
:1097900012AB13CB13C21B6813600B981BB0F0BD48
:1097A000059B19785D1C7D290ED1089BAB4208D919
:1097B000059B59787D2904D112A818F025F8059544
:1097C00007E0BC4809F032F97B2906D012A818F04E
:1097D0001BF8059B01330593D5E7089BAB4216D9CF
:1097E000059B59787B29E7D02B007D2903D02129BF
:1097F00001D03A290DD100252E001A78212A11D046
:10980000002206921AE0089A01339A4201D1AA482E
:10981000D8E71A787D2A03D0212A01D03A2AF2D13A
:109820001E00EAE708995A1C91421CD95A78069200
:10983000723A012A17D802339942E8D900211A78DE
:1098400005913A2A1FD15A1C5B7805927D2B1DD1B8
:10985000089B059A9342DAD90027059B1B787D2B3C
:1098600017D09648AEE79648ACE719787B2905D122
:109870000132013308998B42F7D3C8E77D29F8D12B
:10988000013A002AF5D1059F0593E6E7059B0122E1
:10989000F0E7002D48D000232878169304F054F9FF
:1098A00000283DD0099B1B680793002B01DD8548EC
:1098B00088E716AA3100280018F078FD209A169B38
:1098C000013A04009A4203D87F4980481BF02DFEDC
:1098D000219A01339B009D580122099B52421A6034
:1098E000B44231D27A4809F093FA0134B44204D236
:1098F00023782E2B01D05B2BF7D1611B012228008E
:10990000FFF7C4FA0022050001002298FAF766FF6B
:10991000002807D129006F481CF0BEFBF9F72AFD8B
:109920002C00E3E74568DBE7099B1B68002B01DAA5
:10993000694847E7209A013A9342C5D201332199F9
:109940009A005558099A1360002F00D0A6E1069B93
:109950003C00002B04D0069C733C631E9C41E4B287
:1099600010AA102116A8FCF703FB2900220010A85A
:10997000FDF762FF16A95948FFF752FA01235B422F
:1099800005000D931093002F00D18FE005F0FCFA35
:10999000229B059A0293219B39000193209B16A8D4
:1099A0000093099BFFF7E4FE16A817F01BFF0026A3
:1099B000179B0400C3180A9303780693B34208D098
:1099C000474F190038001EF066FCB04200D16EE12E
:1099D000013423782B2B4ED000272D2B02D0202BA7
:1099E00001D1043701342378232B02D1133B1F43C9
:1099F00001342378302B07D1069B002B01D13D3356
:109A00000693002E00D130360DAA0A99200018F0D6
:109A1000CDFC037807902C2B04D10C3B1F43030093
:109A200001330793079B1B782E2B06D1079810AAAA
:109A300001300A9918F0BAFC0790079B1C78002C9B
:109A40001BD0210027481EF026FC002803D0079BCE
:109A50005B78002B11D02448B4E6310038001EF0AA
:109A60001AFC002804D033000234069E0693B0E7A7
:109A700006900600ADE70227B4E716A817F086FEA9
:109A8000069B002B08D12800FFF728F93C230693FA
:109A9000002801D002330693002E00D12036062381
:109AA0001F4229D0732C23D110488BE63C003E0086
:109AB000E9E7C04603200300442003005C200300C4
:109AC0002B20030080200300CA2003007CD8020062
:109AD000E3200300B8D8020000210300ACC4020058
:109AE0004A2103004F2103005F2103007821030076
:109AF000632C01D1714865E6069B3D2B1FD05E2B80
:109B00001FD03C2B01D13B3B1F432800FFF7CAF875
:109B100000282DD0632C50D026D8472C13D8452CA4
:109B200026D2002C40D0252C22D0280018F01EFA76
:109B300022000300624963480AF0F6FBEEE6402388
:109B4000E2E78023E0E7582C53D0622CEDD10023CC
:109B500003930D9B02220293612301960097290033
:109B60000EA8F6F76BFE34E6672C17D8652C1BD3CE
:109B70002800FFF7B3F800286CD0002C56D06E2CCC
:109B800054D0472C3FD8452C41D2252C50D028000A
:109B900018F0ECF9220003004B49CCE76F2C1AD0E7
:109BA000782C26D06E2CC0D1002303930D9B0196F8
:109BB0000293009761230A22D1E72800FDF70CFFEA
:109BC0000D9B16A90870012201933B0000960EA878
:109BD000F6F7D8FDFDE5FB0602D580239B001F4369
:109BE000002303930D9B01960293009761230822A3
:109BF000B5E70022230003920D9A173B02920196CB
:109C000000971022ABE72300653B022BBFD828004A
:109C1000FDF746FF109B220002930D9B011C019350
:109C20003B0000960EA816F0D3FFD2E56724EEE7BE
:109C300028008024FDF734FF244910F07DFD109B9F
:109C4000640002930D9B3C430193011C009623008A
:109C50006622E7E7069B3D2B01D11D48B2E5002CAB
:109C600001D0732C13D116A92800FFF767FD109BB4
:109C70000100169A002B00DA1092109B9A4200D92C
:109C800016930D9B00960193169A3B009FE72800C0
:109C900018F06CF9220003000E494CE7069B002BDC
:109CA00000D058E601235B420D9310936EE6667870
:109CB000002E00D0D1E606968BE6C046A421030014
:109CC000D721030000DC0200082203000000C84284
:109CD0003C22030071220300F0B5A1B005000C0086
:109CE0000D920A2800D0E4E10DAB0F930123073D4C
:109CF0001093059215403CD11368BF4A934206D198
:109D00000FAA10A9059817F0D3FC059502E0BB4AED
:109D10009342FAD1109B11A907930F9B200008933F
:109D2000FFF7EEF8002309900A93A30705D1B44A80
:109D300023689B1A5A425A410A9214AA102118A861
:109D4000FCF716F9119A00279446099B099C634475
:109D50000493049BA3420FD8079BAA48BB4229D176
:109D60000A9BA948002B00D0A54818A9FFF758F86E
:109D7000BAE100230593CDE72178252904D018A85E
:109D800017F042FD0134E4E7049B661CB34202D89D
:109D90009E4808F04BFE6178252904D118A817F0D9
:109DA00033FD3400EEE70025282915D1059BAB4291
:109DB00002D1974808F0FEFFA01C06003378292B3B
:109DC00023D1311A0122FFF761F80100059805F04F
:109DD00025FB012705000136002334004022002620
:109DE000302104200B9320330693049BA34213D805
:109DF00000231293049BA34231D923782A2B70D1DC
:109E0000079BBB4221D88348D4E7049BB34201D8C7
:109E10008148BEE70136D1E723782D2B03D12C3BB7
:109E20001E430134E1E72B2B01D1293BF8E7202B1E
:109E300001D10643F5E7232B04D0302BD8D11643AC
:109E40000691EEE710230B93EBE77B1C0C93089B2A
:109E5000BF00F858FDF7C0FD0C9F1290013401239C
:109E60005B421393049BA34292D923782E2B17D1E4
:109E7000049B601C83428BD963782A2B38D1079BC3
:109E8000BB42C0D97B1C0C93089BBF00F858FDF760
:109E9000A3FD0C9F13900234049BA34200D877E7E4
:109EA000002D06D1079BBB42ADD9089ABB009D5837
:109EB00001372278672A45D8652A00D3B8E0582AA6
:109EC0005DD01DD81300453B022B00D8B0E0099BA4
:109ED0005249E41A0094130051480AF025FAF9F7A0
:109EE00049FA200012AA049918F060FA0400B6E7B3
:109EF000002313AA0499139318F058FA0400CBE72F
:109F0000632A49D0642AE2D103222B001340022B9A
:109F10000AD1444B2B40062B06D0FF23DB05E81863
:109F20009043F9F777F80500139B0A220393129BDD
:109F300000960293069B01936123290014A8F6F76B
:109F40007DFC1FE7732A16D8722A00D380E0692AA5
:109F5000DAD06F2ABBD10B9B002B02D084239B004D
:109F60001E43139B00960393129B08220293069BA9
:109F700001936123E1E7752AC6D0782AA7D113009F
:109F8000139A173B0392129A0292069A01920B9A25
:109F9000164300961022D0E7224B2B40062B05D00B
:109FA000AB0716D1184B2A689A4212D11CA9280077
:109FB000FFF7C4FB1C9A0100012A01D01A48F9E6F8
:109FC000129B019320230093330014A8F6F7DAFBC9
:109FD000D8E62800FEF766FE00280BD02800FDF723
:109FE000FBFC129B1CA90870019320230122009303
:109FF0003300EAE70D48DDE6E4990200E8C9020013
:10A00000ACA30200CE1F0300ACC40200091F030072
:10A010001B1F0300481F0300321F0300991F03008A
:10A0200000DC0200070080FF6F1F0300881F030091
:10A030002800FDF735FD139B22780293129B011C2B
:10A040000193069B14A80093330016F0C1FD99E616
:10A0500016AA10211CA8FBF78BFF23781A00723A6E
:10A0600051424A41D2B2722B09D00A9B002B06D032
:10A07000AB0704D1594B2968994200D10422290029
:10A0800016A8FDF7D9FB139A1D9B002A00DA13933B
:10A09000139A9A4200D91A00129B1E990193202309
:10A0A00014A800933300F6F76DFB1CA817F06EFBA5
:10A0B00068E60800FDF7A8FB16A907002000FEF7D8
:10A0C0001FFF0590072D22D118A90D98FDF7C2FC9E
:10A0D00003000020834207D01899814206DC404BE0
:10A0E00040489F4200D10E2021B0F0BD169B1CA815
:10A0F000594317F03AFB1E9B0121049300930598E6
:10A10000189B169A16F025FE1CA938002EE60D980D
:10A11000FDF77AFBB8420FD11CA90D98FEF7F0FEAF
:10A120001C9E04901D2D17D8192D4ED2052D21D01F
:10A13000122D1FD00020D7E7284B0D989F4209D140
:10A1400001221CA917F029FF0028CDD01C9B1D9EC1
:10A150000493E7E7FEF7E6FD1F2DEBD10123049AF8
:10A16000009316993300059818F038F900282AD082
:10A170001D48B9E7169B002B07D10D98FDF744FB4E
:10A18000B84202D10D9C2000AEE7002EFBD0169BFA
:10A190001CA8F11817F0E9FA1E9B169A05991800E9
:10A1A00006931EF04EF8169A1E9B94460593634440
:10A1B0001800320004991EF044F81CA93800FEF77C
:10A1C0002FFE0400DFE709488EE70096049B169AED
:10A1D0000599280016F0F3FDC8E7C046ACA30200BD
:10A1E000ACC402009CA3020080DC020078DC020008
:10A1F000F0B5050087B008680C00FDF705FB00907E
:10A20000012D28D96668022D26D0A068FDF7E4FB51
:10A2100005000021080017F091F804A901902068BA
:10A22000FEF76EFE049B0400C7183E4B9E4241D1D0
:10A23000BC422AD2207803F06FFC00280FD1002DF9
:10A240000FD121003A1B009818F0E7F8010001989F
:10A25000F9F728F919E0334E01256D42D9E70134A9
:10A26000E6E72600307803F057FC002802D10136DB
:10A27000B742F7D82100321B009818F0CEF8010041
:10A280000198F9F70FF9B74209D8019807B0F0BD66
:10A290000136B74203D1002DF7DD013D06E03078ED
:10A2A00003F03AFC0028F3D1002DF6DCBE42ECD2DC
:10A2B0003400C4E73000FDF7A7FA009B984202D0B3
:10A2C0003000FEF72FFD05A93000FFF737FA059B98
:10A2D0000390002B13D1144808F0A8FB3E00210086
:10A2E000321B009818F099F801000198F9F7DAF894
:10A2F000BE42CAD2059BF418002D00DD013D2600A8
:10A30000059B0293002DE9D0029BF3189F42E5D3F1
:10A31000029A039930001DF085FF0028DFD0013636
:10A32000F0E7C046488B0200A3220300F0B5070007
:10A330008BB00D00022807D829003800FFF758FF1E
:10A34000050028000BB0F0BD0868FDF75DFA08A90C
:10A35000049028686E68FEF7D3FD0190A868FDF7A9
:10A360003BFB041EE8DB431C18000021059316F09C
:10A37000E5FF2F4B05009E4202D12E4808F048FD14
:10A3800009A93000FFF7DAF9099B0690002B02D1EA
:10A39000294808F04BFB089A019B944663440293BA
:10A3A000A3000393099F029BDE1B002C0BD0019B93
:10A3B000B34208D83A00069930001DF033FF002858
:10A3C00021D0013EF1E7EB68A6009F19019A029B9C
:10A3D00001999A1A049818F020F83860002CB0D02F
:10A3E000059B1C1BEB68A70099193A0018001DF08B
:10A3F00031FF6B6800211A1BEB689200D8191DF021
:10A400003CFFAC609DE7039AEB6894466344079376
:10A41000029BF1199A1BD21B049817F0FEFF079BB1
:10A42000013C1860039B0296043B0393BAE7C046C5
:10A43000488B02003A230300A322030070B50C00EE
:10A440008AB0050004A920681600FEF759FD002314
:10A450000593049B0100C218029605AB06A801945F
:10A460000095FFF785F906A90248FEF7D9FC0AB066
:10A4700070BDC046ACC40200F8B5070008680C0007
:10A4800016F04BFE05006068FDF7E4FB0600022FA6
:10A490000AD9A068FDF7A0FA02003100280018F0E0
:10A4A00002F918F09EF9F8BD004AF6E740420F00A5
:10A4B00010B5102016F054FE0400034B08C01AF02B
:10A4C00004F8200010BDC0466C95020070B50C0069
:10A4D000052804D80FF0C2FA06030C04131C00244C
:10A4E000200070BD8B680E4C002BF9D10D4CF7E7A6
:10A4F000081D1AF051FC012440000443F0E7FFF767
:10A50000D7FF211D050004301AF06CF92C00E7E795
:10A51000FFF7CEFF211D050004301AF073F9F5E7AF
:10A5200080DC020078DC020070B5050083070CD1E6
:10A53000104B02689A4208D1FFF7BAFF291D0400A8
:10A5400004301AF044F9200070BD2800FDF744FAE9
:10A55000C0231B06984206D180200021C00518F0B8
:10A5600031F90400EFE70124C317C0185840400038
:10A570000443E8E76C95020007B5C30701D5401016
:10A580000EBD043001A905F0A1FA002801D0019800
:10A59000F6E7024902481AF0C8FFC04676230300D6
:10A5A0005CDA0200F0B58BB0019001200D001700BD
:10A5B00008402BD04B10022203A904A819F0BDFFBC
:10A5C00004AEFB072BD57B10022203A904A819F0C7
:10A5D000B4FF04AD019B092B01D0162B3FD16B6852
:10A5E000002B68D030001AF032FC041C28001AF04E
:10A5F0002EFC011C201C0FF0C7FE032302249843ED
:10A60000704B0443E41820000BB0F0BD03240C4051
:10A6100023D16D4B0A689A42F5D10E1DD1E7032371
:10A620001F4205D1684A3968914201D13D1DD1E7E9
:10A630003B40022B0CD1654B3B40062B08D0300031
:10A640001AF005FC3A00011C019800F0FDFA04E044
:10A650003A0029000198F8F72FFE0400D3E7019B88
:10A66000182B00D98AE0FFF723FF040001980FF0B0
:10A67000F5F9444A3E50500D13191F723365724468
:10A680004A3E50500D13191F72336500201D2A00D9
:10A6900031001AF04FF9B6E7201D2A0031001AF0F8
:10A6A00083F9B0E7201D2A0031001AF0B0FAAAE7BA
:10A6B0006B68002B03D1464946481AF036FF07A8BD
:10A6C00019F003FF2B003200201D07A905F098F8B0
:10A6D00007A819F0FFFE96E76B68002BEBD007A8E0
:10A6E00019F0F3FE211D2B00320007A8EEE7201D14
:10A6F0002A0031001AF099F985E7201D2A0031005F
:10A700001AF00FFA7FE7201D2A00310005F002F849
:10A7100079E73800FFF730FF021E02DA2E4808F012
:10A7200085F9019B201D3100032B01D0102B02D194
:10A7300004F088FF67E71AF09CF864E76B68002B69
:10A7400003D02B78DB0700D579E7201D2A003100E4
:10A750001AF0E0FA57E76B68002BACD0FFF7A8FEC1
:10A760000700211D04302B00320005F049F807A92D
:10A77000022007970894FAF777FB6EE7290030006C
:10A780001AF002F80300019800241938042800D9AF
:10A7900039E7124C0FF062F90308120B0F00002B7F
:10A7A00000DB30E70E4C2EE7002BFBDC2BE7002B09
:10A7B00000DD28E7F6E7002BF4DA24E7002B00D0D1
:10A7C00021E7EFE7000080806C950200070080FF22
:10A7D000502303003CDC02006123030078DC02000C
:10A7E00080DC0200184BF7B530CB0F0016000128B3
:10A7F0001AD94B68154A934207D0990711D11449C9
:10A800001C688C420DD11C001D0002280CD0BB68B6
:10A81000934209D09A0704D10D4A19681C0091424D
:10A8200002D0002008F0C6FA01A93868FEF786FFBA
:10A83000019A01000023102019F00EFC2A003100BB
:10A84000230008F0ABF8FEBD642E0020488B020008
:10A85000E8C90200074B5B69002B01D1180006E034
:10A860005A68824204D8801A04308000C058704769
:10A870001B68F1E7642E002070B5144D04006B696D
:10A880009868DB68834215D30230C00016F075FC6F
:10A890006B69002803D19868400008F0B1F85A6845
:10A8A000D96803609B6852185B0083600023426094
:10A8B000C36068616A69D3685068591C04339B009F
:10A8C0000138D16040189C5070BDC046642E0020F5
:10A8D000074B4118884204D3D8B2002800D1013078
:10A8E00070475A01D318027801305340F2E7C0464E
:10A8F00005150000034B044A5A6100229C331A607C
:10A900007047C046642E0020B4A50200F0B585B0A3
:10A9100001900E00FFF7DCFF144B02905C69002CE5
:10A9200001D120001EE0270010373D00E3689B00A6
:10A93000FB180393039B9D4201D32468EFE728682B
:10A94000029A037893420FD14378B3420CD102307C
:10A95000320001991DF066FC002805D1ED1B6068EE
:10A96000AD10281805B0F0BD0435E3E7642E0020D3
:10A97000F0B585B003900191FFF7C8FF002862D1C0
:10A98000324D019B2F009C37DC1C3B68002B18D0FC
:10A990002E002F4AA036126831680292A2188A420D
:10A9A0000FD902006118180016F005FC029000286B
:10A9B00022D1274B02001968386816F0FCFB029B75
:10A9C0003B602B009C331B68002B20D12600802C81
:10A9D00000D2802630002F0016F0CFFB9C37386065
:10A9E00000280DD1200016F0C8FB26003860002892
:10A9F00006D1200008F004F833681B193360E0E743
:10AA00002B00A0331E602B000022A4331A602B0001
:10AA1000A4331A689C352D68A41801990398AD18C1
:10AA20001C60FFF755FF6B461B7928706B70019A0D
:10AA3000A81C03991DF005FC0022019B2800EB18BF
:10AA40009A70FFF719FF05B0F0BDC046642E0020D4
:10AA5000082F0020F7B51D00160000230700036033
:10AA60000B6033602B60174B00915C69002C02D0A7
:10AA7000154B9C4204D133682A68D3182B60F7BD6C
:10AA80003B6801333B60E268009B94461B68009A78
:10AA90000193634413602200E36810329B00D318D3
:10AAA0009A4207D3200008F0BBFE2B6824681818D0
:10AAB0002860DBE702CA3068497803300918316042
:10AAC000EEE7C046642E0020B4A502000C4B70B522
:10AAD0005C69002C02D00B4B9C4200D170BD26005B
:10AAE000E36810369D007519AE4201D32468F0E783
:10AAF00004CE05490232054816F0AFF8F4E7C04627
:10AB0000642E0020B4A50200A9230300448A020099
:10AB1000FF230322DB05CB1810B59343042804D888
:10AB20000EF09CFF06030F0416000021080010BD64
:10AB30000021181C0FF066F90A490028F6D00A49CE
:10AB4000F4E7181C10F004F9012140000143EDE77F
:10AB5000802109065B18022193431943034BC9184E
:10AB6000E4E7C04680DC020078DC02000000808060
:10AB7000FF23DB0510B50400C81803239843002306
:10AB800086B00193063300931022613302A90AF0C4
:10AB900029F802A9200015F09FFF2E2102A81DF020
:10ABA0007AFB00280FD1652102A81DF074FB002854
:10ABB00009D16E2102A81DF06EFB002803D10349C4
:10ABC000200015F089FF06B010BDC0465E79030075
:10ABD00030B50C001100002285B01D000092012349
:10ABE000200007F037F8002C23D02868124B0340D0
:10ABF000062B06D0032420420ED1104B02689A4245
:10AC00000AD103A9FEF79AFD0022039900921300CE
:10AC1000F7F710FD05B030BD03002340022BF9D03B
:10AC2000FCF73EFF03000220A3431843044BC01867
:10AC3000F0E70448EEE7C046070080FFACC402001E
:10AC40000000808002008080F0B5050087B0100011
:10AC50000191FCF725FF041C0390681F182800D9F8
:10AC6000BDE00EF0FBFE0D121F24333E6F81BCBC15
:10AC7000BCBCBC0D121F24333E6F9FA8ADB2B70001
:10AC80000198211C0FF0E6F903E0211C01980FF058
:10AC900085FE019003230198524A9843013B0343E8
:10ACA0009B187CE0211C01980FF046FDF1E7002184
:10ACB000201C0FF0A7F8002803D04B494B481AF08E
:10ACC00034FC03A901A817F027FEE3E70021201CAC
:10ACD0000FF098F80028F0D1211C01980FF054FBD8
:10ACE000D7E70021201C0FF08DF80028E5D1211CAA
:10ACF000019812F043FD0021041C01900FF082F82E
:10AD0000002807D0039A0023002A01DA80231B06BB
:10AD10000193BFE70021201C039E01270FF078F864
:10AD2000002800D1071C0021301C01250FF070F80D
:10AD3000002800D1051CFFB2EDB2AF42AAD0311CF1
:10AD4000201C9FE7019D0021281C0FF05BF80028C4
:10AD500005D00021201C0FF05BF80028ADD1211C8C
:10AD6000281C12F0F7F894E70021201C0FF04AF895
:10AD70000028A2D103A901A817F0CEFD03220220CA
:10AD8000019B1849934303435B180493039B93432C
:10AD900003435B1804A90593FAF766F8030018004B
:10ADA00007B0F0BD0199201C0FF046F8104B0028A9
:10ADB000F5D1104BF3E70199201C0FF029F8F5E7C6
:10ADC0000199201C0FF01EF8F0E70199201C0FF0EC
:10ADD0003DF8EBE70199201C0FF024F8E6E700238B
:10ADE000DDE7C04600008080502303003CDC020009
:10ADF00080DC020078DC0200014B58687047C046D6
:10AE0000642E0020014B18687047C046642E002055
:10AE1000F0B5194E87B03368050000200C0001938F
:10AE200019F0BEF93060009020681AF033FB019BE6
:10AE300007003360114E022D03D0A068FCF7E4FC3C
:10AE40000600210063680831A81E0393FAF70CF886
:10AE5000009B04900593002203AB0321300007F010
:10AE6000BFF8074B04009F4203D00100380019F0DF
:10AE700013F9200007B0F0BD642E0020BCCE020004
:10AE8000488B02001FB5694607F0A0F904002000B6
:10AE900007F0FEF9002802D1044804B010BDFCF709
:10AEA000D9FE0028F3D10248F7E7C04680DC020053
:10AEB00078DC02001FB5694607F088F9040020001D
:10AEC00007F0E6F9002802D1044804B010BDFCF7F1
:10AED000C1FE0028F3D00248F7E7C04678DC020044
:10AEE00080DC020010B5FCF713FD034B002800D1F5
:10AEF000024B180010BDC04680DC020078DC020066
:10AF000037B5FCF769FD01AB7F2806D80121187021
:10AF100001221800FDF7BAFF3EBD1E498209884292
:10AF20000BD8402149420A431A703F220240802038
:10AF30004042104358704231EAE7174C010BA042DF
:10AF40000ED8202464422143197080215F34494285
:10AF5000224020400A43014399705A700321D7E7E9
:10AF60000E4CA04212D81024850C64422C431C7055
:10AF70003F258024294064422A402840214322431F
:10AF8000204359709A70D8700421C1E7044807F033
:10AF90004DFDC046FF070000FFFF0000FFFF10004F
:10AFA000583F0300F0B589B0019204000D00002263
:10AFB0002F4901980293F9F711FC0090002801D065
:10AFC00043680093012C16D0A4002B1900242700FD
:10AFD0000193019B9D4224D0009B2E68002B04D03E
:10AFE000310018001AF05DFA0600002C37D1370046
:10AFF0002C680435EDE7002404A9286807F0E6F87A
:10B0000027000390039807F043F9051E0CD1002C8C
:10B0100007D1220017490198F9F7E0FB00281BD05F
:10B020004468200009B0F0BD009B2E00002B04D026
:10B03000290018001AF035FA0600002C09D03A0051
:10B040003100029807F0FAFC0B4B984201D0250022
:10B050003E002C003700D5E7084807F0E7FC3A002F
:10B060003100029807F0EAFC034B9842C1D1BEE7D9
:10B07000561300002E11000080DC0200793F03000F
:10B0800037B501A90500FEF759FB1E4B04002B4004
:10B09000062B05D0AB072AD11B4B2A689A4226D132
:10B0A0000199200018F006FE0190012822D1207895
:10B0B00043B2002B04DB012023785B0018433EBD24
:10B0C0007F23013418403F3B034208D13F222378BD
:10B0D00019009143802905D017F083FBEFE79843CF
:10B0E0005B10F1E78001134001341843EFE7019B47
:10B0F000012BE0D0019A0549054809F015F9F8F748
:10B1000039F9C046070080FFACC40200923F03003B
:10B1100088DB0200F0B5140087B002900391002292
:10B1200023492000F9F75AFB00220500214920009D
:10B13000F9F754FB01230400049305931E4F002DDF
:10B1400007D068681D4B984203D004A9FEF7F6FAB1
:10B1500007001B4E002C07D06068184B984203D0A4
:10B1600005A9FEF7EBFA06000024029B154D9C4250
:10B170000AD10023059A0193009331002800F5F7C6
:10B1800001FB0E4807B0F0BD002C07D00023049A45
:10B190000193009339002800F5F7F4FA0399A3000E
:10B1A0000022C9582800FCF747FB0134DDE7C04600
:10B1B0008E15000096110000B01B0300488B0200A2
:10B1C000D2230300448A020010B5040086B06A4608
:10B1D00002A81021FAF7CCFE012221006846FCF7F4
:10B1E0002BFB02A90248FDF71BFE06B010BDC046AE
:10B1F000ACC4020070B50C68E30726D4A30703D1E2
:10B20000174B22689A4220D0012820D94868FCF7C1
:10B21000E3FB06002000FCF743FC051C30000FF0A8
:10B22000B7FD011C0F4811F095FE011C041C281CE1
:10B230000FF082FA11F08AFE211C0FF0A5F803230B
:10B2400002249843084B0443E418200070BD2000FA
:10B25000FCF726FC11F07AFEF7F7DCFE0400F4E7B9
:10B260006C950200000020410000808030B50B008A
:10B2700085B01400012802D9094807F09BFD094850
:10B280000121C2680192019D0022A847220003907B
:10B2900003A90120F8F766F9039805B030BDC04650
:10B2A000E63F03009896020013B504000800FDF77E
:10B2B0000FFE6A460100200006F00AFF009B0248CC
:10B2C000002B00D1014816BD80DC020078DC0200B2
:10B2D00037B50024022800D98C6848680D68FDF74E
:10B2E000F7FD0A4B0100002C00D0094B6A462800EC
:10B2F0009847009B002B07D001991C00002903D020
:10B30000180009F0B3FE040020003EBD3521010005
:10B31000D120010070B5040008001500FDF7D8FD2C
:10B320002A000100200006F02DFF014870BDC04634
:10B33000488B0200F8B50326050007003540022DB2
:10B3400016D10E4B0340062B12D0FF23DB05C41889
:10B35000B443201C00210EF05BFD002806D08023A2
:10B360001B06E418B443064B2C43E7183800F8BD1D
:10B370003800FFF7D9F80700F8E7C046070080FF5C
:10B38000000080807FB50B00012803D100211868E0
:10B39000FCF76CFA102102A816F0D6F90C4902A8A5
:10B3A00015F014FE032804D10A481AF06FFEF7F7CF
:10B3B000E1FF039B0193002B03D1042801D1064830
:10B3C000F3E702A90548FDF72BFD07B000BDC04615
:10B3D000040A0300F4D8020050D70200ACC40200F3
:10B3E00010B506F02DFF002804D103481AF04EFED8
:10B3F000F7F7C0FF10BDC046D4DA020010B502282E
:10B4000003D0054905481AF090F84A680B200968EE
:10B4100007F014FB10BDC046CC3F0300E4D9020086
:10B420007FB50D4D0400A84213D00C4E012201003F
:10B430003000FCF701FA0A49300015F04DFB0423F7
:10B440000293084B0394DB6902AA03210648019387
:10B450009847280004B070BD488B0200448A02005F
:10B46000D2230300A4D30200CCB20200F8B50E0030
:10B4700000280FD10400284B1D680021080015F09A
:10B480005DFF00270600BD4232D10025AC423ED10F
:10B490003000F8BD0868830714D103681F4A93423F
:10B4A0000DD11AF0F9FC05003068FCF7ADF91C4B22
:10B4B000C26800249A42E0D134680434DDE7194AB6
:10B4C000934201D0FCF7A0F9856B002DECD0164B10
:10B4D0002A689A42E8D00025E6E7EA68FB00995816
:10B4E000002904D0042902D03000F7F7DBFF013730
:10B4F000AB68BB42F1D8C8E7A268EB0099580029B5
:10B5000004D0042902D03000F7F7CCFF013563687E
:10B51000AB42F1D8BCE7C046642E0020A4D30200A1
:10B520009D0F0100BCCE0200E8C90200F0B50E007C
:10B530001100002285B0B71C03901C0030000D4B99
:10B540000092BF0006F086FB380015F009FE466049
:10B5500006000500039B083F03600836E719BC425C
:10B5600002D1280005B0F0BD002101CC06F02EFE6E
:10B5700001C6F4E7FFFF00000379044AD35C002B07
:10B5800000D183790248DB00C0187047FF2D0020EE
:10B59000F0B5020010B50400FFF7EEFF2279036852
:10B5A0000249034808F0C0FEF7F7E4FE114003002B
:10B5B00000DC0200002803D001210379014AD154A4
:10B5C0007047C046FF2D002010B5FFF7D5FF034B95
:10B5D0004068C01A431E9841C0B210BD95B5000026
:10B5E00070B505000C00FFF7C7FF0023A04209D08B
:10B5F000436828009847044A2B79A41A034AE410A8
:10B60000D4540123180070BDF0B50200FF2D0020B6
:10B6100070B50400FCF7F8F800230C49DA00521862
:10B620001568A54205D15168094815F055FA012061
:10B6300070BD0133612BF1D1064B9C4203D098427F
:10B6400001D00020F4E70449EEE7C0468CB60200C2
:10B65000448A0200DC8C02002340030010B5024B38
:10B66000672217F005FB10BD8F35020010B5024BA5
:10B67000972217F0FDFA10BDA1C80000F7B50F0022
:10B6800011001A00C38A8579868A01930023040079
:10B69000837143610F4B17F0EBFAA368002B18D1AD
:10B6A000E18A002908D0A38A002B05D1206B1AF06B
:10B6B000ECFA206B1AF069F9A38AE28A39002000BB
:10B6C00017F086FA6B1E9D416B469B88A571A6827A
:10B6D000E382F7BDBDC4000010B54379C26A012BF7
:10B6E00003D1100018F0ACFD10BD0B00006B024937
:10B6F00018F0D0FDF8E7C04648D202007FB50B78BD
:10B7000004000D004E1C002B0AD0032B0BD103A903
:10B7100028001AF03FFE03990600206B1AF0CCF8BF
:10B72000300004B070BD012B07D18E1C497804296C
:10B73000F6D0006B07F07AFDF2E7042B0BD14B78C3
:10B740008978006B090219431AF0FEF828001AF0F4
:10B750005CFE0600E4E7052B15D14379042B04D0E9
:10B760002649006B1AF0FCF8F0E788784B78000265
:10B77000184303A917F0C8F80399246BFDF79EFB43
:10B7800001002000EEE71A000A3A0F2A09D803A99F
:10B79000280017F0F1F9039906002000FFF79CFF3D
:10B7A000BEE7082B0CD103A928001AF0E9FD039B82
:10B7B000226A9B0006009958206B1AF0D1F8AFE777
:10B7C00003AB02AA01A928001AF050FE0500029955
:10B7D000206B07F0DFFC019B094A9B009B58290066
:10B7E000039A20009847A368002B04D0E368002B3D
:10B7F00001D1029BE360039E92E7C046488B0200A2
:10B8000094B90200F7B506000192FFF777FF04270D
:10B810000500019B9D4200D1F7BDA91C30006C784A
:10B82000FFF76CFF2F3CE4B205003900082C01D86B
:10B83000024B195D306B1AF006FAEAE72A6603003C
:10B8400010B54379C26A012B03D1100018F009FD2D
:10B8500010BD0B00006B024918F01CFDF8E7C04654
:10B8600058D2020010B54379C26A012B03D11000EF
:10B8700018F0F7FC10BD0B00006B024918F00AFD30
:10B88000F8E7C04638D20200836870B504000D00A6
:10B89000002B09D1110005481AF005FCA06020001A
:10B8A00029000C3017F006FC70BDC04610DB02000A
:10B8B00010B5024AFFF7E8FF10BDC04672690300E9
:10B8C000F0B591B06B46040005920D001B7DA24AB5
:10B8D0004371E16200212B780161072B3BD1059B6D
:10B8E000012B06D00200836B08321B680599406B60
:10B8F0009847AB68180008931AF087FD63790890A1
:10B90000032B0FD10D9040210DA81AF097FDA36BCA
:10B9100002009B680D99606B9847A368E882002B32
:10B9200000D0D4E008981AF070FD08900378002B3E
:10B930004FD00A3B0F2B47D80DA917F01DF99522C0
:10B940000D9B9200934244D00AD80125483A934275
:10B950000DD0824A08992000FFF796FF11B0F0BD84
:10B960007F4A934202D07F4A0325F0E700250898DA
:10B970001AF04BFD1821089008A81AF05FFD089BEB
:10B9800007900693069B079A934224D16379012B73
:10B9900015D9A36B29005B68606B98476379042B0A
:10B9A0000DD10023E06A03950293C18A626B019175
:10B9B000009393680521D2680069F6F76DFAA368D1
:10B9C000002B00D083E0C9E70100674A2000FFF7A1
:10B9D0005BFF0225CBE7069B08931B78222B04D143
:10B9E00006981AF012FD0690CCE71F2B01D05F4A93
:10B9F000B0E709A906981AF012FD03780600432B58
:10BA0000F5D11AF002FD099B9842F0D109A9300046
:10BA10001AF005FD037807000A3B0F2BE7D81AF050
:10BA2000F4FC099B06008342E1D00378472BDED16A
:10BA30001AF0EBFC099B9842D9D10AA9380017F0FB
:10BA40009BF830001AF0E6FC9F210B900BA81AF02F
:10BA5000F5FC01000B981AF0CCFC9B220A9B060017
:10BA6000920093421BD1012804D10B9803780A3B22
:10BA70000F2B01D93E4A6DE72669731C2361059B94
:10BA8000012B21D00DA917F077F8A36B0D9ADB6875
:10BA90003100606B9847002816D1364A5AE7364A7B
:10BAA00093421AD1012803D10B980378032B01D0BC
:10BAB000324A4FE7059B012B06D0666B1AF079FCE2
:10BAC000010030001AF041FDA368002B88D020004F
:10BAD00008990C3017F0EEFA40E789229200934261
:10BAE00022D1012803D90B980378032B01D0244AD3
:10BAF00030E7059B012BE7D00CA91AF04BFC01277E
:10BB00000B900B980378032B01D01E4A22E70DA956
:10BB10001AF040FC01370B900D9A0C99606B1AF0EB
:10BB20001BFDBE42EDD1CFE7059B012BCCD00328F6
:10BB300000D95CE70B9B18000D931AF066FC0E9081
:10BB40001AF063FCA36B0F901F6932000DAB0A99CA
:10BB5000606BB847B8E7C046676803008B680300AE
:10BB600091020000DA02000098680300C068030038
:10BB7000E3680300FF680300FF0100000F69030092
:10BB80002B69030050690300F0B587B001920A00E9
:10BB90000593531E9A410D000600059901980492E1
:10BBA0001AF027FC2C1E039009D02B7800243A2B86
:10BBB00005D102002100306B1AF0D8F82C00049B4C
:10BBC000019F0293059B9F421ED1002C3BD1039AFB
:10BBD000049B944663441900306B1AF0BBF8002DA7
:10BBE0003ED1019B9F422CD0019B9C423BD1200027
:10BBF0001AF010FC00220100300000F039F8019822
:10BC00001AF003FC0190ECE73B783A2B0CD1002CA6
:10BC100012D1049B306B5A1E039B3C00D218029B2E
:10BC2000D21A19001AF0A2F838001AF0EEFB029BA3
:10BC3000070001330293C5E70C4A39003000FFF7D3
:10BC400023FE07B0F0BD002DCBD0AC4208D12000C0
:10BC50001AF0E0FB00220100300000F009F8C0E714
:10BC600000222900F8E700220199C5E79D6603003C
:10BC7000F0B50B7817001A000A3A85B004000D00E1
:10BC80000F2A10D803A9280016F076FF0399200088
:10BC9000002F01D0022F03D1FFF7D2FD05B0F0BD78
:10BCA000FFF71AFDFAE76A4A192B00D8CBE01A3BD6
:10BCB0002A2B00D182E005DC062B08D0292B11D0DD
:10BCC000644AC0E02B2B00D194E0972BF8D1002FD1
:10BCD00000D0B7E003A928001AF0A1FB0200039BE3
:10BCE00000219BE002A928001AF099FB0600022F10
:10BCF00003D001002000FFF701FD30001AF085FBA2
:10BD00000299060016F02DFF0028D9D13378A22B16
:10BD100013D1300003A91AF082FB060030001AF09C
:10BD200074FB039A0190904207D2022F03D0310096
:10BD30002000FFF7E3FC019EF0E73378482B21D188
:10BD4000022F06D1206B19F0ABFE206B19F067FEB5
:10BD50000EE030001AF05EFB01002000FFF7CEFC81
:10BD6000206B012FF2D119F06FFE206B19F03FFE0E
:10BD700030001AF04AFB029916F0F3FE002800D0BA
:10BD80008CE79DE7492B9BD130001AF043FB03A9B8
:10BD900016F0F2FE012F07D1206B19F04BFE03992C
:10BDA000206B19F0FCFDE3E7022F02D1206B19F0A4
:10BDB00060FE0399206B19F025FED9E703A928003E
:10BDC0001AF02DFB0399060016F0CBFE002800D0D8
:10BDD00076E7002F36D1350003A928001AF01FFBA3
:10BDE00006001AF012FB0378A92B1BD100231A00BE
:10BDF000310013E0002F25D103A928001AF00FFB12
:10BE00000399050016F0ADFE021E02D03B003A0079
:10BE100066E72B78A62BDFD0030029002000FFF770
:10BE2000B3FE3BE7AA2B05D103A91AF0F8FA039B4E
:10BE30000200DDE7C12B00D142E71AF0E6FA32003A
:10BE400003004DE7044A29002000FFF71DFD25E708
:10BE50003E6603005666030071660300F0B51700E6
:10BE600085B0040008000D001AF0CFFA3900060072
:10BE700016F077FE019000281FD02379002B17D0F1
:10BE8000E36A1E78002E13D1F6212000FF31FFF760
:10BE900023FC29002000FFF731FC33003200012190
:10BEA000206B19F0A1FF206B19F0D8FD05B0F0BD93
:10BEB00029002000FFF722FCF5E733786D2B1DD118
:10BEC000290001222000FFF7D3FE30001AF0A2FA69
:10BED0004378811C4E3BDBB218260A2B01D8234A3B
:10BEE000D65C2000FFF70AFC3100206B19F0ABFE96
:10BEF000022229002000FFF7BBFED7E76E2B2ED1D0
:10BF0000300003A91AF08BFA06000700039BBB421E
:10BF10001FD101992000FFF7F1FB206B19F08AFD7A
:10BF2000002229002000FFF7A3FE019BB342BDD0F1
:10BF300030001AF06AFA019B0500834202D0206BA0
:10BF400019F078FD310000222000FFF791FE2E004D
:10BF5000EBE738001AF059FA01970700D6E73100ED
:10BF60002000FFF7CBFB019AC3E7C046336603000E
:10BF7000F0B50B788FB00A3B0400019103920F2BB0
:10BF800000D90CE108001AF040FA0378432B00D0E6
:10BF900005E101981AF039FA0BA91AF040FA037872
:10BFA00042780A3B1B021343A54A934200D0F6E0B5
:10BFB0001AF02BFA03780500472B00D0EFE01AF0B7
:10BFC00069FA002800D0EAE028001AF01EFA0B9B5C
:10BFD000984200D0E3E028001AF01CFA9F210C9050
:10BFE0000CA81AF02BFA0C9B07000293012302986D
:10BFF0000D931AF00AFA05000C90B84200D1C3E084
:10C000001AF003FA0C90B8420ED00378032B00D03C
:10C01000C5E00DA91AF0BEF90D9B0C90002B00D1C4
:10C02000BDE0B84200D0BAE0029B1B784533DBB2DA
:10C03000022B00D8B3E02B784533DBB2022B00D8BB
:10C04000ADE00B9B180005931AF0DFF9039B070086
:10C05000984200D100270D9B26690493238B2683E9
:10C060000693638B0793E38B0893731C03936B46D0
:10C070009B896383A38BE383331D23612B78D91EB4
:10C0800003930B00591E8B410993039B032B03D091
:10C0900029002000FFF732FB02992000FFF72EFB5A
:10C0A000F11C206B19F011FDB11C206B19F0D0FBB5
:10C0B000206B19F0BFFC002201992000FFF7D8FD8A
:10C0C00005992000FFF71AFB711C206B19F0C0FBCB
:10C0D0000499206B19F0F0FB1221206B19F0B3FDCD
:10C0E000206BF11C19F0B4FB039B206B032B4FD08A
:10C0F00019F0AAFC206B19F0BCFC049B206B1921E1
:10C10000002B00DA1A2119F09EFDB21C0121206BD0
:10C1100019F0E7FC6B461B8B002523836B469B8B3A
:10C1200063836B461B8CE383AF4218D0206B19F0FE
:10C1300095FC039B032B02D0206B19F08FFC390078
:10C140002000FFF7DBFA2569206B6B1C29002361B7
:10C1500019F0BBFC0999206B013119F0BFFA3100CD
:10C16000206B19F075FB206B19F078FC039B032BF7
:10C1700002D0206B19F072FC002F03D02900206B35
:10C1800019F066FB0FB0F0BD2E4B029D02934BE7FA
:10C1900019F050FC29002000FFF7B0FAADE7238B1F
:10C1A00025690293638B6E1C0493E38B668305936E
:10C1B000AB1C0693A38B0198E383234B2B43238370
:10C1C000EB1C23611AF021F901002000FFF796FA19
:10C1D00007000121206B19F0D5FC3100206B19F00C
:10C1E00037FBA91C206B19F0E0FC0022019920000C
:10C1F000FFF73EFD39002000FFF780FA0700206BB3
:10C2000019F067FA002803D13100206B19F05DFCAA
:10C21000A91C206B19F01CFB206B19F0D2FC6B469B
:10C220001B8923836B461B8A63836B469B8AE3834C
:10C23000039BBB42A2D039002000FFF75FFA9DE7C5
:10C24000A2020000F57803000080FFFFF0B589B07E
:10C2500005000591049200930191002904D09F21CB
:10C2600005A81AF0EBF8019000231E001F00059CA2
:10C2700003930293019BA3421AD1002E0DD0029B7F
:10C28000002B00D079E0286B19F07FFB039B002B7B
:10C2900000D077E0286B19F078FB049B286B002B0B
:10C2A00000D174E033003A00009919F0A6FD0AE0CD
:10C2B0002378BB2B14D1BA3B1E4206D0374A21004B
:10C2C0002800FFF7E1FA09B0F0BD012320001E436A
:10C2D0001AF0A0F8029020001AF097F80400C9E7BD
:10C2E000BC2B0BD1BA3B1E4201D02D4AE7E70223FB
:10C2F00020001E431AF08EF80390ECE7BD2B2AD1E4
:10C3000020001AF087F804001AF07FF80378C12B98
:10C310000BD128000622210016F03AFD009B2000D8
:10C32000013300931AF071F8D6E723780A3B0F2BFC
:10C3300001D91C4AC3E707A9200016F01DFC040020
:10C340000799286B19F000FB21002800FFF7D6F9A8
:10C35000013704008EE7002E01D0134AAFE7002F0B
:10C3600001D0124AABE721002800FFF7C7F9009B74
:10C370000400013300933E007CE702992800FFF798
:10C38000BDF983E703992800FFF7B8F985E7330083
:10C390003A00009919F028FD95E7C0468F6903001F
:10C3A000A6690300BE690300DF690300FA690300A0
:10C3B000F0B589B00400039103A83D211AF03EF8BE
:10C3C0000027E36A02905E7D0398029B984215D194
:10C3D00018001AF01FF8029B03901B78010032002E
:10C3E00020001D2B59D116F07EFC0500013F57D2CD
:10C3F00029002000FFF724FA09B0F0BD05A91AF0C2
:10C400000EF86821039003A81AF018F806A9050091
:10C41000039816F0B1FB9623069AFF3301909A42D7
:10C4200013D003992000FFF769F9013703900398AF
:10C43000A84229D10599280016F093FB00280CD1B9
:10C4400029002000FFF75AF907E0019B9D4207D819
:10C45000174A00212000FFF717FA059B0393B3E763
:10C46000019819F0D2FF8542F2D107A9019816F080
:10C4700083FB079B0F4A934204D00F4A9342E7D1B4
:10C480000426EAE70126E8E707A916F075FB0799F5
:10C490000390206B19F083FAC9E716F06EFEA4E74B
:10C4A000002301211A00206B19F09EFC9EE7C04674
:10C4B000566703001102000006020000F7B50A7873
:10C4C0000E00130008215D3B8B43DBB20400002B00
:10C4D00002D101338371F7BD13005E3B8B43DBB2A6
:10C4E000002BF8D013000A3B0F2B2FD95C2A11D157
:10C4F00001A9300019F093FF070019F086FF019B96
:10C50000834205D019F081FF019B0500834208D1C9
:10C51000002506E0300019F07DFF070019F075FFD7
:10C52000050001A9380016F027FBA379002D02D0E1
:10C530002A78002A0CD1002BCDD1E38A002BCAD057
:10C54000184A31002000FFF79FF9C4E73700DFE702
:10C55000002B1ED0A38A01339BB2A382012B09D1E9
:10C56000E18A206B002911D019F08FFB0021206B8C
:10C5700019F0A5FB29002000FFF7C0F8206B0199F6
:10C5800019F0E2F9206B19F0A6FBA4E719F0FDF908
:10C59000ECE7E38A29000133E3822000FFF7AEF8DD
:10C5A00099E7C04674670300F0B504000E00056902
:10C5B00087B002936B1C0393AB1C03612900006BD3
:10C5C000170019F0BCFA200016F0DEFA3100200046
:10C5D000FFF794F8206B19F0FAFA691C206B19F038
:10C5E00074FA2900206B19F033F9206B19F049FC1B
:10C5F0002669731C2361029B9F4218D1A38B206B79
:10C60000013BA38319F0B3FA206B19F03FFC0399A7
:10C61000206B19F01DF90C9B002B03D01900200092
:10C62000FFF76CF83100206B19F012F91BE03800AD
:10C6300019F0F0FE002305932369050001930133EF
:10C6400023610378002B10D119F0DFFE19F0DDFE15
:10C65000029B984224D03C4A29002000FFF714F99D
:10C66000A38B013BA38307B0F0BD07008B2B07D141
:10C6700019F0D0FE070019F0C8FE05A916F07CFAE3
:10C68000206B19F0D7F939002000FFF737F8212186
:10C69000206B19F0D8FA019A0021206B19F021FAC9
:10C6A000280019F0B2FE05990700002948D1206B37
:10C6B00019F0D4F90025059BAB4209D02569206B00
:10C6C0006B1C2361290019F046FA200016F05CFA71
:10C6D00039002000FFF712F8059B0700002B02D05D
:10C6E000206B19F074FA206B19F096FA059B002B59
:10C6F00019D00E21206B06F099FD2900206B19F04E
:10C70000A7F80E21206B06F091FD05992000FFF798
:10C7100097F820000599FFF7A5F8A38B206B013B44
:10C72000A38319F024FA3100206B19F0CEF9019996
:10C73000206B19F08DF80121206B18F0CFFF5AE71C
:10C740002000FFF77DF8B5E71C6A0300F0B587B05D
:10C75000039143790400012B07D1C36A0D001B78B4
:10C76000002B04D1194AFFF78FF807B0F0BD6921FB
:10C7700003A819F063FE02900398029B9842F4D03C
:10C7800005A90B2716F0F8F9059B0390019302AB5E
:10C79000FF183A000199E06A15F031FC3B78060079
:10C7A000002B0DD0019A0100E06A15F053FC33789C
:10C7B000074A002BE0D129002000FFF765F8DBE7EE
:10C7C0000378042BD8D0034AF5E7C046C1670300BD
:10C7D000E667030004680300F0B587B0039144796D
:10C7E0000500012C09D1019103A8692119F026FE49
:10C7F00002900398029B984201D107B0F0BD05A9B1
:10C800000B2716F0B9F902AB059EFF1803903A000A
:10C810003100E86A15F0F3FB3B78002B08D1037870
:10C82000012B05D0074A01992800FFF72DF8E0E712
:10C8300004703100E86A15F004FC0028D9D00470B7
:10C84000D7E7C046A267030010B5084B428B04002F
:10C850009A4202D1064AFFF717F8A28BE38B618B4D
:10C86000D21A206B06F008FD10BDC046FFFF000085
:10C870003E67030010B5084B028B04009A4202D1B8
:10C88000064AFFF701F8A28BE38B218BD21A206BAB
:10C8900006F0F2FC10BDC046FFFF00002967030050
:10C8A000F7B50B7804001A000A3A0E000F2A08D8D0
:10C8B00001A9300016F060F901992000FEF7D2FFBF
:10C8C000F7BD432B44D16946300019F0A8FD0100A3
:10C8D0002000FEF713FF03780500A22B10D101A959
:10C8E00019F09DFD0500280019F08FFD019B070040
:10C8F000834205D029002000FEF700FF3D00F2E74B
:10C900002B78482B16D1280019F084FD0100200057
:10C91000FEF7F4FE0500206B19F0CCF80099280012
:10C9200016F01FF90028CBD1214A31002000FEF774
:10C93000ABFFC5E7492BF7D1280019F06BFD01A922
:10C9400016F01AF901990500206B19F09CF8E5E73B
:10C95000442BE9D1080019F09DFD0028E4D13000F6
:10C9600019F058FD060019F055FD050001002000E2
:10C97000FFF796FF280019F048FD0378A92B9FD0F8
:10C98000AA2B0ED101A919F04AFD019B0500834293
:10C9900096D020002900FFF783FF280019F035FD0D
:10C9A000F3E7C12BC0D001002000FFF779FF87E734
:10C9B000B7660300F7B502260D00C16A0400097DC1
:10C9C000314005D0344A29002000FEF75DFFF7BD55
:10C9D0000191297808000A380F281DD8280001A9DC
:10C9E00016F0CAF8A279E36A002A03D01A8B013242
:10C9F0001A8302E0DA8A0132DA82012601990029DB
:10CA0000E5D06B46DF1C3A00E06A15F0F8FA3B7897
:10CA1000002B3CD1214AD6E71A32914204D128009A
:10CA200019F0F8FC01A9DBE71A33994223D1A37965
:10CA3000002BC7D101272800A77119F02BFD032671
:10CA40000028DBD1280019F0E5FC0278E36A0A3AF5
:10CA50000F2A09D828001A7D17431F7519F0DAFC30
:10CA600001A916F089F8C9E71A7D280017431F7538
:10CA700019F0D0FCF2E7280019F0CCFC01A916F05F
:10CA80007BF8E36A1A7D16431E750526B6E7022376
:10CA9000467003709BE7C0463F6803004E68030082
:10CAA000C36A70B51B7804000D00072B04D00C4A34
:10CAB0000021FEF7E9FE70BD1100280016F051F8C4
:10CAC000002807D00E21206B06F0B0FB206B19F078
:10CAD0009EF9F0E729002000FEF710FEF6E7C046B9
:10CAE00025680300C36A70B51B7804000D00072B8E
:10CAF00006D0022B04D0174A0021FEF7C5FE70BDF8
:10CB00001100280016F02DF8061E07D00E21206B0C
:10CB100006F08CFB206B19F095F9F0E72B78C42B0D
:10CB200012D1280019F076FC01002000FEF7E6FD86
:10CB30003100206B19F026F8206B0E2106F076FBF1
:10CB4000206B19F08EF9DAE729002000FEF7D6FDF8
:10CB5000E0E7C0463B6A0300F0B50D0085B0040075
:10CB60001100280015F0FDFF071E05D00021206BE5
:10CB700019F0A5F805B0F0BD2B784E2B0BD1206B2A
:10CB8000012119F09CF829002000FEF7B7FD206B69
:10CB900019F0A1F8EEE7B32B61D1280019F03AFCA7
:10CBA000050019F032FC02900378B62B4DD103A991
:10CBB00019F035FC039B0290984203D09D2102A8F6
:10CBC00019F03CFC2B784E2B20D103990298266B50
:10CBD00019F00FFC411C300019F071F829002000F9
:10CBE000FEF78CFD206B19F076F80127029E039B5F
:10CBF0009E4210D1002FBDD131000298246B19F054
:10CC0000F8FB411C200019F071F8B3E7290020005F
:10CC1000FEF774FDEAE73378310020000193FEF758
:10CC20006DFD019B0600002F0BD04E2B05D00F4A47
:10CC300029002000FEF728FE9CE7206B19F04BF836
:10CC4000D5E74E2BD3D10A4AF2E72B7804224E2B9C
:10CC500000D005222900200016F09AF88AE7290062
:10CC60002000FEF74BFD0121206BCCE7CF660300CF
:10CC7000F2660300F0B504000D0000266271110099
:10CC8000C56206612A0087B0006B06F0F1F962798F
:10CC9000012A01D1EE832E84AE683378542B0AD159
:10CCA000300019F0B7FB01002000FEF727FD206BD4
:10CCB00019F0ADF82AE02B78002B08D131002000C4
:10CCC000FEF71CFD0E21206B06F0B0FAEFE7072BF4
:10CCD00021D1300019F099FB63790500012B07D1B0
:10CCE00000230100A37140225F4B200015F0C0FF1C
:10CCF000280019F08AFB19F088FB01002000FEF7DC
:10CD0000FDFC206B18F0E5FC0028DBD0206B18F050
:10CD1000B3FC07B0F0BD022B17D1012A07D10023C5
:10CD20004732A3713100514B200015F0A1FF3000B4
:10CD300019F06BFB01002000FEF7E0FC2B7D5B0788
:10CD4000B5D5206B18F08AFEBCE7033B032B50D807
:10CD5000300019F05AFB05A919F061FB19F055FBD9
:10CD600067790390012F09D10B2202ABD218390049
:10CD7000E06A15F044F902230370EF822B78032B4D
:10CD800020D10021206B18F08DFF2B78062B27D1A6
:10CD9000206B18F0FAFD01212000FEF79DFC206BAE
:10CDA00018F0F3FD206B18F0F0FD0023059A0093B6
:10CDB00003993300200016F09FFC2B78062B00D03F
:10CDC00075E77FE7042B04D10021206B18F077FF73
:10CDD000DBE7052BD9D10021206B18F087FFD4E7C2
:10CDE00020000121FEF778FC0121206B18F0CAFE1B
:10CDF000DBE7012A07D1DE2105AAFF31280015F063
:10CE0000FEF80223037005A9A86815F0B5FEF82105
:10CE100020004900FEF760FCF0212000FF31FEF702
:10CE20000FFDE989206B18F08FFDFA2120004900E1
:10CE3000FEF706FDA86819F0E8FA19F0E6FA010015
:10CE40002000FEF75BFCDE212800FF3115F0C7F85B
:10CE50000378022B00D135E7DE214288FF31206BB9
:10CE600018F04AFC23E7C046193302000D330200D4
:10CE7000F8B5164B0400A8331B681600002B24D10C
:10CE8000056901226B1C03612B0016F0BBFBBE2160
:10CE90000700FF31206B18F05CFC3100380015F002
:10CEA00060FE061E09D139002000FEF727FC330082
:10CEB00032000121206B18F097FF0121206B18F040
:10CEC000B3FF2900206B18F0C3FCF8BD642E0020CE
:10CED000F0B585B005000E000192FEF70FFC037857
:10CEE0000400A22B03D101A919F099FA0400EB6AFE
:10CEF0001B78072B00D070E0337872780A3B1B0256
:10CF00001343504A934268D12378472B65D12000C0
:10CF100019F0C0FA002860D0DE212800FF31FEF7AA
:10CF2000DBFB0121EA6A936A928C002A06D1464A09
:10CF300021002800FEF7A8FC05B0F0BD5878084293
:10CF400011D059682800FEF7C7FB0199200019F09D
:10CF500050FA02280ADC0023286B1A00022118F07C
:10CF600043FF200036E0013A0833DEE7200019F0E5
:10CF70004CFA0378492BEED1200019F046FA19F04B
:10CF800044FA0378472BE6D1200019F03EFA070057
:10CF900019F03BFA0600380019F03CFA03A915F025
:10CFA000EBFD03990122286B18F005FD300019F004
:10CFB00071FA0021884203D1300019F02BFA0100E8
:10CFC000002301222800FFF741F9200019F01DFA83
:10CFD00019F01BFA19F019FA0400019BA342ABD017
:10CFE000200019F012FA019B0600834224D0237816
:10CFF000492B21D10378472B1ED1200019F00AFAC2
:10D000000700300019F046FA0024A04203D1300096
:10D0100019F000FA040003A9380015F0ADFD002254
:10D020000399286B18F0C7FC280000230122210077
:10D03000FFF70CF93000CDE721002800FEF75EFB7A
:10D04000CAE7C046C702000011670300F0B59BB0F5
:10D050001500069038220F000CA800211E001BF0BE
:10D060000CF9069B0BAC5B680B97236201235B42B8
:10D070001193069B2671186819F0C7F919F099F9F0
:10D080006062800014F07EF80022A0620095002506
:10D09000069B11001B68200015F080FD18F0D6FAE1
:10D0A0002B00039020630495626A0792954202D296
:10D0B000A268002A41D0002B5DD10593059A079BF9
:10D0C000934202D00D9A002A58D00499039818F080
:10D0D000C2FA0025149A0D9B0592954200D214E1E4
:10D0E000002B0CD0169B0EA8996815F0E3FF169B39
:10D0F0000E9A0493DB890B990D9807F081F9039838
:10D1000018F0B1FA1898002801D016F0D0FE0024CB
:10D11000069819F0C9F9159B1B681D69149B159891
:10D1200003939C4200D21AE114F049F80D990029AA
:10D1300000D11CE10800F6F71DF9A16AAA005658B3
:10D14000002E13D03269002A10D113F049FF737DED
:10D150003061012231002000042B09D1FEF7B0FB21
:10D160002369049A9A4200D20493012301359BE774
:10D17000FFF780FDF4E700231D0095E70599159B57
:10D180008900CB58002B38D00120998C8C46197D12
:10D1900001421CD06446601EC000002C17D002263D
:10D1A000996A09184D7835422AD0002A0FD00F000D
:10D1B00050881678089050685578099011CF11C2A0
:10D1C0006A46128C0E704A80099A4D704A6000219E
:10D1D000DE249983FF348C451ADC00218C4535DC34
:10D1E0005E68002E09D00021B28C09920A000998CD
:10D1F00081423BDB0020824263D1059B01335CE727
:10D20000002A02D1012D00D10A00013C0838C4E7F0
:10D21000986ACA0082181878012804D15068A04280
:10D2200008D10131D7E71578012803D9002D01D1A4
:10D23000012010701078022803D001255078284270
:10D24000EFD0988B451C9D835080EAE7986ACA000E
:10D2500082181078032807D101245078204203D186
:10D26000988B5080001998830131B7E7B06ACD00E0
:10D270004019089000780338012812D800240EE0E5
:10D280009F6AE00038180778042F07D1089D6F685F
:10D290003D004768BD4201D1428001320134A445BE
:10D2A000EEDC0131A3E79C6AC10061180C78042C04
:10D2B00003D101254C782C4202D04C88A4184C8014
:10D2C00001308445EFDCD98A92B25118D982998B0A
:10D2D00052189A8391E7039B022221000BA817930F
:10D2E000FFF7C8FC0D9B0593002B04D103222100FE
:10D2F0000BA8FFF7BFFC0D9B0593002B2DD104223B
:10D3000021000BA8FFF7B6FC27E0002B00D0E9E6D0
:10D31000159B0593059AAB009C58002C1DD0637D8E
:10D32000042BD8D1189B0593002B04D10499139892
:10D3300016F0A6FD189000231793104B032221002E
:10D340000BA81993FEF7BCFA0D9B0593002B04D193
:10D35000042221000BA8FEF7B3FA0135BAE6A300B8
:10D360001858002801D014F031FE0134D6E60A0026
:10D37000280013F041FE1BB0F0BDC046E0C502001E
:10D380000122010003001140100000290CD1080007
:10D39000990709D11B68054910008B4204D0044845
:10D3A000181A43425841C0B27047C0466C950200FB
:10D3B00088DC02000023FA21094A89001360094A27
:10D3C0001370094A1360094A1160094A1370094A27
:10D3D000111D0832D3670122CB67074B1A707047C3
:10D3E000B42A00201F2E0020B02A002014000020A4
:10D3F000202E0020642E0020212E002010B5084B86
:10D40000084A1978002907D1916C002902D0FFF74A
:10D41000D1FF10BD30BFF4E700221A70F9E7C04613
:10D42000212E0020642E0020837F0248002B00D193
:10D430000148704780DC020078DC02000023A02253
:10D44000E02110B583770C4BD2050902D1500B486F
:10D45000FEF7B0F80A48FEF7ADF80A48FEF7AAF85A
:10D460000948FEF7A7F80948FEF7A4F80848FEF7B0
:10D47000A1F8084810BDC0460C05000080940200C9
:10D480008894020098940200A0940200B0940200D4
:10D4900028940200488B0200F8B5164C2368002B34
:10D4A00007D1482008F040FE0500134909F0D8FFD5
:10D4B00025601248124902680B68D21A0123312AEA
:10D4C00004D9623393429B415B420233002201261E
:10D4D0000C4D2E702F78032FFCD101329342F8D1DE
:10D4E000036820680B601AF073F8430001201843AA
:10D4F000F8BDC046B82A00205CC302005C2E0020A4
:10D50000BC2A0020222E002030B50D4C87B0237895
:10D51000012B13D10B4B02221D680621002302A808
:10D5200019F0B5F9082204A968461AF08AFE039B8F
:10D53000029A280009F010FF0223237007B030BDC3
:10D54000222E0020B82A0020A02010B51049C005C6
:10D550004B7F5A1C002B09D14C8C0E4BA3430E4C15
:10D5600003510E4B4A775200D05A0FE010335B0044
:10D57000CB185C88A123DB00C450092AF1D101201B
:10D58000F2F740FFFFF7C0FF0120404210BDC04648
:10D5900018000020F01F00000C0500008CEE0200B7
:10D5A00073B5041E09D11A4D2B78002B2CD01949C4
:10D5B000194816F0B8FA2C7073BD184D2B1DDE6F8C
:10D5C000FAF722F9164B2100984214D0154B23404C
:10D5D000062B05D0A30712D1134B22689A420ED115
:10D5E00001A92000FCF7AAF8019B012B0CD10078BF
:10D5F00014F07CFC0100300016F095FADCE70B49D2
:10D600000B4818F050FDA864FFF7D4FED4E7C046DD
:10D61000202E002044A0020018000020642E0020CC
:10D62000A4A00200070080FFACC40200C06A03008F
:10D6300088DB0200F7B5A123A021214AC905DB0040
:10D64000CA500123C27F0D3293401E4A8B50C37FC4
:10D6500001920133DBB2032B2FD0C377020003000A
:10D66000002122333632198002339342FBD1042445
:10D67000C17F154F4D000522EB5D7E195343134AC0
:10D680007678D3189B190126A640B44662461B79CA
:10D6900001345B00C3185E8C063516435E840D2C86
:10D6A000E9D101220D318A40A023A121DB05C90067
:10D6B0005A50828E01995A50F7BD0023CDE7C046DB
:10D6C000F01F00000C050000546A03001800002041
:10D6D00070B5394B8CB01A78022A07D1A02237498D
:10D6E000D2008A58012A07D003221A70344DAB7F2A
:10D6F000002B03D1FFF708FF0CB070BD2800FFF727
:10D7000099FF304A304913680968063313608B4229
:10D7100007D300242D4B14601B78012B0FD0022B54
:10D7200045D000232A8C6B77FF33FF331A42E1D0B8
:10D73000E1222749D2000120F2F730FEDCE7254E36
:10D74000331DDB6F002B04D033000833DB6F002B5D
:10D7500002D1FFF72FFEE4E705F04EFE6846F5F72D
:10D76000E3FD00280CD11C4B186804F069FD04008F
:10D77000F5F7F8FD05F04AFE2000FFF711FFD0E7AE
:10D7800005F044FE019B1549186803F035FF002899
:10D79000F2D10198FAF738F8114B984203D11149A8
:10D7A000114813F05AFA019B0024B364E4E70F49CF
:10D7B000280016F0B8F9CCE7222E002000700040B7
:10D7C00018000020B02A0020140000201F2E002086
:10D7D00049D50000642E0020B42A0020D4DA0200CB
:10D7E0006CD90200690B0300448A020044A00200C5
:10D7F000F0B5002485B0164D02930AAB1B782E1DA0
:10D80000070008350800210001920393F467EC67D4
:10D8100004F0DCFC0F4B019A18600F4BF7671A609D
:10D820006A460E4B127AE8671A700D4B1C7004F0B2
:10D8300007FDFFF7B5FE01220A4B1C600A4B1A7068
:10D84000039BA34201D0FFF7D9FD05B0F0BDC04650
:10D85000642E0020B42A002014000020202E002076
:10D86000212E0020B02A00201F2E0020F0B5002419
:10D87000384B8FB01D1D0833DC67374BEC6709ADA3
:10D8800080C9013801950093052304F013FA6B68F1
:10D89000099C049307942B7B2E7A05932B7C200004
:10D8A0000393FFF76DFD2D4D002806D10323234080
:10D8B000022B09D12C40062C06D007AB00220121F7
:10D8C0002748FBF72DFB079007980540062D05D04C
:10D8D000830730D1224B02689A422CD108A9FBF76A
:10D8E0002DFF089B002B23D0012B0DD1002E0BD137
:10D8F000039B002B08D1007814F0F8FA07900799E1
:10D90000380016F010F913E00798F9F793FE079026
:10D9100009AB1B7C002B03D00798FBF7B5F90790E8
:10D92000059B049A0093079933003800FFF760FFC6
:10D930000C480FB0F0BDF9F767FF0B4B9842E7D1E9
:10D94000002E02D1039B002BD9D007A90120F7F7A5
:10D950008BFADCE7642E002008C40200070080FF79
:10D96000ACC40200488B0200A4A0020070B51B4B9F
:10D970008AB005AD40C9013800930195052304F034
:10D9800099F9059C20000494FFF7FAFC002807D1C0
:10D9900003232340022B0AD1114B1C40062C06D036
:10D9A00004AB002201210F48FBF7BAFA049003A947
:10D9B0000498FBF7C3FE2A7C2B7B03990092059AFF
:10D9C000F9F722FE2B7A01000093300000236A68E9
:10D9D000FFF70EFF04480AB070BDC04630C4020015
:10D9E000070080FFACC40200488B02000022074BF6
:10D9F00010B51A70064B02321A70064B064A1B68A5
:10DA0000063B1360FFF7FAFC10BDC046212E002034
:10DA10001F2E002014000020B02A002010B5FFF7B0
:10DA2000E5FF014810BDC046488B020010B504292F
:10DA300001D8042A02D9094804F0F8FF092B01D9BA
:10DA40000748F9E70524614341188A181371012238
:10DA50009A40038C1343038410BDC0469B0B030004
:10DA6000E61A0300F8B548680C000D68F9F7B4FF32
:10DA70000600A068F9F7B0FF0700E068F9F7ACFF0F
:10DA80003A00030031002800FFF7D0FF0048F8BD3E
:10DA9000488B020010B5042901D8042A02D9044891
:10DAA00004F0C4FF0523594340188018007910BDC5
:10DAB0009B0B030070B5104C050021000F48FDF7CB
:10DAC0008FFD21000E48FDF78BFD21000D48FDF76D
:10DAD00087FD21000C48FDF783FD21000B48FDF771
:10DAE0007FFD21000A48FDF77BFD16F0A3F8012316
:10DAF0000848AB7770BDC04610B6020080940200A3
:10DB00008894020098940200A0940200B09402004D
:10DB100028940200488B020000237F2803D8034B7F
:10DB20001B5C9B07DB0F18007047C046CD6A0300E3
:10DB300000237F2803D8034B1B5C1B07DB0F180057
:10DB40007047C046CD6A030000237F2803D8034BEB
:10DB50001B5C5B07DB0F18007047C046CD6A0300F3
:10DB600000237F2803D8034B1B5C5B06DB0F1800E8
:10DB70007047C046CD6A030000227F2808D8054BB5
:10DB80000132195C0C23194202D15F3842424241F2
:10DB900010007047CD6A030000237F2803D8034B91
:10DBA0001B5CDB06DB0F18007047C046CD6A030024
:10DBB00000237F2803D8034B1B5C9B06DB0F180058
:10DBC0007047C046CD6A030070B506000D000028FE
:10DBD00014DD002907DD15480BF0DEFF0124B042FB
:10DBE00009DB002407E00100C02000060BF0D4FF91
:10DBF0000124A842F5DDE4B2200070BD002907DD54
:10DC0000C02000060BF0C8FF0124B042F3DCE8E7B7
:10DC10000024A042F0D0010004480BF0BDFF012316
:10DC2000A84200DC231CDCB2E6E7C046FFFFFF3F52
:10DC3000044B88600B60044B08004B600023CB60F2
:10DC40007047C046B8CA0200BF3D020013B50400C9
:10DC5000080001A9FBF754F9002C03D0012C07D0D0
:10DC6000002004E0019B0548002B00D1044816BDAC
:10DC7000019916F01FF840002043F8E780DC02000D
:10DC800078DC0200F0B585B00400080003A9150097
:10DC9000FBF736F90600002D07D10300039A2F4940
:10DCA000200012F0DAFF05B0F0BD039B0200C3189C
:10DCB000002101200193019B934206D827270029C8
:10DCC00000D0053F3A0026491AE01378272B08D0E8
:10DCD000223B5D426B41DBB20132002BEBD02727A8
:10DCE000F0E700230100F7E7300015F0B0FF050072
:10DCF000300015F0C7FF0600AF4205D13A001949C0
:10DD0000200012F0AAFF14E017495C2D0ED02B0062
:10DD1000203B5E2B01D82A00D5E714490A2D05D0F7
:10DD200013490D2D02D0092D0CD11249200012F0FB
:10DD3000D3FE019BB342D7D83A000949200012F024
:10DD40008CFFB0E7FF2D02D82A000B49D8E70B4B18
:10DD50002A000B499D42D3D90A49D1E73523030054
:10DD6000B4220300B3220300B7220300BA22030047
:10DD7000BD220300C0220300C3220300FFFF0000F6
:10DD80008F6B0300966B0300F7B51E0008AB1D7880
:10DD9000294B0C001700984206D12B0032003900A5
:10DDA000F9F7F2FE2018FEBDF30715D5761001969F
:10DDB000019BE219002B2ADA00213F260127501E81
:10DDC000A04219D2002900D001932000002DEAD1F1
:10DDD0001A491B4817F0A9FB01A93000F9F73AFED0
:10DDE0000028E5D1300014F0C1F8164902001648A9
:10DDF00006F09AFAF5F7BEFA0278B243802A01D00B
:10DE000039000133421E002BCDD01000D8E720008E
:10DE1000012600243F27904204D3002C00D0019318
:10DE20001000D3E7013BBED3340001300178B94381
:10DE30008029F0D10130F9E7ACA30200756B030033
:10DE40007CD802004D6B030088DB0200F0B587B080
:10DE500004000E001700F9F7D7FC02A90500200006
:10DE6000FBF74EF80400042F4ED1B30734D1274BF3
:10DE700032689A4230D105AB04AA03A9300018F0E9
:10DE8000F7F8059B224FBB4204D0032B02D0214858
:10DE900004F0BEFF039B2600BB4207D001222100F5
:10DEA00000922800029AFFF76FFF0600029A049B77
:10DEB000A118BB4206D00121280000912100FFF7E4
:10DEC00063FF01000E208E4204D88A1B2800310017
:10DED00014F0A3FA07B0F0BD0023029A00932100CA
:10DEE00033002800FFF750FF0278012153B2002BC6
:10DEF00006DA4023012101E001315B081342FBD126
:10DF00000122FAF7C3FFE5E70020E3E7E0D50200CE
:10DF1000488B0200EF0C030010B5F9F7C1FD04496E
:10DF20000CF00AFC0BF0BCFF14F003F8014810BD24
:10DF300000007A44488B020010B5F9F74DFD002827
:10DF400001DD13F0F6FF014810BDC046488B02000A
:10DF500010B504000800F9F73FFD64102018034CC9
:10DF6000400020400124204310BDC046FEFFFF7F3B
:10DF700010B5F9F731FD002801DD13F0D6FF014897
:10DF800010BDC046488B020010B513F0EAFF034BEA
:10DF9000400018400123184310BDC046FEFFFF7F1C
:10DFA00010B513F0DAFF034B40001840012318436B
:10DFB00010BDC046FEFFFF7F70B5137804000A3B1A
:10DFC000D8B20F2809D90A001048114906F0ACF957
:10DFD0000025636A1860280070BD002552781B0276
:10DFE0001A43E36AAB420AD1238C0025042BF2D1F9
:10DFF0000849064806F098F9636A1860EBE7206B59
:10E00000A90009589142E6D00135EBE710DB020088
:10E01000206D0300356D0300F0B5040085B00D00E0
:10E02000100003A9A26A1E0018F0C9F9002809D13E
:10E030002A000B490B4806F077F9636A1860002044
:10E0400005B0F0BD0398F9F7F3FC0300B343F7D034
:10E05000030000962A000449024806F065F9ECE73F
:10E06000DC6C030010DB0200F46C0300F7B51F004A
:10E0700013780E000A3BD9B2050021480F2904D8B5
:10E0800050781B02184314F03AFC152403780093CF
:10E0900015231C491B1B0193A300CB1A19005531F2
:10E0A0000978009A91421FD11900563142780978B7
:10E0B0008A4219D1573381781B788B4214D1002BB7
:10E0C0000FD1019B9A000F4BD05CB84208D93B009E
:10E0D00032000D490D4806F027F96B6A18600020E0
:10E0E000FEBDC378002BECD0013C002CD0D1320017
:10E0F0000749064806F018F96B6A18602000EFE738
:10E10000040A0300986D03004C6D030010DB02004D
:10E11000656D0300F0B5137885B005000E00462B41
:10E1200047D101A9100018F07AF9019B834240D031
:10E1300003781A000A3A0F2A0AD802000F23310086
:10E140002800FFF793FF01248440200005B0F0BDB4
:10E15000B32B2ED118F05EF9040018F056F9029096
:10E160000378B62B25D10127A73B220031002800D8
:10E17000FFF77CFF3C0003A98440029818F04FF998
:10E18000039B02909842E0D09D2102A818F056F916
:10E19000029A039B9A42D8D00F2331002800FFF740
:10E1A00065FF3B00834002981C4318F02EF9029053
:10E1B000EEE732000349044806F0B6F86B6A002423
:10E1C0001860C2E77D6D030010DB0200F0B50E00A1
:10E1D00087B0040004A930001F00019214F094FBE2
:10E1E000019B0500002B0FD1A4239B009E4205D16B
:10E1F000BF210902200017F078FE19E0BE4B9E42B5
:10E2000000D088E0BD49F5E7019B012B00D09AE0E2
:10E210000A23FF339E420DD101003A682000FFF728
:10E22000CBFE0100200017F0AAFE002800D116E264
:10E2300007B0F0BDB24B9E4209D101003A68200000
:10E24000FFF7BAFE0100200017F0F1FEEDE7AD4B3D
:10E250009E420AD101000F233A682000FFF706FF13
:10E260008E21C000C9010143C4E70378622B3BD172
:10E27000049B032B07D0052B36D1C3785F2B33D1FA
:10E2800003796E2B30D101230E265B4269789E48BC
:10E290000293B300F31AC3181A002B3212788A4281
:10E2A00009D1AA7894461A002C321278944502D1EA
:10E2B0002A331B780293013E002EEAD1029B0133E0
:10E2C00029D03A6829002000FFF776FE049B02005F
:10E2D000052B03D12E79773E73425E4133000299BC
:10E2E000200017F068FEA0E7884B9E4201D18849C4
:10E2F00080E7884B9E4201D187497BE7874B9E424E
:10E3000012D129003A682000FFF704FFFF231B0207
:10E31000B421184215D0019B2A008149814806F09A
:10E3200003F8636A186083E77F4B9E42F3D13A6833
:10E3300029002000FFF7EEFEFF231B021842EAD15E
:10E34000BC2109028FE7019B022B00D021E17B68F1
:10E35000764A1B780A3B0F2B48D8964212D13A686E
:10E3600001000F232000FFF781FE7A6806002900D4
:10E370000F232000FFF77AFE31000200200017F083
:10E38000E7FD55E700226A4B02929E421AD1802691
:10E39000F6013A68290007232000FFF767FE7A6834
:10E3A0000190290007232000FFF760FE019A030077
:10E3B0003100200017F0C5FD3AE7029B01330293BC
:10E3C0000F2BA8D0029B03229E005A4B28009919BC
:10E3D00019F080FF0028F0D1EB78002BEDD1564BDF
:10E3E000F65C80233601DB011E43D2E796421AD148
:10E3F000802607233A6829002000FFF737FEFF2315
:10E40000019029007A682000FFF706FE0100019BB9
:10E41000B6011B0231431943ECE6A026E9E7C0260A
:10E42000E7E7E026E5E787239B009E42F5D01E3B09
:10E430009E42F4D0414B9E42F3D0414B9E4251D07C
:10E44000404B9E4250D0404B9E424FD04F339E4255
:10E450004ED03E4B9E424DD03D4B9E4200D05AE79F
:10E4600005233C4A9B009B5A290002933A680723E4
:10E470002000FFF7FBFD7E6803903378452B6BD1BE
:10E48000300018F007F8002866D1300017F0C2FFFE
:10E490000378A62B60D105A917F0C1FF05990600E6
:10E4A00017F0A7FF022857D1300017F0AEFF07235F
:10E4B0003200070029002000FFF7D8FD029B06006C
:10E4C000DB0451D51F233A0029002000FFF7A4FDEB
:10E4D000F100039B029E80011E433143F826F600A3
:10E4E0003040C0E60023BCE70123BAE7019BB8E750
:10E4F0000323B6E70423B4E7E602000030BF0000C0
:10E500000B0200000F0200009D6B030022020000BE
:10E5100072B600002302000062B600009F020000F5
:10E52000576C030010DB02009A0200008902000011
:10E5300001020000A16C0300A06C0300C5020000F2
:10E540006E0200006F02000071020000C1020000B4
:10E55000C30200009EEE02002A004449444805F030
:10E56000E3FE636A1860D6E66B4608229B5E002BCA
:10E5700007DA3E233A0029002000FFF74DFD40084E
:10E58000A6E77C233A0029002000FFF745FD80081C
:10E590009EE7019B032B00D0BDE69E239B009E427D
:10E5A00022D100263A68072329002000FFF75EFDEC
:10E5B0007A680190072329002000FFF757FD1F23E9
:10E5C0000290BA6829002000FFF726FD019F029BF8
:10E5D000374381013943DE0031430BE680263601A3
:10E5E000E0E780267601DDE7224B9E42F6D0224B03
:10E5F0009E42F6D0093B9E422BD1C02607233A68A3
:10E6000029002000FFF732FD072301907A682900D6
:10E610002000FFF72BFDBA687601137802900A3BC1
:10E620000F2B0DD8072329002000FFF71FFD029BA9
:10E63000D900019B194331430F0081013943D9E5CA
:10E640008023DB001E43290007232000FFF7E4FCA2
:10E65000EDE70A4B9E4200D05DE6D026CEE70849A2
:10E660000348646A17F01FFD2060E1E52C6C03008D
:10E6700010DB02007902000007020000C502000062
:10E680008C6C0300F7B50E0007001100300017F086
:10E69000B0FE0025040004281ED97C6A13491448E2
:10E6A00017F001FD206000242000FEBD73780002F9
:10E6B000184314F024F90236019019F004FE0228E0
:10E6C00011D1019B1B78722B0DD1019B5A782B0025
:10E6D00030339A4207D10135A542E5D030780A3867
:10E6E000C3B20F2BE2D97C6A0249D8E7C76B03009B
:10E6F00010DB0200FA6B03000021F0B5070087B0C1
:10E70000816415F039FCFB693C6ABB637B6AFC637E
:10E71000002B05DA3A00062140321170013306E081
:10E72000002B07D03A00052140321170013B7B627B
:10E7300007B0F0BD002833D0BB6A002B30D13900C0
:10E74000043340310B703A6BAE4B786BD3185B00DF
:10E750001B5A013C9C42EBD017D9F96A8A4207D375
:10E760000831490012F01AFDFB6A78630833FB6236
:10E770003B6B5A1C3A637A6B5B009C527B6ACDE719
:10E78000013B3B637B6A013B7B623B6B9D4A9A1872
:10E790005200125A9442F3D3CAD002230B70C7E737
:10E7A0003C69631C03D1002240373A70C0E738004F
:10E7B00015F08AFB0490002800D129E13B0040338A
:10E7C00005930023059A13703B69752B5AD0622B71
:10E7D00007D17B69722B5CD001240B2300220192AC
:10E7E00008E0722B51D17B69622B52D0049B01242B
:10E7F00001930A23390040310A78002A4ED10B7068
:10E80000002C07D0380015F087FB022C02D138000D
:10E8100015F082FB3B690293222B01D02723029340
:10E82000380015F079FB0123029A03933B69934268
:10E830000BD113007A69934207D1380015F06CFBB5
:10E84000380015F069FB0323039300263C69631C21
:10E8500000D1CEE0039B012B02D10A2C00D1C8E0ED
:10E86000039B9E421DD338003100443013F010F852
:10E870000121380015F080FB380015F025FB002839
:10E88000A2D155E701240A23A8E700240A23019412
:10E89000B0E7049B022401930B23ABE79A42AFD06D
:10E8A00046E7029BA34209D13800190044300136E3
:10E8B000F7F76AFB380015F02FFBC7E75C2C00D098
:10E8C00091E0380015F028FB019B3D69002B06D034
:10E8D00038005C214430F7F757FB2C0071E0622DC3
:10E8E00051D030D84E2D77D01AD8222D29D0272DAF
:10E8F00027D000260A2DDDD02C00303C0326072C23
:10E90000E6D87B69303B072B5BD8013E002E58D000
:10E91000380015F001FB3B69E400303B1C19F0E7BF
:10E920005C2D0ED00724612D21D0552DE4D13B0064
:10E9300040331B780B2B2ED138005C214430F7F785
:10E9400023FB2C0013E0742D1FD007D86E2D1ED092
:10E95000722D0BD0662DCFD10C2408E0762D18D067
:10E96000E5D30226782DC7D1002428E00D243B00F2
:10E9700040331B780A2B32D1380021004430F7F79E
:10E9800003FB002696E70824F1E70924EFE70A24B1
:10E99000EDE70B24EBE70826752DE5D1043EE3E710
:10E9A000380015F0B9FA3D692800FFF7D9F80028BA
:10E9B00000D144E1280015F09FF924012418013EFC
:10E9C000EED20026631C00D174E70F4B9C42CED9D7
:10E9D0000122059B1A70D4E70C4804F019FAFF2CA9
:10E9E000F6D80B2BF4D13800E1B2443012F00CFF12
:10E9F000C7E7039B9E4200D335E73B000322403329
:10EA00001A7030E7FFFFFF7FFFFF10002D6E03003D
:10EA10002000FFF78DF8041E386903D15F2801D06C
:10EA20007F2842D93D0007233C0040352B704434F9
:10EA3000C1B2200012F0E8FE380015F06DFA386916
:10EA4000431C1BD1200012F0CDFE002406007E4F97
:10EA5000A300F958300019F02CFC00281ED10D3409
:10EA6000E4B22C70102C00D062E6784BA8331A6800
:10EA70000D23002A00D102332B7059E6FFF758F816
:10EA8000002808D138695F2805D07F2803D8FFF710
:10EA90005BF80028D6D03B69D9B2CAE7002800DA73
:10EAA00046E60134222CD3D142E6FFF74DF8002888
:10EAB0000FD03E00396940362E2916D10923337014
:10EAC0003D0044352800F7F75FFA380015F024FAC6
:10EAD00031E03B692E2B04D17869FFF735F8002827
:10EAE000E7D100255A4C02234AE00823337030292D
:10EAF000E6D17A6918331343623B0024162BDFD822
:10EB0000544CDC4001231C40DAE7002C17D10300F1
:10EB100020229343452B12D13C3B337065212800C2
:10EB2000F7F732FA380015F0F7F9396902220B00CD
:10EB30002B3B9343C6D03869431CE6D1F8E5FEF77A
:10EB4000F7FF002805D039692E290BD1092333702E
:10EB5000B8E73869FEF7F8FF0028F4D13B692E2B9F
:10EB6000F1D0E5E50B00202293434A2BAAD1EDE733
:10EB7000633E9E43F6B272425641A41901350134F8
:10EB80002678002E02D03A69B242F1D1380015F051
:10EB9000C3F9002E02D14037012206E6212E08D10A
:10EBA0003B693D2BF7D1380015F0B6F940374122CB
:10EBB000FBE52E2E12D13C003B6940342E2B02D1B6
:10EBC0007B692E2B02D04A232370B1E5380015F063
:10EBD000A3F9380015F0A0F90C23F5E72A00013459
:10EBE000267802213300633B8B43DBB2002B0ED12E
:10EBF000637839690135994207D1380015F08CF9ED
:10EC00002A00652E03D00234EAE7632EFBD1124BB3
:10EC10009B5C3A0040321370190004229143422950
:10EC200001D0442B03D1BB6A0133BB6280E5432989
:10EC300002D0452B00D07BE5BB6A013BF5E7012202
:10EC4000059B04001A7092E6F4C50200642E0020B1
:10EC5000EC6D030001204000B76E0300F0B5124BCD
:10EC600087B003AD40C9013800930195032303F039
:10EC700021F868680D4F1E24B84202D012F04DFAF8
:10EC800044B2A8680023B84202D012F046FA43B258
:10EC9000706803994371047109F0C4FE70680AF04A
:10ECA0004DFC380007B0F0BDF0C60200488B0200F2
:10ECB00030B5124B8BB003AC20C9013800930194DE
:10ECC000032302F0F7FF616806A812F04EFD039BD4
:10ECD000089A5900237A00936868079B08F0CEFAD7
:10ECE000021E05D00649074805F01EFBF4F742FB5B
:10ECF00006A90548FAF794F80BB030BD08C7020022
:10ED0000E16E030020DA0200ACA3020030B5114B23
:10ED100089B002AC20C9013800930194032302F0AA
:10ED2000C9FF012205A96068F9F710F8029B059A4E
:10ED30005900237A00936868069B08F0AFFA021E18
:10ED400005D00549054805F0EFFAF4F713FB044830
:10ED500009B030BD20C70200F36E030020DA0200C4
:10ED6000488B02000021F8B54768080012F0E6FA67
:10ED700008250600B1223B68D2009D508022002069
:10ED80009200190098500122FC319A6088605A6103
:10ED9000104A8868002803D1002A19D0013AF8E700
:10EDA0000024A24204D00C4A9C5863425C41E4B265
:10EDB00038000AF0C3FB002C05D001216B00194379
:10EDC0003000F4F76FFB0135782DD3D13000F8BD5A
:10EDD0001400EDE710270000C404000010B5040083
:10EDE000082012F0BDF9024B4460036010BDC0461C
:10EDF00064C7020010B5010083880120A02298405A
:10EE0000044BD205D050CA88083117F091FC024853
:10EE100010BDC0460C050000488B0200EFB507008E
:10EE200008001500F988020000233868F8F7ACFEE6
:10EE300003267043002D14D03F18042D14D1012354
:10EE40007A7A01A952001A4301923A7A30009A4024
:10EE50001A430292BA7A9A4013430393F6F704F8DE
:10EE60000500280004B0E0BD310001AA2800F8F731
:10EE700077FE019B1868F8F7AFFD019B0600586804
:10EE8000F8F7AAFD019B05009868F8F7A5FDFF2E8D
:10EE900003D8FF2D01D8FF2802D9044803F0C6FD8E
:10EEA0003D727E72B872024DDBE7C0461F6F0300F1
:10EEB000488B0200F7B51C000023009302330800C2
:10EEC00011001A0002F0C6FE206812F026F947B2BF
:10EED0006068F8F781FD041E02DC104803F0A6FD0F
:10EEE000032630006043083012F03AF90C4BA2B20E
:10EEF0000500878072430360C4800021083019F048
:10EF0000BCF93B00A022C133FF33D2059B009E50C9
:10EF10000123BB40034928005350FEBD066F030088
:10EF2000F8C702000C050000032210B50400C388D6
:10EF300000215A43083019F0A0F92000FFF75AFFCA
:10EF4000004810BD488B0200014BD8607047C04696
:10EF5000642E0020034B82B0D86801ABC01A02B007
:10EF60007047C046642E0020014B18617047C046B0
:10EF7000642E002010B54E21024817F08DF8F4F7EA
:10EF8000F9F9C04698DA020007B5054A01ABD16825
:10EF90001269CB1A9A4201D8FFF7ECFF07BDC046B1
:10EFA000642E0020F0B50D00002785B011000390FD
:10EFB0001E002800104B0222009702F04BFEAB1CF3
:10EFC0009B001800029312F0CBF80400039B013D54
:10EFD000036045603368029D8360083D0437BD428D
:10EFE00002D1200005B0F0BD0021F05903F0EEF889
:10EFF000E3199860F2E7C046FFFF0000044B886009
:10F000000B60044B08004B600023CB607047C04688
:10F01000B8CA020039410200044B0B60037A0B713D
:10F02000436808008B600023CB60704764C902000E
:10F0300010B504000C2012F093F8034B44600360F9
:10F040000223037210BDC046A0C9020010B50430EF
:10F0500012F030FA004810BD488B0200002803D09F
:10F06000012808D0002005E007224B68044893439C
:10F0700000D1044870474B68DB085B001843F9E790
:10F0800080DC020078DC02000B6870B506000D0021
:10F09000181D49681400F5F7A1FB002802D0436849
:10F0A000002B10D1022E08D1094B022C06D1696821
:10F0B000084816F0F1FFF4F75DF9AB68012C00D1B8
:10F0C0004360180070BD022CFBD100224260F8E7BB
:10F0D000488B0200B8D8020070B504000D000B7A0E
:10F0E000164A9B0086B0995811F0F6FC144920008E
:10F0F00011F0F2FC134B02AA02932B7A0126137132
:10F100006B68019304930023059302A815F01EF881
:10F11000051E05D10C49200011F0DEFC06B070BDC3
:10F12000002E03D10949200011F0D6FC012229004C
:10F130002000F8F781FB0026E7E7C046DCC90200A3
:10F14000776F030064C902007A6F0300C5F50200FF
:10F15000F0B513681400012287B00F680D0000920B
:10F16000D9080223060002F075FD022E12D10323F6
:10F170006868034018D101682A4AC968914213D1CE
:10F180002A68904206D0059305A9686814F0BFFF6D
:10F19000061E01D100253EE0381D01223168F5F739
:10F1A0001DFB73684360EFE7002103F00FF8039045
:10F1B000039803F06DF80028ECD0002103F006F866
:10F1C000050003F065F80290280003F061F80600DE
:10F1D000280003F05DF8029B002B03D0002E01D025
:10F1E000002802D0104803F021FC381D01220299AA
:10F1F000F5F7F4FA4660DBE7A368EE009E19316884
:10F20000002907D0042905D0381D0122F5F7E6FAB8
:10F210007368436001356368AB42EDD8034807B0BB
:10F22000F0BDC0469DF40000516F0300488B020002
:10F2300030B5002585B001A90400019514F067FFE1
:10F24000A84203D109490A4816F06FF9636802A978
:10F25000083B63600368029343680393042328C058
:10F260000220F5F701FE05B030BDC0462E6F030049
:10F27000B8D80200F7B50C0015001B280DD00023EC
:10F280001F2808D1081D00222900F5F7A7FA2C4BEA
:10F29000002800D12B4B1800FEBD03222B00134089
:10F2A000114225D1284922688A4221D1002BF1D16F
:10F2B000296891421ED1009301936946200014F001
:10F2C00026FF01A90700280014F021FF0600002FE7
:10F2D00031D00028DED031683868F8F72BFB0028E1
:10F2E000D8D071687868F8F725FB0028E5D1D1E718
:10F2F000002BCFD1154B2A689A42CBD16A6863683C
:10F30000534007229343C5D1019301A9200014F073
:10F31000FEFE061E01D10A4BBDE7281D0022316802
:10F32000F5F75CFA0028B5D041687068F8F702FB81
:10F330000028EAD1AEE7024B0028ABD1ABE7C046CC
:10F3400080DC020078DC020024CA0200E8C9020066
:10F35000F7B50B681C4A04000D00934203D05A68AD
:10F360001A4911F07AFC1A49200011F0B5FB00236C
:10F370000127019301A9280014F0C9FE061E0CD133
:10F380001449200011F0A8FB2B680F4A934203D0C8
:10F390001149200011F0A0FBF7BD002F03D10F4948
:10F3A000200011F099FB012231682000F8F744FA9F
:10F3B0000B49200011F090FB012271682000F8F742
:10F3C0003BFA0027D6E7C046E8C902004D6F0300AC
:10F3D000C3F50200966D0300F41C0300C5F502009E
:10F3E0006272030010B504000C2011F0B9FE034B4B
:10F3F000446003600023037210BDC046A0C9020030
:10F4000010B504000C2011F0ABFE034B4460036008
:10F410000123037210BDC046A0C9020010B504301C
:10F4200000220C00F5F7DAF9002805D12100034885
:10F4300016F032FEF3F79EFF406810BDB8D8020008
:10F4400010B5024B08C012F01AF810BDE8C902004E
:10F45000F8B50E0007000021706802F0B7FE0E4CF0
:10F460000500022F00D9B4687068F8F7CFFB0028B8
:10F4700009D114F095FE0600280002F009FF011ED4
:10F4800003D13000F8BD4010F3E7331D012218000E
:10F49000F5F7A4F94460EFE7488B0200F0B50700E8
:10F4A00089B000201E000D00019214F079FE0E4B71
:10F4B000040007609F4203D10423027913430371C0
:10F4C000019B2B430DD03368AA00B218019905A8FF
:10F4D0000394049311F0E1FF681C05AA03A9FFF748
:10F4E00037FE200009B0F0BD24CA020010B50C00A0
:10F4F000002A03D114F097FE0A480EE0042A0DD129
:10F5000004300022F5F76AF9002805D121000648E9
:10F5100016F0C2FDF3F72EFF406810BD14F079FE1F
:10F52000EAE7C046488B0200B8D80200F7B50600EB
:10F53000194D0C00280010F0B1F93100174810F0F7
:10F5400033F9174810F0AAF9164810F0A7F9FF236D
:10F550009B00E61821787F2901D0A64206D1280019
:10F5600010F09CF9104810F099F9F7BD6278A37873
:10F5700050290CD80D48475C0D48405C019300921F
:10F580003B0002000B4810F00FF90434E2E70A4890
:10F5900010F00AF9F9E7C046517003007E700300CD
:10F5A000867003000F7003002D700300947B03002E
:10F5B000437B0300A7700300CA700300F0B51D0071
:10F5C00087B006001A4817000C0010F067F92900F0
:10F5D000184810F0E9F8184810F060F9174810F0D2
:10F5E0005DF9AD006519AC4204D1114810F056F92F
:10F5F00007B0F0BD3878A278049020682378000323
:10F60000400E0390E0789B06000902902088317834
:10F61000C004400E0190E0789B0E0007000F0090A0
:10F620001209074810F0C0F8043401360137DAE750
:10F63000517003009E6F0300CB6F0300FD6F03004A
:10F640002F700300F0B50F00496885B00500160063
:10F65000002901D0002A05D13900280014F044FF08
:10F6600005B0F0BD0F321309C918009314F0ADFEB8
:10F670000F22A868B9687C68324000D11032009B24
:10F680001E19234BF3185B00C018214B0290E3189E
:10F690005B00CB18019010209C4621000023801AAB
:10F6A000002921D1C3401A48029A84466400141BE1
:10F6B0002380009B5B00E41A009B023463445A00E1
:10F6C000200018F0DAFD002E04D07300023BE35A4C
:10F6D000002B1BD001216E603B78DB07DA0F2B7803
:10F6E0008B4313432B70BBE76246128801391343E7
:10F6F0001A00C2400393019B1A80019A039B023AAD
:10F700000192022252421B049444C9E7013EDAE707
:10F71000FFFFFF7FF0B54B681500526889B0060007
:10F720000C00934201D22C000D0001212278636865
:10F730000A4201D12A781140C918300014F045FE60
:10F74000B36822780193A36817000293636829784D
:10F750009C46AB684F400393012318001F408B4326
:10F7600006936346904302006046591E019B049332
:10F770006B681B1A07934B1C18D163465900019BF9
:10F780005918002F02D001230B800231019814F088
:10F790009FFD0121706022782B7853403278DB077F
:10F7A0008A43DB0F1343337009B0F0BD029B13484B
:10F7B0001B881B189B180593079B5B188B421AD854
:10F7C000039B039A1B8802321B180392069A013985
:10F7D0009B18059A5A4092B21B0CD7190693049AAB
:10F7E000059B17801A0C049B3F0C02330493029B69
:10F7F00002330293BFE7014BE8E7C046FFFF00007A
:10F80000F0B5060095B0069353680D00591C04929C
:10F81000009314F0DAFD049B00215B68B0685A1C69
:10F820005200009318F029FD00237360049B280008
:10F830005B68591C009314F0C8FD0499280014F06B
:10F8400053FEAB686F680193069B9B680393069B0E
:10F850005B680293B3680793029BBB422DD82ED3FB
:10F86000039A3900019814F0F3FD002823D10123F5
:10F87000079A686013807360049B1A78069B1B7854
:10F880005A4001231A4214D03278134333706B6804
:10F89000002B0ED0012111A8494214F044FE11AAF8
:10F8A0003100300015F046F8069A2900280015F0BE
:10F8B00041F815B0F0BD002801DA0023DBE7824AE9
:10F8C000029B9B185B009C460022039B63440593AC
:10F8D0001B8800921AB2002A63DA0022019B7C0086
:10F8E0001A537B1C102709936B60019BA01C009985
:10F8F0001B180893791A019B0A9108998B4256D3D9
:10F90000059B009A1B8893400893029B012B0AD900
:10F910001022039B00996344023B1B88521AD34078
:10F92000089A1A430892019B029A1C19099B9B1A78
:10F93000654A73609B18079A5B00D3180A93634665
:10F9400002330E936B680B930B9A029B934239D34D
:10F9500013005D4A102194460024019A63445B0021
:10F96000D318009A891A019A9A4200D89FE07368C6
:10F97000002B07D0544A07999A185200525A002A6D
:10F9800000D19EE06B68002B00D175E74E4A0199CB
:10F990009A185200525A002A00D06DE7013B6B6062
:10F9A000F0E7009A5B0001329BB292B291E71988AE
:10F9B000009F0800B84002431A800A9A0233D140DF
:10F9C0008AB29AE7A31E20880D931B88000418436F
:10F9D00008990AF057F80E9B0022E31A0C931900BD
:10F9E000039B05909C4609928C4212D823889A4228
:10F9F00034D3D31A5A42190C9BB222805A1E934117
:10FA0000CA18002A2CD003990C9B8C4600210F00A9
:10FA100042E0099B009F180C63461B88BB401843BB
:10FA20006B4609909F8C059B5F430B889F4203D2D6
:10FA3000D81B0F9090420CD8D31AFF187B420B8032
:10FA4000BBB23A0C5F1EBB41D218022302319C4468
:10FA5000CAE70F9B9A1A0A800022F6E79A1A2280B8
:10FA60006A460A9B928A023B5A800A930B9B0D9C22
:10FA7000013B6B6066E7380C09906046009F008888
:10FA8000B840099F074318884118B8B241180220AE
:10FA900019808444090C02339C42ECD823885918FD
:10FAA000059B2180013B090C521A0593A9E71A888E
:10FAB000009F100038418A402043188094B2023BD6
:10FAC00051E7013B736052E7FFFFFF7F436870B56A
:10FAD0005A00002384680A4DA218944206D3027883
:10FAE000D20700D55B4201200B6070BD023AAB42E9
:10FAF00003D816881B043343EFE70020F5E7C04620
:10FB0000FF7F0000F8B5050010200C001F00160054
:10FB100011F026FB054B44608460A4190760C460A3
:10FB20006B60034B2860AB60F8BDC046B94F020064
:10FB3000CF4F020080235B051869034B1B784343BA
:10FB40008020C002C01A7047242E002080235B054D
:10FB50001869034B1B7843438020C002C01A7047CA
:10FB6000252E002070B5084DC4012B6800211819FE
:10FB700015F070FC2868054B00197F3000781B7861
:10FB80008342F0D270BDC046C02A0020232E002040
:10FB900010B5C3790400002B08D0064A0379817997
:10FBA0001068DB01C018013015F054FC00232372EB
:10FBB00010BDC046C02A002010B5124B01001A68C3
:10FBC0004379DB01D31818007F300478FF2C08D16B
:10FBD0000879C00112185278FF2A0FD08879904214
:10FBE0000CD08A799B180132D2B258787E2A01D083
:10FBF0008A7110BD00234C718B71FAE701204042DD
:10FC0000F7E7C046C02A002070B5F8248025A4027A
:10FC100023786D054D2B4CD12B698020E41A2B697C
:10FC2000C002E41A2969001B09F02CFF2B4B2C4958
:10FC300018702B69E21852185D421540294B2A4A68
:10FC40009B1A2A4A9B188022520511699D4234D37F
:10FC50008020C002401B09F015FF254B641B187063
:10FC6000E411244BE4B21C70A12001230025224A98
:10FC700022491360C0004D604B68002BFCD0135824
:10FC8000DBB2A342F7D21E4901330B70012353604C
:10FC9000FFF750FF037805001A4CFD2B0FD180238E
:10FCA0005B051869184BC009C018C00128182060EE
:10FCB00070BD80242B69E402AFE76D18C5E7FFF73C
:10FCC00045FF0378803DFD2B01D12560F0E7FFF76C
:10FCD0003DFFFD2115F0BEFBF7E7C046252E0020B5
:10FCE000FF87FFFF1801002000000020647F030051
:10FCF000242E0020232E002000D00040FCD0004005
:10FD0000262E0020C02A0020FFFFFF01F7B5254B5B
:10FD1000254F1A78254B14001B7839680133E00110
:10FD2000405CFF2829D00134E4B29C4200D1012478
:10FD30009442F4D1802300265B051B69DB09019303
:10FD4000E30100933B68E2019D182B7828005A429A
:10FD50005341F61815F094FB002810D0002304E05E
:10FD6000DA01AA5C002A0AD10133019A9342F7D141
:10FD70003868009BC01815F079FB2000FEBD0B4BC6
:10FD800001341B78E4B201339C4200D10124054BBD
:10FD90001B78A342D4D1072E02D915F024F9B6E777
:10FDA000FF24EAE7262E0020C02A0020232E002070
:10FDB000F7B507000D0001240E4B1B7801930E4B85
:10FDC0001E68019BA34202D2FF242000FEBDE10178
:10FDD00071180B78FE2B09D18B78AB4206D1033119
:10FDE0002A00380018F01EFA0028EED00134E4B2E0
:10FDF000E7E7C046232E0020C02A002010B5054AA0
:10FE000003791068DB01C018817800220330F9F70C
:10FE10003DF810BDC02A0020F0B585B002900D005D
:10FE200016000393782949D8FFF7C2FF0400002E7B
:10FE30003CD0FF2801D0FFF795FEFFF767FF0400D5
:10FE4000FF2803D11E491F4815F06FFB1E4FC0014C
:10FE50003B680190FE21181815F0FCFA3B68019AE6
:10FE6000E9B29818023015F0F5FA3868019B2A00BB
:10FE7000C0180330029901F0C3FE0C2011F070F994
:10FE8000039A0300002A17D0104A1A600E4A1C7108
:10FE900012685C71E4011419A278DE7102329A7161
:10FEA00001221A726A46127B5A7202E03300FF285E
:10FEB000E3D1180005B0F0BD054AE6E70023F8E7F6
:10FEC000EB70030020DA0200C02A0020F09002004C
:10FED0009C91020007B501A9F9F730FC0199FFF7E1
:10FEE00067FFFF2803D10449044815F01EFBFFF704
:10FEF00039FE03480EBDC0463C09030020DA02006B
:10FF0000488B0200F7B50192027A04000091002AA2
:10FF100002D1244802F08AFDC579002D06D1224A7B
:10FF200017680279D201D25D002A05D10922012584
:10FF30001A606D422800FEBD61797E22C9017918E0
:10FF400008007F30A3790078D21AFF2809D12079E0
:10FF5000C00138184078FF2819D0C01A824200D951
:10FF600002000198461B964200D91600002EE1D0EF
:10FF7000009A01335019C918320018F062F9A379B8
:10FF80009B19DBB27E2B04D0A371AD19D4E70022FC
:10FF9000E7E70023A3716379DB01FB187F331B784C
:10FFA0006371F2E701710300C02A0020F0B585B04B
:10FFB0000393037A040002910192002B02D130488E
:10FFC00002F034FDC379002B08D02E4A0379126861
:10FFD000DB019B5C019A0092002B25D10923039A37
:10FFE00013600A3B0193019805B0F0BD7E22A3790E
:10FFF000D71A009A974200D917006079214E013331
:020000040001F9
:10000000C001C01833683A001818029901F0F8FDD1
:10001000A379DB19DBB27E2B0AD0A371029BDB191B
:100020000293009BDB1B0093009B002BDED1DAE7E1
:100030000023A371FFF76AFE0500FF2809D120798C
:10004000FFF790FD002323721C23039A13601D3BCE
:10005000C8E760793368C001181829007F3015F0AF
:10006000F9F93368ED015819617915F0F3F96279FE
:100070003368D2019B187F331B786371CEE7C0468B
:1000800001710300C02A0020002170B5080011F0A2
:1000900055F9012405000C4B1B78A34201D228001E
:1000A00070BD0A4AE3011068C0180378FE2B08D11E
:1000B000817800220330F8F7E9FE01002800F3F709
:1000C000F1F90134E4B2E6E7232E0020C02A002033
:1000D00073B501A9F9F732FB0199FFF769FEFF2813
:1000E00003D10E490E4815F020FA00257E260D4B4F
:1000F0001C68C301E31859789B780233DBB2C20154
:10010000A2187F321078FF2804D1C81A401912F0C3
:1001100068FB76BDF31AED180023F0E73C090300F5
:1001200020DA0200C02A00201FB5034A034B13F057
:1001300056FF05B000BDC046B9FB000091FB0000B2
:10014000F7B503780400002B1FD0402B20D10123EA
:100150000193002304221E001D00190094462278FA
:10016000002A3ED10132002910DC002D0EDC002EC9
:100170000CDC033B934209D9013C23785C2B05D06E
:100180000199002901D00A2B00D100221000FEBDE8
:100190003F4914F091FF0028D9D13E49200014F0C6
:1001A0008BFF0028D3D13C49200014F085FF0028A4
:1001B000CDD13A49200014F07FFF0028C7D138493B
:1001C000200014F079FF0028C1D13649200014F036
:1001D00073FF0028BBD13449200014F06DFF01905B
:1001E000B7E76778272A11D1002B4DD0032B09D10F
:1001F000272F05D1A278272A04D10234243AD31A12
:100200000134ACE7012BFBD80122F8E7222A11D1F7
:100210001A006046824309D1222F05D1A278222AF2
:1002200002D102346246EAE7002B01D0022BE7D16B
:100230000222E4E75C2A0AD1272F03D0222F01D023
:100240005C2F04D11A00571EBA41A418D8E7002B1E
:10025000D6D15B2A12D006D8282A0DD0293A574287
:100260005741C91BCCE77B2A0AD07D2A0AD05D3AC8
:1002700057425741ED1BC3E70131C1E70135BFE7E5
:100280000136BDE7013EBBE7272FBDD1B2E7C0462F
:100290007A6E0300AB6E0300916E0300A76E03003D
:1002A000DF380300537F030082710300F0B58BB089
:1002B000079343180390049201930093009B5C1EE4
:1002C000039BA34201D9009310E02078FDF730FC96
:1002D000002801D00094F1E72078FDF735FC0028D4
:1002E000F8D123785F2BF5D02E2BF3D07D4B1D68F2
:1002F000009C019B9C4202D223782E2B21D1009B93
:10030000E71A019B9C4241D30024260002940194E9
:10031000AB68A34256D8019B002B00D084E0009B21
:10032000039A93422FD1704C3A002100180017F025
:1003300079FF002827D1079BE41907301C60C01BF8
:1003400022E00134D5E70136AB68B3421BD9F30094
:100350000293EB68F20098580028F4D00428F2D0F9
:1003600009A9F9F7EBF9099B0100BB42EBD13A006F
:10037000009817F0AFFF0028E5D1EB68029A9B18B0
:100380005868002804D100200BB0F0BD0026DBE740
:10039000032318420CD10368544A934205D115F047
:1003A0007BFD0500631C0093A2E7514A934201D0F4
:1003B000F7F72AFA856B002DE5D04E4B2A689A4252
:1003C000F0D0E0E7EA68E300985800281CD0042841
:1003D0001AD009A9F9F7B2F9099B06900593BB4217
:1003E00012D301003A00009817F074FF00280BD1D7
:1003F000029B002B12D03B009E4202D3059A9A42E8
:1004000004D2019B01330193013481E7029AD15C4C
:10041000069AD25C914205D10133EDE7069B059E19
:100420000293EEE71E00ECE7019B012B01D0BE42D8
:1004300054D9029B079ADB191360F01BA4E7029BB7
:10044000EA68DB00985800283AD0042838D009A977
:10045000F9F774F9099B03900593BB4230D301006F
:100460003A00009817F036FF0190002828D1330099
:100470000F220F33DC171440E41824112401A41BAD
:10048000012C00DC1034059A33199B18402B0DD930
:10049000039A1949049810F0E0FB099E10E01749EF
:1004A000049810F019FB019B01330193019B9C42BE
:1004B000F5DC0399049810F00FFB099BF618361928
:1004C000029B01330293AB68029A9342B7D80C495E
:1004D000049810F001FB0120404255E7002340261C
:1004E0000293F0E7642E00201E710300A4D30200E3
:1004F000BCCE0200E8C9020026710300B01B030055
:10050000D2230300002803D0012807D0002004E0F4
:100510008B680448002B00D1034870478B685B0050
:100520001843FAE780DC020078DC0200034B4860E5
:100530000B60002308008B60CB60704704CB020087
:100540007FB504000122080001A9F7F7FFFB002294
:1005500021794020F7F7E8FD01000500029809F035
:1005600091FA636806001A0A824218D2A368C11879
:100570006943E06810F012FE6368E060DBB22A00B5
:10058000A06863606843E36872431818019917F024
:1005900058FEA36804489E19A66004B070BD121AE4
:1005A0001202DBB21343EAE7488B0200F7B5FF27DC
:1005B000456804000191BD431DD101792A00402006
:1005C000F7F7B2FD636806003B408027A1683F0152
:1005D0001F43083141436760E06810F0DFFD636846
:1005E000E0601A0AA368013A013372435E432900AE
:1005F000801917F042FE2079019BA268E168F7F7A5
:1006000033FFA36803480133A3606368013BFF3BEA
:100610006360FEBD488B0200F8B5002207000D00A4
:1006200001004020F7F780FD0600102010F098FD33
:10063000084B0400012F00D0074B280027712360CE
:100640006368A560DBB27043636010F089FDE06011
:100650002000F8BD9CCB020060CB020070B5060004
:100660008AB00C00150012285CD003D8052826D0CB
:10067000002454E01B2800D16CE01F28F8D101228F
:1006800007A9280011F089FC032300284FD01C4241
:1006900013D13B4B22689A420FD1012204A92000BA
:1006A00014F029FD0123079A00930599089B0498EB
:1006B00011F094FE334C002831D1334C2FE001224D
:1006C00004A9200014F017FD2800012207A9F7F75C
:1006D0003DFB069B002203936B464020197BF7F7F6
:1006E00023FD01000600089809F0CCF9069BA168DB
:1006F00003936B4641180500187BFFF78DFF059BA0
:1007000004001A000499C068039317F09AFD2A00A8
:100710000598E36872431818079917F092FD2000B6
:100720000AB070BD11002000FFF70AFFF7E7EA07E3
:100730000DD41D4203D1154B2A689A4207D00323DA
:100740002B40022BB9D1124B1D40062DB5D01148BC
:1007500002F05EFB012204A9200014F0CCFC01226F
:1007600007A9280011F019FC0028A6D0089B059ABB
:1007700000930499079B300010F021FB9AE7C046D4
:100780009CCB020080DC020078DC02006C95020049
:10079000070080FF040A0300F0B5050087B00E00D3
:1007A000012808D08B0726D10B68264A934202D035
:1007B000254A93421FD1012203A9300011F0EDFB1D
:1007C000002818D0002229004020F7F7ADFC0100D6
:1007D0000700049809F056F9060001002800FFF709
:1007E0001BFF320004007A430399C06817F029FD0B
:1007F000200007B0F0BD3000F7F708FA071E00D060
:10080000471039002800FFF707FF002104003000DF
:1008100001F0DCFC00260090009801F039FD031E79
:10082000E6D0002F04D119002000FFF7BFFEF3E748
:10083000721C0192E16832002800F7F715FE019E54
:10084000EAE7C046ACA302009CCB020070B50E796B
:1008500004000D00012E0DD1194910F03DF93300AF
:10086000AA68E9682000F8F777FA1649200010F026
:1008700033F970BD3200144910F0EFF9AB68002B6A
:10088000F3D01249200010F027F90026AB68B342DC
:1008900004D80F49200010F01FF9E6E7002E03D01E
:1008A0000C49200010F018F93200E9682879F7F7B0
:1008B000A3FC012201002000F6F7BEFF0136E5E7A8
:1008C0002A710300F41C0300367103004171030018
:1008D000556C0300C5F5020070B5050086B0161E04
:1008E00044D0032480680C402BD1214B0A689A42E3
:1008F00027D103AAF0F7F8FC002802D11D4802F026
:1009000087FA042E1AD1220029794020F7F70CFC2F
:10091000049B06000093039B28790193019A009B96
:10092000991AFFF779FE0399049A0400521A714349
:100930007243EE68C068711817F083FC200006B09F
:1009400070BD0A00002301002868F7F71DF90200B6
:100950002879042E04D1E968F7F74EFC0400EDE78E
:100960003300E968F7F780FD034CE7E71400E5E79B
:10097000E0D50200EF0C0300488B020037B50C00F5
:10098000110000221D0000920123200001F062F9F5
:10099000002C05D121000120FFF73EFE040016E0E7
:1009A0002968CB0705D48B0713D10C4B0A689A42F0
:1009B0000FD10800F7F710F8010005000120FFF73C
:1009C0002BFE2A0004000021C06817F056FC20000E
:1009D0003EBD0120FFF7E0FEE0E7C0466C95020057
:1009E000044B054A98331B6804481A60044A9A80ED
:1009F0007047C046642E002078000400488B020037
:100A000004040000084A10B5130098331B68997954
:100A1000002908D0916C0029F9D0002199711B6937
:100A2000587901F047F810BD642E002013B5084C2A
:100A300098342368188811F0D4FE236800905888F1
:100A400011F0CFFE694601900220F4F70DFA16BDB1
:100A5000642E002010B50D4C002803D00868F2F772
:100A600049FA04000A492000FAF7BAFD607900212A
:100A700001F020F82000FAF79DFD0022054B064802
:100A800098331B681A619A7110BDC0462094020009
:100A900020B60200642E0020488B02001FB50C4BCC
:100AA00002AC00930194022301F004F9029A002A97
:100AB00003D0084B98331B685A806268002A03D021
:100AC000044B98331B681A80034804B010BDC0461D
:100AD00018CD0200642E0020488B0200F0B5254B93
:100AE00089B004AC00930194042301F0E3F8224F91
:100AF000224A3B0098331B6804989A80204B03409D
:100B0000062B06D0830730D102681E4B92699A42A9
:100B10002BD1012303940293002598373B68186971
:100B2000FAF748FD3B6860681D61F2F7E3F9164982
:100B30000600FAF755FD3B68144A9D711268029948
:100B40009A60227B9981DA71DD81039A012900D1B3
:100B500012685A6101221E619A71237A002B01D01A
:100B6000FFF750FF0A4809B0F0BD03AA02A9F6F743
:100B7000D5FFD1E7D8CC0200642E00200404000089
:100B8000070080FFD99C000020B602005C2E0020E8
:100B9000488B0200F0B5274B89B004AD0195009356
:100BA000042301F087F86B68A868049E0393F2F7AA
:100BB000A1F9214F040098373B681869FAF7FAFC4D
:100BC00000223B681D491A612000FAF709FD60798F
:100BD00080212D7B00F06EFF002E1CD1607900F08B
:100BE000E9FF039B002B13DB0022134B14499833BE
:100BF0001B6803989A710968DA714118DA605A61C2
:100C0000023299601C619A71002D01D0FFF7FAFE43
:100C10000C4809B0F0BD31000B4808F033FF00F07C
:100C200025FF0028DDD0607900F0C4FF074801F0FF
:100C3000FDFEC046F8CC0200642E002020B6020063
:100C40005C2E0020488B020040420F0045710300DB
:100C500010B5182010F084FA064B98331860064B34
:100C60000360064B83800023837103614361044862
:100C700010BDC046642E002078000400040400006B
:100C8000488B0200F0B56D4C87B02600983633686B
:100C9000002B40D09A79002A3DD0694D99682A6886
:100CA000914238D89A79022A0BD11B6900215879D0
:100CB00000F000FF2B6832680A33936001239371C0
:100CC00029E09A79012A26D19A89D989914204D3B7
:100CD000DD79002D19D00021D9815869012A02D06F
:100CE000DA8992001058574A904216D11B690021A8
:100CF0005879983400F0DEFE24685348218808F0C3
:100D00004BFF0123A060A37105E09D711869FAF7FC
:100D100051FC33681D6107B0F0BD05A9F8F70EFD61
:100D20009834236801901B69802158790293059EAD
:100D300000F0C0FE019B24681F781F2321884248D1
:100D40001F4008F029FF618808F026FF7D1EEDB2E4
:100D50000390012E5AD9019B5B78232B4DD0622B37
:100D600050D1002D4BD0023FFDB26A1E53425A4172
:100D70005242022E4ED0012102230198C05C3A2833
:100D800003D00F27384020710133207984469E42DA
:100D90000ED90198C05C3A280AD1581C864207D95E
:100DA000019F0233385C0F2738409E4235D860716E
:100DB000092D3DD86346043B9A1852B26F00234B6D
:100DC000002900D1224BD85B002A2EDB104100F015
:100DD0004DFE1A4B039998331A68537959430B0007
:100DE00017490A3B09680A2B00DA0A235B1893604B
:100DF000D3890133D381022361E70022B9E72A00B6
:100E00000625B6E7002101230A00B6E700210123E9
:100E10000A00BAE733000121B7E70A267043019EB2
:100E20006071F65C3E408019C1E752429040CEE7C7
:100E3000029B0021587900F03DFECAE7642E002095
:100E40005C2E0020488B020060EA0000C4EE020025
:100E5000B6EE0200F8B5124A0E00124B124990424B
:100E60001AD0C4688C4203D0012430602000F8BD41
:100E7000406B002812D004689C42F0D10500002489
:100E800047680835BF00EF19BD42EFD2310001CDF0
:100E9000FFF7E0FF2418F7E70024E7E70400E5E7A1
:100EA000A4D50200E49902009D0F0100F7B50500EA
:100EB0000C00AB68002B0AD0344AE168914206D09E
:100EC000E358002B03D00422EB681A60F7BDA06B37
:100ED000002820D06B680430D90006230022194373
:100EE000F3F77CFC002816D0297C4268EB68286860
:100EF000002904D00100002001F090F8E6E7002866
:100F000007D02249E5688D4203D021498C4200D0A8
:100F100000692100F0E72B68002B16D1646B002CD0
:100F2000D4D01C4B22681A4F9A420BD1260063681A
:100F3000194A08369B189B00F3180193019B3468EB
:100F40009E4216D3BC42B4D1C0E72A7C002AE5D128
:100F50000E4AE1689142E1D00D4A9442DED0186910
:100F6000EA68696801F0B4F8EB681B68002BD5D01B
:100F7000ACE7BC4201D10436E0E721002800FFF7CE
:100F800095FFEB681B68002BF5D09FE79D0F0100D4
:100F9000A4D50200E4990200FFFFFF3FF0B58FB037
:100FA0000E0005A9019202930700FFF753FF041DED
:100FB000A400200010F0D4F80500002180C010F03B
:100FC0005EFA22002800103A1030002117F055F97F
:100FD000012E05D1029B1B680393042B00D189E0ED
:100FE00007AC08220021200017F047F9F222002365
:100FF00009A8FF324260E63AFF3A39008260C460D5
:1010000003740993FFF752FF079804282FD105981E
:10101000029BC468019A3100A04728612800F6F7B6
:10102000F3FBB84266D1EA220023FF32390009A857
:10103000089307930B9309950A92FFF737FF079BD5
:10104000002B57D00198304336D107AA010014F085
:1010500030FA0400294B9C424CD0200010F086FF4F
:1010600027490200274803F05FF9F2F783F90028C7
:10107000D4D0019A324306D106AB0121069700F085
:10108000AFFF0500CAE7019B5D00AD190135AD005A
:10109000280010F065F82A1F0390029980C017F00D
:1010A000D0F8711C039B019A206800F099FF05009D
:1010B000039810F084F8B1E7019B5C00A419023496
:1010C000A400200010F04CF822000700079B0299B2
:1010D00003600393089B083A4360083017F0B1F8A7
:1010E0003A000199300014F0E4F90400380010F0DF
:1010F00066F8AFE728000FB0F0BDC046488B02008D
:10110000A471030088DB0200F0B5146889B01700F1
:10111000002C0ED1436803AD82686960596B03925D
:10112000AC60EF602C74002905D111492800FFF74D
:10113000BDFE09B0F0BD0F4B0A689A4210D14B6852
:1011400008310E000193019B9C42EED0A300F158A0
:101150002800FFF7ABFE3B68002BEAD10134F2E731
:101160002800FFF7A3FE3B68002BE2D1DDE7C04675
:10117000A4D50200E499020010B54A6801490FF0B5
:101180006CFD10BD9E720300F0B58BB005000E0023
:10119000140000210822684617F06FF80021102281
:1011A00006A817F06AF8202307936B460595089365
:1011B0002968E023002C02D0042C10D1E623FF3351
:1011C00005A80693FFF772FE0221009F042F0ED19F
:1011D000220031002869F6F787FD0BB0F0BDFC2333
:1011E00005A85B000693FFF761FE0321EDE7381EBB
:1011F000F3D002AB002202950396049400F0F0FEB7
:10120000042CEAD00048E8E7488B0200F0B5204BF8
:101210008BB08200D35803AF0C00082200210600D7
:101220003800019317F029F8019B05AD6B6014237A
:10123000AB600023280021680594EF602B74FFF752
:1012400035FE0398042805D12169300000F056FED0
:101250000BB0F0BD00280AD0210014F022F9022EB4
:10126000F6D1F6F7E5FB440001202043F0E7022E1B
:1012700001D00020ECE7E2232168FF3328006B60F7
:10128000FFF714FE3B68002BF3D16400ECE7C04687
:10129000F8CE0200F0B55642564103238BB00C0045
:1012A0000190002117007642082203A81E4016F084
:1012B000E4FF0823079303AB0893002305ADF7363B
:1012C000FF36216828002B7405940696FFF7EEFD83
:1012D000039B002B09D1002F07D1F733FF3321687F
:1012E00028006B60AF60FFF7E1FD039804281AD176
:1012F0002069F6F789FA154BC2689A4211D1002F7E
:1013000007D02368586811F0FAFA010001980FF02D
:10131000E3FB80223A4321690198F6F78DFA0BB07E
:10132000F0BD3A00F7E7002805D0210014F0B9F825
:1013300000220100F0E7200010F018FE2300020058
:10134000034901980FF089FCE9E7C046E941010033
:101350005371030070B504000D000B490FF0BCFB86
:10136000696800222000F6F767FA084920000FF0AC
:10137000B3FBA96800222000F6F75EFA04492000BA
:101380000FF0AAFB70BDC0465C720300C5F50200F9
:10139000A972030010B5C468002C06D14268044944
:1013A000044802F0C1FFF1F7E5FFA04710BDC046B9
:1013B0006572030088DB0200F0B5154B89B016009A
:1013C0008200D5580C000C2200210700684616F058
:1013D00054FF182303A84560836000256B462168ED
:1013E000C36003940574FFF761FD009B042B06D1D5
:1013F00032002169380001F021FB09B0F0BD181E50
:10140000FBD06A4629000120029614F052F8F4E756
:1014100070CD0200F0B51700EE228DB004000393EA
:10142000002307A852004260CD3A05ADFF3A0E00F6
:1014300021688260C560037405936B600794FFF7B1
:1014400035FD0598002809D1200010F08FFD0C49CA
:1014500002000C4802F068FFF1F78CFF039B0428A0
:1014600006D13A003100206900F0BAFD0DB0F0BDA0
:10147000009332003B00696815F07DF8F6E7C0463E
:101480008871030088DB0200F0B50D0085B001A96A
:1014900007001600280002AA10F00AF9002301999B
:1014A000029899422CD13C200FF06CFE2A4B019AF5
:1014B00003602A4B04008360294B4760C360294BBB
:1014C0000361294B4361294B8361294BC361294B3C
:1014D0000362294B4362294BC362002A06D0029B58
:1014E0001968096B0163012A18D94563A66303A92A
:1014F0002000FFF7AFFC012813D9214801F05AFC66
:101500009A008258D468002C06D152681D491E48A2
:1015100002F00AFFF1F72EFF0133C2E71B684363B5
:10152000E4E7A36B0022181D1849F3F757F9051ECD
:101530000ED0032243681A400AD11968144B496837
:10154000994205D1031D0121124813F056FE68602F
:10155000200005B0F0BDC046BCCE020095120100CF
:101560009D0F0100151401000D120100B9130100B7
:101570006D51020089110100ED520200A3520200D8
:101580002E7203000572030088DB02008E0F00003C
:101590004502000044CE020037B50D001C000023B8
:1015A0001100009301220333280000F053FB012DAA
:1015B00004D0032D06D0074801F0FCFB2068F6F7A5
:1015C00023F93EBD2068F7F783FCA2686168FFF746
:1015D0005BFFF6E7827203001FB5064B0A0001931A
:1015E0004B6802938B68010001A8039300F0A2FDF1
:1015F00005B000BD80CE0200F8B50E0003271349E8
:10160000134AB0421CD003003B401BD104688C42FB
:101610001AD1406B002814D003689342F1D1050021
:1016200044680C4B0835E418A4002C192868A5421E
:10163000E5D23100FFF7E0FF002802D10435F5E7DD
:101640000120F8BD0020FCE71800FAE7BCCE02003C
:10165000E4990200FFFFFF3FF0B585B0050001915E
:1016600008008B0717D10B68134A93420BD1012353
:10167000029301AB03930024029E039FA6420DD167
:101680000E4805B0F0BD0E4A934204D103AA02A948
:1016900010F00EF8EFE70B4801F08CFBA300F958AF
:1016A000094B994206D02800FFF7A6FF002801D178
:1016B0000134E3E70548E4E7BCCE020078DC020031
:1016C000E4990200CC710300A4D5020080DC020082
:1016D00010B5830703D1054B02689A4202D0044833
:1016E00001F068FBFFF7B8FF10BDC046BCCE02009A
:1016F00065710300F0B505008BB008680C00F8F7C1
:1017000007F8049004A813F04DFE00260127049B5F
:1017100003900693069B197800291AD13000F3F73D
:10172000A3FB0122070007A96068F6F70FFB079BE0
:10173000089A05939B180193022D1FD9A068F6F70C
:101740004BF9002817DA089BC01814D5284801F077
:101750006DF90800FCF7F8F9002806D006A813F088
:1017600033FE069B1B78732B00D13800069B36187E
:1017700001330693CEE7059B181805900025B54266
:1017800002D338000BB0F0BD049B01241878FCF79D
:10179000DBF9002803D004A813F016FE0400059816
:1017A000019A03199A42D1D3049B1B78732B10D052
:1017B0002D19AB000293049B013C14D3197805AAA0
:1017C0000398F6F77BFD029AA300D31AFB18586022
:1017D000F1E72100F7F772FB059B1C19AB1C9B007E
:1017E00005940135D851049B01330493C7E7C046E3
:1017F000AB720300F0B589B0039101921E00F7F7B8
:1018000087FF049004A813F0CDFD00250290B54297
:1018100001D309B0F0BD049B18780028F9D0FCF77B
:1018200093F90124002803D004A813F0CDFD04008F
:10183000039B019A1B199A4202D21B4801F0F6F849
:10184000049B1B78732B10D02D190E9BAF00DF1952
:10185000049B002C24D0A20052421978BA5803AB42
:101860000298F6F78BFD013CF2E70E9B6F1CAD0072
:10187000E858012205A9F6F769FA069DA54200D9A4
:1018800025002A000599039816F0DBFC039B621BD8
:1018900058193D00002116F0F0FC039B1C1903941D
:1018A000049B01330493B2E7AB720300F0B50E0062
:1018B00089B0039001CE0F0013F09CFD441021006D
:1018C00004A80FF052FF069D22000021280016F008
:1018D000D4FC039B0096013B2A1929003868FFF7C6
:1018E00089FF04A90248F7F79BFA09B0F0BDC0468A
:1018F000ACA3020030B50C0089B00500022260687C
:1019000005A9F6F723FAA068F6F766F8002806DAC4
:10191000069B0393C01802D5084801F087F8059983
:10192000069AEB1E8A18091820000C3000902068D7
:10193000FFF760FF024809B030BDC046AB7203003C
:10194000488B0200F7B50020214A224E12783368F6
:10195000111D4900CC5A5F1859880190A020C0057C
:1019600084466405640D4C431B49A41209687878C9
:1019700007270500BD43F82D1DD00125C00885406F
:101980002800A1256746ED0001327851D2B2101D22
:101990004000C55A1F186D0558886D0D68438012A8
:1019A000001BE4D00A4C2270019A002A02D00A4A95
:1019B00033601160FEBD6046084A5C6884500029AF
:1019C00003D001220B00002101920A000C00DEE787
:1019D000272E0020C42A0020C82A00200C05000061
:1019E00010B572B600220F4B18681A6062B69042AA
:1019F00010D10D4B0D4A1B680D48934200D01000CA
:101A00001A7802705A8842805A6842600022197817
:101A10008A4200D310BD5100441859180989013277
:101A20002181F4E7C82A0020C42A0020CC2A002003
:101A3000FC2A0020044B054A1A600023044A136064
:101A4000044A13707047C046C42A002088CF0200A1
:101A5000C82A0020272E002010B578220249022033
:101A6000EEF79CFC10BDC04645190100421E084B14
:101A7000FF3A10B504009A4207D8FFF7B1FF054BB3
:101A8000241144801860002010BD01204042FBE773
:101A900040410F00C82A0020044B1B68002B01D1D5
:101AA000034B1B68588800017047C046C82A0020B5
:101AB000C42A0020F7B53D4A04000D000B009142F6
:101AC00000D913008022D200D31A0193FFF788FFB8
:101AD0000122A24046680092164207D12300A021AD
:101AE0000327C133FF339B00C9055F5000270378EC
:101AF0009F4206DB002D01D0132B0BD92C4B186015
:101B0000F7BD391D490042185278D208A24243D08D
:101B10000137EDE7009A191D32434260019A4900EE
:101B200055050A5A6D0DD20AD2022A430A525205AD
:101B3000E400520F4118144301334C700370851CAC
:101B4000012225E0009A013BDBB296430370466018
:101B5000BB42F4DD04335B001B5A0B52EFE72F004E
:101B6000131D5B00195A2E894905490D531E1C1D72
:101B70006400245A6405640D8C4204D9FC88023F39
:101B80007C81013BF3D205335B001E5201320235EA
:101B900003789A42E3DBB1E7002DD3D0019B5A05CD
:101BA0000B5A520DDB0ADB021343D6E7FF0300009A
:101BB000C82A002070B500210400FFF77BFF002138
:101BC0000D4B18680578A94200DB70BD0B1D5B004A
:101BD000C3185A78161CD208944201D00131F2E79A
:101BE0000822524232435A700123A021A340034AE3
:101BF000C9058B50E9E7C046C42A00200C05000047
